{
	"VaultStandard.sol": {
		"ERC4626": {
			"abi": [
				{
					"inputs": [
						{
							"internalType": "contract ERC20",
							"name": "_asset",
							"type": "address"
						},
						{
							"internalType": "string",
							"name": "_name",
							"type": "string"
						},
						{
							"internalType": "string",
							"name": "_symbol",
							"type": "string"
						}
					],
					"stateMutability": "nonpayable",
					"type": "constructor"
				},
				{
					"anonymous": false,
					"inputs": [
						{
							"indexed": true,
							"internalType": "address",
							"name": "owner",
							"type": "address"
						},
						{
							"indexed": true,
							"internalType": "address",
							"name": "spender",
							"type": "address"
						},
						{
							"indexed": false,
							"internalType": "uint256",
							"name": "amount",
							"type": "uint256"
						}
					],
					"name": "Approval",
					"type": "event"
				},
				{
					"anonymous": false,
					"inputs": [
						{
							"indexed": true,
							"internalType": "address",
							"name": "caller",
							"type": "address"
						},
						{
							"indexed": true,
							"internalType": "address",
							"name": "owner",
							"type": "address"
						},
						{
							"indexed": false,
							"internalType": "uint256",
							"name": "assets",
							"type": "uint256"
						},
						{
							"indexed": false,
							"internalType": "uint256",
							"name": "shares",
							"type": "uint256"
						}
					],
					"name": "Deposit",
					"type": "event"
				},
				{
					"anonymous": false,
					"inputs": [
						{
							"indexed": true,
							"internalType": "address",
							"name": "from",
							"type": "address"
						},
						{
							"indexed": true,
							"internalType": "address",
							"name": "to",
							"type": "address"
						},
						{
							"indexed": false,
							"internalType": "uint256",
							"name": "amount",
							"type": "uint256"
						}
					],
					"name": "Transfer",
					"type": "event"
				},
				{
					"anonymous": false,
					"inputs": [
						{
							"indexed": true,
							"internalType": "address",
							"name": "caller",
							"type": "address"
						},
						{
							"indexed": true,
							"internalType": "address",
							"name": "receiver",
							"type": "address"
						},
						{
							"indexed": true,
							"internalType": "address",
							"name": "owner",
							"type": "address"
						},
						{
							"indexed": false,
							"internalType": "uint256",
							"name": "assets",
							"type": "uint256"
						},
						{
							"indexed": false,
							"internalType": "uint256",
							"name": "shares",
							"type": "uint256"
						}
					],
					"name": "Withdraw",
					"type": "event"
				},
				{
					"inputs": [],
					"name": "DOMAIN_SEPARATOR",
					"outputs": [
						{
							"internalType": "bytes32",
							"name": "",
							"type": "bytes32"
						}
					],
					"stateMutability": "view",
					"type": "function"
				},
				{
					"inputs": [
						{
							"internalType": "address",
							"name": "",
							"type": "address"
						},
						{
							"internalType": "address",
							"name": "",
							"type": "address"
						}
					],
					"name": "allowance",
					"outputs": [
						{
							"internalType": "uint256",
							"name": "",
							"type": "uint256"
						}
					],
					"stateMutability": "view",
					"type": "function"
				},
				{
					"inputs": [
						{
							"internalType": "address",
							"name": "spender",
							"type": "address"
						},
						{
							"internalType": "uint256",
							"name": "amount",
							"type": "uint256"
						}
					],
					"name": "approve",
					"outputs": [
						{
							"internalType": "bool",
							"name": "",
							"type": "bool"
						}
					],
					"stateMutability": "nonpayable",
					"type": "function"
				},
				{
					"inputs": [],
					"name": "asset",
					"outputs": [
						{
							"internalType": "contract ERC20",
							"name": "",
							"type": "address"
						}
					],
					"stateMutability": "view",
					"type": "function"
				},
				{
					"inputs": [
						{
							"internalType": "address",
							"name": "",
							"type": "address"
						}
					],
					"name": "balanceOf",
					"outputs": [
						{
							"internalType": "uint256",
							"name": "",
							"type": "uint256"
						}
					],
					"stateMutability": "view",
					"type": "function"
				},
				{
					"inputs": [
						{
							"internalType": "uint256",
							"name": "shares",
							"type": "uint256"
						}
					],
					"name": "convertToAssets",
					"outputs": [
						{
							"internalType": "uint256",
							"name": "",
							"type": "uint256"
						}
					],
					"stateMutability": "view",
					"type": "function"
				},
				{
					"inputs": [
						{
							"internalType": "uint256",
							"name": "assets",
							"type": "uint256"
						}
					],
					"name": "convertToShares",
					"outputs": [
						{
							"internalType": "uint256",
							"name": "",
							"type": "uint256"
						}
					],
					"stateMutability": "view",
					"type": "function"
				},
				{
					"inputs": [],
					"name": "decimals",
					"outputs": [
						{
							"internalType": "uint8",
							"name": "",
							"type": "uint8"
						}
					],
					"stateMutability": "view",
					"type": "function"
				},
				{
					"inputs": [
						{
							"internalType": "uint256",
							"name": "assets",
							"type": "uint256"
						},
						{
							"internalType": "address",
							"name": "receiver",
							"type": "address"
						}
					],
					"name": "deposit",
					"outputs": [
						{
							"internalType": "uint256",
							"name": "shares",
							"type": "uint256"
						}
					],
					"stateMutability": "nonpayable",
					"type": "function"
				},
				{
					"inputs": [
						{
							"internalType": "address",
							"name": "",
							"type": "address"
						}
					],
					"name": "maxDeposit",
					"outputs": [
						{
							"internalType": "uint256",
							"name": "",
							"type": "uint256"
						}
					],
					"stateMutability": "view",
					"type": "function"
				},
				{
					"inputs": [
						{
							"internalType": "address",
							"name": "",
							"type": "address"
						}
					],
					"name": "maxMint",
					"outputs": [
						{
							"internalType": "uint256",
							"name": "",
							"type": "uint256"
						}
					],
					"stateMutability": "view",
					"type": "function"
				},
				{
					"inputs": [
						{
							"internalType": "address",
							"name": "owner",
							"type": "address"
						}
					],
					"name": "maxRedeem",
					"outputs": [
						{
							"internalType": "uint256",
							"name": "",
							"type": "uint256"
						}
					],
					"stateMutability": "view",
					"type": "function"
				},
				{
					"inputs": [
						{
							"internalType": "address",
							"name": "owner",
							"type": "address"
						}
					],
					"name": "maxWithdraw",
					"outputs": [
						{
							"internalType": "uint256",
							"name": "",
							"type": "uint256"
						}
					],
					"stateMutability": "view",
					"type": "function"
				},
				{
					"inputs": [
						{
							"internalType": "uint256",
							"name": "shares",
							"type": "uint256"
						},
						{
							"internalType": "address",
							"name": "receiver",
							"type": "address"
						}
					],
					"name": "mint",
					"outputs": [
						{
							"internalType": "uint256",
							"name": "assets",
							"type": "uint256"
						}
					],
					"stateMutability": "nonpayable",
					"type": "function"
				},
				{
					"inputs": [],
					"name": "name",
					"outputs": [
						{
							"internalType": "string",
							"name": "",
							"type": "string"
						}
					],
					"stateMutability": "view",
					"type": "function"
				},
				{
					"inputs": [
						{
							"internalType": "address",
							"name": "",
							"type": "address"
						}
					],
					"name": "nonces",
					"outputs": [
						{
							"internalType": "uint256",
							"name": "",
							"type": "uint256"
						}
					],
					"stateMutability": "view",
					"type": "function"
				},
				{
					"inputs": [
						{
							"internalType": "address",
							"name": "owner",
							"type": "address"
						},
						{
							"internalType": "address",
							"name": "spender",
							"type": "address"
						},
						{
							"internalType": "uint256",
							"name": "value",
							"type": "uint256"
						},
						{
							"internalType": "uint256",
							"name": "deadline",
							"type": "uint256"
						},
						{
							"internalType": "uint8",
							"name": "v",
							"type": "uint8"
						},
						{
							"internalType": "bytes32",
							"name": "r",
							"type": "bytes32"
						},
						{
							"internalType": "bytes32",
							"name": "s",
							"type": "bytes32"
						}
					],
					"name": "permit",
					"outputs": [],
					"stateMutability": "nonpayable",
					"type": "function"
				},
				{
					"inputs": [
						{
							"internalType": "uint256",
							"name": "assets",
							"type": "uint256"
						}
					],
					"name": "previewDeposit",
					"outputs": [
						{
							"internalType": "uint256",
							"name": "",
							"type": "uint256"
						}
					],
					"stateMutability": "view",
					"type": "function"
				},
				{
					"inputs": [
						{
							"internalType": "uint256",
							"name": "shares",
							"type": "uint256"
						}
					],
					"name": "previewMint",
					"outputs": [
						{
							"internalType": "uint256",
							"name": "",
							"type": "uint256"
						}
					],
					"stateMutability": "view",
					"type": "function"
				},
				{
					"inputs": [
						{
							"internalType": "uint256",
							"name": "shares",
							"type": "uint256"
						}
					],
					"name": "previewRedeem",
					"outputs": [
						{
							"internalType": "uint256",
							"name": "",
							"type": "uint256"
						}
					],
					"stateMutability": "view",
					"type": "function"
				},
				{
					"inputs": [
						{
							"internalType": "uint256",
							"name": "assets",
							"type": "uint256"
						}
					],
					"name": "previewWithdraw",
					"outputs": [
						{
							"internalType": "uint256",
							"name": "",
							"type": "uint256"
						}
					],
					"stateMutability": "view",
					"type": "function"
				},
				{
					"inputs": [
						{
							"internalType": "uint256",
							"name": "shares",
							"type": "uint256"
						},
						{
							"internalType": "address",
							"name": "receiver",
							"type": "address"
						},
						{
							"internalType": "address",
							"name": "owner",
							"type": "address"
						}
					],
					"name": "redeem",
					"outputs": [
						{
							"internalType": "uint256",
							"name": "assets",
							"type": "uint256"
						}
					],
					"stateMutability": "nonpayable",
					"type": "function"
				},
				{
					"inputs": [],
					"name": "symbol",
					"outputs": [
						{
							"internalType": "string",
							"name": "",
							"type": "string"
						}
					],
					"stateMutability": "view",
					"type": "function"
				},
				{
					"inputs": [],
					"name": "totalAssets",
					"outputs": [
						{
							"internalType": "uint256",
							"name": "",
							"type": "uint256"
						}
					],
					"stateMutability": "view",
					"type": "function"
				},
				{
					"inputs": [],
					"name": "totalSupply",
					"outputs": [
						{
							"internalType": "uint256",
							"name": "",
							"type": "uint256"
						}
					],
					"stateMutability": "view",
					"type": "function"
				},
				{
					"inputs": [
						{
							"internalType": "address",
							"name": "to",
							"type": "address"
						},
						{
							"internalType": "uint256",
							"name": "amount",
							"type": "uint256"
						}
					],
					"name": "transfer",
					"outputs": [
						{
							"internalType": "bool",
							"name": "",
							"type": "bool"
						}
					],
					"stateMutability": "nonpayable",
					"type": "function"
				},
				{
					"inputs": [
						{
							"internalType": "address",
							"name": "from",
							"type": "address"
						},
						{
							"internalType": "address",
							"name": "to",
							"type": "address"
						},
						{
							"internalType": "uint256",
							"name": "amount",
							"type": "uint256"
						}
					],
					"name": "transferFrom",
					"outputs": [
						{
							"internalType": "bool",
							"name": "",
							"type": "bool"
						}
					],
					"stateMutability": "nonpayable",
					"type": "function"
				},
				{
					"inputs": [
						{
							"internalType": "uint256",
							"name": "assets",
							"type": "uint256"
						},
						{
							"internalType": "address",
							"name": "receiver",
							"type": "address"
						},
						{
							"internalType": "address",
							"name": "owner",
							"type": "address"
						}
					],
					"name": "withdraw",
					"outputs": [
						{
							"internalType": "uint256",
							"name": "shares",
							"type": "uint256"
						}
					],
					"stateMutability": "nonpayable",
					"type": "function"
				}
			],
			"devdoc": {
				"author": "Solmate (https://github.com/Rari-Capital/solmate/blob/main/src/mixins/ERC4626.sol)",
				"kind": "dev",
				"methods": {},
				"version": 1
			},
			"evm": {
				"assembly": "    /* \"VaultStandard.sol\":550:10306  contract ERC4626 is ERC20 {... */\n  mstore(0x40, 0x0100)\n    /* \"VaultStandard.sol\":1435:1607  constructor(... */\n  callvalue\n  dup1\n  iszero\n  tag_1\n  jumpi\n  0x00\n  dup1\n  revert\ntag_1:\n  pop\n  mload(0x40)\n  sub(codesize, bytecodeSize)\n  dup1\n  bytecodeSize\n  dup4\n  codecopy\n  dup2\n  dup2\n  add\n  0x40\n  mstore\n  dup2\n  add\n  swap1\n  tag_2\n  swap2\n  swap1\n  tag_3\n  jump\t// in\ntag_2:\n    /* \"VaultStandard.sol\":1541:1546  _name */\n  dup2\n    /* \"VaultStandard.sol\":1548:1555  _symbol */\n  dup2\n    /* \"VaultStandard.sol\":1557:1563  _asset */\n  dup5\n    /* \"VaultStandard.sol\":1557:1572  _asset.decimals */\n  0xffffffffffffffffffffffffffffffffffffffff\n  and\n  0x313ce567\n    /* \"VaultStandard.sol\":1557:1574  _asset.decimals() */\n  mload(0x40)\n  dup2\n  0xffffffff\n  and\n  0xe0\n  shl\n  dup2\n  mstore\n  0x04\n  add\n  0x20\n  mload(0x40)\n  dup1\n  dup4\n  sub\n  dup2\n  dup7\n  dup1\n  extcodesize\n  iszero\n  dup1\n  iszero\n  tag_5\n  jumpi\n  0x00\n  dup1\n  revert\ntag_5:\n  pop\n  gas\n  staticcall\n  iszero\n  dup1\n  iszero\n  tag_7\n  jumpi\n  returndatasize\n  0x00\n  dup1\n  returndatacopy\n  revert(0x00, returndatasize)\ntag_7:\n  pop\n  pop\n  pop\n  pop\n  mload(0x40)\n  returndatasize\n  not(0x1f)\n  0x1f\n  dup3\n  add\n  and\n  dup3\n  add\n  dup1\n  0x40\n  mstore\n  pop\n  dup2\n  add\n  swap1\n  tag_8\n  swap2\n  swap1\n  tag_9\n  jump\t// in\ntag_8:\n    /* \"https://github.com/Rari-Capital/solmate/blob/main/src/tokens/ERC20.sol\":2098:2103  _name */\n  dup3\n    /* \"https://github.com/Rari-Capital/solmate/blob/main/src/tokens/ERC20.sol\":2091:2095  name */\n  0x00\n    /* \"https://github.com/Rari-Capital/solmate/blob/main/src/tokens/ERC20.sol\":2091:2103  name = _name */\n  swap1\n  dup1\n  mload\n  swap1\n  0x20\n  add\n  swap1\n  tag_12\n  swap3\n  swap2\n  swap1\n  tag_13\n  jump\t// in\ntag_12:\n  pop\n    /* \"https://github.com/Rari-Capital/solmate/blob/main/src/tokens/ERC20.sol\":2122:2129  _symbol */\n  dup2\n    /* \"https://github.com/Rari-Capital/solmate/blob/main/src/tokens/ERC20.sol\":2113:2119  symbol */\n  0x01\n    /* \"https://github.com/Rari-Capital/solmate/blob/main/src/tokens/ERC20.sol\":2113:2129  symbol = _symbol */\n  swap1\n  dup1\n  mload\n  swap1\n  0x20\n  add\n  swap1\n  tag_14\n  swap3\n  swap2\n  swap1\n  tag_13\n  jump\t// in\ntag_14:\n  pop\n    /* \"https://github.com/Rari-Capital/solmate/blob/main/src/tokens/ERC20.sol\":2150:2159  _decimals */\n  dup1\n    /* \"https://github.com/Rari-Capital/solmate/blob/main/src/tokens/ERC20.sol\":2139:2159  decimals = _decimals */\n  0xff\n  and\n  0x80\n  dup2\n  0xff\n  and\n  0xf8\n  shl\n  dup2\n  mstore\n  pop\n  pop\n    /* \"https://github.com/Rari-Capital/solmate/blob/main/src/tokens/ERC20.sol\":2189:2202  block.chainid */\n  chainid\n    /* \"https://github.com/Rari-Capital/solmate/blob/main/src/tokens/ERC20.sol\":2170:2202  INITIAL_CHAIN_ID = block.chainid */\n  0xa0\n  dup2\n  dup2\n  mstore\n  pop\n  pop\n    /* \"https://github.com/Rari-Capital/solmate/blob/main/src/tokens/ERC20.sol\":2239:2263  computeDomainSeparator() */\n  tag_15\n    /* \"https://github.com/Rari-Capital/solmate/blob/main/src/tokens/ERC20.sol\":2239:2261  computeDomainSeparator */\n  shl(0x20, tag_16)\n    /* \"https://github.com/Rari-Capital/solmate/blob/main/src/tokens/ERC20.sol\":2239:2263  computeDomainSeparator() */\n  0x20\n  shr\n  jump\t// in\ntag_15:\n    /* \"https://github.com/Rari-Capital/solmate/blob/main/src/tokens/ERC20.sol\":2212:2263  INITIAL_DOMAIN_SEPARATOR = computeDomainSeparator() */\n  0xc0\n  dup2\n  dup2\n  mstore\n  pop\n  pop\n    /* \"https://github.com/Rari-Capital/solmate/blob/main/src/tokens/ERC20.sol\":1978:2270  constructor(... */\n  pop\n  pop\n  pop\n    /* \"VaultStandard.sol\":1594:1600  _asset */\n  dup3\n    /* \"VaultStandard.sol\":1586:1600  asset = _asset */\n  0xffffffffffffffffffffffffffffffffffffffff\n  and\n  0xe0\n  dup2\n  0xffffffffffffffffffffffffffffffffffffffff\n  and\n  0x60\n  shl\n  dup2\n  mstore\n  pop\n  pop\n    /* \"VaultStandard.sol\":1435:1607  constructor(... */\n  pop\n  pop\n  pop\n    /* \"VaultStandard.sol\":550:10306  contract ERC4626 is ERC20 {... */\n  jump(tag_18)\n    /* \"https://github.com/Rari-Capital/solmate/blob/main/src/tokens/ERC20.sol\":5507:5953  function computeDomainSeparator() internal view virtual returns (bytes32) {... */\ntag_16:\n    /* \"https://github.com/Rari-Capital/solmate/blob/main/src/tokens/ERC20.sol\":5572:5579  bytes32 */\n  0x00\n    /* \"https://github.com/Rari-Capital/solmate/blob/main/src/tokens/ERC20.sol\":5669:5764  keccak256(\"EIP712Domain(string name,string version,uint256 chainId,address verifyingContract)\") */\n  0x8b73c3c69bb8fe3d512ecc4cf759cc79239f7b179b0ffacaa9a75d522b39400f\n    /* \"https://github.com/Rari-Capital/solmate/blob/main/src/tokens/ERC20.sol\":5802:5806  name */\n  0x00\n    /* \"https://github.com/Rari-Capital/solmate/blob/main/src/tokens/ERC20.sol\":5786:5808  keccak256(bytes(name)) */\n  mload(0x40)\n  tag_20\n  swap2\n  swap1\n  tag_21\n  jump\t// in\ntag_20:\n  mload(0x40)\n  dup1\n  swap2\n  sub\n  swap1\n  keccak256\n    /* \"https://github.com/Rari-Capital/solmate/blob/main/src/tokens/ERC20.sol\":5830:5844  keccak256(\"1\") */\n  0xc89efdaa54c0f20c7adf612882df0950f5a951637e0307cdcb4c672f298b8bc6\n    /* \"https://github.com/Rari-Capital/solmate/blob/main/src/tokens/ERC20.sol\":5866:5879  block.chainid */\n  chainid\n    /* \"https://github.com/Rari-Capital/solmate/blob/main/src/tokens/ERC20.sol\":5909:5913  this */\n  address\n    /* \"https://github.com/Rari-Capital/solmate/blob/main/src/tokens/ERC20.sol\":5637:5932  abi.encode(... */\n  add(0x20, mload(0x40))\n  tag_22\n  swap6\n  swap5\n  swap4\n  swap3\n  swap2\n  swap1\n  tag_23\n  jump\t// in\ntag_22:\n  mload(0x40)\n  0x20\n  dup2\n  dup4\n  sub\n  sub\n  dup2\n  mstore\n  swap1\n  0x40\n  mstore\n    /* \"https://github.com/Rari-Capital/solmate/blob/main/src/tokens/ERC20.sol\":5610:5946  keccak256(... */\n  dup1\n  mload\n  swap1\n  0x20\n  add\n  keccak256\n    /* \"https://github.com/Rari-Capital/solmate/blob/main/src/tokens/ERC20.sol\":5591:5946  return... */\n  swap1\n  pop\n    /* \"https://github.com/Rari-Capital/solmate/blob/main/src/tokens/ERC20.sol\":5507:5953  function computeDomainSeparator() internal view virtual returns (bytes32) {... */\n  swap1\n  jump\t// out\n    /* \"VaultStandard.sol\":550:10306  contract ERC4626 is ERC20 {... */\ntag_13:\n  dup3\n  dup1\n  sload\n  tag_24\n  swap1\n  tag_25\n  jump\t// in\ntag_24:\n  swap1\n  0x00\n  mstore\n  keccak256(0x00, 0x20)\n  swap1\n  0x1f\n  add\n  0x20\n  swap1\n  div\n  dup2\n  add\n  swap3\n  dup3\n  tag_27\n  jumpi\n  0x00\n  dup6\n  sstore\n  jump(tag_26)\ntag_27:\n  dup3\n  0x1f\n  lt\n  tag_28\n  jumpi\n  dup1\n  mload\n  not(0xff)\n  and\n  dup4\n  dup1\n  add\n  or\n  dup6\n  sstore\n  jump(tag_26)\ntag_28:\n  dup3\n  dup1\n  add\n  0x01\n  add\n  dup6\n  sstore\n  dup3\n  iszero\n  tag_26\n  jumpi\n  swap2\n  dup3\n  add\ntag_29:\n  dup3\n  dup2\n  gt\n  iszero\n  tag_30\n  jumpi\n  dup3\n  mload\n  dup3\n  sstore\n  swap2\n  0x20\n  add\n  swap2\n  swap1\n  0x01\n  add\n  swap1\n  jump(tag_29)\ntag_30:\ntag_26:\n  pop\n  swap1\n  pop\n  tag_31\n  swap2\n  swap1\n  tag_32\n  jump\t// in\ntag_31:\n  pop\n  swap1\n  jump\t// out\ntag_32:\ntag_33:\n  dup1\n  dup3\n  gt\n  iszero\n  tag_34\n  jumpi\n  0x00\n  dup2\n  0x00\n  swap1\n  sstore\n  pop\n  0x01\n  add\n  jump(tag_33)\ntag_34:\n  pop\n  swap1\n  jump\t// out\n    /* \"#utility.yul\":7:360   */\ntag_36:\n  0x00\n    /* \"#utility.yul\":121:186   */\n  tag_38\n    /* \"#utility.yul\":136:185   */\n  tag_39\n    /* \"#utility.yul\":178:184   */\n  dup5\n    /* \"#utility.yul\":136:185   */\n  tag_40\n  jump\t// in\ntag_39:\n    /* \"#utility.yul\":121:186   */\n  tag_41\n  jump\t// in\ntag_38:\n    /* \"#utility.yul\":112:186   */\n  swap1\n  pop\n    /* \"#utility.yul\":209:215   */\n  dup3\n    /* \"#utility.yul\":202:207   */\n  dup2\n    /* \"#utility.yul\":195:216   */\n  mstore\n    /* \"#utility.yul\":247:251   */\n  0x20\n    /* \"#utility.yul\":240:245   */\n  dup2\n    /* \"#utility.yul\":236:252   */\n  add\n    /* \"#utility.yul\":285:288   */\n  dup5\n    /* \"#utility.yul\":276:282   */\n  dup5\n    /* \"#utility.yul\":271:274   */\n  dup5\n    /* \"#utility.yul\":267:283   */\n  add\n    /* \"#utility.yul\":264:289   */\n  gt\n    /* \"#utility.yul\":261:263   */\n  iszero\n  tag_42\n  jumpi\n    /* \"#utility.yul\":302:303   */\n  0x00\n    /* \"#utility.yul\":299:300   */\n  dup1\n    /* \"#utility.yul\":292:304   */\n  revert\n    /* \"#utility.yul\":261:263   */\ntag_42:\n    /* \"#utility.yul\":315:354   */\n  tag_43\n    /* \"#utility.yul\":347:353   */\n  dup5\n    /* \"#utility.yul\":342:345   */\n  dup3\n    /* \"#utility.yul\":337:340   */\n  dup6\n    /* \"#utility.yul\":315:354   */\n  tag_44\n  jump\t// in\ntag_43:\n    /* \"#utility.yul\":102:360   */\n  pop\n  swap4\n  swap3\n  pop\n  pop\n  pop\n  jump\t// out\n    /* \"#utility.yul\":366:535   */\ntag_45:\n  0x00\n    /* \"#utility.yul\":467:473   */\n  dup2\n    /* \"#utility.yul\":461:474   */\n  mload\n    /* \"#utility.yul\":452:474   */\n  swap1\n  pop\n    /* \"#utility.yul\":483:529   */\n  tag_47\n    /* \"#utility.yul\":523:528   */\n  dup2\n    /* \"#utility.yul\":483:529   */\n  tag_48\n  jump\t// in\ntag_47:\n    /* \"#utility.yul\":442:535   */\n  swap3\n  swap2\n  pop\n  pop\n  jump\t// out\n    /* \"#utility.yul\":555:843   */\ntag_49:\n  0x00\n    /* \"#utility.yul\":671:674   */\n  dup3\n    /* \"#utility.yul\":664:668   */\n  0x1f\n    /* \"#utility.yul\":656:662   */\n  dup4\n    /* \"#utility.yul\":652:669   */\n  add\n    /* \"#utility.yul\":648:675   */\n  slt\n    /* \"#utility.yul\":638:640   */\n  tag_51\n  jumpi\n    /* \"#utility.yul\":689:690   */\n  0x00\n    /* \"#utility.yul\":686:687   */\n  dup1\n    /* \"#utility.yul\":679:691   */\n  revert\n    /* \"#utility.yul\":638:640   */\ntag_51:\n    /* \"#utility.yul\":722:728   */\n  dup2\n    /* \"#utility.yul\":716:729   */\n  mload\n    /* \"#utility.yul\":747:837   */\n  tag_52\n    /* \"#utility.yul\":833:836   */\n  dup5\n    /* \"#utility.yul\":825:831   */\n  dup3\n    /* \"#utility.yul\":818:822   */\n  0x20\n    /* \"#utility.yul\":810:816   */\n  dup7\n    /* \"#utility.yul\":806:823   */\n  add\n    /* \"#utility.yul\":747:837   */\n  tag_36\n  jump\t// in\ntag_52:\n    /* \"#utility.yul\":738:837   */\n  swap2\n  pop\n    /* \"#utility.yul\":628:843   */\n  pop\n  swap3\n  swap2\n  pop\n  pop\n  jump\t// out\n    /* \"#utility.yul\":849:988   */\ntag_53:\n  0x00\n    /* \"#utility.yul\":935:941   */\n  dup2\n    /* \"#utility.yul\":929:942   */\n  mload\n    /* \"#utility.yul\":920:942   */\n  swap1\n  pop\n    /* \"#utility.yul\":951:982   */\n  tag_55\n    /* \"#utility.yul\":976:981   */\n  dup2\n    /* \"#utility.yul\":951:982   */\n  tag_56\n  jump\t// in\ntag_55:\n    /* \"#utility.yul\":910:988   */\n  swap3\n  swap2\n  pop\n  pop\n  jump\t// out\n    /* \"#utility.yul\":994:1828   */\ntag_3:\n  0x00\n  dup1\n  0x00\n    /* \"#utility.yul\":1180:1182   */\n  0x60\n    /* \"#utility.yul\":1168:1177   */\n  dup5\n    /* \"#utility.yul\":1159:1166   */\n  dup7\n    /* \"#utility.yul\":1155:1178   */\n  sub\n    /* \"#utility.yul\":1151:1183   */\n  slt\n    /* \"#utility.yul\":1148:1150   */\n  iszero\n  tag_58\n  jumpi\n    /* \"#utility.yul\":1196:1197   */\n  0x00\n    /* \"#utility.yul\":1193:1194   */\n  dup1\n    /* \"#utility.yul\":1186:1198   */\n  revert\n    /* \"#utility.yul\":1148:1150   */\ntag_58:\n    /* \"#utility.yul\":1239:1240   */\n  0x00\n    /* \"#utility.yul\":1264:1341   */\n  tag_59\n    /* \"#utility.yul\":1333:1340   */\n  dup7\n    /* \"#utility.yul\":1324:1330   */\n  dup3\n    /* \"#utility.yul\":1313:1322   */\n  dup8\n    /* \"#utility.yul\":1309:1331   */\n  add\n    /* \"#utility.yul\":1264:1341   */\n  tag_45\n  jump\t// in\ntag_59:\n    /* \"#utility.yul\":1254:1341   */\n  swap4\n  pop\n    /* \"#utility.yul\":1210:1351   */\n  pop\n    /* \"#utility.yul\":1411:1413   */\n  0x20\n    /* \"#utility.yul\":1400:1409   */\n  dup5\n    /* \"#utility.yul\":1396:1414   */\n  add\n    /* \"#utility.yul\":1390:1415   */\n  mload\n    /* \"#utility.yul\":1442:1460   */\n  0xffffffffffffffff\n    /* \"#utility.yul\":1434:1440   */\n  dup2\n    /* \"#utility.yul\":1431:1461   */\n  gt\n    /* \"#utility.yul\":1428:1430   */\n  iszero\n  tag_60\n  jumpi\n    /* \"#utility.yul\":1474:1475   */\n  0x00\n    /* \"#utility.yul\":1471:1472   */\n  dup1\n    /* \"#utility.yul\":1464:1476   */\n  revert\n    /* \"#utility.yul\":1428:1430   */\ntag_60:\n    /* \"#utility.yul\":1502:1576   */\n  tag_61\n    /* \"#utility.yul\":1568:1575   */\n  dup7\n    /* \"#utility.yul\":1559:1565   */\n  dup3\n    /* \"#utility.yul\":1548:1557   */\n  dup8\n    /* \"#utility.yul\":1544:1566   */\n  add\n    /* \"#utility.yul\":1502:1576   */\n  tag_49\n  jump\t// in\ntag_61:\n    /* \"#utility.yul\":1492:1576   */\n  swap3\n  pop\n    /* \"#utility.yul\":1361:1586   */\n  pop\n    /* \"#utility.yul\":1646:1648   */\n  0x40\n    /* \"#utility.yul\":1635:1644   */\n  dup5\n    /* \"#utility.yul\":1631:1649   */\n  add\n    /* \"#utility.yul\":1625:1650   */\n  mload\n    /* \"#utility.yul\":1677:1695   */\n  0xffffffffffffffff\n    /* \"#utility.yul\":1669:1675   */\n  dup2\n    /* \"#utility.yul\":1666:1696   */\n  gt\n    /* \"#utility.yul\":1663:1665   */\n  iszero\n  tag_62\n  jumpi\n    /* \"#utility.yul\":1709:1710   */\n  0x00\n    /* \"#utility.yul\":1706:1707   */\n  dup1\n    /* \"#utility.yul\":1699:1711   */\n  revert\n    /* \"#utility.yul\":1663:1665   */\ntag_62:\n    /* \"#utility.yul\":1737:1811   */\n  tag_63\n    /* \"#utility.yul\":1803:1810   */\n  dup7\n    /* \"#utility.yul\":1794:1800   */\n  dup3\n    /* \"#utility.yul\":1783:1792   */\n  dup8\n    /* \"#utility.yul\":1779:1801   */\n  add\n    /* \"#utility.yul\":1737:1811   */\n  tag_49\n  jump\t// in\ntag_63:\n    /* \"#utility.yul\":1727:1811   */\n  swap2\n  pop\n    /* \"#utility.yul\":1596:1821   */\n  pop\n    /* \"#utility.yul\":1138:1828   */\n  swap3\n  pop\n  swap3\n  pop\n  swap3\n  jump\t// out\n    /* \"#utility.yul\":1834:2114   */\ntag_9:\n  0x00\n    /* \"#utility.yul\":1951:1953   */\n  0x20\n    /* \"#utility.yul\":1939:1948   */\n  dup3\n    /* \"#utility.yul\":1930:1937   */\n  dup5\n    /* \"#utility.yul\":1926:1949   */\n  sub\n    /* \"#utility.yul\":1922:1954   */\n  slt\n    /* \"#utility.yul\":1919:1921   */\n  iszero\n  tag_65\n  jumpi\n    /* \"#utility.yul\":1967:1968   */\n  0x00\n    /* \"#utility.yul\":1964:1965   */\n  dup1\n    /* \"#utility.yul\":1957:1969   */\n  revert\n    /* \"#utility.yul\":1919:1921   */\ntag_65:\n    /* \"#utility.yul\":2010:2011   */\n  0x00\n    /* \"#utility.yul\":2035:2097   */\n  tag_66\n    /* \"#utility.yul\":2089:2096   */\n  dup5\n    /* \"#utility.yul\":2080:2086   */\n  dup3\n    /* \"#utility.yul\":2069:2078   */\n  dup6\n    /* \"#utility.yul\":2065:2087   */\n  add\n    /* \"#utility.yul\":2035:2097   */\n  tag_53\n  jump\t// in\ntag_66:\n    /* \"#utility.yul\":2025:2097   */\n  swap2\n  pop\n    /* \"#utility.yul\":1981:2107   */\n  pop\n    /* \"#utility.yul\":1909:2114   */\n  swap3\n  swap2\n  pop\n  pop\n  jump\t// out\n    /* \"#utility.yul\":2120:2238   */\ntag_67:\n    /* \"#utility.yul\":2207:2231   */\n  tag_69\n    /* \"#utility.yul\":2225:2230   */\n  dup2\n    /* \"#utility.yul\":2207:2231   */\n  tag_70\n  jump\t// in\ntag_69:\n    /* \"#utility.yul\":2202:2205   */\n  dup3\n    /* \"#utility.yul\":2195:2232   */\n  mstore\n    /* \"#utility.yul\":2185:2238   */\n  pop\n  pop\n  jump\t// out\n    /* \"#utility.yul\":2244:2362   */\ntag_71:\n    /* \"#utility.yul\":2331:2355   */\n  tag_73\n    /* \"#utility.yul\":2349:2354   */\n  dup2\n    /* \"#utility.yul\":2331:2355   */\n  tag_74\n  jump\t// in\ntag_73:\n    /* \"#utility.yul\":2326:2329   */\n  dup3\n    /* \"#utility.yul\":2319:2356   */\n  mstore\n    /* \"#utility.yul\":2309:2362   */\n  pop\n  pop\n  jump\t// out\n    /* \"#utility.yul\":2390:3239   */\ntag_75:\n  0x00\n    /* \"#utility.yul\":2532:2537   */\n  dup2\n    /* \"#utility.yul\":2526:2538   */\n  sload\n    /* \"#utility.yul\":2561:2597   */\n  tag_77\n    /* \"#utility.yul\":2587:2596   */\n  dup2\n    /* \"#utility.yul\":2561:2597   */\n  tag_25\n  jump\t// in\ntag_77:\n    /* \"#utility.yul\":2613:2701   */\n  tag_78\n    /* \"#utility.yul\":2694:2700   */\n  dup2\n    /* \"#utility.yul\":2689:2692   */\n  dup7\n    /* \"#utility.yul\":2613:2701   */\n  tag_79\n  jump\t// in\ntag_78:\n    /* \"#utility.yul\":2606:2701   */\n  swap5\n  pop\n    /* \"#utility.yul\":2732:2733   */\n  0x01\n    /* \"#utility.yul\":2721:2730   */\n  dup3\n    /* \"#utility.yul\":2717:2734   */\n  and\n    /* \"#utility.yul\":2748:2749   */\n  0x00\n    /* \"#utility.yul\":2743:2880   */\n  dup2\n  eq\n  tag_81\n  jumpi\n    /* \"#utility.yul\":2894:2895   */\n  0x01\n    /* \"#utility.yul\":2889:3233   */\n  dup2\n  eq\n  tag_82\n  jumpi\n    /* \"#utility.yul\":2710:3233   */\n  jump(tag_80)\n    /* \"#utility.yul\":2743:2880   */\ntag_81:\n    /* \"#utility.yul\":2827:2831   */\n  0xff\n    /* \"#utility.yul\":2823:2832   */\n  not\n    /* \"#utility.yul\":2812:2821   */\n  dup4\n    /* \"#utility.yul\":2808:2833   */\n  and\n    /* \"#utility.yul\":2803:2806   */\n  dup7\n    /* \"#utility.yul\":2796:2834   */\n  mstore\n    /* \"#utility.yul\":2863:2869   */\n  dup2\n    /* \"#utility.yul\":2858:2861   */\n  dup7\n    /* \"#utility.yul\":2854:2870   */\n  add\n    /* \"#utility.yul\":2847:2870   */\n  swap4\n  pop\n    /* \"#utility.yul\":2743:2880   */\n  jump(tag_80)\n    /* \"#utility.yul\":2889:3233   */\ntag_82:\n    /* \"#utility.yul\":2956:2997   */\n  tag_83\n    /* \"#utility.yul\":2991:2996   */\n  dup6\n    /* \"#utility.yul\":2956:2997   */\n  tag_84\n  jump\t// in\ntag_83:\n    /* \"#utility.yul\":3019:3020   */\n  0x00\n    /* \"#utility.yul\":3033:3187   */\ntag_85:\n    /* \"#utility.yul\":3047:3053   */\n  dup4\n    /* \"#utility.yul\":3044:3045   */\n  dup2\n    /* \"#utility.yul\":3041:3054   */\n  lt\n    /* \"#utility.yul\":3033:3187   */\n  iszero\n  tag_87\n  jumpi\n    /* \"#utility.yul\":3121:3128   */\n  dup2\n    /* \"#utility.yul\":3115:3129   */\n  sload\n    /* \"#utility.yul\":3111:3112   */\n  dup2\n    /* \"#utility.yul\":3106:3109   */\n  dup10\n    /* \"#utility.yul\":3102:3113   */\n  add\n    /* \"#utility.yul\":3095:3130   */\n  mstore\n    /* \"#utility.yul\":3171:3172   */\n  0x01\n    /* \"#utility.yul\":3162:3169   */\n  dup3\n    /* \"#utility.yul\":3158:3173   */\n  add\n    /* \"#utility.yul\":3147:3173   */\n  swap2\n  pop\n    /* \"#utility.yul\":3069:3073   */\n  0x20\n    /* \"#utility.yul\":3066:3067   */\n  dup2\n    /* \"#utility.yul\":3062:3074   */\n  add\n    /* \"#utility.yul\":3057:3074   */\n  swap1\n  pop\n    /* \"#utility.yul\":3033:3187   */\n  jump(tag_85)\ntag_87:\n    /* \"#utility.yul\":3216:3222   */\n  dup4\n    /* \"#utility.yul\":3211:3214   */\n  dup9\n    /* \"#utility.yul\":3207:3223   */\n  add\n    /* \"#utility.yul\":3200:3223   */\n  swap6\n  pop\n    /* \"#utility.yul\":2896:3233   */\n  pop\n  pop\n    /* \"#utility.yul\":2710:3233   */\ntag_80:\n  pop\n    /* \"#utility.yul\":2499:3239   */\n  pop\n  pop\n  swap3\n  swap2\n  pop\n  pop\n  jump\t// out\n    /* \"#utility.yul\":3245:3363   */\ntag_88:\n    /* \"#utility.yul\":3332:3356   */\n  tag_90\n    /* \"#utility.yul\":3350:3355   */\n  dup2\n    /* \"#utility.yul\":3332:3356   */\n  tag_91\n  jump\t// in\ntag_90:\n    /* \"#utility.yul\":3327:3330   */\n  dup3\n    /* \"#utility.yul\":3320:3357   */\n  mstore\n    /* \"#utility.yul\":3310:3363   */\n  pop\n  pop\n  jump\t// out\n    /* \"#utility.yul\":3369:3642   */\ntag_21:\n  0x00\n    /* \"#utility.yul\":3522:3616   */\n  tag_93\n    /* \"#utility.yul\":3612:3615   */\n  dup3\n    /* \"#utility.yul\":3603:3609   */\n  dup5\n    /* \"#utility.yul\":3522:3616   */\n  tag_75\n  jump\t// in\ntag_93:\n    /* \"#utility.yul\":3515:3616   */\n  swap2\n  pop\n    /* \"#utility.yul\":3633:3636   */\n  dup2\n    /* \"#utility.yul\":3626:3636   */\n  swap1\n  pop\n    /* \"#utility.yul\":3504:3642   */\n  swap3\n  swap2\n  pop\n  pop\n  jump\t// out\n    /* \"#utility.yul\":3648:4312   */\ntag_23:\n  0x00\n    /* \"#utility.yul\":3891:3894   */\n  0xa0\n    /* \"#utility.yul\":3880:3889   */\n  dup3\n    /* \"#utility.yul\":3876:3895   */\n  add\n    /* \"#utility.yul\":3868:3895   */\n  swap1\n  pop\n    /* \"#utility.yul\":3905:3976   */\n  tag_95\n    /* \"#utility.yul\":3973:3974   */\n  0x00\n    /* \"#utility.yul\":3962:3971   */\n  dup4\n    /* \"#utility.yul\":3958:3975   */\n  add\n    /* \"#utility.yul\":3949:3955   */\n  dup9\n    /* \"#utility.yul\":3905:3976   */\n  tag_71\n  jump\t// in\ntag_95:\n    /* \"#utility.yul\":3986:4058   */\n  tag_96\n    /* \"#utility.yul\":4054:4056   */\n  0x20\n    /* \"#utility.yul\":4043:4052   */\n  dup4\n    /* \"#utility.yul\":4039:4057   */\n  add\n    /* \"#utility.yul\":4030:4036   */\n  dup8\n    /* \"#utility.yul\":3986:4058   */\n  tag_71\n  jump\t// in\ntag_96:\n    /* \"#utility.yul\":4068:4140   */\n  tag_97\n    /* \"#utility.yul\":4136:4138   */\n  0x40\n    /* \"#utility.yul\":4125:4134   */\n  dup4\n    /* \"#utility.yul\":4121:4139   */\n  add\n    /* \"#utility.yul\":4112:4118   */\n  dup7\n    /* \"#utility.yul\":4068:4140   */\n  tag_71\n  jump\t// in\ntag_97:\n    /* \"#utility.yul\":4150:4222   */\n  tag_98\n    /* \"#utility.yul\":4218:4220   */\n  0x60\n    /* \"#utility.yul\":4207:4216   */\n  dup4\n    /* \"#utility.yul\":4203:4221   */\n  add\n    /* \"#utility.yul\":4194:4200   */\n  dup6\n    /* \"#utility.yul\":4150:4222   */\n  tag_88\n  jump\t// in\ntag_98:\n    /* \"#utility.yul\":4232:4305   */\n  tag_99\n    /* \"#utility.yul\":4300:4303   */\n  0x80\n    /* \"#utility.yul\":4289:4298   */\n  dup4\n    /* \"#utility.yul\":4285:4304   */\n  add\n    /* \"#utility.yul\":4276:4282   */\n  dup5\n    /* \"#utility.yul\":4232:4305   */\n  tag_67\n  jump\t// in\ntag_99:\n    /* \"#utility.yul\":3858:4312   */\n  swap7\n  swap6\n  pop\n  pop\n  pop\n  pop\n  pop\n  pop\n  jump\t// out\n    /* \"#utility.yul\":4318:4601   */\ntag_41:\n  0x00\n    /* \"#utility.yul\":4384:4386   */\n  0x40\n    /* \"#utility.yul\":4378:4387   */\n  mload\n    /* \"#utility.yul\":4368:4387   */\n  swap1\n  pop\n    /* \"#utility.yul\":4426:4430   */\n  dup2\n    /* \"#utility.yul\":4418:4424   */\n  dup2\n    /* \"#utility.yul\":4414:4431   */\n  add\n    /* \"#utility.yul\":4533:4539   */\n  dup2\n    /* \"#utility.yul\":4521:4531   */\n  dup2\n    /* \"#utility.yul\":4518:4540   */\n  lt\n    /* \"#utility.yul\":4497:4515   */\n  0xffffffffffffffff\n    /* \"#utility.yul\":4485:4495   */\n  dup3\n    /* \"#utility.yul\":4482:4516   */\n  gt\n    /* \"#utility.yul\":4479:4541   */\n  or\n    /* \"#utility.yul\":4476:4478   */\n  iszero\n  tag_101\n  jumpi\n    /* \"#utility.yul\":4544:4562   */\n  tag_102\n  tag_103\n  jump\t// in\ntag_102:\n    /* \"#utility.yul\":4476:4478   */\ntag_101:\n    /* \"#utility.yul\":4584:4594   */\n  dup1\n    /* \"#utility.yul\":4580:4582   */\n  0x40\n    /* \"#utility.yul\":4573:4595   */\n  mstore\n    /* \"#utility.yul\":4358:4601   */\n  pop\n  swap2\n  swap1\n  pop\n  jump\t// out\n    /* \"#utility.yul\":4607:4939   */\ntag_40:\n  0x00\n    /* \"#utility.yul\":4759:4777   */\n  0xffffffffffffffff\n    /* \"#utility.yul\":4751:4757   */\n  dup3\n    /* \"#utility.yul\":4748:4778   */\n  gt\n    /* \"#utility.yul\":4745:4747   */\n  iszero\n  tag_105\n  jumpi\n    /* \"#utility.yul\":4781:4799   */\n  tag_106\n  tag_103\n  jump\t// in\ntag_106:\n    /* \"#utility.yul\":4745:4747   */\ntag_105:\n    /* \"#utility.yul\":4866:4870   */\n  0x1f\n    /* \"#utility.yul\":4862:4871   */\n  not\n    /* \"#utility.yul\":4855:4859   */\n  0x1f\n    /* \"#utility.yul\":4847:4853   */\n  dup4\n    /* \"#utility.yul\":4843:4860   */\n  add\n    /* \"#utility.yul\":4839:4872   */\n  and\n    /* \"#utility.yul\":4831:4872   */\n  swap1\n  pop\n    /* \"#utility.yul\":4927:4931   */\n  0x20\n    /* \"#utility.yul\":4921:4925   */\n  dup2\n    /* \"#utility.yul\":4917:4932   */\n  add\n    /* \"#utility.yul\":4909:4932   */\n  swap1\n  pop\n    /* \"#utility.yul\":4674:4939   */\n  swap2\n  swap1\n  pop\n  jump\t// out\n    /* \"#utility.yul\":4945:5089   */\ntag_84:\n  0x00\n    /* \"#utility.yul\":5020:5023   */\n  dup2\n    /* \"#utility.yul\":5012:5023   */\n  swap1\n  pop\n    /* \"#utility.yul\":5043:5046   */\n  dup2\n    /* \"#utility.yul\":5040:5041   */\n  0x00\n    /* \"#utility.yul\":5033:5047   */\n  mstore\n    /* \"#utility.yul\":5077:5081   */\n  0x20\n    /* \"#utility.yul\":5074:5075   */\n  0x00\n    /* \"#utility.yul\":5064:5082   */\n  keccak256\n    /* \"#utility.yul\":5056:5082   */\n  swap1\n  pop\n    /* \"#utility.yul\":5002:5089   */\n  swap2\n  swap1\n  pop\n  jump\t// out\n    /* \"#utility.yul\":5095:5242   */\ntag_79:\n  0x00\n    /* \"#utility.yul\":5233:5236   */\n  dup2\n    /* \"#utility.yul\":5218:5236   */\n  swap1\n  pop\n    /* \"#utility.yul\":5208:5242   */\n  swap3\n  swap2\n  pop\n  pop\n  jump\t// out\n    /* \"#utility.yul\":5248:5344   */\ntag_70:\n  0x00\n    /* \"#utility.yul\":5314:5338   */\n  tag_110\n    /* \"#utility.yul\":5332:5337   */\n  dup3\n    /* \"#utility.yul\":5314:5338   */\n  tag_111\n  jump\t// in\ntag_110:\n    /* \"#utility.yul\":5303:5338   */\n  swap1\n  pop\n    /* \"#utility.yul\":5293:5344   */\n  swap2\n  swap1\n  pop\n  jump\t// out\n    /* \"#utility.yul\":5350:5427   */\ntag_74:\n  0x00\n    /* \"#utility.yul\":5416:5421   */\n  dup2\n    /* \"#utility.yul\":5405:5421   */\n  swap1\n  pop\n    /* \"#utility.yul\":5395:5427   */\n  swap2\n  swap1\n  pop\n  jump\t// out\n    /* \"#utility.yul\":5433:5542   */\ntag_113:\n  0x00\n    /* \"#utility.yul\":5512:5536   */\n  tag_115\n    /* \"#utility.yul\":5530:5535   */\n  dup3\n    /* \"#utility.yul\":5512:5536   */\n  tag_70\n  jump\t// in\ntag_115:\n    /* \"#utility.yul\":5501:5536   */\n  swap1\n  pop\n    /* \"#utility.yul\":5491:5542   */\n  swap2\n  swap1\n  pop\n  jump\t// out\n    /* \"#utility.yul\":5548:5674   */\ntag_111:\n  0x00\n    /* \"#utility.yul\":5625:5667   */\n  0xffffffffffffffffffffffffffffffffffffffff\n    /* \"#utility.yul\":5618:5623   */\n  dup3\n    /* \"#utility.yul\":5614:5668   */\n  and\n    /* \"#utility.yul\":5603:5668   */\n  swap1\n  pop\n    /* \"#utility.yul\":5593:5674   */\n  swap2\n  swap1\n  pop\n  jump\t// out\n    /* \"#utility.yul\":5680:5757   */\ntag_91:\n  0x00\n    /* \"#utility.yul\":5746:5751   */\n  dup2\n    /* \"#utility.yul\":5735:5751   */\n  swap1\n  pop\n    /* \"#utility.yul\":5725:5757   */\n  swap2\n  swap1\n  pop\n  jump\t// out\n    /* \"#utility.yul\":5763:5849   */\ntag_118:\n  0x00\n    /* \"#utility.yul\":5838:5842   */\n  0xff\n    /* \"#utility.yul\":5831:5836   */\n  dup3\n    /* \"#utility.yul\":5827:5843   */\n  and\n    /* \"#utility.yul\":5816:5843   */\n  swap1\n  pop\n    /* \"#utility.yul\":5806:5849   */\n  swap2\n  swap1\n  pop\n  jump\t// out\n    /* \"#utility.yul\":5855:6162   */\ntag_44:\n    /* \"#utility.yul\":5923:5924   */\n  0x00\n    /* \"#utility.yul\":5933:6046   */\ntag_121:\n    /* \"#utility.yul\":5947:5953   */\n  dup4\n    /* \"#utility.yul\":5944:5945   */\n  dup2\n    /* \"#utility.yul\":5941:5954   */\n  lt\n    /* \"#utility.yul\":5933:6046   */\n  iszero\n  tag_123\n  jumpi\n    /* \"#utility.yul\":6032:6033   */\n  dup1\n    /* \"#utility.yul\":6027:6030   */\n  dup3\n    /* \"#utility.yul\":6023:6034   */\n  add\n    /* \"#utility.yul\":6017:6035   */\n  mload\n    /* \"#utility.yul\":6013:6014   */\n  dup2\n    /* \"#utility.yul\":6008:6011   */\n  dup5\n    /* \"#utility.yul\":6004:6015   */\n  add\n    /* \"#utility.yul\":5997:6036   */\n  mstore\n    /* \"#utility.yul\":5969:5971   */\n  0x20\n    /* \"#utility.yul\":5966:5967   */\n  dup2\n    /* \"#utility.yul\":5962:5972   */\n  add\n    /* \"#utility.yul\":5957:5972   */\n  swap1\n  pop\n    /* \"#utility.yul\":5933:6046   */\n  jump(tag_121)\ntag_123:\n    /* \"#utility.yul\":6064:6070   */\n  dup4\n    /* \"#utility.yul\":6061:6062   */\n  dup2\n    /* \"#utility.yul\":6058:6071   */\n  gt\n    /* \"#utility.yul\":6055:6057   */\n  iszero\n  tag_124\n  jumpi\n    /* \"#utility.yul\":6144:6145   */\n  0x00\n    /* \"#utility.yul\":6135:6141   */\n  dup5\n    /* \"#utility.yul\":6130:6133   */\n  dup5\n    /* \"#utility.yul\":6126:6142   */\n  add\n    /* \"#utility.yul\":6119:6146   */\n  mstore\n    /* \"#utility.yul\":6055:6057   */\ntag_124:\n    /* \"#utility.yul\":5904:6162   */\n  pop\n  pop\n  pop\n  pop\n  jump\t// out\n    /* \"#utility.yul\":6168:6488   */\ntag_25:\n  0x00\n    /* \"#utility.yul\":6249:6250   */\n  0x02\n    /* \"#utility.yul\":6243:6247   */\n  dup3\n    /* \"#utility.yul\":6239:6251   */\n  div\n    /* \"#utility.yul\":6229:6251   */\n  swap1\n  pop\n    /* \"#utility.yul\":6296:6297   */\n  0x01\n    /* \"#utility.yul\":6290:6294   */\n  dup3\n    /* \"#utility.yul\":6286:6298   */\n  and\n    /* \"#utility.yul\":6317:6335   */\n  dup1\n    /* \"#utility.yul\":6307:6309   */\n  tag_126\n  jumpi\n    /* \"#utility.yul\":6373:6377   */\n  0x7f\n    /* \"#utility.yul\":6365:6371   */\n  dup3\n    /* \"#utility.yul\":6361:6378   */\n  and\n    /* \"#utility.yul\":6351:6378   */\n  swap2\n  pop\n    /* \"#utility.yul\":6307:6309   */\ntag_126:\n    /* \"#utility.yul\":6435:6437   */\n  0x20\n    /* \"#utility.yul\":6427:6433   */\n  dup3\n    /* \"#utility.yul\":6424:6438   */\n  lt\n    /* \"#utility.yul\":6404:6422   */\n  dup2\n    /* \"#utility.yul\":6401:6439   */\n  eq\n    /* \"#utility.yul\":6398:6400   */\n  iszero\n  tag_127\n  jumpi\n    /* \"#utility.yul\":6454:6472   */\n  tag_128\n  tag_129\n  jump\t// in\ntag_128:\n    /* \"#utility.yul\":6398:6400   */\ntag_127:\n    /* \"#utility.yul\":6219:6488   */\n  pop\n  swap2\n  swap1\n  pop\n  jump\t// out\n    /* \"#utility.yul\":6494:6674   */\ntag_129:\n    /* \"#utility.yul\":6542:6619   */\n  0x4e487b7100000000000000000000000000000000000000000000000000000000\n    /* \"#utility.yul\":6539:6540   */\n  0x00\n    /* \"#utility.yul\":6532:6620   */\n  mstore\n    /* \"#utility.yul\":6639:6643   */\n  0x22\n    /* \"#utility.yul\":6636:6637   */\n  0x04\n    /* \"#utility.yul\":6629:6644   */\n  mstore\n    /* \"#utility.yul\":6663:6667   */\n  0x24\n    /* \"#utility.yul\":6660:6661   */\n  0x00\n    /* \"#utility.yul\":6653:6668   */\n  revert\n    /* \"#utility.yul\":6680:6860   */\ntag_103:\n    /* \"#utility.yul\":6728:6805   */\n  0x4e487b7100000000000000000000000000000000000000000000000000000000\n    /* \"#utility.yul\":6725:6726   */\n  0x00\n    /* \"#utility.yul\":6718:6806   */\n  mstore\n    /* \"#utility.yul\":6825:6829   */\n  0x41\n    /* \"#utility.yul\":6822:6823   */\n  0x04\n    /* \"#utility.yul\":6815:6830   */\n  mstore\n    /* \"#utility.yul\":6849:6853   */\n  0x24\n    /* \"#utility.yul\":6846:6847   */\n  0x00\n    /* \"#utility.yul\":6839:6854   */\n  revert\n    /* \"#utility.yul\":6866:7014   */\ntag_48:\n    /* \"#utility.yul\":6952:6989   */\n  tag_133\n    /* \"#utility.yul\":6983:6988   */\n  dup2\n    /* \"#utility.yul\":6952:6989   */\n  tag_113\n  jump\t// in\ntag_133:\n    /* \"#utility.yul\":6945:6950   */\n  dup2\n    /* \"#utility.yul\":6942:6990   */\n  eq\n    /* \"#utility.yul\":6932:6934   */\n  tag_134\n  jumpi\n    /* \"#utility.yul\":7004:7005   */\n  0x00\n    /* \"#utility.yul\":7001:7002   */\n  dup1\n    /* \"#utility.yul\":6994:7006   */\n  revert\n    /* \"#utility.yul\":6932:6934   */\ntag_134:\n    /* \"#utility.yul\":6922:7014   */\n  pop\n  jump\t// out\n    /* \"#utility.yul\":7020:7138   */\ntag_56:\n    /* \"#utility.yul\":7091:7113   */\n  tag_136\n    /* \"#utility.yul\":7107:7112   */\n  dup2\n    /* \"#utility.yul\":7091:7113   */\n  tag_118\n  jump\t// in\ntag_136:\n    /* \"#utility.yul\":7084:7089   */\n  dup2\n    /* \"#utility.yul\":7081:7114   */\n  eq\n    /* \"#utility.yul\":7071:7073   */\n  tag_137\n  jumpi\n    /* \"#utility.yul\":7128:7129   */\n  0x00\n    /* \"#utility.yul\":7125:7126   */\n  dup1\n    /* \"#utility.yul\":7118:7130   */\n  revert\n    /* \"#utility.yul\":7071:7073   */\ntag_137:\n    /* \"#utility.yul\":7061:7138   */\n  pop\n  jump\t// out\n    /* \"VaultStandard.sol\":550:10306  contract ERC4626 is ERC20 {... */\ntag_18:\n  shr(0xf8, mload(0x80))\n  mload(0xa0)\n  mload(0xc0)\n  shr(0x60, mload(0xe0))\n  codecopy(0x00, dataOffset(sub_0), dataSize(sub_0))\n  0x00\n  assignImmutable(\"0xccb1f717aa77602faf03a594761a36956b1c4cf44c6b336d1db57da799b331b8\")\n  0x00\n  assignImmutable(\"0x2b9ff6ddf98d2554dd4b708b2fb34e9fc13775bb42d9df3d410987f7b4fda316\")\n  0x00\n  assignImmutable(\"0xf1002f7d9d20dbddae37e20c7dc209aa7850f9c74ca473b3dbbc55dcb5769263\")\n  0x00\n  assignImmutable(\"0xc0716a75736aa0153859080550bdffc64f9b3c18688cab149448346712372131\")\n  return(0x00, dataSize(sub_0))\nstop\n\nsub_0: assembly {\n        /* \"VaultStandard.sol\":550:10306  contract ERC4626 is ERC20 {... */\n      mstore(0x40, 0x80)\n      callvalue\n      dup1\n      iszero\n      tag_1\n      jumpi\n      0x00\n      dup1\n      revert\n    tag_1:\n      pop\n      jumpi(tag_2, lt(calldatasize, 0x04))\n      shr(0xe0, calldataload(0x00))\n      dup1\n      0x7ecebe00\n      gt\n      tag_31\n      jumpi\n      dup1\n      0xc63d75b6\n      gt\n      tag_32\n      jumpi\n      dup1\n      0xd505accf\n      gt\n      tag_33\n      jumpi\n      dup1\n      0xd505accf\n      eq\n      tag_27\n      jumpi\n      dup1\n      0xd905777e\n      eq\n      tag_28\n      jumpi\n      dup1\n      0xdd62ed3e\n      eq\n      tag_29\n      jumpi\n      dup1\n      0xef8b30f7\n      eq\n      tag_30\n      jumpi\n      jump(tag_2)\n    tag_33:\n      dup1\n      0xc63d75b6\n      eq\n      tag_24\n      jumpi\n      dup1\n      0xc6e6f592\n      eq\n      tag_25\n      jumpi\n      dup1\n      0xce96cb77\n      eq\n      tag_26\n      jumpi\n      jump(tag_2)\n    tag_32:\n      dup1\n      0xa9059cbb\n      gt\n      tag_34\n      jumpi\n      dup1\n      0xa9059cbb\n      eq\n      tag_20\n      jumpi\n      dup1\n      0xb3d7f6b9\n      eq\n      tag_21\n      jumpi\n      dup1\n      0xb460af94\n      eq\n      tag_22\n      jumpi\n      dup1\n      0xba087652\n      eq\n      tag_23\n      jumpi\n      jump(tag_2)\n    tag_34:\n      dup1\n      0x7ecebe00\n      eq\n      tag_17\n      jumpi\n      dup1\n      0x94bf804d\n      eq\n      tag_18\n      jumpi\n      dup1\n      0x95d89b41\n      eq\n      tag_19\n      jumpi\n      jump(tag_2)\n    tag_31:\n      dup1\n      0x313ce567\n      gt\n      tag_35\n      jumpi\n      dup1\n      0x402d267d\n      gt\n      tag_36\n      jumpi\n      dup1\n      0x402d267d\n      eq\n      tag_13\n      jumpi\n      dup1\n      0x4cdad506\n      eq\n      tag_14\n      jumpi\n      dup1\n      0x6e553f65\n      eq\n      tag_15\n      jumpi\n      dup1\n      0x70a08231\n      eq\n      tag_16\n      jumpi\n      jump(tag_2)\n    tag_36:\n      dup1\n      0x313ce567\n      eq\n      tag_10\n      jumpi\n      dup1\n      0x3644e515\n      eq\n      tag_11\n      jumpi\n      dup1\n      0x38d52e0f\n      eq\n      tag_12\n      jumpi\n      jump(tag_2)\n    tag_35:\n      dup1\n      0x095ea7b3\n      gt\n      tag_37\n      jumpi\n      dup1\n      0x095ea7b3\n      eq\n      tag_6\n      jumpi\n      dup1\n      0x0a28a477\n      eq\n      tag_7\n      jumpi\n      dup1\n      0x18160ddd\n      eq\n      tag_8\n      jumpi\n      dup1\n      0x23b872dd\n      eq\n      tag_9\n      jumpi\n      jump(tag_2)\n    tag_37:\n      dup1\n      0x01e1d114\n      eq\n      tag_3\n      jumpi\n      dup1\n      0x06fdde03\n      eq\n      tag_4\n      jumpi\n      dup1\n      0x07a2d13a\n      eq\n      tag_5\n      jumpi\n    tag_2:\n      0x00\n      dup1\n      revert\n        /* \"VaultStandard.sol\":6373:6489  function totalAssets() public virtual view returns (uint256) {... */\n    tag_3:\n      tag_38\n      tag_39\n      jump\t// in\n    tag_38:\n      mload(0x40)\n      tag_40\n      swap2\n      swap1\n      tag_41\n      jump\t// in\n    tag_40:\n      mload(0x40)\n      dup1\n      swap2\n      sub\n      swap1\n      return\n        /* \"https://github.com/Rari-Capital/solmate/blob/main/src/tokens/ERC20.sol\":1028:1046  string public name */\n    tag_4:\n      tag_42\n      tag_43\n      jump\t// in\n    tag_42:\n      mload(0x40)\n      tag_44\n      swap2\n      swap1\n      tag_45\n      jump\t// in\n    tag_44:\n      mload(0x40)\n      dup1\n      swap2\n      sub\n      swap1\n      return\n        /* \"VaultStandard.sol\":7229:7613  function convertToAssets(uint256 shares) public view returns (uint256) {... */\n    tag_5:\n      tag_46\n      0x04\n      dup1\n      calldatasize\n      sub\n      dup2\n      add\n      swap1\n      tag_47\n      swap2\n      swap1\n      tag_48\n      jump\t// in\n    tag_47:\n      tag_49\n      jump\t// in\n    tag_46:\n      mload(0x40)\n      tag_50\n      swap2\n      swap1\n      tag_41\n      jump\t// in\n    tag_50:\n      mload(0x40)\n      dup1\n      swap2\n      sub\n      swap1\n      return\n        /* \"https://github.com/Rari-Capital/solmate/blob/main/src/tokens/ERC20.sol\":2458:2669  function approve(address spender, uint256 amount) public virtual returns (bool) {... */\n    tag_6:\n      tag_51\n      0x04\n      dup1\n      calldatasize\n      sub\n      dup2\n      add\n      swap1\n      tag_52\n      swap2\n      swap1\n      tag_53\n      jump\t// in\n    tag_52:\n      tag_54\n      jump\t// in\n    tag_51:\n      mload(0x40)\n      tag_55\n      swap2\n      swap1\n      tag_56\n      jump\t// in\n    tag_55:\n      mload(0x40)\n      dup1\n      swap2\n      sub\n      swap1\n      return\n        /* \"VaultStandard.sol\":8386:8633  function previewWithdraw(uint256 assets) public view returns (uint256) {... */\n    tag_7:\n      tag_57\n      0x04\n      dup1\n      calldatasize\n      sub\n      dup2\n      add\n      swap1\n      tag_58\n      swap2\n      swap1\n      tag_48\n      jump\t// in\n    tag_58:\n      tag_59\n      jump\t// in\n    tag_57:\n      mload(0x40)\n      tag_60\n      swap2\n      swap1\n      tag_41\n      jump\t// in\n    tag_60:\n      mload(0x40)\n      dup1\n      swap2\n      sub\n      swap1\n      return\n        /* \"https://github.com/Rari-Capital/solmate/blob/main/src/tokens/ERC20.sol\":1301:1327  uint256 public totalSupply */\n    tag_8:\n      tag_61\n      tag_62\n      jump\t// in\n    tag_61:\n      mload(0x40)\n      tag_63\n      swap2\n      swap1\n      tag_41\n      jump\t// in\n    tag_63:\n      mload(0x40)\n      dup1\n      swap2\n      sub\n      swap1\n      return\n        /* \"https://github.com/Rari-Capital/solmate/blob/main/src/tokens/ERC20.sol\":3054:3646  function transferFrom(... */\n    tag_9:\n      tag_64\n      0x04\n      dup1\n      calldatasize\n      sub\n      dup2\n      add\n      swap1\n      tag_65\n      swap2\n      swap1\n      tag_66\n      jump\t// in\n    tag_65:\n      tag_67\n      jump\t// in\n    tag_64:\n      mload(0x40)\n      tag_68\n      swap2\n      swap1\n      tag_56\n      jump\t// in\n    tag_68:\n      mload(0x40)\n      dup1\n      swap2\n      sub\n      swap1\n      return\n        /* \"https://github.com/Rari-Capital/solmate/blob/main/src/tokens/ERC20.sol\":1080:1111  uint8 public immutable decimals */\n    tag_10:\n      tag_69\n      tag_70\n      jump\t// in\n    tag_69:\n      mload(0x40)\n      tag_71\n      swap2\n      swap1\n      tag_72\n      jump\t// in\n    tag_71:\n      mload(0x40)\n      dup1\n      swap2\n      sub\n      swap1\n      return\n        /* \"https://github.com/Rari-Capital/solmate/blob/main/src/tokens/ERC20.sol\":5324:5501  function DOMAIN_SEPARATOR() public view virtual returns (bytes32) {... */\n    tag_11:\n      tag_73\n      tag_74\n      jump\t// in\n    tag_73:\n      mload(0x40)\n      tag_75\n      swap2\n      swap1\n      tag_76\n      jump\t// in\n    tag_75:\n      mload(0x40)\n      dup1\n      swap2\n      sub\n      swap1\n      return\n        /* \"VaultStandard.sol\":1293:1321  ERC20 public immutable asset */\n    tag_12:\n      tag_77\n      tag_78\n      jump\t// in\n    tag_77:\n      mload(0x40)\n      tag_79\n      swap2\n      swap1\n      tag_80\n      jump\t// in\n    tag_79:\n      mload(0x40)\n      dup1\n      swap2\n      sub\n      swap1\n      return\n        /* \"VaultStandard.sol\":9153:9253  function maxDeposit(address) public view returns (uint256) {... */\n    tag_13:\n      tag_81\n      0x04\n      dup1\n      calldatasize\n      sub\n      dup2\n      add\n      swap1\n      tag_82\n      swap2\n      swap1\n      tag_83\n      jump\t// in\n    tag_82:\n      tag_84\n      jump\t// in\n    tag_81:\n      mload(0x40)\n      tag_85\n      swap2\n      swap1\n      tag_41\n      jump\t// in\n    tag_85:\n      mload(0x40)\n      dup1\n      swap2\n      sub\n      swap1\n      return\n        /* \"VaultStandard.sol\":8760:8876  function previewRedeem(uint256 shares) public view returns (uint256) {... */\n    tag_14:\n      tag_86\n      0x04\n      dup1\n      calldatasize\n      sub\n      dup2\n      add\n      swap1\n      tag_87\n      swap2\n      swap1\n      tag_48\n      jump\t// in\n    tag_87:\n      tag_88\n      jump\t// in\n    tag_86:\n      mload(0x40)\n      tag_89\n      swap2\n      swap1\n      tag_41\n      jump\t// in\n    tag_89:\n      mload(0x40)\n      dup1\n      swap2\n      sub\n      swap1\n      return\n        /* \"VaultStandard.sol\":2007:2524  function deposit(uint256 assets, address receiver) public virtual returns (uint256 shares) {... */\n    tag_15:\n      tag_90\n      0x04\n      dup1\n      calldatasize\n      sub\n      dup2\n      add\n      swap1\n      tag_91\n      swap2\n      swap1\n      tag_92\n      jump\t// in\n    tag_91:\n      tag_93\n      jump\t// in\n    tag_90:\n      mload(0x40)\n      tag_94\n      swap2\n      swap1\n      tag_41\n      jump\t// in\n    tag_94:\n      mload(0x40)\n      dup1\n      swap2\n      sub\n      swap1\n      return\n        /* \"https://github.com/Rari-Capital/solmate/blob/main/src/tokens/ERC20.sol\":1334:1378  mapping(address => uint256) public balanceOf */\n    tag_16:\n      tag_95\n      0x04\n      dup1\n      calldatasize\n      sub\n      dup2\n      add\n      swap1\n      tag_96\n      swap2\n      swap1\n      tag_83\n      jump\t// in\n    tag_96:\n      tag_97\n      jump\t// in\n    tag_95:\n      mload(0x40)\n      tag_98\n      swap2\n      swap1\n      tag_41\n      jump\t// in\n    tag_98:\n      mload(0x40)\n      dup1\n      swap2\n      sub\n      swap1\n      return\n        /* \"https://github.com/Rari-Capital/solmate/blob/main/src/tokens/ERC20.sol\":1748:1789  mapping(address => uint256) public nonces */\n    tag_17:\n      tag_99\n      0x04\n      dup1\n      calldatasize\n      sub\n      dup2\n      add\n      swap1\n      tag_100\n      swap2\n      swap1\n      tag_83\n      jump\t// in\n    tag_100:\n      tag_101\n      jump\t// in\n    tag_99:\n      mload(0x40)\n      tag_102\n      swap2\n      swap1\n      tag_41\n      jump\t// in\n    tag_102:\n      mload(0x40)\n      dup1\n      swap2\n      sub\n      swap1\n      return\n        /* \"VaultStandard.sol\":2944:3403  function mint(uint256 shares, address receiver) public returns (uint256 assets) {... */\n    tag_18:\n      tag_103\n      0x04\n      dup1\n      calldatasize\n      sub\n      dup2\n      add\n      swap1\n      tag_104\n      swap2\n      swap1\n      tag_92\n      jump\t// in\n    tag_104:\n      tag_105\n      jump\t// in\n    tag_103:\n      mload(0x40)\n      tag_106\n      swap2\n      swap1\n      tag_41\n      jump\t// in\n    tag_106:\n      mload(0x40)\n      dup1\n      swap2\n      sub\n      swap1\n      return\n        /* \"https://github.com/Rari-Capital/solmate/blob/main/src/tokens/ERC20.sol\":1053:1073  string public symbol */\n    tag_19:\n      tag_107\n      tag_108\n      jump\t// in\n    tag_107:\n      mload(0x40)\n      tag_109\n      swap2\n      swap1\n      tag_45\n      jump\t// in\n    tag_109:\n      mload(0x40)\n      dup1\n      swap2\n      sub\n      swap1\n      return\n        /* \"https://github.com/Rari-Capital/solmate/blob/main/src/tokens/ERC20.sol\":2675:3048  function transfer(address to, uint256 amount) public virtual returns (bool) {... */\n    tag_20:\n      tag_110\n      0x04\n      dup1\n      calldatasize\n      sub\n      dup2\n      add\n      swap1\n      tag_111\n      swap2\n      swap1\n      tag_53\n      jump\t// in\n    tag_111:\n      tag_112\n      jump\t// in\n    tag_110:\n      mload(0x40)\n      tag_113\n      swap2\n      swap1\n      tag_56\n      jump\t// in\n    tag_113:\n      mload(0x40)\n      dup1\n      swap2\n      sub\n      swap1\n      return\n        /* \"VaultStandard.sol\":8004:8247  function previewMint(uint256 shares) public view returns (uint256) {... */\n    tag_21:\n      tag_114\n      0x04\n      dup1\n      calldatasize\n      sub\n      dup2\n      add\n      swap1\n      tag_115\n      swap2\n      swap1\n      tag_48\n      jump\t// in\n    tag_115:\n      tag_116\n      jump\t// in\n    tag_114:\n      mload(0x40)\n      tag_117\n      swap2\n      swap1\n      tag_41\n      jump\t// in\n    tag_117:\n      mload(0x40)\n      dup1\n      swap2\n      sub\n      swap1\n      return\n        /* \"VaultStandard.sol\":3723:4693  function withdraw(... */\n    tag_22:\n      tag_118\n      0x04\n      dup1\n      calldatasize\n      sub\n      dup2\n      add\n      swap1\n      tag_119\n      swap2\n      swap1\n      tag_120\n      jump\t// in\n    tag_119:\n      tag_121\n      jump\t// in\n    tag_118:\n      mload(0x40)\n      tag_122\n      swap2\n      swap1\n      tag_41\n      jump\t// in\n    tag_122:\n      mload(0x40)\n      dup1\n      swap2\n      sub\n      swap1\n      return\n        /* \"VaultStandard.sol\":4956:6033  function redeem(... */\n    tag_23:\n      tag_123\n      0x04\n      dup1\n      calldatasize\n      sub\n      dup2\n      add\n      swap1\n      tag_124\n      swap2\n      swap1\n      tag_120\n      jump\t// in\n    tag_124:\n      tag_125\n      jump\t// in\n    tag_123:\n      mload(0x40)\n      tag_126\n      swap2\n      swap1\n      tag_41\n      jump\t// in\n    tag_126:\n      mload(0x40)\n      dup1\n      swap2\n      sub\n      swap1\n      return\n        /* \"VaultStandard.sol\":9337:9434  function maxMint(address) public view returns (uint256) {... */\n    tag_24:\n      tag_127\n      0x04\n      dup1\n      calldatasize\n      sub\n      dup2\n      add\n      swap1\n      tag_128\n      swap2\n      swap1\n      tag_83\n      jump\t// in\n    tag_128:\n      tag_129\n      jump\t// in\n    tag_127:\n      mload(0x40)\n      tag_130\n      swap2\n      swap1\n      tag_41\n      jump\t// in\n    tag_130:\n      mload(0x40)\n      dup1\n      swap2\n      sub\n      swap1\n      return\n        /* \"VaultStandard.sol\":6604:7115  function convertToShares(uint256 assets) public view returns (uint256) {... */\n    tag_25:\n      tag_131\n      0x04\n      dup1\n      calldatasize\n      sub\n      dup2\n      add\n      swap1\n      tag_132\n      swap2\n      swap1\n      tag_48\n      jump\t// in\n    tag_132:\n      tag_133\n      jump\t// in\n    tag_131:\n      mload(0x40)\n      tag_134\n      swap2\n      swap1\n      tag_41\n      jump\t// in\n    tag_134:\n      mload(0x40)\n      dup1\n      swap2\n      sub\n      swap1\n      return\n        /* \"VaultStandard.sol\":9619:9742  function maxWithdraw(address owner) public view returns (uint256) {... */\n    tag_26:\n      tag_135\n      0x04\n      dup1\n      calldatasize\n      sub\n      dup2\n      add\n      swap1\n      tag_136\n      swap2\n      swap1\n      tag_83\n      jump\t// in\n    tag_136:\n      tag_137\n      jump\t// in\n    tag_135:\n      mload(0x40)\n      tag_138\n      swap2\n      swap1\n      tag_41\n      jump\t// in\n    tag_138:\n      mload(0x40)\n      dup1\n      swap2\n      sub\n      swap1\n      return\n        /* \"https://github.com/Rari-Capital/solmate/blob/main/src/tokens/ERC20.sol\":3835:5318  function permit(... */\n    tag_27:\n      tag_139\n      0x04\n      dup1\n      calldatasize\n      sub\n      dup2\n      add\n      swap1\n      tag_140\n      swap2\n      swap1\n      tag_141\n      jump\t// in\n    tag_140:\n      tag_142\n      jump\t// in\n    tag_139:\n      stop\n        /* \"VaultStandard.sol\":9870:9974  function maxRedeem(address owner) public view returns (uint256) {... */\n    tag_28:\n      tag_143\n      0x04\n      dup1\n      calldatasize\n      sub\n      dup2\n      add\n      swap1\n      tag_144\n      swap2\n      swap1\n      tag_83\n      jump\t// in\n    tag_144:\n      tag_145\n      jump\t// in\n    tag_143:\n      mload(0x40)\n      tag_146\n      swap2\n      swap1\n      tag_41\n      jump\t// in\n    tag_146:\n      mload(0x40)\n      dup1\n      swap2\n      sub\n      swap1\n      return\n        /* \"https://github.com/Rari-Capital/solmate/blob/main/src/tokens/ERC20.sol\":1385:1449  mapping(address => mapping(address => uint256)) public allowance */\n    tag_29:\n      tag_147\n      0x04\n      dup1\n      calldatasize\n      sub\n      dup2\n      add\n      swap1\n      tag_148\n      swap2\n      swap1\n      tag_149\n      jump\t// in\n    tag_148:\n      tag_150\n      jump\t// in\n    tag_147:\n      mload(0x40)\n      tag_151\n      swap2\n      swap1\n      tag_41\n      jump\t// in\n    tag_151:\n      mload(0x40)\n      dup1\n      swap2\n      sub\n      swap1\n      return\n        /* \"VaultStandard.sol\":7742:7859  function previewDeposit(uint256 assets) public view returns (uint256) {... */\n    tag_30:\n      tag_152\n      0x04\n      dup1\n      calldatasize\n      sub\n      dup2\n      add\n      swap1\n      tag_153\n      swap2\n      swap1\n      tag_48\n      jump\t// in\n    tag_153:\n      tag_154\n      jump\t// in\n    tag_152:\n      mload(0x40)\n      tag_155\n      swap2\n      swap1\n      tag_41\n      jump\t// in\n    tag_155:\n      mload(0x40)\n      dup1\n      swap2\n      sub\n      swap1\n      return\n        /* \"VaultStandard.sol\":6373:6489  function totalAssets() public virtual view returns (uint256) {... */\n    tag_39:\n        /* \"VaultStandard.sol\":6425:6432  uint256 */\n      0x00\n        /* \"VaultStandard.sol\":6447:6452  asset */\n      immutable(\"0xccb1f717aa77602faf03a594761a36956b1c4cf44c6b336d1db57da799b331b8\")\n        /* \"VaultStandard.sol\":6447:6462  asset.balanceOf */\n      0xffffffffffffffffffffffffffffffffffffffff\n      and\n      0x70a08231\n        /* \"VaultStandard.sol\":6471:6475  this */\n      address\n        /* \"VaultStandard.sol\":6447:6477  asset.balanceOf(address(this)) */\n      mload(0x40)\n      dup3\n      0xffffffff\n      and\n      0xe0\n      shl\n      dup2\n      mstore\n      0x04\n      add\n      tag_157\n      swap2\n      swap1\n      tag_158\n      jump\t// in\n    tag_157:\n      0x20\n      mload(0x40)\n      dup1\n      dup4\n      sub\n      dup2\n      dup7\n      dup1\n      extcodesize\n      iszero\n      dup1\n      iszero\n      tag_159\n      jumpi\n      0x00\n      dup1\n      revert\n    tag_159:\n      pop\n      gas\n      staticcall\n      iszero\n      dup1\n      iszero\n      tag_161\n      jumpi\n      returndatasize\n      0x00\n      dup1\n      returndatacopy\n      revert(0x00, returndatasize)\n    tag_161:\n      pop\n      pop\n      pop\n      pop\n      mload(0x40)\n      returndatasize\n      not(0x1f)\n      0x1f\n      dup3\n      add\n      and\n      dup3\n      add\n      dup1\n      0x40\n      mstore\n      pop\n      dup2\n      add\n      swap1\n      tag_162\n      swap2\n      swap1\n      tag_163\n      jump\t// in\n    tag_162:\n        /* \"VaultStandard.sol\":6440:6477  return asset.balanceOf(address(this)) */\n      swap1\n      pop\n        /* \"VaultStandard.sol\":6373:6489  function totalAssets() public virtual view returns (uint256) {... */\n      swap1\n      jump\t// out\n        /* \"https://github.com/Rari-Capital/solmate/blob/main/src/tokens/ERC20.sol\":1028:1046  string public name */\n    tag_43:\n      0x00\n      dup1\n      sload\n      tag_164\n      swap1\n      tag_165\n      jump\t// in\n    tag_164:\n      dup1\n      0x1f\n      add\n      0x20\n      dup1\n      swap2\n      div\n      mul\n      0x20\n      add\n      mload(0x40)\n      swap1\n      dup2\n      add\n      0x40\n      mstore\n      dup1\n      swap3\n      swap2\n      swap1\n      dup2\n      dup2\n      mstore\n      0x20\n      add\n      dup3\n      dup1\n      sload\n      tag_166\n      swap1\n      tag_165\n      jump\t// in\n    tag_166:\n      dup1\n      iszero\n      tag_167\n      jumpi\n      dup1\n      0x1f\n      lt\n      tag_168\n      jumpi\n      0x0100\n      dup1\n      dup4\n      sload\n      div\n      mul\n      dup4\n      mstore\n      swap2\n      0x20\n      add\n      swap2\n      jump(tag_167)\n    tag_168:\n      dup3\n      add\n      swap2\n      swap1\n      0x00\n      mstore\n      keccak256(0x00, 0x20)\n      swap1\n    tag_169:\n      dup2\n      sload\n      dup2\n      mstore\n      swap1\n      0x01\n      add\n      swap1\n      0x20\n      add\n      dup1\n      dup4\n      gt\n      tag_169\n      jumpi\n      dup3\n      swap1\n      sub\n      0x1f\n      and\n      dup3\n      add\n      swap2\n    tag_167:\n      pop\n      pop\n      pop\n      pop\n      pop\n      dup2\n      jump\t// out\n        /* \"VaultStandard.sol\":7229:7613  function convertToAssets(uint256 shares) public view returns (uint256) {... */\n    tag_49:\n        /* \"VaultStandard.sol\":7291:7298  uint256 */\n      0x00\n        /* \"VaultStandard.sol\":7310:7324  uint256 supply */\n      dup1\n        /* \"VaultStandard.sol\":7327:7338  totalSupply */\n      sload(0x02)\n        /* \"VaultStandard.sol\":7310:7338  uint256 supply = totalSupply */\n      swap1\n      pop\n        /* \"VaultStandard.sol\":7553:7554  0 */\n      0x00\n        /* \"VaultStandard.sol\":7543:7549  supply */\n      dup2\n        /* \"VaultStandard.sol\":7543:7554  supply == 0 */\n      eq\n        /* \"VaultStandard.sol\":7543:7606  supply == 0 ? shares : shares.mulDivDown(totalAssets(), supply) */\n      tag_171\n      jumpi\n        /* \"VaultStandard.sol\":7566:7606  shares.mulDivDown(totalAssets(), supply) */\n      tag_172\n        /* \"VaultStandard.sol\":7584:7597  totalAssets() */\n      tag_173\n        /* \"VaultStandard.sol\":7584:7595  totalAssets */\n      tag_39\n        /* \"VaultStandard.sol\":7584:7597  totalAssets() */\n      jump\t// in\n    tag_173:\n        /* \"VaultStandard.sol\":7599:7605  supply */\n      dup3\n        /* \"VaultStandard.sol\":7566:7572  shares */\n      dup6\n        /* \"VaultStandard.sol\":7566:7583  shares.mulDivDown */\n      tag_174\n      swap1\n        /* \"VaultStandard.sol\":7566:7606  shares.mulDivDown(totalAssets(), supply) */\n      swap3\n      swap2\n      swap1\n      0xffffffff\n      and\n      jump\t// in\n    tag_172:\n        /* \"VaultStandard.sol\":7543:7606  supply == 0 ? shares : shares.mulDivDown(totalAssets(), supply) */\n      jump(tag_175)\n    tag_171:\n        /* \"VaultStandard.sol\":7557:7563  shares */\n      dup3\n        /* \"VaultStandard.sol\":7543:7606  supply == 0 ? shares : shares.mulDivDown(totalAssets(), supply) */\n    tag_175:\n        /* \"VaultStandard.sol\":7536:7606  return supply == 0 ? shares : shares.mulDivDown(totalAssets(), supply) */\n      swap2\n      pop\n      pop\n        /* \"VaultStandard.sol\":7229:7613  function convertToAssets(uint256 shares) public view returns (uint256) {... */\n      swap2\n      swap1\n      pop\n      jump\t// out\n        /* \"https://github.com/Rari-Capital/solmate/blob/main/src/tokens/ERC20.sol\":2458:2669  function approve(address spender, uint256 amount) public virtual returns (bool) {... */\n    tag_54:\n        /* \"https://github.com/Rari-Capital/solmate/blob/main/src/tokens/ERC20.sol\":2532:2536  bool */\n      0x00\n        /* \"https://github.com/Rari-Capital/solmate/blob/main/src/tokens/ERC20.sol\":2581:2587  amount */\n      dup2\n        /* \"https://github.com/Rari-Capital/solmate/blob/main/src/tokens/ERC20.sol\":2548:2557  allowance */\n      0x04\n        /* \"https://github.com/Rari-Capital/solmate/blob/main/src/tokens/ERC20.sol\":2548:2569  allowance[msg.sender] */\n      0x00\n        /* \"https://github.com/Rari-Capital/solmate/blob/main/src/tokens/ERC20.sol\":2558:2568  msg.sender */\n      caller\n        /* \"https://github.com/Rari-Capital/solmate/blob/main/src/tokens/ERC20.sol\":2548:2569  allowance[msg.sender] */\n      0xffffffffffffffffffffffffffffffffffffffff\n      and\n      0xffffffffffffffffffffffffffffffffffffffff\n      and\n      dup2\n      mstore\n      0x20\n      add\n      swap1\n      dup2\n      mstore\n      0x20\n      add\n      0x00\n      keccak256\n        /* \"https://github.com/Rari-Capital/solmate/blob/main/src/tokens/ERC20.sol\":2548:2578  allowance[msg.sender][spender] */\n      0x00\n        /* \"https://github.com/Rari-Capital/solmate/blob/main/src/tokens/ERC20.sol\":2570:2577  spender */\n      dup6\n        /* \"https://github.com/Rari-Capital/solmate/blob/main/src/tokens/ERC20.sol\":2548:2578  allowance[msg.sender][spender] */\n      0xffffffffffffffffffffffffffffffffffffffff\n      and\n      0xffffffffffffffffffffffffffffffffffffffff\n      and\n      dup2\n      mstore\n      0x20\n      add\n      swap1\n      dup2\n      mstore\n      0x20\n      add\n      0x00\n      keccak256\n        /* \"https://github.com/Rari-Capital/solmate/blob/main/src/tokens/ERC20.sol\":2548:2587  allowance[msg.sender][spender] = amount */\n      dup2\n      swap1\n      sstore\n      pop\n        /* \"https://github.com/Rari-Capital/solmate/blob/main/src/tokens/ERC20.sol\":2624:2631  spender */\n      dup3\n        /* \"https://github.com/Rari-Capital/solmate/blob/main/src/tokens/ERC20.sol\":2603:2640  Approval(msg.sender, spender, amount) */\n      0xffffffffffffffffffffffffffffffffffffffff\n      and\n        /* \"https://github.com/Rari-Capital/solmate/blob/main/src/tokens/ERC20.sol\":2612:2622  msg.sender */\n      caller\n        /* \"https://github.com/Rari-Capital/solmate/blob/main/src/tokens/ERC20.sol\":2603:2640  Approval(msg.sender, spender, amount) */\n      0xffffffffffffffffffffffffffffffffffffffff\n      and\n      0x8c5be1e5ebec7d5bd14f71427d1e84f3dd0314c0f7b2291e5b200ac8c7c3b925\n        /* \"https://github.com/Rari-Capital/solmate/blob/main/src/tokens/ERC20.sol\":2633:2639  amount */\n      dup5\n        /* \"https://github.com/Rari-Capital/solmate/blob/main/src/tokens/ERC20.sol\":2603:2640  Approval(msg.sender, spender, amount) */\n      mload(0x40)\n      tag_177\n      swap2\n      swap1\n      tag_41\n      jump\t// in\n    tag_177:\n      mload(0x40)\n      dup1\n      swap2\n      sub\n      swap1\n      log3\n        /* \"https://github.com/Rari-Capital/solmate/blob/main/src/tokens/ERC20.sol\":2658:2662  true */\n      0x01\n        /* \"https://github.com/Rari-Capital/solmate/blob/main/src/tokens/ERC20.sol\":2651:2662  return true */\n      swap1\n      pop\n        /* \"https://github.com/Rari-Capital/solmate/blob/main/src/tokens/ERC20.sol\":2458:2669  function approve(address spender, uint256 amount) public virtual returns (bool) {... */\n      swap3\n      swap2\n      pop\n      pop\n      jump\t// out\n        /* \"VaultStandard.sol\":8386:8633  function previewWithdraw(uint256 assets) public view returns (uint256) {... */\n    tag_59:\n        /* \"VaultStandard.sol\":8448:8455  uint256 */\n      0x00\n        /* \"VaultStandard.sol\":8467:8481  uint256 supply */\n      dup1\n        /* \"VaultStandard.sol\":8484:8495  totalSupply */\n      sload(0x02)\n        /* \"VaultStandard.sol\":8467:8495  uint256 supply = totalSupply */\n      swap1\n      pop\n        /* \"VaultStandard.sol\":8575:8576  0 */\n      0x00\n        /* \"VaultStandard.sol\":8565:8571  supply */\n      dup2\n        /* \"VaultStandard.sol\":8565:8576  supply == 0 */\n      eq\n        /* \"VaultStandard.sol\":8565:8626  supply == 0 ? assets : assets.mulDivUp(supply, totalAssets()) */\n      tag_179\n      jumpi\n        /* \"VaultStandard.sol\":8588:8626  assets.mulDivUp(supply, totalAssets()) */\n      tag_180\n        /* \"VaultStandard.sol\":8604:8610  supply */\n      dup2\n        /* \"VaultStandard.sol\":8612:8625  totalAssets() */\n      tag_181\n        /* \"VaultStandard.sol\":8612:8623  totalAssets */\n      tag_39\n        /* \"VaultStandard.sol\":8612:8625  totalAssets() */\n      jump\t// in\n    tag_181:\n        /* \"VaultStandard.sol\":8588:8594  assets */\n      dup6\n        /* \"VaultStandard.sol\":8588:8603  assets.mulDivUp */\n      tag_182\n      swap1\n        /* \"VaultStandard.sol\":8588:8626  assets.mulDivUp(supply, totalAssets()) */\n      swap3\n      swap2\n      swap1\n      0xffffffff\n      and\n      jump\t// in\n    tag_180:\n        /* \"VaultStandard.sol\":8565:8626  supply == 0 ? assets : assets.mulDivUp(supply, totalAssets()) */\n      jump(tag_183)\n    tag_179:\n        /* \"VaultStandard.sol\":8579:8585  assets */\n      dup3\n        /* \"VaultStandard.sol\":8565:8626  supply == 0 ? assets : assets.mulDivUp(supply, totalAssets()) */\n    tag_183:\n        /* \"VaultStandard.sol\":8558:8626  return supply == 0 ? assets : assets.mulDivUp(supply, totalAssets()) */\n      swap2\n      pop\n      pop\n        /* \"VaultStandard.sol\":8386:8633  function previewWithdraw(uint256 assets) public view returns (uint256) {... */\n      swap2\n      swap1\n      pop\n      jump\t// out\n        /* \"https://github.com/Rari-Capital/solmate/blob/main/src/tokens/ERC20.sol\":1301:1327  uint256 public totalSupply */\n    tag_62:\n      sload(0x02)\n      dup2\n      jump\t// out\n        /* \"https://github.com/Rari-Capital/solmate/blob/main/src/tokens/ERC20.sol\":3054:3646  function transferFrom(... */\n    tag_67:\n        /* \"https://github.com/Rari-Capital/solmate/blob/main/src/tokens/ERC20.sol\":3172:3176  bool */\n      0x00\n        /* \"https://github.com/Rari-Capital/solmate/blob/main/src/tokens/ERC20.sol\":3188:3203  uint256 allowed */\n      dup1\n        /* \"https://github.com/Rari-Capital/solmate/blob/main/src/tokens/ERC20.sol\":3206:3215  allowance */\n      0x04\n        /* \"https://github.com/Rari-Capital/solmate/blob/main/src/tokens/ERC20.sol\":3206:3221  allowance[from] */\n      0x00\n        /* \"https://github.com/Rari-Capital/solmate/blob/main/src/tokens/ERC20.sol\":3216:3220  from */\n      dup7\n        /* \"https://github.com/Rari-Capital/solmate/blob/main/src/tokens/ERC20.sol\":3206:3221  allowance[from] */\n      0xffffffffffffffffffffffffffffffffffffffff\n      and\n      0xffffffffffffffffffffffffffffffffffffffff\n      and\n      dup2\n      mstore\n      0x20\n      add\n      swap1\n      dup2\n      mstore\n      0x20\n      add\n      0x00\n      keccak256\n        /* \"https://github.com/Rari-Capital/solmate/blob/main/src/tokens/ERC20.sol\":3206:3233  allowance[from][msg.sender] */\n      0x00\n        /* \"https://github.com/Rari-Capital/solmate/blob/main/src/tokens/ERC20.sol\":3222:3232  msg.sender */\n      caller\n        /* \"https://github.com/Rari-Capital/solmate/blob/main/src/tokens/ERC20.sol\":3206:3233  allowance[from][msg.sender] */\n      0xffffffffffffffffffffffffffffffffffffffff\n      and\n      0xffffffffffffffffffffffffffffffffffffffff\n      and\n      dup2\n      mstore\n      0x20\n      add\n      swap1\n      dup2\n      mstore\n      0x20\n      add\n      0x00\n      keccak256\n      sload\n        /* \"https://github.com/Rari-Capital/solmate/blob/main/src/tokens/ERC20.sol\":3188:3233  uint256 allowed = allowance[from][msg.sender] */\n      swap1\n      pop\n        /* \"https://github.com/Rari-Capital/solmate/blob/main/src/tokens/ERC20.sol\":3295:3312  type(uint256).max */\n      0xffffffffffffffffffffffffffffffffffffffffffffffffffffffffffffffff\n        /* \"https://github.com/Rari-Capital/solmate/blob/main/src/tokens/ERC20.sol\":3284:3291  allowed */\n      dup2\n        /* \"https://github.com/Rari-Capital/solmate/blob/main/src/tokens/ERC20.sol\":3284:3312  allowed != type(uint256).max */\n      eq\n        /* \"https://github.com/Rari-Capital/solmate/blob/main/src/tokens/ERC20.sol\":3280:3360  if (allowed != type(uint256).max) allowance[from][msg.sender] = allowed - amount */\n      tag_185\n      jumpi\n        /* \"https://github.com/Rari-Capital/solmate/blob/main/src/tokens/ERC20.sol\":3354:3360  amount */\n      dup3\n        /* \"https://github.com/Rari-Capital/solmate/blob/main/src/tokens/ERC20.sol\":3344:3351  allowed */\n      dup2\n        /* \"https://github.com/Rari-Capital/solmate/blob/main/src/tokens/ERC20.sol\":3344:3360  allowed - amount */\n      tag_186\n      swap2\n      swap1\n      tag_187\n      jump\t// in\n    tag_186:\n        /* \"https://github.com/Rari-Capital/solmate/blob/main/src/tokens/ERC20.sol\":3314:3323  allowance */\n      0x04\n        /* \"https://github.com/Rari-Capital/solmate/blob/main/src/tokens/ERC20.sol\":3314:3329  allowance[from] */\n      0x00\n        /* \"https://github.com/Rari-Capital/solmate/blob/main/src/tokens/ERC20.sol\":3324:3328  from */\n      dup8\n        /* \"https://github.com/Rari-Capital/solmate/blob/main/src/tokens/ERC20.sol\":3314:3329  allowance[from] */\n      0xffffffffffffffffffffffffffffffffffffffff\n      and\n      0xffffffffffffffffffffffffffffffffffffffff\n      and\n      dup2\n      mstore\n      0x20\n      add\n      swap1\n      dup2\n      mstore\n      0x20\n      add\n      0x00\n      keccak256\n        /* \"https://github.com/Rari-Capital/solmate/blob/main/src/tokens/ERC20.sol\":3314:3341  allowance[from][msg.sender] */\n      0x00\n        /* \"https://github.com/Rari-Capital/solmate/blob/main/src/tokens/ERC20.sol\":3330:3340  msg.sender */\n      caller\n        /* \"https://github.com/Rari-Capital/solmate/blob/main/src/tokens/ERC20.sol\":3314:3341  allowance[from][msg.sender] */\n      0xffffffffffffffffffffffffffffffffffffffff\n      and\n      0xffffffffffffffffffffffffffffffffffffffff\n      and\n      dup2\n      mstore\n      0x20\n      add\n      swap1\n      dup2\n      mstore\n      0x20\n      add\n      0x00\n      keccak256\n        /* \"https://github.com/Rari-Capital/solmate/blob/main/src/tokens/ERC20.sol\":3314:3360  allowance[from][msg.sender] = allowed - amount */\n      dup2\n      swap1\n      sstore\n      pop\n        /* \"https://github.com/Rari-Capital/solmate/blob/main/src/tokens/ERC20.sol\":3280:3360  if (allowed != type(uint256).max) allowance[from][msg.sender] = allowed - amount */\n    tag_185:\n        /* \"https://github.com/Rari-Capital/solmate/blob/main/src/tokens/ERC20.sol\":3390:3396  amount */\n      dup3\n        /* \"https://github.com/Rari-Capital/solmate/blob/main/src/tokens/ERC20.sol\":3371:3380  balanceOf */\n      0x03\n        /* \"https://github.com/Rari-Capital/solmate/blob/main/src/tokens/ERC20.sol\":3371:3386  balanceOf[from] */\n      0x00\n        /* \"https://github.com/Rari-Capital/solmate/blob/main/src/tokens/ERC20.sol\":3381:3385  from */\n      dup8\n        /* \"https://github.com/Rari-Capital/solmate/blob/main/src/tokens/ERC20.sol\":3371:3386  balanceOf[from] */\n      0xffffffffffffffffffffffffffffffffffffffff\n      and\n      0xffffffffffffffffffffffffffffffffffffffff\n      and\n      dup2\n      mstore\n      0x20\n      add\n      swap1\n      dup2\n      mstore\n      0x20\n      add\n      0x00\n      keccak256\n      0x00\n        /* \"https://github.com/Rari-Capital/solmate/blob/main/src/tokens/ERC20.sol\":3371:3396  balanceOf[from] -= amount */\n      dup3\n      dup3\n      sload\n      tag_188\n      swap2\n      swap1\n      tag_187\n      jump\t// in\n    tag_188:\n      swap3\n      pop\n      pop\n      dup2\n      swap1\n      sstore\n      pop\n        /* \"https://github.com/Rari-Capital/solmate/blob/main/src/tokens/ERC20.sol\":3559:3565  amount */\n      dup3\n        /* \"https://github.com/Rari-Capital/solmate/blob/main/src/tokens/ERC20.sol\":3542:3551  balanceOf */\n      0x03\n        /* \"https://github.com/Rari-Capital/solmate/blob/main/src/tokens/ERC20.sol\":3542:3555  balanceOf[to] */\n      0x00\n        /* \"https://github.com/Rari-Capital/solmate/blob/main/src/tokens/ERC20.sol\":3552:3554  to */\n      dup7\n        /* \"https://github.com/Rari-Capital/solmate/blob/main/src/tokens/ERC20.sol\":3542:3555  balanceOf[to] */\n      0xffffffffffffffffffffffffffffffffffffffff\n      and\n      0xffffffffffffffffffffffffffffffffffffffff\n      and\n      dup2\n      mstore\n      0x20\n      add\n      swap1\n      dup2\n      mstore\n      0x20\n      add\n      0x00\n      keccak256\n      0x00\n        /* \"https://github.com/Rari-Capital/solmate/blob/main/src/tokens/ERC20.sol\":3542:3565  balanceOf[to] += amount */\n      dup3\n      dup3\n      sload\n      add\n      swap3\n      pop\n      pop\n      dup2\n      swap1\n      sstore\n      pop\n        /* \"https://github.com/Rari-Capital/solmate/blob/main/src/tokens/ERC20.sol\":3606:3608  to */\n      dup4\n        /* \"https://github.com/Rari-Capital/solmate/blob/main/src/tokens/ERC20.sol\":3591:3617  Transfer(from, to, amount) */\n      0xffffffffffffffffffffffffffffffffffffffff\n      and\n        /* \"https://github.com/Rari-Capital/solmate/blob/main/src/tokens/ERC20.sol\":3600:3604  from */\n      dup6\n        /* \"https://github.com/Rari-Capital/solmate/blob/main/src/tokens/ERC20.sol\":3591:3617  Transfer(from, to, amount) */\n      0xffffffffffffffffffffffffffffffffffffffff\n      and\n      0xddf252ad1be2c89b69c2b068fc378daa952ba7f163c4a11628f55a4df523b3ef\n        /* \"https://github.com/Rari-Capital/solmate/blob/main/src/tokens/ERC20.sol\":3610:3616  amount */\n      dup6\n        /* \"https://github.com/Rari-Capital/solmate/blob/main/src/tokens/ERC20.sol\":3591:3617  Transfer(from, to, amount) */\n      mload(0x40)\n      tag_189\n      swap2\n      swap1\n      tag_41\n      jump\t// in\n    tag_189:\n      mload(0x40)\n      dup1\n      swap2\n      sub\n      swap1\n      log3\n        /* \"https://github.com/Rari-Capital/solmate/blob/main/src/tokens/ERC20.sol\":3635:3639  true */\n      0x01\n        /* \"https://github.com/Rari-Capital/solmate/blob/main/src/tokens/ERC20.sol\":3628:3639  return true */\n      swap2\n      pop\n      pop\n        /* \"https://github.com/Rari-Capital/solmate/blob/main/src/tokens/ERC20.sol\":3054:3646  function transferFrom(... */\n      swap4\n      swap3\n      pop\n      pop\n      pop\n      jump\t// out\n        /* \"https://github.com/Rari-Capital/solmate/blob/main/src/tokens/ERC20.sol\":1080:1111  uint8 public immutable decimals */\n    tag_70:\n      immutable(\"0xc0716a75736aa0153859080550bdffc64f9b3c18688cab149448346712372131\")\n      dup2\n      jump\t// out\n        /* \"https://github.com/Rari-Capital/solmate/blob/main/src/tokens/ERC20.sol\":5324:5501  function DOMAIN_SEPARATOR() public view virtual returns (bytes32) {... */\n    tag_74:\n        /* \"https://github.com/Rari-Capital/solmate/blob/main/src/tokens/ERC20.sol\":5381:5388  bytes32 */\n      0x00\n        /* \"https://github.com/Rari-Capital/solmate/blob/main/src/tokens/ERC20.sol\":5424:5440  INITIAL_CHAIN_ID */\n      immutable(\"0xf1002f7d9d20dbddae37e20c7dc209aa7850f9c74ca473b3dbbc55dcb5769263\")\n        /* \"https://github.com/Rari-Capital/solmate/blob/main/src/tokens/ERC20.sol\":5407:5420  block.chainid */\n      chainid\n        /* \"https://github.com/Rari-Capital/solmate/blob/main/src/tokens/ERC20.sol\":5407:5440  block.chainid == INITIAL_CHAIN_ID */\n      eq\n        /* \"https://github.com/Rari-Capital/solmate/blob/main/src/tokens/ERC20.sol\":5407:5494  block.chainid == INITIAL_CHAIN_ID ? INITIAL_DOMAIN_SEPARATOR : computeDomainSeparator() */\n      tag_191\n      jumpi\n        /* \"https://github.com/Rari-Capital/solmate/blob/main/src/tokens/ERC20.sol\":5470:5494  computeDomainSeparator() */\n      tag_192\n        /* \"https://github.com/Rari-Capital/solmate/blob/main/src/tokens/ERC20.sol\":5470:5492  computeDomainSeparator */\n      tag_193\n        /* \"https://github.com/Rari-Capital/solmate/blob/main/src/tokens/ERC20.sol\":5470:5494  computeDomainSeparator() */\n      jump\t// in\n    tag_192:\n        /* \"https://github.com/Rari-Capital/solmate/blob/main/src/tokens/ERC20.sol\":5407:5494  block.chainid == INITIAL_CHAIN_ID ? INITIAL_DOMAIN_SEPARATOR : computeDomainSeparator() */\n      jump(tag_194)\n    tag_191:\n        /* \"https://github.com/Rari-Capital/solmate/blob/main/src/tokens/ERC20.sol\":5443:5467  INITIAL_DOMAIN_SEPARATOR */\n      immutable(\"0x2b9ff6ddf98d2554dd4b708b2fb34e9fc13775bb42d9df3d410987f7b4fda316\")\n        /* \"https://github.com/Rari-Capital/solmate/blob/main/src/tokens/ERC20.sol\":5407:5494  block.chainid == INITIAL_CHAIN_ID ? INITIAL_DOMAIN_SEPARATOR : computeDomainSeparator() */\n    tag_194:\n        /* \"https://github.com/Rari-Capital/solmate/blob/main/src/tokens/ERC20.sol\":5400:5494  return block.chainid == INITIAL_CHAIN_ID ? INITIAL_DOMAIN_SEPARATOR : computeDomainSeparator() */\n      swap1\n      pop\n        /* \"https://github.com/Rari-Capital/solmate/blob/main/src/tokens/ERC20.sol\":5324:5501  function DOMAIN_SEPARATOR() public view virtual returns (bytes32) {... */\n      swap1\n      jump\t// out\n        /* \"VaultStandard.sol\":1293:1321  ERC20 public immutable asset */\n    tag_78:\n      immutable(\"0xccb1f717aa77602faf03a594761a36956b1c4cf44c6b336d1db57da799b331b8\")\n      dup2\n      jump\t// out\n        /* \"VaultStandard.sol\":9153:9253  function maxDeposit(address) public view returns (uint256) {... */\n    tag_84:\n        /* \"VaultStandard.sol\":9203:9210  uint256 */\n      0x00\n        /* \"VaultStandard.sol\":9229:9246  type(uint256).max */\n      0xffffffffffffffffffffffffffffffffffffffffffffffffffffffffffffffff\n        /* \"VaultStandard.sol\":9222:9246  return type(uint256).max */\n      swap1\n      pop\n        /* \"VaultStandard.sol\":9153:9253  function maxDeposit(address) public view returns (uint256) {... */\n      swap2\n      swap1\n      pop\n      jump\t// out\n        /* \"VaultStandard.sol\":8760:8876  function previewRedeem(uint256 shares) public view returns (uint256) {... */\n    tag_88:\n        /* \"VaultStandard.sol\":8820:8827  uint256 */\n      0x00\n        /* \"VaultStandard.sol\":8846:8869  convertToAssets(shares) */\n      tag_197\n        /* \"VaultStandard.sol\":8862:8868  shares */\n      dup3\n        /* \"VaultStandard.sol\":8846:8861  convertToAssets */\n      tag_49\n        /* \"VaultStandard.sol\":8846:8869  convertToAssets(shares) */\n      jump\t// in\n    tag_197:\n        /* \"VaultStandard.sol\":8839:8869  return convertToAssets(shares) */\n      swap1\n      pop\n        /* \"VaultStandard.sol\":8760:8876  function previewRedeem(uint256 shares) public view returns (uint256) {... */\n      swap2\n      swap1\n      pop\n      jump\t// out\n        /* \"VaultStandard.sol\":2007:2524  function deposit(uint256 assets, address receiver) public virtual returns (uint256 shares) {... */\n    tag_93:\n        /* \"VaultStandard.sol\":2082:2096  uint256 shares */\n      0x00\n        /* \"VaultStandard.sol\":2229:2230  0 */\n      dup1\n        /* \"VaultStandard.sol\":2202:2224  previewDeposit(assets) */\n      tag_199\n        /* \"VaultStandard.sol\":2217:2223  assets */\n      dup5\n        /* \"VaultStandard.sol\":2202:2216  previewDeposit */\n      tag_154\n        /* \"VaultStandard.sol\":2202:2224  previewDeposit(assets) */\n      jump\t// in\n    tag_199:\n        /* \"VaultStandard.sol\":2193:2224  shares = previewDeposit(assets) */\n      swap2\n      pop\n      dup2\n        /* \"VaultStandard.sol\":2192:2230  (shares = previewDeposit(assets)) != 0 */\n      eq\n      iszero\n        /* \"VaultStandard.sol\":2184:2246  require((shares = previewDeposit(assets)) != 0, \"ZERO_SHARES\") */\n      tag_200\n      jumpi\n      mload(0x40)\n      0x08c379a000000000000000000000000000000000000000000000000000000000\n      dup2\n      mstore\n      0x04\n      add\n      tag_201\n      swap1\n      tag_202\n      jump\t// in\n    tag_201:\n      mload(0x40)\n      dup1\n      swap2\n      sub\n      swap1\n      revert\n    tag_200:\n        /* \"VaultStandard.sol\":2326:2383  asset.safeTransferFrom(msg.sender, address(this), assets) */\n      tag_203\n        /* \"VaultStandard.sol\":2349:2359  msg.sender */\n      caller\n        /* \"VaultStandard.sol\":2369:2373  this */\n      address\n        /* \"VaultStandard.sol\":2376:2382  assets */\n      dup6\n        /* \"VaultStandard.sol\":2326:2331  asset */\n      immutable(\"0xccb1f717aa77602faf03a594761a36956b1c4cf44c6b336d1db57da799b331b8\")\n        /* \"VaultStandard.sol\":2326:2348  asset.safeTransferFrom */\n      0xffffffffffffffffffffffffffffffffffffffff\n      and\n      tag_204\n      swap1\n        /* \"VaultStandard.sol\":2326:2383  asset.safeTransferFrom(msg.sender, address(this), assets) */\n      swap4\n      swap3\n      swap2\n      swap1\n      0xffffffff\n      and\n      jump\t// in\n    tag_203:\n        /* \"VaultStandard.sol\":2394:2417  _mint(receiver, shares) */\n      tag_205\n        /* \"VaultStandard.sol\":2400:2408  receiver */\n      dup3\n        /* \"VaultStandard.sol\":2410:2416  shares */\n      dup3\n        /* \"VaultStandard.sol\":2394:2399  _mint */\n      tag_206\n        /* \"VaultStandard.sol\":2394:2417  _mint(receiver, shares) */\n      jump\t// in\n    tag_205:\n        /* \"VaultStandard.sol\":2453:2461  receiver */\n      dup2\n        /* \"VaultStandard.sol\":2433:2478  Deposit(msg.sender, receiver, assets, shares) */\n      0xffffffffffffffffffffffffffffffffffffffff\n      and\n        /* \"VaultStandard.sol\":2441:2451  msg.sender */\n      caller\n        /* \"VaultStandard.sol\":2433:2478  Deposit(msg.sender, receiver, assets, shares) */\n      0xffffffffffffffffffffffffffffffffffffffff\n      and\n      0xdcbc1c05240f31ff3ad067ef1ee35ce4997762752e3a095284754544f4c709d7\n        /* \"VaultStandard.sol\":2463:2469  assets */\n      dup6\n        /* \"VaultStandard.sol\":2471:2477  shares */\n      dup5\n        /* \"VaultStandard.sol\":2433:2478  Deposit(msg.sender, receiver, assets, shares) */\n      mload(0x40)\n      tag_207\n      swap3\n      swap2\n      swap1\n      tag_208\n      jump\t// in\n    tag_207:\n      mload(0x40)\n      dup1\n      swap2\n      sub\n      swap1\n      log3\n        /* \"VaultStandard.sol\":2489:2517  afterDeposit(assets, shares) */\n      tag_209\n        /* \"VaultStandard.sol\":2502:2508  assets */\n      dup4\n        /* \"VaultStandard.sol\":2510:2516  shares */\n      dup3\n        /* \"VaultStandard.sol\":2489:2501  afterDeposit */\n      tag_210\n        /* \"VaultStandard.sol\":2489:2517  afterDeposit(assets, shares) */\n      jump\t// in\n    tag_209:\n        /* \"VaultStandard.sol\":2007:2524  function deposit(uint256 assets, address receiver) public virtual returns (uint256 shares) {... */\n      swap3\n      swap2\n      pop\n      pop\n      jump\t// out\n        /* \"https://github.com/Rari-Capital/solmate/blob/main/src/tokens/ERC20.sol\":1334:1378  mapping(address => uint256) public balanceOf */\n    tag_97:\n      mstore(0x20, 0x03)\n      dup1\n      0x00\n      mstore\n      keccak256(0x00, 0x40)\n      0x00\n      swap2\n      pop\n      swap1\n      pop\n      sload\n      dup2\n      jump\t// out\n        /* \"https://github.com/Rari-Capital/solmate/blob/main/src/tokens/ERC20.sol\":1748:1789  mapping(address => uint256) public nonces */\n    tag_101:\n      mstore(0x20, 0x05)\n      dup1\n      0x00\n      mstore\n      keccak256(0x00, 0x40)\n      0x00\n      swap2\n      pop\n      swap1\n      pop\n      sload\n      dup2\n      jump\t// out\n        /* \"VaultStandard.sol\":2944:3403  function mint(uint256 shares, address receiver) public returns (uint256 assets) {... */\n    tag_105:\n        /* \"VaultStandard.sol\":3008:3022  uint256 assets */\n      0x00\n        /* \"VaultStandard.sol\":3043:3062  previewMint(shares) */\n      tag_212\n        /* \"VaultStandard.sol\":3055:3061  shares */\n      dup4\n        /* \"VaultStandard.sol\":3043:3054  previewMint */\n      tag_116\n        /* \"VaultStandard.sol\":3043:3062  previewMint(shares) */\n      jump\t// in\n    tag_212:\n        /* \"VaultStandard.sol\":3034:3062  assets = previewMint(shares) */\n      swap1\n      pop\n        /* \"VaultStandard.sol\":3205:3262  asset.safeTransferFrom(msg.sender, address(this), assets) */\n      tag_213\n        /* \"VaultStandard.sol\":3228:3238  msg.sender */\n      caller\n        /* \"VaultStandard.sol\":3248:3252  this */\n      address\n        /* \"VaultStandard.sol\":3255:3261  assets */\n      dup4\n        /* \"VaultStandard.sol\":3205:3210  asset */\n      immutable(\"0xccb1f717aa77602faf03a594761a36956b1c4cf44c6b336d1db57da799b331b8\")\n        /* \"VaultStandard.sol\":3205:3227  asset.safeTransferFrom */\n      0xffffffffffffffffffffffffffffffffffffffff\n      and\n      tag_204\n      swap1\n        /* \"VaultStandard.sol\":3205:3262  asset.safeTransferFrom(msg.sender, address(this), assets) */\n      swap4\n      swap3\n      swap2\n      swap1\n      0xffffffff\n      and\n      jump\t// in\n    tag_213:\n        /* \"VaultStandard.sol\":3273:3296  _mint(receiver, shares) */\n      tag_214\n        /* \"VaultStandard.sol\":3279:3287  receiver */\n      dup3\n        /* \"VaultStandard.sol\":3289:3295  shares */\n      dup5\n        /* \"VaultStandard.sol\":3273:3278  _mint */\n      tag_206\n        /* \"VaultStandard.sol\":3273:3296  _mint(receiver, shares) */\n      jump\t// in\n    tag_214:\n        /* \"VaultStandard.sol\":3332:3340  receiver */\n      dup2\n        /* \"VaultStandard.sol\":3312:3357  Deposit(msg.sender, receiver, assets, shares) */\n      0xffffffffffffffffffffffffffffffffffffffff\n      and\n        /* \"VaultStandard.sol\":3320:3330  msg.sender */\n      caller\n        /* \"VaultStandard.sol\":3312:3357  Deposit(msg.sender, receiver, assets, shares) */\n      0xffffffffffffffffffffffffffffffffffffffff\n      and\n      0xdcbc1c05240f31ff3ad067ef1ee35ce4997762752e3a095284754544f4c709d7\n        /* \"VaultStandard.sol\":3342:3348  assets */\n      dup4\n        /* \"VaultStandard.sol\":3350:3356  shares */\n      dup7\n        /* \"VaultStandard.sol\":3312:3357  Deposit(msg.sender, receiver, assets, shares) */\n      mload(0x40)\n      tag_215\n      swap3\n      swap2\n      swap1\n      tag_208\n      jump\t// in\n    tag_215:\n      mload(0x40)\n      dup1\n      swap2\n      sub\n      swap1\n      log3\n        /* \"VaultStandard.sol\":3368:3396  afterDeposit(assets, shares) */\n      tag_216\n        /* \"VaultStandard.sol\":3381:3387  assets */\n      dup2\n        /* \"VaultStandard.sol\":3389:3395  shares */\n      dup5\n        /* \"VaultStandard.sol\":3368:3380  afterDeposit */\n      tag_210\n        /* \"VaultStandard.sol\":3368:3396  afterDeposit(assets, shares) */\n      jump\t// in\n    tag_216:\n        /* \"VaultStandard.sol\":2944:3403  function mint(uint256 shares, address receiver) public returns (uint256 assets) {... */\n      swap3\n      swap2\n      pop\n      pop\n      jump\t// out\n        /* \"https://github.com/Rari-Capital/solmate/blob/main/src/tokens/ERC20.sol\":1053:1073  string public symbol */\n    tag_108:\n      0x01\n      dup1\n      sload\n      tag_217\n      swap1\n      tag_165\n      jump\t// in\n    tag_217:\n      dup1\n      0x1f\n      add\n      0x20\n      dup1\n      swap2\n      div\n      mul\n      0x20\n      add\n      mload(0x40)\n      swap1\n      dup2\n      add\n      0x40\n      mstore\n      dup1\n      swap3\n      swap2\n      swap1\n      dup2\n      dup2\n      mstore\n      0x20\n      add\n      dup3\n      dup1\n      sload\n      tag_218\n      swap1\n      tag_165\n      jump\t// in\n    tag_218:\n      dup1\n      iszero\n      tag_219\n      jumpi\n      dup1\n      0x1f\n      lt\n      tag_220\n      jumpi\n      0x0100\n      dup1\n      dup4\n      sload\n      div\n      mul\n      dup4\n      mstore\n      swap2\n      0x20\n      add\n      swap2\n      jump(tag_219)\n    tag_220:\n      dup3\n      add\n      swap2\n      swap1\n      0x00\n      mstore\n      keccak256(0x00, 0x20)\n      swap1\n    tag_221:\n      dup2\n      sload\n      dup2\n      mstore\n      swap1\n      0x01\n      add\n      swap1\n      0x20\n      add\n      dup1\n      dup4\n      gt\n      tag_221\n      jumpi\n      dup3\n      swap1\n      sub\n      0x1f\n      and\n      dup3\n      add\n      swap2\n    tag_219:\n      pop\n      pop\n      pop\n      pop\n      pop\n      dup2\n      jump\t// out\n        /* \"https://github.com/Rari-Capital/solmate/blob/main/src/tokens/ERC20.sol\":2675:3048  function transfer(address to, uint256 amount) public virtual returns (bool) {... */\n    tag_112:\n        /* \"https://github.com/Rari-Capital/solmate/blob/main/src/tokens/ERC20.sol\":2745:2749  bool */\n      0x00\n        /* \"https://github.com/Rari-Capital/solmate/blob/main/src/tokens/ERC20.sol\":2786:2792  amount */\n      dup2\n        /* \"https://github.com/Rari-Capital/solmate/blob/main/src/tokens/ERC20.sol\":2761:2770  balanceOf */\n      0x03\n        /* \"https://github.com/Rari-Capital/solmate/blob/main/src/tokens/ERC20.sol\":2761:2782  balanceOf[msg.sender] */\n      0x00\n        /* \"https://github.com/Rari-Capital/solmate/blob/main/src/tokens/ERC20.sol\":2771:2781  msg.sender */\n      caller\n        /* \"https://github.com/Rari-Capital/solmate/blob/main/src/tokens/ERC20.sol\":2761:2782  balanceOf[msg.sender] */\n      0xffffffffffffffffffffffffffffffffffffffff\n      and\n      0xffffffffffffffffffffffffffffffffffffffff\n      and\n      dup2\n      mstore\n      0x20\n      add\n      swap1\n      dup2\n      mstore\n      0x20\n      add\n      0x00\n      keccak256\n      0x00\n        /* \"https://github.com/Rari-Capital/solmate/blob/main/src/tokens/ERC20.sol\":2761:2792  balanceOf[msg.sender] -= amount */\n      dup3\n      dup3\n      sload\n      tag_223\n      swap2\n      swap1\n      tag_187\n      jump\t// in\n    tag_223:\n      swap3\n      pop\n      pop\n      dup2\n      swap1\n      sstore\n      pop\n        /* \"https://github.com/Rari-Capital/solmate/blob/main/src/tokens/ERC20.sol\":2955:2961  amount */\n      dup2\n        /* \"https://github.com/Rari-Capital/solmate/blob/main/src/tokens/ERC20.sol\":2938:2947  balanceOf */\n      0x03\n        /* \"https://github.com/Rari-Capital/solmate/blob/main/src/tokens/ERC20.sol\":2938:2951  balanceOf[to] */\n      0x00\n        /* \"https://github.com/Rari-Capital/solmate/blob/main/src/tokens/ERC20.sol\":2948:2950  to */\n      dup6\n        /* \"https://github.com/Rari-Capital/solmate/blob/main/src/tokens/ERC20.sol\":2938:2951  balanceOf[to] */\n      0xffffffffffffffffffffffffffffffffffffffff\n      and\n      0xffffffffffffffffffffffffffffffffffffffff\n      and\n      dup2\n      mstore\n      0x20\n      add\n      swap1\n      dup2\n      mstore\n      0x20\n      add\n      0x00\n      keccak256\n      0x00\n        /* \"https://github.com/Rari-Capital/solmate/blob/main/src/tokens/ERC20.sol\":2938:2961  balanceOf[to] += amount */\n      dup3\n      dup3\n      sload\n      add\n      swap3\n      pop\n      pop\n      dup2\n      swap1\n      sstore\n      pop\n        /* \"https://github.com/Rari-Capital/solmate/blob/main/src/tokens/ERC20.sol\":3008:3010  to */\n      dup3\n        /* \"https://github.com/Rari-Capital/solmate/blob/main/src/tokens/ERC20.sol\":2987:3019  Transfer(msg.sender, to, amount) */\n      0xffffffffffffffffffffffffffffffffffffffff\n      and\n        /* \"https://github.com/Rari-Capital/solmate/blob/main/src/tokens/ERC20.sol\":2996:3006  msg.sender */\n      caller\n        /* \"https://github.com/Rari-Capital/solmate/blob/main/src/tokens/ERC20.sol\":2987:3019  Transfer(msg.sender, to, amount) */\n      0xffffffffffffffffffffffffffffffffffffffff\n      and\n      0xddf252ad1be2c89b69c2b068fc378daa952ba7f163c4a11628f55a4df523b3ef\n        /* \"https://github.com/Rari-Capital/solmate/blob/main/src/tokens/ERC20.sol\":3012:3018  amount */\n      dup5\n        /* \"https://github.com/Rari-Capital/solmate/blob/main/src/tokens/ERC20.sol\":2987:3019  Transfer(msg.sender, to, amount) */\n      mload(0x40)\n      tag_224\n      swap2\n      swap1\n      tag_41\n      jump\t// in\n    tag_224:\n      mload(0x40)\n      dup1\n      swap2\n      sub\n      swap1\n      log3\n        /* \"https://github.com/Rari-Capital/solmate/blob/main/src/tokens/ERC20.sol\":3037:3041  true */\n      0x01\n        /* \"https://github.com/Rari-Capital/solmate/blob/main/src/tokens/ERC20.sol\":3030:3041  return true */\n      swap1\n      pop\n        /* \"https://github.com/Rari-Capital/solmate/blob/main/src/tokens/ERC20.sol\":2675:3048  function transfer(address to, uint256 amount) public virtual returns (bool) {... */\n      swap3\n      swap2\n      pop\n      pop\n      jump\t// out\n        /* \"VaultStandard.sol\":8004:8247  function previewMint(uint256 shares) public view returns (uint256) {... */\n    tag_116:\n        /* \"VaultStandard.sol\":8062:8069  uint256 */\n      0x00\n        /* \"VaultStandard.sol\":8081:8095  uint256 supply */\n      dup1\n        /* \"VaultStandard.sol\":8098:8109  totalSupply */\n      sload(0x02)\n        /* \"VaultStandard.sol\":8081:8109  uint256 supply = totalSupply */\n      swap1\n      pop\n        /* \"VaultStandard.sol\":8189:8190  0 */\n      0x00\n        /* \"VaultStandard.sol\":8179:8185  supply */\n      dup2\n        /* \"VaultStandard.sol\":8179:8190  supply == 0 */\n      eq\n        /* \"VaultStandard.sol\":8179:8240  supply == 0 ? shares : shares.mulDivUp(totalAssets(), supply) */\n      tag_226\n      jumpi\n        /* \"VaultStandard.sol\":8202:8240  shares.mulDivUp(totalAssets(), supply) */\n      tag_227\n        /* \"VaultStandard.sol\":8218:8231  totalAssets() */\n      tag_228\n        /* \"VaultStandard.sol\":8218:8229  totalAssets */\n      tag_39\n        /* \"VaultStandard.sol\":8218:8231  totalAssets() */\n      jump\t// in\n    tag_228:\n        /* \"VaultStandard.sol\":8233:8239  supply */\n      dup3\n        /* \"VaultStandard.sol\":8202:8208  shares */\n      dup6\n        /* \"VaultStandard.sol\":8202:8217  shares.mulDivUp */\n      tag_182\n      swap1\n        /* \"VaultStandard.sol\":8202:8240  shares.mulDivUp(totalAssets(), supply) */\n      swap3\n      swap2\n      swap1\n      0xffffffff\n      and\n      jump\t// in\n    tag_227:\n        /* \"VaultStandard.sol\":8179:8240  supply == 0 ? shares : shares.mulDivUp(totalAssets(), supply) */\n      jump(tag_229)\n    tag_226:\n        /* \"VaultStandard.sol\":8193:8199  shares */\n      dup3\n        /* \"VaultStandard.sol\":8179:8240  supply == 0 ? shares : shares.mulDivUp(totalAssets(), supply) */\n    tag_229:\n        /* \"VaultStandard.sol\":8172:8240  return supply == 0 ? shares : shares.mulDivUp(totalAssets(), supply) */\n      swap2\n      pop\n      pop\n        /* \"VaultStandard.sol\":8004:8247  function previewMint(uint256 shares) public view returns (uint256) {... */\n      swap2\n      swap1\n      pop\n      jump\t// out\n        /* \"VaultStandard.sol\":3723:4693  function withdraw(... */\n    tag_121:\n        /* \"VaultStandard.sol\":3844:3858  uint256 shares */\n      0x00\n        /* \"VaultStandard.sol\":3879:3902  previewWithdraw(assets) */\n      tag_231\n        /* \"VaultStandard.sol\":3895:3901  assets */\n      dup5\n        /* \"VaultStandard.sol\":3879:3894  previewWithdraw */\n      tag_59\n        /* \"VaultStandard.sol\":3879:3902  previewWithdraw(assets) */\n      jump\t// in\n    tag_231:\n        /* \"VaultStandard.sol\":3870:3902  shares = previewWithdraw(assets) */\n      swap1\n      pop\n        /* \"VaultStandard.sol\":4122:4127  owner */\n      dup2\n        /* \"VaultStandard.sol\":4108:4127  msg.sender != owner */\n      0xffffffffffffffffffffffffffffffffffffffff\n      and\n        /* \"VaultStandard.sol\":4108:4118  msg.sender */\n      caller\n        /* \"VaultStandard.sol\":4108:4127  msg.sender != owner */\n      0xffffffffffffffffffffffffffffffffffffffff\n      and\n      eq\n        /* \"VaultStandard.sol\":4104:4443  if (msg.sender != owner) {... */\n      tag_232\n      jumpi\n        /* \"VaultStandard.sol\":4143:4158  uint256 allowed */\n      0x00\n        /* \"VaultStandard.sol\":4161:4170  allowance */\n      0x04\n        /* \"VaultStandard.sol\":4161:4177  allowance[owner] */\n      0x00\n        /* \"VaultStandard.sol\":4171:4176  owner */\n      dup5\n        /* \"VaultStandard.sol\":4161:4177  allowance[owner] */\n      0xffffffffffffffffffffffffffffffffffffffff\n      and\n      0xffffffffffffffffffffffffffffffffffffffff\n      and\n      dup2\n      mstore\n      0x20\n      add\n      swap1\n      dup2\n      mstore\n      0x20\n      add\n      0x00\n      keccak256\n        /* \"VaultStandard.sol\":4161:4189  allowance[owner][msg.sender] */\n      0x00\n        /* \"VaultStandard.sol\":4178:4188  msg.sender */\n      caller\n        /* \"VaultStandard.sol\":4161:4189  allowance[owner][msg.sender] */\n      0xffffffffffffffffffffffffffffffffffffffff\n      and\n      0xffffffffffffffffffffffffffffffffffffffff\n      and\n      dup2\n      mstore\n      0x20\n      add\n      swap1\n      dup2\n      mstore\n      0x20\n      add\n      0x00\n      keccak256\n      sload\n        /* \"VaultStandard.sol\":4143:4189  uint256 allowed = allowance[owner][msg.sender] */\n      swap1\n      pop\n        /* \"VaultStandard.sol\":4366:4383  type(uint256).max */\n      0xffffffffffffffffffffffffffffffffffffffffffffffffffffffffffffffff\n        /* \"VaultStandard.sol\":4355:4362  allowed */\n      dup2\n        /* \"VaultStandard.sol\":4355:4383  allowed != type(uint256).max */\n      eq\n        /* \"VaultStandard.sol\":4351:4432  if (allowed != type(uint256).max) allowance[owner][msg.sender] = allowed - shares */\n      tag_233\n      jumpi\n        /* \"VaultStandard.sol\":4426:4432  shares */\n      dup2\n        /* \"VaultStandard.sol\":4416:4423  allowed */\n      dup2\n        /* \"VaultStandard.sol\":4416:4432  allowed - shares */\n      tag_234\n      swap2\n      swap1\n      tag_187\n      jump\t// in\n    tag_234:\n        /* \"VaultStandard.sol\":4385:4394  allowance */\n      0x04\n        /* \"VaultStandard.sol\":4385:4401  allowance[owner] */\n      0x00\n        /* \"VaultStandard.sol\":4395:4400  owner */\n      dup6\n        /* \"VaultStandard.sol\":4385:4401  allowance[owner] */\n      0xffffffffffffffffffffffffffffffffffffffff\n      and\n      0xffffffffffffffffffffffffffffffffffffffff\n      and\n      dup2\n      mstore\n      0x20\n      add\n      swap1\n      dup2\n      mstore\n      0x20\n      add\n      0x00\n      keccak256\n        /* \"VaultStandard.sol\":4385:4413  allowance[owner][msg.sender] */\n      0x00\n        /* \"VaultStandard.sol\":4402:4412  msg.sender */\n      caller\n        /* \"VaultStandard.sol\":4385:4413  allowance[owner][msg.sender] */\n      0xffffffffffffffffffffffffffffffffffffffff\n      and\n      0xffffffffffffffffffffffffffffffffffffffff\n      and\n      dup2\n      mstore\n      0x20\n      add\n      swap1\n      dup2\n      mstore\n      0x20\n      add\n      0x00\n      keccak256\n        /* \"VaultStandard.sol\":4385:4432  allowance[owner][msg.sender] = allowed - shares */\n      dup2\n      swap1\n      sstore\n      pop\n        /* \"VaultStandard.sol\":4351:4432  if (allowed != type(uint256).max) allowance[owner][msg.sender] = allowed - shares */\n    tag_233:\n        /* \"VaultStandard.sol\":4104:4443  if (msg.sender != owner) {... */\n      pop\n    tag_232:\n        /* \"VaultStandard.sol\":4453:4483  beforeWithdraw(assets, shares) */\n      tag_235\n        /* \"VaultStandard.sol\":4468:4474  assets */\n      dup5\n        /* \"VaultStandard.sol\":4476:4482  shares */\n      dup3\n        /* \"VaultStandard.sol\":4453:4467  beforeWithdraw */\n      tag_236\n        /* \"VaultStandard.sol\":4453:4483  beforeWithdraw(assets, shares) */\n      jump\t// in\n    tag_235:\n        /* \"VaultStandard.sol\":4550:4570  _burn(owner, shares) */\n      tag_237\n        /* \"VaultStandard.sol\":4556:4561  owner */\n      dup3\n        /* \"VaultStandard.sol\":4563:4569  shares */\n      dup3\n        /* \"VaultStandard.sol\":4550:4555  _burn */\n      tag_238\n        /* \"VaultStandard.sol\":4550:4570  _burn(owner, shares) */\n      jump\t// in\n    tag_237:\n        /* \"VaultStandard.sol\":4617:4622  owner */\n      dup2\n        /* \"VaultStandard.sol\":4586:4639  Withdraw(msg.sender, receiver, owner, assets, shares) */\n      0xffffffffffffffffffffffffffffffffffffffff\n      and\n        /* \"VaultStandard.sol\":4607:4615  receiver */\n      dup4\n        /* \"VaultStandard.sol\":4586:4639  Withdraw(msg.sender, receiver, owner, assets, shares) */\n      0xffffffffffffffffffffffffffffffffffffffff\n      and\n        /* \"VaultStandard.sol\":4595:4605  msg.sender */\n      caller\n        /* \"VaultStandard.sol\":4586:4639  Withdraw(msg.sender, receiver, owner, assets, shares) */\n      0xffffffffffffffffffffffffffffffffffffffff\n      and\n      0xfbde797d201c681b91056529119e0b02407c7bb96a4a2c75c01fc9667232c8db\n        /* \"VaultStandard.sol\":4624:4630  assets */\n      dup8\n        /* \"VaultStandard.sol\":4632:4638  shares */\n      dup6\n        /* \"VaultStandard.sol\":4586:4639  Withdraw(msg.sender, receiver, owner, assets, shares) */\n      mload(0x40)\n      tag_239\n      swap3\n      swap2\n      swap1\n      tag_208\n      jump\t// in\n    tag_239:\n      mload(0x40)\n      dup1\n      swap2\n      sub\n      swap1\n      log4\n        /* \"VaultStandard.sol\":4650:4686  asset.safeTransfer(receiver, assets) */\n      tag_240\n        /* \"VaultStandard.sol\":4669:4677  receiver */\n      dup4\n        /* \"VaultStandard.sol\":4679:4685  assets */\n      dup6\n        /* \"VaultStandard.sol\":4650:4655  asset */\n      immutable(\"0xccb1f717aa77602faf03a594761a36956b1c4cf44c6b336d1db57da799b331b8\")\n        /* \"VaultStandard.sol\":4650:4668  asset.safeTransfer */\n      0xffffffffffffffffffffffffffffffffffffffff\n      and\n      tag_241\n      swap1\n        /* \"VaultStandard.sol\":4650:4686  asset.safeTransfer(receiver, assets) */\n      swap3\n      swap2\n      swap1\n      0xffffffff\n      and\n      jump\t// in\n    tag_240:\n        /* \"VaultStandard.sol\":3723:4693  function withdraw(... */\n      swap4\n      swap3\n      pop\n      pop\n      pop\n      jump\t// out\n        /* \"VaultStandard.sol\":4956:6033  function redeem(... */\n    tag_125:\n        /* \"VaultStandard.sol\":5067:5081  uint256 assets */\n      0x00\n        /* \"VaultStandard.sol\":5236:5241  owner */\n      dup2\n        /* \"VaultStandard.sol\":5222:5241  msg.sender != owner */\n      0xffffffffffffffffffffffffffffffffffffffff\n      and\n        /* \"VaultStandard.sol\":5222:5232  msg.sender */\n      caller\n        /* \"VaultStandard.sol\":5222:5241  msg.sender != owner */\n      0xffffffffffffffffffffffffffffffffffffffff\n      and\n      eq\n        /* \"VaultStandard.sol\":5218:5557  if (msg.sender != owner) {... */\n      tag_243\n      jumpi\n        /* \"VaultStandard.sol\":5257:5272  uint256 allowed */\n      0x00\n        /* \"VaultStandard.sol\":5275:5284  allowance */\n      0x04\n        /* \"VaultStandard.sol\":5275:5291  allowance[owner] */\n      0x00\n        /* \"VaultStandard.sol\":5285:5290  owner */\n      dup5\n        /* \"VaultStandard.sol\":5275:5291  allowance[owner] */\n      0xffffffffffffffffffffffffffffffffffffffff\n      and\n      0xffffffffffffffffffffffffffffffffffffffff\n      and\n      dup2\n      mstore\n      0x20\n      add\n      swap1\n      dup2\n      mstore\n      0x20\n      add\n      0x00\n      keccak256\n        /* \"VaultStandard.sol\":5275:5303  allowance[owner][msg.sender] */\n      0x00\n        /* \"VaultStandard.sol\":5292:5302  msg.sender */\n      caller\n        /* \"VaultStandard.sol\":5275:5303  allowance[owner][msg.sender] */\n      0xffffffffffffffffffffffffffffffffffffffff\n      and\n      0xffffffffffffffffffffffffffffffffffffffff\n      and\n      dup2\n      mstore\n      0x20\n      add\n      swap1\n      dup2\n      mstore\n      0x20\n      add\n      0x00\n      keccak256\n      sload\n        /* \"VaultStandard.sol\":5257:5303  uint256 allowed = allowance[owner][msg.sender] */\n      swap1\n      pop\n        /* \"VaultStandard.sol\":5480:5497  type(uint256).max */\n      0xffffffffffffffffffffffffffffffffffffffffffffffffffffffffffffffff\n        /* \"VaultStandard.sol\":5469:5476  allowed */\n      dup2\n        /* \"VaultStandard.sol\":5469:5497  allowed != type(uint256).max */\n      eq\n        /* \"VaultStandard.sol\":5465:5546  if (allowed != type(uint256).max) allowance[owner][msg.sender] = allowed - shares */\n      tag_244\n      jumpi\n        /* \"VaultStandard.sol\":5540:5546  shares */\n      dup5\n        /* \"VaultStandard.sol\":5530:5537  allowed */\n      dup2\n        /* \"VaultStandard.sol\":5530:5546  allowed - shares */\n      tag_245\n      swap2\n      swap1\n      tag_187\n      jump\t// in\n    tag_245:\n        /* \"VaultStandard.sol\":5499:5508  allowance */\n      0x04\n        /* \"VaultStandard.sol\":5499:5515  allowance[owner] */\n      0x00\n        /* \"VaultStandard.sol\":5509:5514  owner */\n      dup6\n        /* \"VaultStandard.sol\":5499:5515  allowance[owner] */\n      0xffffffffffffffffffffffffffffffffffffffff\n      and\n      0xffffffffffffffffffffffffffffffffffffffff\n      and\n      dup2\n      mstore\n      0x20\n      add\n      swap1\n      dup2\n      mstore\n      0x20\n      add\n      0x00\n      keccak256\n        /* \"VaultStandard.sol\":5499:5527  allowance[owner][msg.sender] */\n      0x00\n        /* \"VaultStandard.sol\":5516:5526  msg.sender */\n      caller\n        /* \"VaultStandard.sol\":5499:5527  allowance[owner][msg.sender] */\n      0xffffffffffffffffffffffffffffffffffffffff\n      and\n      0xffffffffffffffffffffffffffffffffffffffff\n      and\n      dup2\n      mstore\n      0x20\n      add\n      swap1\n      dup2\n      mstore\n      0x20\n      add\n      0x00\n      keccak256\n        /* \"VaultStandard.sol\":5499:5546  allowance[owner][msg.sender] = allowed - shares */\n      dup2\n      swap1\n      sstore\n      pop\n        /* \"VaultStandard.sol\":5465:5546  if (allowed != type(uint256).max) allowance[owner][msg.sender] = allowed - shares */\n    tag_244:\n        /* \"VaultStandard.sol\":5218:5557  if (msg.sender != owner) {... */\n      pop\n    tag_243:\n        /* \"VaultStandard.sol\":5765:5766  0 */\n      0x00\n        /* \"VaultStandard.sol\":5739:5760  previewRedeem(shares) */\n      tag_246\n        /* \"VaultStandard.sol\":5753:5759  shares */\n      dup6\n        /* \"VaultStandard.sol\":5739:5752  previewRedeem */\n      tag_88\n        /* \"VaultStandard.sol\":5739:5760  previewRedeem(shares) */\n      jump\t// in\n    tag_246:\n        /* \"VaultStandard.sol\":5730:5760  assets = previewRedeem(shares) */\n      swap2\n      pop\n      dup2\n        /* \"VaultStandard.sol\":5729:5766  (assets = previewRedeem(shares)) != 0 */\n      eq\n      iszero\n        /* \"VaultStandard.sol\":5721:5782  require((assets = previewRedeem(shares)) != 0, \"ZERO_ASSETS\") */\n      tag_247\n      jumpi\n      mload(0x40)\n      0x08c379a000000000000000000000000000000000000000000000000000000000\n      dup2\n      mstore\n      0x04\n      add\n      tag_248\n      swap1\n      tag_249\n      jump\t// in\n    tag_248:\n      mload(0x40)\n      dup1\n      swap2\n      sub\n      swap1\n      revert\n    tag_247:\n        /* \"VaultStandard.sol\":5793:5823  beforeWithdraw(assets, shares) */\n      tag_250\n        /* \"VaultStandard.sol\":5808:5814  assets */\n      dup2\n        /* \"VaultStandard.sol\":5816:5822  shares */\n      dup6\n        /* \"VaultStandard.sol\":5793:5807  beforeWithdraw */\n      tag_236\n        /* \"VaultStandard.sol\":5793:5823  beforeWithdraw(assets, shares) */\n      jump\t// in\n    tag_250:\n        /* \"VaultStandard.sol\":5890:5910  _burn(owner, shares) */\n      tag_251\n        /* \"VaultStandard.sol\":5896:5901  owner */\n      dup3\n        /* \"VaultStandard.sol\":5903:5909  shares */\n      dup6\n        /* \"VaultStandard.sol\":5890:5895  _burn */\n      tag_238\n        /* \"VaultStandard.sol\":5890:5910  _burn(owner, shares) */\n      jump\t// in\n    tag_251:\n        /* \"VaultStandard.sol\":5957:5962  owner */\n      dup2\n        /* \"VaultStandard.sol\":5926:5979  Withdraw(msg.sender, receiver, owner, assets, shares) */\n      0xffffffffffffffffffffffffffffffffffffffff\n      and\n        /* \"VaultStandard.sol\":5947:5955  receiver */\n      dup4\n        /* \"VaultStandard.sol\":5926:5979  Withdraw(msg.sender, receiver, owner, assets, shares) */\n      0xffffffffffffffffffffffffffffffffffffffff\n      and\n        /* \"VaultStandard.sol\":5935:5945  msg.sender */\n      caller\n        /* \"VaultStandard.sol\":5926:5979  Withdraw(msg.sender, receiver, owner, assets, shares) */\n      0xffffffffffffffffffffffffffffffffffffffff\n      and\n      0xfbde797d201c681b91056529119e0b02407c7bb96a4a2c75c01fc9667232c8db\n        /* \"VaultStandard.sol\":5964:5970  assets */\n      dup5\n        /* \"VaultStandard.sol\":5972:5978  shares */\n      dup9\n        /* \"VaultStandard.sol\":5926:5979  Withdraw(msg.sender, receiver, owner, assets, shares) */\n      mload(0x40)\n      tag_252\n      swap3\n      swap2\n      swap1\n      tag_208\n      jump\t// in\n    tag_252:\n      mload(0x40)\n      dup1\n      swap2\n      sub\n      swap1\n      log4\n        /* \"VaultStandard.sol\":5990:6026  asset.safeTransfer(receiver, assets) */\n      tag_253\n        /* \"VaultStandard.sol\":6009:6017  receiver */\n      dup4\n        /* \"VaultStandard.sol\":6019:6025  assets */\n      dup3\n        /* \"VaultStandard.sol\":5990:5995  asset */\n      immutable(\"0xccb1f717aa77602faf03a594761a36956b1c4cf44c6b336d1db57da799b331b8\")\n        /* \"VaultStandard.sol\":5990:6008  asset.safeTransfer */\n      0xffffffffffffffffffffffffffffffffffffffff\n      and\n      tag_241\n      swap1\n        /* \"VaultStandard.sol\":5990:6026  asset.safeTransfer(receiver, assets) */\n      swap3\n      swap2\n      swap1\n      0xffffffff\n      and\n      jump\t// in\n    tag_253:\n        /* \"VaultStandard.sol\":4956:6033  function redeem(... */\n      swap4\n      swap3\n      pop\n      pop\n      pop\n      jump\t// out\n        /* \"VaultStandard.sol\":9337:9434  function maxMint(address) public view returns (uint256) {... */\n    tag_129:\n        /* \"VaultStandard.sol\":9384:9391  uint256 */\n      0x00\n        /* \"VaultStandard.sol\":9410:9427  type(uint256).max */\n      0xffffffffffffffffffffffffffffffffffffffffffffffffffffffffffffffff\n        /* \"VaultStandard.sol\":9403:9427  return type(uint256).max */\n      swap1\n      pop\n        /* \"VaultStandard.sol\":9337:9434  function maxMint(address) public view returns (uint256) {... */\n      swap2\n      swap1\n      pop\n      jump\t// out\n        /* \"VaultStandard.sol\":6604:7115  function convertToShares(uint256 assets) public view returns (uint256) {... */\n    tag_133:\n        /* \"VaultStandard.sol\":6666:6673  uint256 */\n      0x00\n        /* \"VaultStandard.sol\":6728:6742  uint256 supply */\n      dup1\n        /* \"VaultStandard.sol\":6745:6756  totalSupply */\n      sload(0x02)\n        /* \"VaultStandard.sol\":6728:6756  uint256 supply = totalSupply */\n      swap1\n      pop\n        /* \"VaultStandard.sol\":7055:7056  0 */\n      0x00\n        /* \"VaultStandard.sol\":7045:7051  supply */\n      dup2\n        /* \"VaultStandard.sol\":7045:7056  supply == 0 */\n      eq\n        /* \"VaultStandard.sol\":7045:7108  supply == 0 ? assets : assets.mulDivDown(supply, totalAssets()) */\n      tag_256\n      jumpi\n        /* \"VaultStandard.sol\":7068:7108  assets.mulDivDown(supply, totalAssets()) */\n      tag_257\n        /* \"VaultStandard.sol\":7086:7092  supply */\n      dup2\n        /* \"VaultStandard.sol\":7094:7107  totalAssets() */\n      tag_258\n        /* \"VaultStandard.sol\":7094:7105  totalAssets */\n      tag_39\n        /* \"VaultStandard.sol\":7094:7107  totalAssets() */\n      jump\t// in\n    tag_258:\n        /* \"VaultStandard.sol\":7068:7074  assets */\n      dup6\n        /* \"VaultStandard.sol\":7068:7085  assets.mulDivDown */\n      tag_174\n      swap1\n        /* \"VaultStandard.sol\":7068:7108  assets.mulDivDown(supply, totalAssets()) */\n      swap3\n      swap2\n      swap1\n      0xffffffff\n      and\n      jump\t// in\n    tag_257:\n        /* \"VaultStandard.sol\":7045:7108  supply == 0 ? assets : assets.mulDivDown(supply, totalAssets()) */\n      jump(tag_259)\n    tag_256:\n        /* \"VaultStandard.sol\":7059:7065  assets */\n      dup3\n        /* \"VaultStandard.sol\":7045:7108  supply == 0 ? assets : assets.mulDivDown(supply, totalAssets()) */\n    tag_259:\n        /* \"VaultStandard.sol\":7038:7108  return supply == 0 ? assets : assets.mulDivDown(supply, totalAssets()) */\n      swap2\n      pop\n      pop\n        /* \"VaultStandard.sol\":6604:7115  function convertToShares(uint256 assets) public view returns (uint256) {... */\n      swap2\n      swap1\n      pop\n      jump\t// out\n        /* \"VaultStandard.sol\":9619:9742  function maxWithdraw(address owner) public view returns (uint256) {... */\n    tag_137:\n        /* \"VaultStandard.sol\":9676:9683  uint256 */\n      0x00\n        /* \"VaultStandard.sol\":9702:9735  convertToAssets(balanceOf[owner]) */\n      tag_261\n        /* \"VaultStandard.sol\":9718:9727  balanceOf */\n      0x03\n        /* \"VaultStandard.sol\":9718:9734  balanceOf[owner] */\n      0x00\n        /* \"VaultStandard.sol\":9728:9733  owner */\n      dup5\n        /* \"VaultStandard.sol\":9718:9734  balanceOf[owner] */\n      0xffffffffffffffffffffffffffffffffffffffff\n      and\n      0xffffffffffffffffffffffffffffffffffffffff\n      and\n      dup2\n      mstore\n      0x20\n      add\n      swap1\n      dup2\n      mstore\n      0x20\n      add\n      0x00\n      keccak256\n      sload\n        /* \"VaultStandard.sol\":9702:9717  convertToAssets */\n      tag_49\n        /* \"VaultStandard.sol\":9702:9735  convertToAssets(balanceOf[owner]) */\n      jump\t// in\n    tag_261:\n        /* \"VaultStandard.sol\":9695:9735  return convertToAssets(balanceOf[owner]) */\n      swap1\n      pop\n        /* \"VaultStandard.sol\":9619:9742  function maxWithdraw(address owner) public view returns (uint256) {... */\n      swap2\n      swap1\n      pop\n      jump\t// out\n        /* \"https://github.com/Rari-Capital/solmate/blob/main/src/tokens/ERC20.sol\":3835:5318  function permit(... */\n    tag_142:\n        /* \"https://github.com/Rari-Capital/solmate/blob/main/src/tokens/ERC20.sol\":4054:4069  block.timestamp */\n      timestamp\n        /* \"https://github.com/Rari-Capital/solmate/blob/main/src/tokens/ERC20.sol\":4042:4050  deadline */\n      dup5\n        /* \"https://github.com/Rari-Capital/solmate/blob/main/src/tokens/ERC20.sol\":4042:4069  deadline >= block.timestamp */\n      lt\n      iszero\n        /* \"https://github.com/Rari-Capital/solmate/blob/main/src/tokens/ERC20.sol\":4034:4097  require(deadline >= block.timestamp, \"PERMIT_DEADLINE_EXPIRED\") */\n      tag_263\n      jumpi\n      mload(0x40)\n      0x08c379a000000000000000000000000000000000000000000000000000000000\n      dup2\n      mstore\n      0x04\n      add\n      tag_264\n      swap1\n      tag_265\n      jump\t// in\n    tag_264:\n      mload(0x40)\n      dup1\n      swap2\n      sub\n      swap1\n      revert\n    tag_263:\n        /* \"https://github.com/Rari-Capital/solmate/blob/main/src/tokens/ERC20.sol\":4262:4286  address recoveredAddress */\n      0x00\n        /* \"https://github.com/Rari-Capital/solmate/blob/main/src/tokens/ERC20.sol\":4289:5094  ecrecover(... */\n      0x01\n        /* \"https://github.com/Rari-Capital/solmate/blob/main/src/tokens/ERC20.sol\":4425:4443  DOMAIN_SEPARATOR() */\n      tag_266\n        /* \"https://github.com/Rari-Capital/solmate/blob/main/src/tokens/ERC20.sol\":4425:4441  DOMAIN_SEPARATOR */\n      tag_74\n        /* \"https://github.com/Rari-Capital/solmate/blob/main/src/tokens/ERC20.sol\":4425:4443  DOMAIN_SEPARATOR() */\n      jump\t// in\n    tag_266:\n        /* \"https://github.com/Rari-Capital/solmate/blob/main/src/tokens/ERC20.sol\":4552:4717  keccak256(... */\n      0x6e71edae12b1b97f4d1f60370fef10105fa2faae0126114a169c64845d6126c9\n        /* \"https://github.com/Rari-Capital/solmate/blob/main/src/tokens/ERC20.sol\":4751:4756  owner */\n      dup11\n        /* \"https://github.com/Rari-Capital/solmate/blob/main/src/tokens/ERC20.sol\":4790:4797  spender */\n      dup11\n        /* \"https://github.com/Rari-Capital/solmate/blob/main/src/tokens/ERC20.sol\":4831:4836  value */\n      dup11\n        /* \"https://github.com/Rari-Capital/solmate/blob/main/src/tokens/ERC20.sol\":4870:4876  nonces */\n      0x05\n        /* \"https://github.com/Rari-Capital/solmate/blob/main/src/tokens/ERC20.sol\":4870:4883  nonces[owner] */\n      0x00\n        /* \"https://github.com/Rari-Capital/solmate/blob/main/src/tokens/ERC20.sol\":4877:4882  owner */\n      dup16\n        /* \"https://github.com/Rari-Capital/solmate/blob/main/src/tokens/ERC20.sol\":4870:4883  nonces[owner] */\n      0xffffffffffffffffffffffffffffffffffffffff\n      and\n      0xffffffffffffffffffffffffffffffffffffffff\n      and\n      dup2\n      mstore\n      0x20\n      add\n      swap1\n      dup2\n      mstore\n      0x20\n      add\n      0x00\n      keccak256\n      0x00\n        /* \"https://github.com/Rari-Capital/solmate/blob/main/src/tokens/ERC20.sol\":4870:4885  nonces[owner]++ */\n      dup2\n      sload\n      dup1\n      swap3\n      swap2\n      swap1\n      0x01\n      add\n      swap2\n      swap1\n      pop\n      sstore\n        /* \"https://github.com/Rari-Capital/solmate/blob/main/src/tokens/ERC20.sol\":4919:4927  deadline */\n      dup12\n        /* \"https://github.com/Rari-Capital/solmate/blob/main/src/tokens/ERC20.sol\":4508:4957  abi.encode(... */\n      add(0x20, mload(0x40))\n      tag_267\n      swap7\n      swap6\n      swap5\n      swap4\n      swap3\n      swap2\n      swap1\n      tag_268\n      jump\t// in\n    tag_267:\n      mload(0x40)\n      0x20\n      dup2\n      dup4\n      sub\n      sub\n      dup2\n      mstore\n      swap1\n      0x40\n      mstore\n        /* \"https://github.com/Rari-Capital/solmate/blob/main/src/tokens/ERC20.sol\":4469:4983  keccak256(... */\n      dup1\n      mload\n      swap1\n      0x20\n      add\n      keccak256\n        /* \"https://github.com/Rari-Capital/solmate/blob/main/src/tokens/ERC20.sol\":4347:5005  abi.encodePacked(... */\n      add(0x20, mload(0x40))\n      tag_269\n      swap3\n      swap2\n      swap1\n      tag_270\n      jump\t// in\n    tag_269:\n      mload(0x40)\n      0x20\n      dup2\n      dup4\n      sub\n      sub\n      dup2\n      mstore\n      swap1\n      0x40\n      mstore\n        /* \"https://github.com/Rari-Capital/solmate/blob/main/src/tokens/ERC20.sol\":4316:5023  keccak256(... */\n      dup1\n      mload\n      swap1\n      0x20\n      add\n      keccak256\n        /* \"https://github.com/Rari-Capital/solmate/blob/main/src/tokens/ERC20.sol\":5041:5042  v */\n      dup6\n        /* \"https://github.com/Rari-Capital/solmate/blob/main/src/tokens/ERC20.sol\":5060:5061  r */\n      dup6\n        /* \"https://github.com/Rari-Capital/solmate/blob/main/src/tokens/ERC20.sol\":5079:5080  s */\n      dup6\n        /* \"https://github.com/Rari-Capital/solmate/blob/main/src/tokens/ERC20.sol\":4289:5094  ecrecover(... */\n      mload(0x40)\n      0x00\n      dup2\n      mstore\n      0x20\n      add\n      0x40\n      mstore\n      mload(0x40)\n      tag_271\n      swap5\n      swap4\n      swap3\n      swap2\n      swap1\n      tag_272\n      jump\t// in\n    tag_271:\n      0x20\n      mload(0x40)\n      0x20\n      dup2\n      sub\n      swap1\n      dup1\n      dup5\n      sub\n      swap1\n      dup6\n      gas\n      staticcall\n      iszero\n      dup1\n      iszero\n      tag_274\n      jumpi\n      returndatasize\n      0x00\n      dup1\n      returndatacopy\n      revert(0x00, returndatasize)\n    tag_274:\n      pop\n      pop\n      pop\n      mload(sub(mload(0x40), 0x20))\n        /* \"https://github.com/Rari-Capital/solmate/blob/main/src/tokens/ERC20.sol\":4262:5094  address recoveredAddress = ecrecover(... */\n      swap1\n      pop\n        /* \"https://github.com/Rari-Capital/solmate/blob/main/src/tokens/ERC20.sol\":5145:5146  0 */\n      0x00\n        /* \"https://github.com/Rari-Capital/solmate/blob/main/src/tokens/ERC20.sol\":5117:5147  recoveredAddress != address(0) */\n      0xffffffffffffffffffffffffffffffffffffffff\n      and\n        /* \"https://github.com/Rari-Capital/solmate/blob/main/src/tokens/ERC20.sol\":5117:5133  recoveredAddress */\n      dup2\n        /* \"https://github.com/Rari-Capital/solmate/blob/main/src/tokens/ERC20.sol\":5117:5147  recoveredAddress != address(0) */\n      0xffffffffffffffffffffffffffffffffffffffff\n      and\n      eq\n      iszero\n        /* \"https://github.com/Rari-Capital/solmate/blob/main/src/tokens/ERC20.sol\":5117:5176  recoveredAddress != address(0) && recoveredAddress == owner */\n      dup1\n      iszero\n      tag_275\n      jumpi\n      pop\n        /* \"https://github.com/Rari-Capital/solmate/blob/main/src/tokens/ERC20.sol\":5171:5176  owner */\n      dup8\n        /* \"https://github.com/Rari-Capital/solmate/blob/main/src/tokens/ERC20.sol\":5151:5176  recoveredAddress == owner */\n      0xffffffffffffffffffffffffffffffffffffffff\n      and\n        /* \"https://github.com/Rari-Capital/solmate/blob/main/src/tokens/ERC20.sol\":5151:5167  recoveredAddress */\n      dup2\n        /* \"https://github.com/Rari-Capital/solmate/blob/main/src/tokens/ERC20.sol\":5151:5176  recoveredAddress == owner */\n      0xffffffffffffffffffffffffffffffffffffffff\n      and\n      eq\n        /* \"https://github.com/Rari-Capital/solmate/blob/main/src/tokens/ERC20.sol\":5117:5176  recoveredAddress != address(0) && recoveredAddress == owner */\n    tag_275:\n        /* \"https://github.com/Rari-Capital/solmate/blob/main/src/tokens/ERC20.sol\":5109:5195  require(recoveredAddress != address(0) && recoveredAddress == owner, \"INVALID_SIGNER\") */\n      tag_276\n      jumpi\n      mload(0x40)\n      0x08c379a000000000000000000000000000000000000000000000000000000000\n      dup2\n      mstore\n      0x04\n      add\n      tag_277\n      swap1\n      tag_278\n      jump\t// in\n    tag_277:\n      mload(0x40)\n      dup1\n      swap2\n      sub\n      swap1\n      revert\n    tag_276:\n        /* \"https://github.com/Rari-Capital/solmate/blob/main/src/tokens/ERC20.sol\":5249:5254  value */\n      dup6\n        /* \"https://github.com/Rari-Capital/solmate/blob/main/src/tokens/ERC20.sol\":5210:5219  allowance */\n      0x04\n        /* \"https://github.com/Rari-Capital/solmate/blob/main/src/tokens/ERC20.sol\":5210:5237  allowance[recoveredAddress] */\n      0x00\n        /* \"https://github.com/Rari-Capital/solmate/blob/main/src/tokens/ERC20.sol\":5220:5236  recoveredAddress */\n      dup4\n        /* \"https://github.com/Rari-Capital/solmate/blob/main/src/tokens/ERC20.sol\":5210:5237  allowance[recoveredAddress] */\n      0xffffffffffffffffffffffffffffffffffffffff\n      and\n      0xffffffffffffffffffffffffffffffffffffffff\n      and\n      dup2\n      mstore\n      0x20\n      add\n      swap1\n      dup2\n      mstore\n      0x20\n      add\n      0x00\n      keccak256\n        /* \"https://github.com/Rari-Capital/solmate/blob/main/src/tokens/ERC20.sol\":5210:5246  allowance[recoveredAddress][spender] */\n      0x00\n        /* \"https://github.com/Rari-Capital/solmate/blob/main/src/tokens/ERC20.sol\":5238:5245  spender */\n      dup10\n        /* \"https://github.com/Rari-Capital/solmate/blob/main/src/tokens/ERC20.sol\":5210:5246  allowance[recoveredAddress][spender] */\n      0xffffffffffffffffffffffffffffffffffffffff\n      and\n      0xffffffffffffffffffffffffffffffffffffffff\n      and\n      dup2\n      mstore\n      0x20\n      add\n      swap1\n      dup2\n      mstore\n      0x20\n      add\n      0x00\n      keccak256\n        /* \"https://github.com/Rari-Capital/solmate/blob/main/src/tokens/ERC20.sol\":5210:5254  allowance[recoveredAddress][spender] = value */\n      dup2\n      swap1\n      sstore\n      pop\n        /* \"https://github.com/Rari-Capital/solmate/blob/main/src/tokens/ERC20.sol\":3835:5318  function permit(... */\n      pop\n        /* \"https://github.com/Rari-Capital/solmate/blob/main/src/tokens/ERC20.sol\":5296:5303  spender */\n      dup6\n        /* \"https://github.com/Rari-Capital/solmate/blob/main/src/tokens/ERC20.sol\":5280:5311  Approval(owner, spender, value) */\n      0xffffffffffffffffffffffffffffffffffffffff\n      and\n        /* \"https://github.com/Rari-Capital/solmate/blob/main/src/tokens/ERC20.sol\":5289:5294  owner */\n      dup8\n        /* \"https://github.com/Rari-Capital/solmate/blob/main/src/tokens/ERC20.sol\":5280:5311  Approval(owner, spender, value) */\n      0xffffffffffffffffffffffffffffffffffffffff\n      and\n      0x8c5be1e5ebec7d5bd14f71427d1e84f3dd0314c0f7b2291e5b200ac8c7c3b925\n        /* \"https://github.com/Rari-Capital/solmate/blob/main/src/tokens/ERC20.sol\":5305:5310  value */\n      dup8\n        /* \"https://github.com/Rari-Capital/solmate/blob/main/src/tokens/ERC20.sol\":5280:5311  Approval(owner, spender, value) */\n      mload(0x40)\n      tag_279\n      swap2\n      swap1\n      tag_41\n      jump\t// in\n    tag_279:\n      mload(0x40)\n      dup1\n      swap2\n      sub\n      swap1\n      log3\n        /* \"https://github.com/Rari-Capital/solmate/blob/main/src/tokens/ERC20.sol\":3835:5318  function permit(... */\n      pop\n      pop\n      pop\n      pop\n      pop\n      pop\n      pop\n      jump\t// out\n        /* \"VaultStandard.sol\":9870:9974  function maxRedeem(address owner) public view returns (uint256) {... */\n    tag_145:\n        /* \"VaultStandard.sol\":9925:9932  uint256 */\n      0x00\n        /* \"VaultStandard.sol\":9951:9960  balanceOf */\n      0x03\n        /* \"VaultStandard.sol\":9951:9967  balanceOf[owner] */\n      0x00\n        /* \"VaultStandard.sol\":9961:9966  owner */\n      dup4\n        /* \"VaultStandard.sol\":9951:9967  balanceOf[owner] */\n      0xffffffffffffffffffffffffffffffffffffffff\n      and\n      0xffffffffffffffffffffffffffffffffffffffff\n      and\n      dup2\n      mstore\n      0x20\n      add\n      swap1\n      dup2\n      mstore\n      0x20\n      add\n      0x00\n      keccak256\n      sload\n        /* \"VaultStandard.sol\":9944:9967  return balanceOf[owner] */\n      swap1\n      pop\n        /* \"VaultStandard.sol\":9870:9974  function maxRedeem(address owner) public view returns (uint256) {... */\n      swap2\n      swap1\n      pop\n      jump\t// out\n        /* \"https://github.com/Rari-Capital/solmate/blob/main/src/tokens/ERC20.sol\":1385:1449  mapping(address => mapping(address => uint256)) public allowance */\n    tag_150:\n      mstore(0x20, 0x04)\n      dup2\n      0x00\n      mstore\n      mstore(0x20, keccak256(0x00, 0x40))\n      dup1\n      0x00\n      mstore\n      keccak256(0x00, 0x40)\n      0x00\n      swap2\n      pop\n      swap2\n      pop\n      pop\n      sload\n      dup2\n      jump\t// out\n        /* \"VaultStandard.sol\":7742:7859  function previewDeposit(uint256 assets) public view returns (uint256) {... */\n    tag_154:\n        /* \"VaultStandard.sol\":7803:7810  uint256 */\n      0x00\n        /* \"VaultStandard.sol\":7829:7852  convertToShares(assets) */\n      tag_282\n        /* \"VaultStandard.sol\":7845:7851  assets */\n      dup3\n        /* \"VaultStandard.sol\":7829:7844  convertToShares */\n      tag_133\n        /* \"VaultStandard.sol\":7829:7852  convertToShares(assets) */\n      jump\t// in\n    tag_282:\n        /* \"VaultStandard.sol\":7822:7852  return convertToShares(assets) */\n      swap1\n      pop\n        /* \"VaultStandard.sol\":7742:7859  function previewDeposit(uint256 assets) public view returns (uint256) {... */\n      swap2\n      swap1\n      pop\n      jump\t// out\n        /* \"https://github.com/Rari-Capital/solmate/blob/main/src/utils/FixedPointMathLib.sol\":1504:2039  function mulDivDown(... */\n    tag_174:\n        /* \"https://github.com/Rari-Capital/solmate/blob/main/src/utils/FixedPointMathLib.sol\":1620:1629  uint256 z */\n      0x00\n        /* \"https://github.com/Rari-Capital/solmate/blob/main/src/utils/FixedPointMathLib.sol\":1717:1718  y */\n      dup3\n        /* \"https://github.com/Rari-Capital/solmate/blob/main/src/utils/FixedPointMathLib.sol\":1714:1715  x */\n      dup5\n        /* \"https://github.com/Rari-Capital/solmate/blob/main/src/utils/FixedPointMathLib.sol\":1710:1719  mul(x, y) */\n      mul\n        /* \"https://github.com/Rari-Capital/solmate/blob/main/src/utils/FixedPointMathLib.sol\":1705:1719  z := mul(x, y) */\n      swap1\n      pop\n        /* \"https://github.com/Rari-Capital/solmate/blob/main/src/utils/FixedPointMathLib.sol\":1891:1892  y */\n      dup3\n        /* \"https://github.com/Rari-Capital/solmate/blob/main/src/utils/FixedPointMathLib.sol\":1887:1888  x */\n      dup5\n        /* \"https://github.com/Rari-Capital/solmate/blob/main/src/utils/FixedPointMathLib.sol\":1884:1885  z */\n      dup3\n        /* \"https://github.com/Rari-Capital/solmate/blob/main/src/utils/FixedPointMathLib.sol\":1880:1889  div(z, x) */\n      div\n        /* \"https://github.com/Rari-Capital/solmate/blob/main/src/utils/FixedPointMathLib.sol\":1877:1893  eq(div(z, x), y) */\n      eq\n        /* \"https://github.com/Rari-Capital/solmate/blob/main/src/utils/FixedPointMathLib.sol\":1873:1874  x */\n      dup5\n        /* \"https://github.com/Rari-Capital/solmate/blob/main/src/utils/FixedPointMathLib.sol\":1866:1875  iszero(x) */\n      iszero\n        /* \"https://github.com/Rari-Capital/solmate/blob/main/src/utils/FixedPointMathLib.sol\":1863:1894  or(iszero(x), eq(div(z, x), y)) */\n      or\n        /* \"https://github.com/Rari-Capital/solmate/blob/main/src/utils/FixedPointMathLib.sol\":1848:1859  denominator */\n      dup3\n        /* \"https://github.com/Rari-Capital/solmate/blob/main/src/utils/FixedPointMathLib.sol\":1841:1860  iszero(denominator) */\n      iszero\n        /* \"https://github.com/Rari-Capital/solmate/blob/main/src/utils/FixedPointMathLib.sol\":1834:1861  iszero(iszero(denominator)) */\n      iszero\n        /* \"https://github.com/Rari-Capital/solmate/blob/main/src/utils/FixedPointMathLib.sol\":1830:1895  and(iszero(iszero(denominator)), or(iszero(x), eq(div(z, x), y))) */\n      and\n        /* \"https://github.com/Rari-Capital/solmate/blob/main/src/utils/FixedPointMathLib.sol\":1820:1822  if */\n      tag_284\n      jumpi\n        /* \"https://github.com/Rari-Capital/solmate/blob/main/src/utils/FixedPointMathLib.sol\":1925:1926  0 */\n      0x00\n        /* \"https://github.com/Rari-Capital/solmate/blob/main/src/utils/FixedPointMathLib.sol\":1922:1923  0 */\n      dup1\n        /* \"https://github.com/Rari-Capital/solmate/blob/main/src/utils/FixedPointMathLib.sol\":1915:1927  revert(0, 0) */\n      revert\n        /* \"https://github.com/Rari-Capital/solmate/blob/main/src/utils/FixedPointMathLib.sol\":1820:1822  if */\n    tag_284:\n        /* \"https://github.com/Rari-Capital/solmate/blob/main/src/utils/FixedPointMathLib.sol\":2011:2022  denominator */\n      dup2\n        /* \"https://github.com/Rari-Capital/solmate/blob/main/src/utils/FixedPointMathLib.sol\":2008:2009  z */\n      dup2\n        /* \"https://github.com/Rari-Capital/solmate/blob/main/src/utils/FixedPointMathLib.sol\":2004:2023  div(z, denominator) */\n      div\n        /* \"https://github.com/Rari-Capital/solmate/blob/main/src/utils/FixedPointMathLib.sol\":1999:2023  z := div(z, denominator) */\n      swap1\n      pop\n        /* \"https://github.com/Rari-Capital/solmate/blob/main/src/utils/FixedPointMathLib.sol\":1650:2033  {... */\n      swap4\n      swap3\n      pop\n      pop\n      pop\n      jump\t// out\n        /* \"https://github.com/Rari-Capital/solmate/blob/main/src/utils/FixedPointMathLib.sol\":2045:2797  function mulDivUp(... */\n    tag_182:\n        /* \"https://github.com/Rari-Capital/solmate/blob/main/src/utils/FixedPointMathLib.sol\":2159:2168  uint256 z */\n      0x00\n        /* \"https://github.com/Rari-Capital/solmate/blob/main/src/utils/FixedPointMathLib.sol\":2256:2257  y */\n      dup3\n        /* \"https://github.com/Rari-Capital/solmate/blob/main/src/utils/FixedPointMathLib.sol\":2253:2254  x */\n      dup5\n        /* \"https://github.com/Rari-Capital/solmate/blob/main/src/utils/FixedPointMathLib.sol\":2249:2258  mul(x, y) */\n      mul\n        /* \"https://github.com/Rari-Capital/solmate/blob/main/src/utils/FixedPointMathLib.sol\":2244:2258  z := mul(x, y) */\n      swap1\n      pop\n        /* \"https://github.com/Rari-Capital/solmate/blob/main/src/utils/FixedPointMathLib.sol\":2430:2431  y */\n      dup3\n        /* \"https://github.com/Rari-Capital/solmate/blob/main/src/utils/FixedPointMathLib.sol\":2426:2427  x */\n      dup5\n        /* \"https://github.com/Rari-Capital/solmate/blob/main/src/utils/FixedPointMathLib.sol\":2423:2424  z */\n      dup3\n        /* \"https://github.com/Rari-Capital/solmate/blob/main/src/utils/FixedPointMathLib.sol\":2419:2428  div(z, x) */\n      div\n        /* \"https://github.com/Rari-Capital/solmate/blob/main/src/utils/FixedPointMathLib.sol\":2416:2432  eq(div(z, x), y) */\n      eq\n        /* \"https://github.com/Rari-Capital/solmate/blob/main/src/utils/FixedPointMathLib.sol\":2412:2413  x */\n      dup5\n        /* \"https://github.com/Rari-Capital/solmate/blob/main/src/utils/FixedPointMathLib.sol\":2405:2414  iszero(x) */\n      iszero\n        /* \"https://github.com/Rari-Capital/solmate/blob/main/src/utils/FixedPointMathLib.sol\":2402:2433  or(iszero(x), eq(div(z, x), y)) */\n      or\n        /* \"https://github.com/Rari-Capital/solmate/blob/main/src/utils/FixedPointMathLib.sol\":2387:2398  denominator */\n      dup3\n        /* \"https://github.com/Rari-Capital/solmate/blob/main/src/utils/FixedPointMathLib.sol\":2380:2399  iszero(denominator) */\n      iszero\n        /* \"https://github.com/Rari-Capital/solmate/blob/main/src/utils/FixedPointMathLib.sol\":2373:2400  iszero(iszero(denominator)) */\n      iszero\n        /* \"https://github.com/Rari-Capital/solmate/blob/main/src/utils/FixedPointMathLib.sol\":2369:2434  and(iszero(iszero(denominator)), or(iszero(x), eq(div(z, x), y))) */\n      and\n        /* \"https://github.com/Rari-Capital/solmate/blob/main/src/utils/FixedPointMathLib.sol\":2359:2361  if */\n      tag_286\n      jumpi\n        /* \"https://github.com/Rari-Capital/solmate/blob/main/src/utils/FixedPointMathLib.sol\":2464:2465  0 */\n      0x00\n        /* \"https://github.com/Rari-Capital/solmate/blob/main/src/utils/FixedPointMathLib.sol\":2461:2462  0 */\n      dup1\n        /* \"https://github.com/Rari-Capital/solmate/blob/main/src/utils/FixedPointMathLib.sol\":2454:2466  revert(0, 0) */\n      revert\n        /* \"https://github.com/Rari-Capital/solmate/blob/main/src/utils/FixedPointMathLib.sol\":2359:2361  if */\n    tag_286:\n        /* \"https://github.com/Rari-Capital/solmate/blob/main/src/utils/FixedPointMathLib.sol\":2778:2779  1 */\n      0x01\n        /* \"https://github.com/Rari-Capital/solmate/blob/main/src/utils/FixedPointMathLib.sol\":2764:2775  denominator */\n      dup3\n        /* \"https://github.com/Rari-Capital/solmate/blob/main/src/utils/FixedPointMathLib.sol\":2760:2761  1 */\n      0x01\n        /* \"https://github.com/Rari-Capital/solmate/blob/main/src/utils/FixedPointMathLib.sol\":2757:2758  z */\n      dup4\n        /* \"https://github.com/Rari-Capital/solmate/blob/main/src/utils/FixedPointMathLib.sol\":2753:2762  sub(z, 1) */\n      sub\n        /* \"https://github.com/Rari-Capital/solmate/blob/main/src/utils/FixedPointMathLib.sol\":2749:2776  div(sub(z, 1), denominator) */\n      div\n        /* \"https://github.com/Rari-Capital/solmate/blob/main/src/utils/FixedPointMathLib.sol\":2745:2780  add(div(sub(z, 1), denominator), 1) */\n      add\n        /* \"https://github.com/Rari-Capital/solmate/blob/main/src/utils/FixedPointMathLib.sol\":2740:2741  z */\n      dup2\n        /* \"https://github.com/Rari-Capital/solmate/blob/main/src/utils/FixedPointMathLib.sol\":2733:2742  iszero(z) */\n      iszero\n        /* \"https://github.com/Rari-Capital/solmate/blob/main/src/utils/FixedPointMathLib.sol\":2726:2743  iszero(iszero(z)) */\n      iszero\n        /* \"https://github.com/Rari-Capital/solmate/blob/main/src/utils/FixedPointMathLib.sol\":2722:2781  mul(iszero(iszero(z)), add(div(sub(z, 1), denominator), 1)) */\n      mul\n        /* \"https://github.com/Rari-Capital/solmate/blob/main/src/utils/FixedPointMathLib.sol\":2717:2781  z := mul(iszero(iszero(z)), add(div(sub(z, 1), denominator), 1)) */\n      swap1\n      pop\n        /* \"https://github.com/Rari-Capital/solmate/blob/main/src/utils/FixedPointMathLib.sol\":2189:2791  {... */\n      swap4\n      swap3\n      pop\n      pop\n      pop\n      jump\t// out\n        /* \"https://github.com/Rari-Capital/solmate/blob/main/src/tokens/ERC20.sol\":5507:5953  function computeDomainSeparator() internal view virtual returns (bytes32) {... */\n    tag_193:\n        /* \"https://github.com/Rari-Capital/solmate/blob/main/src/tokens/ERC20.sol\":5572:5579  bytes32 */\n      0x00\n        /* \"https://github.com/Rari-Capital/solmate/blob/main/src/tokens/ERC20.sol\":5669:5764  keccak256(\"EIP712Domain(string name,string version,uint256 chainId,address verifyingContract)\") */\n      0x8b73c3c69bb8fe3d512ecc4cf759cc79239f7b179b0ffacaa9a75d522b39400f\n        /* \"https://github.com/Rari-Capital/solmate/blob/main/src/tokens/ERC20.sol\":5802:5806  name */\n      0x00\n        /* \"https://github.com/Rari-Capital/solmate/blob/main/src/tokens/ERC20.sol\":5786:5808  keccak256(bytes(name)) */\n      mload(0x40)\n      tag_288\n      swap2\n      swap1\n      tag_289\n      jump\t// in\n    tag_288:\n      mload(0x40)\n      dup1\n      swap2\n      sub\n      swap1\n      keccak256\n        /* \"https://github.com/Rari-Capital/solmate/blob/main/src/tokens/ERC20.sol\":5830:5844  keccak256(\"1\") */\n      0xc89efdaa54c0f20c7adf612882df0950f5a951637e0307cdcb4c672f298b8bc6\n        /* \"https://github.com/Rari-Capital/solmate/blob/main/src/tokens/ERC20.sol\":5866:5879  block.chainid */\n      chainid\n        /* \"https://github.com/Rari-Capital/solmate/blob/main/src/tokens/ERC20.sol\":5909:5913  this */\n      address\n        /* \"https://github.com/Rari-Capital/solmate/blob/main/src/tokens/ERC20.sol\":5637:5932  abi.encode(... */\n      add(0x20, mload(0x40))\n      tag_290\n      swap6\n      swap5\n      swap4\n      swap3\n      swap2\n      swap1\n      tag_291\n      jump\t// in\n    tag_290:\n      mload(0x40)\n      0x20\n      dup2\n      dup4\n      sub\n      sub\n      dup2\n      mstore\n      swap1\n      0x40\n      mstore\n        /* \"https://github.com/Rari-Capital/solmate/blob/main/src/tokens/ERC20.sol\":5610:5946  keccak256(... */\n      dup1\n      mload\n      swap1\n      0x20\n      add\n      keccak256\n        /* \"https://github.com/Rari-Capital/solmate/blob/main/src/tokens/ERC20.sol\":5591:5946  return... */\n      swap1\n      pop\n        /* \"https://github.com/Rari-Capital/solmate/blob/main/src/tokens/ERC20.sol\":5507:5953  function computeDomainSeparator() internal view virtual returns (bytes32) {... */\n      swap1\n      jump\t// out\n        /* \"https://github.com/Rari-Capital/solmate/blob/main/src/utils/SafeTransferLib.sol\":1337:2910  function safeTransferFrom(... */\n    tag_204:\n        /* \"https://github.com/Rari-Capital/solmate/blob/main/src/utils/SafeTransferLib.sol\":1475:1487  bool success */\n      0x00\n        /* \"https://github.com/Rari-Capital/solmate/blob/main/src/utils/SafeTransferLib.sol\":1602:1606  0x40 */\n      0x40\n        /* \"https://github.com/Rari-Capital/solmate/blob/main/src/utils/SafeTransferLib.sol\":1596:1607  mload(0x40) */\n      mload\n        /* \"https://github.com/Rari-Capital/solmate/blob/main/src/utils/SafeTransferLib.sol\":1744:1810  0x23b872dd00000000000000000000000000000000000000000000000000000000 */\n      0x23b872dd00000000000000000000000000000000000000000000000000000000\n        /* \"https://github.com/Rari-Capital/solmate/blob/main/src/utils/SafeTransferLib.sol\":1725:1742  freeMemoryPointer */\n      dup2\n        /* \"https://github.com/Rari-Capital/solmate/blob/main/src/utils/SafeTransferLib.sol\":1718:1811  mstore(freeMemoryPointer, 0x23b872dd00000000000000000000000000000000000000000000000000000000) */\n      mstore\n        /* \"https://github.com/Rari-Capital/solmate/blob/main/src/utils/SafeTransferLib.sol\":1858:1862  from */\n      dup5\n        /* \"https://github.com/Rari-Capital/solmate/blob/main/src/utils/SafeTransferLib.sol\":1854:1855  4 */\n      0x04\n        /* \"https://github.com/Rari-Capital/solmate/blob/main/src/utils/SafeTransferLib.sol\":1835:1852  freeMemoryPointer */\n      dup3\n        /* \"https://github.com/Rari-Capital/solmate/blob/main/src/utils/SafeTransferLib.sol\":1831:1856  add(freeMemoryPointer, 4) */\n      add\n        /* \"https://github.com/Rari-Capital/solmate/blob/main/src/utils/SafeTransferLib.sol\":1824:1863  mstore(add(freeMemoryPointer, 4), from) */\n      mstore\n        /* \"https://github.com/Rari-Capital/solmate/blob/main/src/utils/SafeTransferLib.sol\":1942:1944  to */\n      dup4\n        /* \"https://github.com/Rari-Capital/solmate/blob/main/src/utils/SafeTransferLib.sol\":1937:1939  36 */\n      0x24\n        /* \"https://github.com/Rari-Capital/solmate/blob/main/src/utils/SafeTransferLib.sol\":1918:1935  freeMemoryPointer */\n      dup3\n        /* \"https://github.com/Rari-Capital/solmate/blob/main/src/utils/SafeTransferLib.sol\":1914:1940  add(freeMemoryPointer, 36) */\n      add\n        /* \"https://github.com/Rari-Capital/solmate/blob/main/src/utils/SafeTransferLib.sol\":1907:1945  mstore(add(freeMemoryPointer, 36), to) */\n      mstore\n        /* \"https://github.com/Rari-Capital/solmate/blob/main/src/utils/SafeTransferLib.sol\":2022:2028  amount */\n      dup3\n        /* \"https://github.com/Rari-Capital/solmate/blob/main/src/utils/SafeTransferLib.sol\":2017:2019  68 */\n      0x44\n        /* \"https://github.com/Rari-Capital/solmate/blob/main/src/utils/SafeTransferLib.sol\":1998:2015  freeMemoryPointer */\n      dup3\n        /* \"https://github.com/Rari-Capital/solmate/blob/main/src/utils/SafeTransferLib.sol\":1994:2020  add(freeMemoryPointer, 68) */\n      add\n        /* \"https://github.com/Rari-Capital/solmate/blob/main/src/utils/SafeTransferLib.sol\":1987:2029  mstore(add(freeMemoryPointer, 68), amount) */\n      mstore\n        /* \"https://github.com/Rari-Capital/solmate/blob/main/src/utils/SafeTransferLib.sol\":2826:2828  32 */\n      0x20\n        /* \"https://github.com/Rari-Capital/solmate/blob/main/src/utils/SafeTransferLib.sol\":2823:2824  0 */\n      0x00\n        /* \"https://github.com/Rari-Capital/solmate/blob/main/src/utils/SafeTransferLib.sol\":2818:2821  100 */\n      0x64\n        /* \"https://github.com/Rari-Capital/solmate/blob/main/src/utils/SafeTransferLib.sol\":2799:2816  freeMemoryPointer */\n      dup4\n        /* \"https://github.com/Rari-Capital/solmate/blob/main/src/utils/SafeTransferLib.sol\":2796:2797  0 */\n      0x00\n        /* \"https://github.com/Rari-Capital/solmate/blob/main/src/utils/SafeTransferLib.sol\":2789:2794  token */\n      dup11\n        /* \"https://github.com/Rari-Capital/solmate/blob/main/src/utils/SafeTransferLib.sol\":2782:2787  gas() */\n      gas\n        /* \"https://github.com/Rari-Capital/solmate/blob/main/src/utils/SafeTransferLib.sol\":2777:2829  call(gas(), token, 0, freeMemoryPointer, 100, 0, 32) */\n      call\n        /* \"https://github.com/Rari-Capital/solmate/blob/main/src/utils/SafeTransferLib.sol\":2345:2361  returndatasize() */\n      returndatasize\n        /* \"https://github.com/Rari-Capital/solmate/blob/main/src/utils/SafeTransferLib.sol\":2338:2362  iszero(returndatasize()) */\n      iszero\n        /* \"https://github.com/Rari-Capital/solmate/blob/main/src/utils/SafeTransferLib.sol\":2332:2334  31 */\n      0x1f\n        /* \"https://github.com/Rari-Capital/solmate/blob/main/src/utils/SafeTransferLib.sol\":2314:2330  returndatasize() */\n      returndatasize\n        /* \"https://github.com/Rari-Capital/solmate/blob/main/src/utils/SafeTransferLib.sol\":2311:2335  gt(returndatasize(), 31) */\n      gt\n        /* \"https://github.com/Rari-Capital/solmate/blob/main/src/utils/SafeTransferLib.sol\":2307:2308  1 */\n      0x01\n        /* \"https://github.com/Rari-Capital/solmate/blob/main/src/utils/SafeTransferLib.sol\":2303:2304  0 */\n      0x00\n        /* \"https://github.com/Rari-Capital/solmate/blob/main/src/utils/SafeTransferLib.sol\":2297:2305  mload(0) */\n      mload\n        /* \"https://github.com/Rari-Capital/solmate/blob/main/src/utils/SafeTransferLib.sol\":2294:2309  eq(mload(0), 1) */\n      eq\n        /* \"https://github.com/Rari-Capital/solmate/blob/main/src/utils/SafeTransferLib.sol\":2290:2336  and(eq(mload(0), 1), gt(returndatasize(), 31)) */\n      and\n        /* \"https://github.com/Rari-Capital/solmate/blob/main/src/utils/SafeTransferLib.sol\":2287:2363  or(and(eq(mload(0), 1), gt(returndatasize(), 31)), iszero(returndatasize())) */\n      or\n        /* \"https://github.com/Rari-Capital/solmate/blob/main/src/utils/SafeTransferLib.sol\":2087:2843  and(... */\n      and\n        /* \"https://github.com/Rari-Capital/solmate/blob/main/src/utils/SafeTransferLib.sol\":2076:2843  success := and(... */\n      swap2\n      pop\n        /* \"https://github.com/Rari-Capital/solmate/blob/main/src/utils/SafeTransferLib.sol\":1507:2853  {... */\n      pop\n        /* \"https://github.com/Rari-Capital/solmate/blob/main/src/utils/SafeTransferLib.sol\":2871:2878  success */\n      dup1\n        /* \"https://github.com/Rari-Capital/solmate/blob/main/src/utils/SafeTransferLib.sol\":2863:2903  require(success, \"TRANSFER_FROM_FAILED\") */\n      tag_293\n      jumpi\n      mload(0x40)\n      0x08c379a000000000000000000000000000000000000000000000000000000000\n      dup2\n      mstore\n      0x04\n      add\n      tag_294\n      swap1\n      tag_295\n      jump\t// in\n    tag_294:\n      mload(0x40)\n      dup1\n      swap2\n      sub\n      swap1\n      revert\n    tag_293:\n        /* \"https://github.com/Rari-Capital/solmate/blob/main/src/utils/SafeTransferLib.sol\":1337:2910  function safeTransferFrom(... */\n      pop\n      pop\n      pop\n      pop\n      pop\n      jump\t// out\n        /* \"https://github.com/Rari-Capital/solmate/blob/main/src/tokens/ERC20.sol\":6147:6472  function _mint(address to, uint256 amount) internal virtual {... */\n    tag_206:\n        /* \"https://github.com/Rari-Capital/solmate/blob/main/src/tokens/ERC20.sol\":6232:6238  amount */\n      dup1\n        /* \"https://github.com/Rari-Capital/solmate/blob/main/src/tokens/ERC20.sol\":6217:6228  totalSupply */\n      0x02\n      0x00\n        /* \"https://github.com/Rari-Capital/solmate/blob/main/src/tokens/ERC20.sol\":6217:6238  totalSupply += amount */\n      dup3\n      dup3\n      sload\n      tag_297\n      swap2\n      swap1\n      tag_298\n      jump\t// in\n    tag_297:\n      swap3\n      pop\n      pop\n      dup2\n      swap1\n      sstore\n      pop\n        /* \"https://github.com/Rari-Capital/solmate/blob/main/src/tokens/ERC20.sol\":6401:6407  amount */\n      dup1\n        /* \"https://github.com/Rari-Capital/solmate/blob/main/src/tokens/ERC20.sol\":6384:6393  balanceOf */\n      0x03\n        /* \"https://github.com/Rari-Capital/solmate/blob/main/src/tokens/ERC20.sol\":6384:6397  balanceOf[to] */\n      0x00\n        /* \"https://github.com/Rari-Capital/solmate/blob/main/src/tokens/ERC20.sol\":6394:6396  to */\n      dup5\n        /* \"https://github.com/Rari-Capital/solmate/blob/main/src/tokens/ERC20.sol\":6384:6397  balanceOf[to] */\n      0xffffffffffffffffffffffffffffffffffffffff\n      and\n      0xffffffffffffffffffffffffffffffffffffffff\n      and\n      dup2\n      mstore\n      0x20\n      add\n      swap1\n      dup2\n      mstore\n      0x20\n      add\n      0x00\n      keccak256\n      0x00\n        /* \"https://github.com/Rari-Capital/solmate/blob/main/src/tokens/ERC20.sol\":6384:6407  balanceOf[to] += amount */\n      dup3\n      dup3\n      sload\n      add\n      swap3\n      pop\n      pop\n      dup2\n      swap1\n      sstore\n      pop\n        /* \"https://github.com/Rari-Capital/solmate/blob/main/src/tokens/ERC20.sol\":6454:6456  to */\n      dup2\n        /* \"https://github.com/Rari-Capital/solmate/blob/main/src/tokens/ERC20.sol\":6433:6465  Transfer(address(0), to, amount) */\n      0xffffffffffffffffffffffffffffffffffffffff\n      and\n        /* \"https://github.com/Rari-Capital/solmate/blob/main/src/tokens/ERC20.sol\":6450:6451  0 */\n      0x00\n        /* \"https://github.com/Rari-Capital/solmate/blob/main/src/tokens/ERC20.sol\":6433:6465  Transfer(address(0), to, amount) */\n      0xffffffffffffffffffffffffffffffffffffffff\n      and\n      0xddf252ad1be2c89b69c2b068fc378daa952ba7f163c4a11628f55a4df523b3ef\n        /* \"https://github.com/Rari-Capital/solmate/blob/main/src/tokens/ERC20.sol\":6458:6464  amount */\n      dup4\n        /* \"https://github.com/Rari-Capital/solmate/blob/main/src/tokens/ERC20.sol\":6433:6465  Transfer(address(0), to, amount) */\n      mload(0x40)\n      tag_299\n      swap2\n      swap1\n      tag_41\n      jump\t// in\n    tag_299:\n      mload(0x40)\n      dup1\n      swap2\n      sub\n      swap1\n      log3\n        /* \"https://github.com/Rari-Capital/solmate/blob/main/src/tokens/ERC20.sol\":6147:6472  function _mint(address to, uint256 amount) internal virtual {... */\n      pop\n      pop\n      jump\t// out\n        /* \"VaultStandard.sol\":10239:10304  function afterDeposit(uint256 assets, uint256 shares) internal {} */\n    tag_210:\n      pop\n      pop\n      jump\t// out\n        /* \"VaultStandard.sol\":10166:10233  function beforeWithdraw(uint256 assets, uint256 shares) internal {} */\n    tag_236:\n      pop\n      pop\n      jump\t// out\n        /* \"https://github.com/Rari-Capital/solmate/blob/main/src/tokens/ERC20.sol\":6478:6806  function _burn(address from, uint256 amount) internal virtual {... */\n    tag_238:\n        /* \"https://github.com/Rari-Capital/solmate/blob/main/src/tokens/ERC20.sol\":6569:6575  amount */\n      dup1\n        /* \"https://github.com/Rari-Capital/solmate/blob/main/src/tokens/ERC20.sol\":6550:6559  balanceOf */\n      0x03\n        /* \"https://github.com/Rari-Capital/solmate/blob/main/src/tokens/ERC20.sol\":6550:6565  balanceOf[from] */\n      0x00\n        /* \"https://github.com/Rari-Capital/solmate/blob/main/src/tokens/ERC20.sol\":6560:6564  from */\n      dup5\n        /* \"https://github.com/Rari-Capital/solmate/blob/main/src/tokens/ERC20.sol\":6550:6565  balanceOf[from] */\n      0xffffffffffffffffffffffffffffffffffffffff\n      and\n      0xffffffffffffffffffffffffffffffffffffffff\n      and\n      dup2\n      mstore\n      0x20\n      add\n      swap1\n      dup2\n      mstore\n      0x20\n      add\n      0x00\n      keccak256\n      0x00\n        /* \"https://github.com/Rari-Capital/solmate/blob/main/src/tokens/ERC20.sol\":6550:6575  balanceOf[from] -= amount */\n      dup3\n      dup3\n      sload\n      tag_303\n      swap2\n      swap1\n      tag_187\n      jump\t// in\n    tag_303:\n      swap3\n      pop\n      pop\n      dup2\n      swap1\n      sstore\n      pop\n        /* \"https://github.com/Rari-Capital/solmate/blob/main/src/tokens/ERC20.sol\":6733:6739  amount */\n      dup1\n        /* \"https://github.com/Rari-Capital/solmate/blob/main/src/tokens/ERC20.sol\":6718:6729  totalSupply */\n      0x02\n      0x00\n        /* \"https://github.com/Rari-Capital/solmate/blob/main/src/tokens/ERC20.sol\":6718:6739  totalSupply -= amount */\n      dup3\n      dup3\n      sload\n      sub\n      swap3\n      pop\n      pop\n      dup2\n      swap1\n      sstore\n      pop\n        /* \"https://github.com/Rari-Capital/solmate/blob/main/src/tokens/ERC20.sol\":6788:6789  0 */\n      0x00\n        /* \"https://github.com/Rari-Capital/solmate/blob/main/src/tokens/ERC20.sol\":6765:6799  Transfer(from, address(0), amount) */\n      0xffffffffffffffffffffffffffffffffffffffff\n      and\n        /* \"https://github.com/Rari-Capital/solmate/blob/main/src/tokens/ERC20.sol\":6774:6778  from */\n      dup3\n        /* \"https://github.com/Rari-Capital/solmate/blob/main/src/tokens/ERC20.sol\":6765:6799  Transfer(from, address(0), amount) */\n      0xffffffffffffffffffffffffffffffffffffffff\n      and\n      0xddf252ad1be2c89b69c2b068fc378daa952ba7f163c4a11628f55a4df523b3ef\n        /* \"https://github.com/Rari-Capital/solmate/blob/main/src/tokens/ERC20.sol\":6792:6798  amount */\n      dup4\n        /* \"https://github.com/Rari-Capital/solmate/blob/main/src/tokens/ERC20.sol\":6765:6799  Transfer(from, address(0), amount) */\n      mload(0x40)\n      tag_304\n      swap2\n      swap1\n      tag_41\n      jump\t// in\n    tag_304:\n      mload(0x40)\n      dup1\n      swap2\n      sub\n      swap1\n      log3\n        /* \"https://github.com/Rari-Capital/solmate/blob/main/src/tokens/ERC20.sol\":6478:6806  function _burn(address from, uint256 amount) internal virtual {... */\n      pop\n      pop\n      jump\t// out\n        /* \"https://github.com/Rari-Capital/solmate/blob/main/src/utils/SafeTransferLib.sol\":2916:4372  function safeTransfer(... */\n    tag_241:\n        /* \"https://github.com/Rari-Capital/solmate/blob/main/src/utils/SafeTransferLib.sol\":3028:3040  bool success */\n      0x00\n        /* \"https://github.com/Rari-Capital/solmate/blob/main/src/utils/SafeTransferLib.sol\":3155:3159  0x40 */\n      0x40\n        /* \"https://github.com/Rari-Capital/solmate/blob/main/src/utils/SafeTransferLib.sol\":3149:3160  mload(0x40) */\n      mload\n        /* \"https://github.com/Rari-Capital/solmate/blob/main/src/utils/SafeTransferLib.sol\":3297:3363  0xa9059cbb00000000000000000000000000000000000000000000000000000000 */\n      0xa9059cbb00000000000000000000000000000000000000000000000000000000\n        /* \"https://github.com/Rari-Capital/solmate/blob/main/src/utils/SafeTransferLib.sol\":3278:3295  freeMemoryPointer */\n      dup2\n        /* \"https://github.com/Rari-Capital/solmate/blob/main/src/utils/SafeTransferLib.sol\":3271:3364  mstore(freeMemoryPointer, 0xa9059cbb00000000000000000000000000000000000000000000000000000000) */\n      mstore\n        /* \"https://github.com/Rari-Capital/solmate/blob/main/src/utils/SafeTransferLib.sol\":3411:3413  to */\n      dup4\n        /* \"https://github.com/Rari-Capital/solmate/blob/main/src/utils/SafeTransferLib.sol\":3407:3408  4 */\n      0x04\n        /* \"https://github.com/Rari-Capital/solmate/blob/main/src/utils/SafeTransferLib.sol\":3388:3405  freeMemoryPointer */\n      dup3\n        /* \"https://github.com/Rari-Capital/solmate/blob/main/src/utils/SafeTransferLib.sol\":3384:3409  add(freeMemoryPointer, 4) */\n      add\n        /* \"https://github.com/Rari-Capital/solmate/blob/main/src/utils/SafeTransferLib.sol\":3377:3414  mstore(add(freeMemoryPointer, 4), to) */\n      mstore\n        /* \"https://github.com/Rari-Capital/solmate/blob/main/src/utils/SafeTransferLib.sol\":3491:3497  amount */\n      dup3\n        /* \"https://github.com/Rari-Capital/solmate/blob/main/src/utils/SafeTransferLib.sol\":3486:3488  36 */\n      0x24\n        /* \"https://github.com/Rari-Capital/solmate/blob/main/src/utils/SafeTransferLib.sol\":3467:3484  freeMemoryPointer */\n      dup3\n        /* \"https://github.com/Rari-Capital/solmate/blob/main/src/utils/SafeTransferLib.sol\":3463:3489  add(freeMemoryPointer, 36) */\n      add\n        /* \"https://github.com/Rari-Capital/solmate/blob/main/src/utils/SafeTransferLib.sol\":3456:3498  mstore(add(freeMemoryPointer, 36), amount) */\n      mstore\n        /* \"https://github.com/Rari-Capital/solmate/blob/main/src/utils/SafeTransferLib.sol\":4293:4295  32 */\n      0x20\n        /* \"https://github.com/Rari-Capital/solmate/blob/main/src/utils/SafeTransferLib.sol\":4290:4291  0 */\n      0x00\n        /* \"https://github.com/Rari-Capital/solmate/blob/main/src/utils/SafeTransferLib.sol\":4286:4288  68 */\n      0x44\n        /* \"https://github.com/Rari-Capital/solmate/blob/main/src/utils/SafeTransferLib.sol\":4267:4284  freeMemoryPointer */\n      dup4\n        /* \"https://github.com/Rari-Capital/solmate/blob/main/src/utils/SafeTransferLib.sol\":4264:4265  0 */\n      0x00\n        /* \"https://github.com/Rari-Capital/solmate/blob/main/src/utils/SafeTransferLib.sol\":4257:4262  token */\n      dup10\n        /* \"https://github.com/Rari-Capital/solmate/blob/main/src/utils/SafeTransferLib.sol\":4250:4255  gas() */\n      gas\n        /* \"https://github.com/Rari-Capital/solmate/blob/main/src/utils/SafeTransferLib.sol\":4245:4296  call(gas(), token, 0, freeMemoryPointer, 68, 0, 32) */\n      call\n        /* \"https://github.com/Rari-Capital/solmate/blob/main/src/utils/SafeTransferLib.sol\":3814:3830  returndatasize() */\n      returndatasize\n        /* \"https://github.com/Rari-Capital/solmate/blob/main/src/utils/SafeTransferLib.sol\":3807:3831  iszero(returndatasize()) */\n      iszero\n        /* \"https://github.com/Rari-Capital/solmate/blob/main/src/utils/SafeTransferLib.sol\":3801:3803  31 */\n      0x1f\n        /* \"https://github.com/Rari-Capital/solmate/blob/main/src/utils/SafeTransferLib.sol\":3783:3799  returndatasize() */\n      returndatasize\n        /* \"https://github.com/Rari-Capital/solmate/blob/main/src/utils/SafeTransferLib.sol\":3780:3804  gt(returndatasize(), 31) */\n      gt\n        /* \"https://github.com/Rari-Capital/solmate/blob/main/src/utils/SafeTransferLib.sol\":3776:3777  1 */\n      0x01\n        /* \"https://github.com/Rari-Capital/solmate/blob/main/src/utils/SafeTransferLib.sol\":3772:3773  0 */\n      0x00\n        /* \"https://github.com/Rari-Capital/solmate/blob/main/src/utils/SafeTransferLib.sol\":3766:3774  mload(0) */\n      mload\n        /* \"https://github.com/Rari-Capital/solmate/blob/main/src/utils/SafeTransferLib.sol\":3763:3778  eq(mload(0), 1) */\n      eq\n        /* \"https://github.com/Rari-Capital/solmate/blob/main/src/utils/SafeTransferLib.sol\":3759:3805  and(eq(mload(0), 1), gt(returndatasize(), 31)) */\n      and\n        /* \"https://github.com/Rari-Capital/solmate/blob/main/src/utils/SafeTransferLib.sol\":3756:3832  or(and(eq(mload(0), 1), gt(returndatasize(), 31)), iszero(returndatasize())) */\n      or\n        /* \"https://github.com/Rari-Capital/solmate/blob/main/src/utils/SafeTransferLib.sol\":3556:4310  and(... */\n      and\n        /* \"https://github.com/Rari-Capital/solmate/blob/main/src/utils/SafeTransferLib.sol\":3545:4310  success := and(... */\n      swap2\n      pop\n        /* \"https://github.com/Rari-Capital/solmate/blob/main/src/utils/SafeTransferLib.sol\":3060:4320  {... */\n      pop\n        /* \"https://github.com/Rari-Capital/solmate/blob/main/src/utils/SafeTransferLib.sol\":4338:4345  success */\n      dup1\n        /* \"https://github.com/Rari-Capital/solmate/blob/main/src/utils/SafeTransferLib.sol\":4330:4365  require(success, \"TRANSFER_FAILED\") */\n      tag_306\n      jumpi\n      mload(0x40)\n      0x08c379a000000000000000000000000000000000000000000000000000000000\n      dup2\n      mstore\n      0x04\n      add\n      tag_307\n      swap1\n      tag_308\n      jump\t// in\n    tag_307:\n      mload(0x40)\n      dup1\n      swap2\n      sub\n      swap1\n      revert\n    tag_306:\n        /* \"https://github.com/Rari-Capital/solmate/blob/main/src/utils/SafeTransferLib.sol\":2916:4372  function safeTransfer(... */\n      pop\n      pop\n      pop\n      pop\n      jump\t// out\n        /* \"#utility.yul\":7:146   */\n    tag_310:\n      0x00\n        /* \"#utility.yul\":91:97   */\n      dup2\n        /* \"#utility.yul\":78:98   */\n      calldataload\n        /* \"#utility.yul\":69:98   */\n      swap1\n      pop\n        /* \"#utility.yul\":107:140   */\n      tag_312\n        /* \"#utility.yul\":134:139   */\n      dup2\n        /* \"#utility.yul\":107:140   */\n      tag_313\n      jump\t// in\n    tag_312:\n        /* \"#utility.yul\":59:146   */\n      swap3\n      swap2\n      pop\n      pop\n      jump\t// out\n        /* \"#utility.yul\":152:291   */\n    tag_314:\n      0x00\n        /* \"#utility.yul\":236:242   */\n      dup2\n        /* \"#utility.yul\":223:243   */\n      calldataload\n        /* \"#utility.yul\":214:243   */\n      swap1\n      pop\n        /* \"#utility.yul\":252:285   */\n      tag_316\n        /* \"#utility.yul\":279:284   */\n      dup2\n        /* \"#utility.yul\":252:285   */\n      tag_317\n      jump\t// in\n    tag_316:\n        /* \"#utility.yul\":204:291   */\n      swap3\n      swap2\n      pop\n      pop\n      jump\t// out\n        /* \"#utility.yul\":297:436   */\n    tag_318:\n      0x00\n        /* \"#utility.yul\":381:387   */\n      dup2\n        /* \"#utility.yul\":368:388   */\n      calldataload\n        /* \"#utility.yul\":359:388   */\n      swap1\n      pop\n        /* \"#utility.yul\":397:430   */\n      tag_320\n        /* \"#utility.yul\":424:429   */\n      dup2\n        /* \"#utility.yul\":397:430   */\n      tag_321\n      jump\t// in\n    tag_320:\n        /* \"#utility.yul\":349:436   */\n      swap3\n      swap2\n      pop\n      pop\n      jump\t// out\n        /* \"#utility.yul\":442:585   */\n    tag_322:\n      0x00\n        /* \"#utility.yul\":530:536   */\n      dup2\n        /* \"#utility.yul\":524:537   */\n      mload\n        /* \"#utility.yul\":515:537   */\n      swap1\n      pop\n        /* \"#utility.yul\":546:579   */\n      tag_324\n        /* \"#utility.yul\":573:578   */\n      dup2\n        /* \"#utility.yul\":546:579   */\n      tag_321\n      jump\t// in\n    tag_324:\n        /* \"#utility.yul\":505:585   */\n      swap3\n      swap2\n      pop\n      pop\n      jump\t// out\n        /* \"#utility.yul\":591:726   */\n    tag_325:\n      0x00\n        /* \"#utility.yul\":673:679   */\n      dup2\n        /* \"#utility.yul\":660:680   */\n      calldataload\n        /* \"#utility.yul\":651:680   */\n      swap1\n      pop\n        /* \"#utility.yul\":689:720   */\n      tag_327\n        /* \"#utility.yul\":714:719   */\n      dup2\n        /* \"#utility.yul\":689:720   */\n      tag_328\n      jump\t// in\n    tag_327:\n        /* \"#utility.yul\":641:726   */\n      swap3\n      swap2\n      pop\n      pop\n      jump\t// out\n        /* \"#utility.yul\":732:994   */\n    tag_83:\n      0x00\n        /* \"#utility.yul\":840:842   */\n      0x20\n        /* \"#utility.yul\":828:837   */\n      dup3\n        /* \"#utility.yul\":819:826   */\n      dup5\n        /* \"#utility.yul\":815:838   */\n      sub\n        /* \"#utility.yul\":811:843   */\n      slt\n        /* \"#utility.yul\":808:810   */\n      iszero\n      tag_330\n      jumpi\n        /* \"#utility.yul\":856:857   */\n      0x00\n        /* \"#utility.yul\":853:854   */\n      dup1\n        /* \"#utility.yul\":846:858   */\n      revert\n        /* \"#utility.yul\":808:810   */\n    tag_330:\n        /* \"#utility.yul\":899:900   */\n      0x00\n        /* \"#utility.yul\":924:977   */\n      tag_331\n        /* \"#utility.yul\":969:976   */\n      dup5\n        /* \"#utility.yul\":960:966   */\n      dup3\n        /* \"#utility.yul\":949:958   */\n      dup6\n        /* \"#utility.yul\":945:967   */\n      add\n        /* \"#utility.yul\":924:977   */\n      tag_310\n      jump\t// in\n    tag_331:\n        /* \"#utility.yul\":914:977   */\n      swap2\n      pop\n        /* \"#utility.yul\":870:987   */\n      pop\n        /* \"#utility.yul\":798:994   */\n      swap3\n      swap2\n      pop\n      pop\n      jump\t// out\n        /* \"#utility.yul\":1000:1407   */\n    tag_149:\n      0x00\n      dup1\n        /* \"#utility.yul\":1125:1127   */\n      0x40\n        /* \"#utility.yul\":1113:1122   */\n      dup4\n        /* \"#utility.yul\":1104:1111   */\n      dup6\n        /* \"#utility.yul\":1100:1123   */\n      sub\n        /* \"#utility.yul\":1096:1128   */\n      slt\n        /* \"#utility.yul\":1093:1095   */\n      iszero\n      tag_333\n      jumpi\n        /* \"#utility.yul\":1141:1142   */\n      0x00\n        /* \"#utility.yul\":1138:1139   */\n      dup1\n        /* \"#utility.yul\":1131:1143   */\n      revert\n        /* \"#utility.yul\":1093:1095   */\n    tag_333:\n        /* \"#utility.yul\":1184:1185   */\n      0x00\n        /* \"#utility.yul\":1209:1262   */\n      tag_334\n        /* \"#utility.yul\":1254:1261   */\n      dup6\n        /* \"#utility.yul\":1245:1251   */\n      dup3\n        /* \"#utility.yul\":1234:1243   */\n      dup7\n        /* \"#utility.yul\":1230:1252   */\n      add\n        /* \"#utility.yul\":1209:1262   */\n      tag_310\n      jump\t// in\n    tag_334:\n        /* \"#utility.yul\":1199:1262   */\n      swap3\n      pop\n        /* \"#utility.yul\":1155:1272   */\n      pop\n        /* \"#utility.yul\":1311:1313   */\n      0x20\n        /* \"#utility.yul\":1337:1390   */\n      tag_335\n        /* \"#utility.yul\":1382:1389   */\n      dup6\n        /* \"#utility.yul\":1373:1379   */\n      dup3\n        /* \"#utility.yul\":1362:1371   */\n      dup7\n        /* \"#utility.yul\":1358:1380   */\n      add\n        /* \"#utility.yul\":1337:1390   */\n      tag_310\n      jump\t// in\n    tag_335:\n        /* \"#utility.yul\":1327:1390   */\n      swap2\n      pop\n        /* \"#utility.yul\":1282:1400   */\n      pop\n        /* \"#utility.yul\":1083:1407   */\n      swap3\n      pop\n      swap3\n      swap1\n      pop\n      jump\t// out\n        /* \"#utility.yul\":1413:1965   */\n    tag_66:\n      0x00\n      dup1\n      0x00\n        /* \"#utility.yul\":1555:1557   */\n      0x60\n        /* \"#utility.yul\":1543:1552   */\n      dup5\n        /* \"#utility.yul\":1534:1541   */\n      dup7\n        /* \"#utility.yul\":1530:1553   */\n      sub\n        /* \"#utility.yul\":1526:1558   */\n      slt\n        /* \"#utility.yul\":1523:1525   */\n      iszero\n      tag_337\n      jumpi\n        /* \"#utility.yul\":1571:1572   */\n      0x00\n        /* \"#utility.yul\":1568:1569   */\n      dup1\n        /* \"#utility.yul\":1561:1573   */\n      revert\n        /* \"#utility.yul\":1523:1525   */\n    tag_337:\n        /* \"#utility.yul\":1614:1615   */\n      0x00\n        /* \"#utility.yul\":1639:1692   */\n      tag_338\n        /* \"#utility.yul\":1684:1691   */\n      dup7\n        /* \"#utility.yul\":1675:1681   */\n      dup3\n        /* \"#utility.yul\":1664:1673   */\n      dup8\n        /* \"#utility.yul\":1660:1682   */\n      add\n        /* \"#utility.yul\":1639:1692   */\n      tag_310\n      jump\t// in\n    tag_338:\n        /* \"#utility.yul\":1629:1692   */\n      swap4\n      pop\n        /* \"#utility.yul\":1585:1702   */\n      pop\n        /* \"#utility.yul\":1741:1743   */\n      0x20\n        /* \"#utility.yul\":1767:1820   */\n      tag_339\n        /* \"#utility.yul\":1812:1819   */\n      dup7\n        /* \"#utility.yul\":1803:1809   */\n      dup3\n        /* \"#utility.yul\":1792:1801   */\n      dup8\n        /* \"#utility.yul\":1788:1810   */\n      add\n        /* \"#utility.yul\":1767:1820   */\n      tag_310\n      jump\t// in\n    tag_339:\n        /* \"#utility.yul\":1757:1820   */\n      swap3\n      pop\n        /* \"#utility.yul\":1712:1830   */\n      pop\n        /* \"#utility.yul\":1869:1871   */\n      0x40\n        /* \"#utility.yul\":1895:1948   */\n      tag_340\n        /* \"#utility.yul\":1940:1947   */\n      dup7\n        /* \"#utility.yul\":1931:1937   */\n      dup3\n        /* \"#utility.yul\":1920:1929   */\n      dup8\n        /* \"#utility.yul\":1916:1938   */\n      add\n        /* \"#utility.yul\":1895:1948   */\n      tag_318\n      jump\t// in\n    tag_340:\n        /* \"#utility.yul\":1885:1948   */\n      swap2\n      pop\n        /* \"#utility.yul\":1840:1958   */\n      pop\n        /* \"#utility.yul\":1513:1965   */\n      swap3\n      pop\n      swap3\n      pop\n      swap3\n      jump\t// out\n        /* \"#utility.yul\":1971:3103   */\n    tag_141:\n      0x00\n      dup1\n      0x00\n      dup1\n      0x00\n      dup1\n      0x00\n        /* \"#utility.yul\":2179:2182   */\n      0xe0\n        /* \"#utility.yul\":2167:2176   */\n      dup9\n        /* \"#utility.yul\":2158:2165   */\n      dup11\n        /* \"#utility.yul\":2154:2177   */\n      sub\n        /* \"#utility.yul\":2150:2183   */\n      slt\n        /* \"#utility.yul\":2147:2149   */\n      iszero\n      tag_342\n      jumpi\n        /* \"#utility.yul\":2196:2197   */\n      0x00\n        /* \"#utility.yul\":2193:2194   */\n      dup1\n        /* \"#utility.yul\":2186:2198   */\n      revert\n        /* \"#utility.yul\":2147:2149   */\n    tag_342:\n        /* \"#utility.yul\":2239:2240   */\n      0x00\n        /* \"#utility.yul\":2264:2317   */\n      tag_343\n        /* \"#utility.yul\":2309:2316   */\n      dup11\n        /* \"#utility.yul\":2300:2306   */\n      dup3\n        /* \"#utility.yul\":2289:2298   */\n      dup12\n        /* \"#utility.yul\":2285:2307   */\n      add\n        /* \"#utility.yul\":2264:2317   */\n      tag_310\n      jump\t// in\n    tag_343:\n        /* \"#utility.yul\":2254:2317   */\n      swap8\n      pop\n        /* \"#utility.yul\":2210:2327   */\n      pop\n        /* \"#utility.yul\":2366:2368   */\n      0x20\n        /* \"#utility.yul\":2392:2445   */\n      tag_344\n        /* \"#utility.yul\":2437:2444   */\n      dup11\n        /* \"#utility.yul\":2428:2434   */\n      dup3\n        /* \"#utility.yul\":2417:2426   */\n      dup12\n        /* \"#utility.yul\":2413:2435   */\n      add\n        /* \"#utility.yul\":2392:2445   */\n      tag_310\n      jump\t// in\n    tag_344:\n        /* \"#utility.yul\":2382:2445   */\n      swap7\n      pop\n        /* \"#utility.yul\":2337:2455   */\n      pop\n        /* \"#utility.yul\":2494:2496   */\n      0x40\n        /* \"#utility.yul\":2520:2573   */\n      tag_345\n        /* \"#utility.yul\":2565:2572   */\n      dup11\n        /* \"#utility.yul\":2556:2562   */\n      dup3\n        /* \"#utility.yul\":2545:2554   */\n      dup12\n        /* \"#utility.yul\":2541:2563   */\n      add\n        /* \"#utility.yul\":2520:2573   */\n      tag_318\n      jump\t// in\n    tag_345:\n        /* \"#utility.yul\":2510:2573   */\n      swap6\n      pop\n        /* \"#utility.yul\":2465:2583   */\n      pop\n        /* \"#utility.yul\":2622:2624   */\n      0x60\n        /* \"#utility.yul\":2648:2701   */\n      tag_346\n        /* \"#utility.yul\":2693:2700   */\n      dup11\n        /* \"#utility.yul\":2684:2690   */\n      dup3\n        /* \"#utility.yul\":2673:2682   */\n      dup12\n        /* \"#utility.yul\":2669:2691   */\n      add\n        /* \"#utility.yul\":2648:2701   */\n      tag_318\n      jump\t// in\n    tag_346:\n        /* \"#utility.yul\":2638:2701   */\n      swap5\n      pop\n        /* \"#utility.yul\":2593:2711   */\n      pop\n        /* \"#utility.yul\":2750:2753   */\n      0x80\n        /* \"#utility.yul\":2777:2828   */\n      tag_347\n        /* \"#utility.yul\":2820:2827   */\n      dup11\n        /* \"#utility.yul\":2811:2817   */\n      dup3\n        /* \"#utility.yul\":2800:2809   */\n      dup12\n        /* \"#utility.yul\":2796:2818   */\n      add\n        /* \"#utility.yul\":2777:2828   */\n      tag_325\n      jump\t// in\n    tag_347:\n        /* \"#utility.yul\":2767:2828   */\n      swap4\n      pop\n        /* \"#utility.yul\":2721:2838   */\n      pop\n        /* \"#utility.yul\":2877:2880   */\n      0xa0\n        /* \"#utility.yul\":2904:2957   */\n      tag_348\n        /* \"#utility.yul\":2949:2956   */\n      dup11\n        /* \"#utility.yul\":2940:2946   */\n      dup3\n        /* \"#utility.yul\":2929:2938   */\n      dup12\n        /* \"#utility.yul\":2925:2947   */\n      add\n        /* \"#utility.yul\":2904:2957   */\n      tag_314\n      jump\t// in\n    tag_348:\n        /* \"#utility.yul\":2894:2957   */\n      swap3\n      pop\n        /* \"#utility.yul\":2848:2967   */\n      pop\n        /* \"#utility.yul\":3006:3009   */\n      0xc0\n        /* \"#utility.yul\":3033:3086   */\n      tag_349\n        /* \"#utility.yul\":3078:3085   */\n      dup11\n        /* \"#utility.yul\":3069:3075   */\n      dup3\n        /* \"#utility.yul\":3058:3067   */\n      dup12\n        /* \"#utility.yul\":3054:3076   */\n      add\n        /* \"#utility.yul\":3033:3086   */\n      tag_314\n      jump\t// in\n    tag_349:\n        /* \"#utility.yul\":3023:3086   */\n      swap2\n      pop\n        /* \"#utility.yul\":2977:3096   */\n      pop\n        /* \"#utility.yul\":2137:3103   */\n      swap3\n      swap6\n      swap9\n      swap2\n      swap5\n      swap8\n      pop\n      swap3\n      swap6\n      pop\n      jump\t// out\n        /* \"#utility.yul\":3109:3516   */\n    tag_53:\n      0x00\n      dup1\n        /* \"#utility.yul\":3234:3236   */\n      0x40\n        /* \"#utility.yul\":3222:3231   */\n      dup4\n        /* \"#utility.yul\":3213:3220   */\n      dup6\n        /* \"#utility.yul\":3209:3232   */\n      sub\n        /* \"#utility.yul\":3205:3237   */\n      slt\n        /* \"#utility.yul\":3202:3204   */\n      iszero\n      tag_351\n      jumpi\n        /* \"#utility.yul\":3250:3251   */\n      0x00\n        /* \"#utility.yul\":3247:3248   */\n      dup1\n        /* \"#utility.yul\":3240:3252   */\n      revert\n        /* \"#utility.yul\":3202:3204   */\n    tag_351:\n        /* \"#utility.yul\":3293:3294   */\n      0x00\n        /* \"#utility.yul\":3318:3371   */\n      tag_352\n        /* \"#utility.yul\":3363:3370   */\n      dup6\n        /* \"#utility.yul\":3354:3360   */\n      dup3\n        /* \"#utility.yul\":3343:3352   */\n      dup7\n        /* \"#utility.yul\":3339:3361   */\n      add\n        /* \"#utility.yul\":3318:3371   */\n      tag_310\n      jump\t// in\n    tag_352:\n        /* \"#utility.yul\":3308:3371   */\n      swap3\n      pop\n        /* \"#utility.yul\":3264:3381   */\n      pop\n        /* \"#utility.yul\":3420:3422   */\n      0x20\n        /* \"#utility.yul\":3446:3499   */\n      tag_353\n        /* \"#utility.yul\":3491:3498   */\n      dup6\n        /* \"#utility.yul\":3482:3488   */\n      dup3\n        /* \"#utility.yul\":3471:3480   */\n      dup7\n        /* \"#utility.yul\":3467:3489   */\n      add\n        /* \"#utility.yul\":3446:3499   */\n      tag_318\n      jump\t// in\n    tag_353:\n        /* \"#utility.yul\":3436:3499   */\n      swap2\n      pop\n        /* \"#utility.yul\":3391:3509   */\n      pop\n        /* \"#utility.yul\":3192:3516   */\n      swap3\n      pop\n      swap3\n      swap1\n      pop\n      jump\t// out\n        /* \"#utility.yul\":3522:3784   */\n    tag_48:\n      0x00\n        /* \"#utility.yul\":3630:3632   */\n      0x20\n        /* \"#utility.yul\":3618:3627   */\n      dup3\n        /* \"#utility.yul\":3609:3616   */\n      dup5\n        /* \"#utility.yul\":3605:3628   */\n      sub\n        /* \"#utility.yul\":3601:3633   */\n      slt\n        /* \"#utility.yul\":3598:3600   */\n      iszero\n      tag_355\n      jumpi\n        /* \"#utility.yul\":3646:3647   */\n      0x00\n        /* \"#utility.yul\":3643:3644   */\n      dup1\n        /* \"#utility.yul\":3636:3648   */\n      revert\n        /* \"#utility.yul\":3598:3600   */\n    tag_355:\n        /* \"#utility.yul\":3689:3690   */\n      0x00\n        /* \"#utility.yul\":3714:3767   */\n      tag_356\n        /* \"#utility.yul\":3759:3766   */\n      dup5\n        /* \"#utility.yul\":3750:3756   */\n      dup3\n        /* \"#utility.yul\":3739:3748   */\n      dup6\n        /* \"#utility.yul\":3735:3757   */\n      add\n        /* \"#utility.yul\":3714:3767   */\n      tag_318\n      jump\t// in\n    tag_356:\n        /* \"#utility.yul\":3704:3767   */\n      swap2\n      pop\n        /* \"#utility.yul\":3660:3777   */\n      pop\n        /* \"#utility.yul\":3588:3784   */\n      swap3\n      swap2\n      pop\n      pop\n      jump\t// out\n        /* \"#utility.yul\":3790:4074   */\n    tag_163:\n      0x00\n        /* \"#utility.yul\":3909:3911   */\n      0x20\n        /* \"#utility.yul\":3897:3906   */\n      dup3\n        /* \"#utility.yul\":3888:3895   */\n      dup5\n        /* \"#utility.yul\":3884:3907   */\n      sub\n        /* \"#utility.yul\":3880:3912   */\n      slt\n        /* \"#utility.yul\":3877:3879   */\n      iszero\n      tag_358\n      jumpi\n        /* \"#utility.yul\":3925:3926   */\n      0x00\n        /* \"#utility.yul\":3922:3923   */\n      dup1\n        /* \"#utility.yul\":3915:3927   */\n      revert\n        /* \"#utility.yul\":3877:3879   */\n    tag_358:\n        /* \"#utility.yul\":3968:3969   */\n      0x00\n        /* \"#utility.yul\":3993:4057   */\n      tag_359\n        /* \"#utility.yul\":4049:4056   */\n      dup5\n        /* \"#utility.yul\":4040:4046   */\n      dup3\n        /* \"#utility.yul\":4029:4038   */\n      dup6\n        /* \"#utility.yul\":4025:4047   */\n      add\n        /* \"#utility.yul\":3993:4057   */\n      tag_322\n      jump\t// in\n    tag_359:\n        /* \"#utility.yul\":3983:4057   */\n      swap2\n      pop\n        /* \"#utility.yul\":3939:4067   */\n      pop\n        /* \"#utility.yul\":3867:4074   */\n      swap3\n      swap2\n      pop\n      pop\n      jump\t// out\n        /* \"#utility.yul\":4080:4487   */\n    tag_92:\n      0x00\n      dup1\n        /* \"#utility.yul\":4205:4207   */\n      0x40\n        /* \"#utility.yul\":4193:4202   */\n      dup4\n        /* \"#utility.yul\":4184:4191   */\n      dup6\n        /* \"#utility.yul\":4180:4203   */\n      sub\n        /* \"#utility.yul\":4176:4208   */\n      slt\n        /* \"#utility.yul\":4173:4175   */\n      iszero\n      tag_361\n      jumpi\n        /* \"#utility.yul\":4221:4222   */\n      0x00\n        /* \"#utility.yul\":4218:4219   */\n      dup1\n        /* \"#utility.yul\":4211:4223   */\n      revert\n        /* \"#utility.yul\":4173:4175   */\n    tag_361:\n        /* \"#utility.yul\":4264:4265   */\n      0x00\n        /* \"#utility.yul\":4289:4342   */\n      tag_362\n        /* \"#utility.yul\":4334:4341   */\n      dup6\n        /* \"#utility.yul\":4325:4331   */\n      dup3\n        /* \"#utility.yul\":4314:4323   */\n      dup7\n        /* \"#utility.yul\":4310:4332   */\n      add\n        /* \"#utility.yul\":4289:4342   */\n      tag_318\n      jump\t// in\n    tag_362:\n        /* \"#utility.yul\":4279:4342   */\n      swap3\n      pop\n        /* \"#utility.yul\":4235:4352   */\n      pop\n        /* \"#utility.yul\":4391:4393   */\n      0x20\n        /* \"#utility.yul\":4417:4470   */\n      tag_363\n        /* \"#utility.yul\":4462:4469   */\n      dup6\n        /* \"#utility.yul\":4453:4459   */\n      dup3\n        /* \"#utility.yul\":4442:4451   */\n      dup7\n        /* \"#utility.yul\":4438:4460   */\n      add\n        /* \"#utility.yul\":4417:4470   */\n      tag_310\n      jump\t// in\n    tag_363:\n        /* \"#utility.yul\":4407:4470   */\n      swap2\n      pop\n        /* \"#utility.yul\":4362:4480   */\n      pop\n        /* \"#utility.yul\":4163:4487   */\n      swap3\n      pop\n      swap3\n      swap1\n      pop\n      jump\t// out\n        /* \"#utility.yul\":4493:5045   */\n    tag_120:\n      0x00\n      dup1\n      0x00\n        /* \"#utility.yul\":4635:4637   */\n      0x60\n        /* \"#utility.yul\":4623:4632   */\n      dup5\n        /* \"#utility.yul\":4614:4621   */\n      dup7\n        /* \"#utility.yul\":4610:4633   */\n      sub\n        /* \"#utility.yul\":4606:4638   */\n      slt\n        /* \"#utility.yul\":4603:4605   */\n      iszero\n      tag_365\n      jumpi\n        /* \"#utility.yul\":4651:4652   */\n      0x00\n        /* \"#utility.yul\":4648:4649   */\n      dup1\n        /* \"#utility.yul\":4641:4653   */\n      revert\n        /* \"#utility.yul\":4603:4605   */\n    tag_365:\n        /* \"#utility.yul\":4694:4695   */\n      0x00\n        /* \"#utility.yul\":4719:4772   */\n      tag_366\n        /* \"#utility.yul\":4764:4771   */\n      dup7\n        /* \"#utility.yul\":4755:4761   */\n      dup3\n        /* \"#utility.yul\":4744:4753   */\n      dup8\n        /* \"#utility.yul\":4740:4762   */\n      add\n        /* \"#utility.yul\":4719:4772   */\n      tag_318\n      jump\t// in\n    tag_366:\n        /* \"#utility.yul\":4709:4772   */\n      swap4\n      pop\n        /* \"#utility.yul\":4665:4782   */\n      pop\n        /* \"#utility.yul\":4821:4823   */\n      0x20\n        /* \"#utility.yul\":4847:4900   */\n      tag_367\n        /* \"#utility.yul\":4892:4899   */\n      dup7\n        /* \"#utility.yul\":4883:4889   */\n      dup3\n        /* \"#utility.yul\":4872:4881   */\n      dup8\n        /* \"#utility.yul\":4868:4890   */\n      add\n        /* \"#utility.yul\":4847:4900   */\n      tag_310\n      jump\t// in\n    tag_367:\n        /* \"#utility.yul\":4837:4900   */\n      swap3\n      pop\n        /* \"#utility.yul\":4792:4910   */\n      pop\n        /* \"#utility.yul\":4949:4951   */\n      0x40\n        /* \"#utility.yul\":4975:5028   */\n      tag_368\n        /* \"#utility.yul\":5020:5027   */\n      dup7\n        /* \"#utility.yul\":5011:5017   */\n      dup3\n        /* \"#utility.yul\":5000:5009   */\n      dup8\n        /* \"#utility.yul\":4996:5018   */\n      add\n        /* \"#utility.yul\":4975:5028   */\n      tag_310\n      jump\t// in\n    tag_368:\n        /* \"#utility.yul\":4965:5028   */\n      swap2\n      pop\n        /* \"#utility.yul\":4920:5038   */\n      pop\n        /* \"#utility.yul\":4593:5045   */\n      swap3\n      pop\n      swap3\n      pop\n      swap3\n      jump\t// out\n        /* \"#utility.yul\":5051:5169   */\n    tag_369:\n        /* \"#utility.yul\":5138:5162   */\n      tag_371\n        /* \"#utility.yul\":5156:5161   */\n      dup2\n        /* \"#utility.yul\":5138:5162   */\n      tag_372\n      jump\t// in\n    tag_371:\n        /* \"#utility.yul\":5133:5136   */\n      dup3\n        /* \"#utility.yul\":5126:5163   */\n      mstore\n        /* \"#utility.yul\":5116:5169   */\n      pop\n      pop\n      jump\t// out\n        /* \"#utility.yul\":5175:5284   */\n    tag_373:\n        /* \"#utility.yul\":5256:5277   */\n      tag_375\n        /* \"#utility.yul\":5271:5276   */\n      dup2\n        /* \"#utility.yul\":5256:5277   */\n      tag_376\n      jump\t// in\n    tag_375:\n        /* \"#utility.yul\":5251:5254   */\n      dup3\n        /* \"#utility.yul\":5244:5278   */\n      mstore\n        /* \"#utility.yul\":5234:5284   */\n      pop\n      pop\n      jump\t// out\n        /* \"#utility.yul\":5290:5408   */\n    tag_377:\n        /* \"#utility.yul\":5377:5401   */\n      tag_379\n        /* \"#utility.yul\":5395:5400   */\n      dup2\n        /* \"#utility.yul\":5377:5401   */\n      tag_380\n      jump\t// in\n    tag_379:\n        /* \"#utility.yul\":5372:5375   */\n      dup3\n        /* \"#utility.yul\":5365:5402   */\n      mstore\n        /* \"#utility.yul\":5355:5408   */\n      pop\n      pop\n      jump\t// out\n        /* \"#utility.yul\":5414:5571   */\n    tag_381:\n        /* \"#utility.yul\":5519:5564   */\n      tag_383\n        /* \"#utility.yul\":5539:5563   */\n      tag_384\n        /* \"#utility.yul\":5557:5562   */\n      dup3\n        /* \"#utility.yul\":5539:5563   */\n      tag_380\n      jump\t// in\n    tag_384:\n        /* \"#utility.yul\":5519:5564   */\n      tag_385\n      jump\t// in\n    tag_383:\n        /* \"#utility.yul\":5514:5517   */\n      dup3\n        /* \"#utility.yul\":5507:5565   */\n      mstore\n        /* \"#utility.yul\":5497:5571   */\n      pop\n      pop\n      jump\t// out\n        /* \"#utility.yul\":5599:6448   */\n    tag_386:\n      0x00\n        /* \"#utility.yul\":5741:5746   */\n      dup2\n        /* \"#utility.yul\":5735:5747   */\n      sload\n        /* \"#utility.yul\":5770:5806   */\n      tag_388\n        /* \"#utility.yul\":5796:5805   */\n      dup2\n        /* \"#utility.yul\":5770:5806   */\n      tag_165\n      jump\t// in\n    tag_388:\n        /* \"#utility.yul\":5822:5910   */\n      tag_389\n        /* \"#utility.yul\":5903:5909   */\n      dup2\n        /* \"#utility.yul\":5898:5901   */\n      dup7\n        /* \"#utility.yul\":5822:5910   */\n      tag_390\n      jump\t// in\n    tag_389:\n        /* \"#utility.yul\":5815:5910   */\n      swap5\n      pop\n        /* \"#utility.yul\":5941:5942   */\n      0x01\n        /* \"#utility.yul\":5930:5939   */\n      dup3\n        /* \"#utility.yul\":5926:5943   */\n      and\n        /* \"#utility.yul\":5957:5958   */\n      0x00\n        /* \"#utility.yul\":5952:6089   */\n      dup2\n      eq\n      tag_392\n      jumpi\n        /* \"#utility.yul\":6103:6104   */\n      0x01\n        /* \"#utility.yul\":6098:6442   */\n      dup2\n      eq\n      tag_393\n      jumpi\n        /* \"#utility.yul\":5919:6442   */\n      jump(tag_391)\n        /* \"#utility.yul\":5952:6089   */\n    tag_392:\n        /* \"#utility.yul\":6036:6040   */\n      0xff\n        /* \"#utility.yul\":6032:6041   */\n      not\n        /* \"#utility.yul\":6021:6030   */\n      dup4\n        /* \"#utility.yul\":6017:6042   */\n      and\n        /* \"#utility.yul\":6012:6015   */\n      dup7\n        /* \"#utility.yul\":6005:6043   */\n      mstore\n        /* \"#utility.yul\":6072:6078   */\n      dup2\n        /* \"#utility.yul\":6067:6070   */\n      dup7\n        /* \"#utility.yul\":6063:6079   */\n      add\n        /* \"#utility.yul\":6056:6079   */\n      swap4\n      pop\n        /* \"#utility.yul\":5952:6089   */\n      jump(tag_391)\n        /* \"#utility.yul\":6098:6442   */\n    tag_393:\n        /* \"#utility.yul\":6165:6206   */\n      tag_394\n        /* \"#utility.yul\":6200:6205   */\n      dup6\n        /* \"#utility.yul\":6165:6206   */\n      tag_395\n      jump\t// in\n    tag_394:\n        /* \"#utility.yul\":6228:6229   */\n      0x00\n        /* \"#utility.yul\":6242:6396   */\n    tag_396:\n        /* \"#utility.yul\":6256:6262   */\n      dup4\n        /* \"#utility.yul\":6253:6254   */\n      dup2\n        /* \"#utility.yul\":6250:6263   */\n      lt\n        /* \"#utility.yul\":6242:6396   */\n      iszero\n      tag_398\n      jumpi\n        /* \"#utility.yul\":6330:6337   */\n      dup2\n        /* \"#utility.yul\":6324:6338   */\n      sload\n        /* \"#utility.yul\":6320:6321   */\n      dup2\n        /* \"#utility.yul\":6315:6318   */\n      dup10\n        /* \"#utility.yul\":6311:6322   */\n      add\n        /* \"#utility.yul\":6304:6339   */\n      mstore\n        /* \"#utility.yul\":6380:6381   */\n      0x01\n        /* \"#utility.yul\":6371:6378   */\n      dup3\n        /* \"#utility.yul\":6367:6382   */\n      add\n        /* \"#utility.yul\":6356:6382   */\n      swap2\n      pop\n        /* \"#utility.yul\":6278:6282   */\n      0x20\n        /* \"#utility.yul\":6275:6276   */\n      dup2\n        /* \"#utility.yul\":6271:6283   */\n      add\n        /* \"#utility.yul\":6266:6283   */\n      swap1\n      pop\n        /* \"#utility.yul\":6242:6396   */\n      jump(tag_396)\n    tag_398:\n        /* \"#utility.yul\":6425:6431   */\n      dup4\n        /* \"#utility.yul\":6420:6423   */\n      dup9\n        /* \"#utility.yul\":6416:6432   */\n      add\n        /* \"#utility.yul\":6409:6432   */\n      swap6\n      pop\n        /* \"#utility.yul\":6105:6442   */\n      pop\n      pop\n        /* \"#utility.yul\":5919:6442   */\n    tag_391:\n      pop\n        /* \"#utility.yul\":5708:6448   */\n      pop\n      pop\n      swap3\n      swap2\n      pop\n      pop\n      jump\t// out\n        /* \"#utility.yul\":6454:6611   */\n    tag_399:\n        /* \"#utility.yul\":6554:6604   */\n      tag_401\n        /* \"#utility.yul\":6598:6603   */\n      dup2\n        /* \"#utility.yul\":6554:6604   */\n      tag_402\n      jump\t// in\n    tag_401:\n        /* \"#utility.yul\":6549:6552   */\n      dup3\n        /* \"#utility.yul\":6542:6605   */\n      mstore\n        /* \"#utility.yul\":6532:6611   */\n      pop\n      pop\n      jump\t// out\n        /* \"#utility.yul\":6617:6981   */\n    tag_403:\n      0x00\n        /* \"#utility.yul\":6733:6772   */\n      tag_405\n        /* \"#utility.yul\":6766:6771   */\n      dup3\n        /* \"#utility.yul\":6733:6772   */\n      tag_406\n      jump\t// in\n    tag_405:\n        /* \"#utility.yul\":6788:6859   */\n      tag_407\n        /* \"#utility.yul\":6852:6858   */\n      dup2\n        /* \"#utility.yul\":6847:6850   */\n      dup6\n        /* \"#utility.yul\":6788:6859   */\n      tag_408\n      jump\t// in\n    tag_407:\n        /* \"#utility.yul\":6781:6859   */\n      swap4\n      pop\n        /* \"#utility.yul\":6868:6920   */\n      tag_409\n        /* \"#utility.yul\":6913:6919   */\n      dup2\n        /* \"#utility.yul\":6908:6911   */\n      dup6\n        /* \"#utility.yul\":6901:6905   */\n      0x20\n        /* \"#utility.yul\":6894:6899   */\n      dup7\n        /* \"#utility.yul\":6890:6906   */\n      add\n        /* \"#utility.yul\":6868:6920   */\n      tag_410\n      jump\t// in\n    tag_409:\n        /* \"#utility.yul\":6945:6974   */\n      tag_411\n        /* \"#utility.yul\":6967:6973   */\n      dup2\n        /* \"#utility.yul\":6945:6974   */\n      tag_412\n      jump\t// in\n    tag_411:\n        /* \"#utility.yul\":6940:6943   */\n      dup5\n        /* \"#utility.yul\":6936:6975   */\n      add\n        /* \"#utility.yul\":6929:6975   */\n      swap2\n      pop\n        /* \"#utility.yul\":6709:6981   */\n      pop\n      swap3\n      swap2\n      pop\n      pop\n      jump\t// out\n        /* \"#utility.yul\":6987:7296   */\n    tag_413:\n      0x00\n        /* \"#utility.yul\":7150:7217   */\n      tag_415\n        /* \"#utility.yul\":7214:7216   */\n      0x0b\n        /* \"#utility.yul\":7209:7212   */\n      dup4\n        /* \"#utility.yul\":7150:7217   */\n      tag_408\n      jump\t// in\n    tag_415:\n        /* \"#utility.yul\":7143:7217   */\n      swap2\n      pop\n        /* \"#utility.yul\":7247:7260   */\n      0x5a45524f5f534841524553000000000000000000000000000000000000000000\n        /* \"#utility.yul\":7243:7244   */\n      0x00\n        /* \"#utility.yul\":7238:7241   */\n      dup4\n        /* \"#utility.yul\":7234:7245   */\n      add\n        /* \"#utility.yul\":7227:7261   */\n      mstore\n        /* \"#utility.yul\":7287:7289   */\n      0x20\n        /* \"#utility.yul\":7282:7285   */\n      dup3\n        /* \"#utility.yul\":7278:7290   */\n      add\n        /* \"#utility.yul\":7271:7290   */\n      swap1\n      pop\n        /* \"#utility.yul\":7133:7296   */\n      swap2\n      swap1\n      pop\n      jump\t// out\n        /* \"#utility.yul\":7302:7698   */\n    tag_416:\n      0x00\n        /* \"#utility.yul\":7483:7567   */\n      tag_418\n        /* \"#utility.yul\":7565:7566   */\n      0x02\n        /* \"#utility.yul\":7560:7563   */\n      dup4\n        /* \"#utility.yul\":7483:7567   */\n      tag_419\n      jump\t// in\n    tag_418:\n        /* \"#utility.yul\":7476:7567   */\n      swap2\n      pop\n        /* \"#utility.yul\":7597:7663   */\n      0x1901000000000000000000000000000000000000000000000000000000000000\n        /* \"#utility.yul\":7593:7594   */\n      0x00\n        /* \"#utility.yul\":7588:7591   */\n      dup4\n        /* \"#utility.yul\":7584:7595   */\n      add\n        /* \"#utility.yul\":7577:7664   */\n      mstore\n        /* \"#utility.yul\":7690:7691   */\n      0x02\n        /* \"#utility.yul\":7685:7688   */\n      dup3\n        /* \"#utility.yul\":7681:7692   */\n      add\n        /* \"#utility.yul\":7674:7692   */\n      swap1\n      pop\n        /* \"#utility.yul\":7466:7698   */\n      swap2\n      swap1\n      pop\n      jump\t// out\n        /* \"#utility.yul\":7704:8022   */\n    tag_420:\n      0x00\n        /* \"#utility.yul\":7867:7934   */\n      tag_422\n        /* \"#utility.yul\":7931:7933   */\n      0x14\n        /* \"#utility.yul\":7926:7929   */\n      dup4\n        /* \"#utility.yul\":7867:7934   */\n      tag_408\n      jump\t// in\n    tag_422:\n        /* \"#utility.yul\":7860:7934   */\n      swap2\n      pop\n        /* \"#utility.yul\":7964:7986   */\n      0x5452414e534645525f46524f4d5f4641494c4544000000000000000000000000\n        /* \"#utility.yul\":7960:7961   */\n      0x00\n        /* \"#utility.yul\":7955:7958   */\n      dup4\n        /* \"#utility.yul\":7951:7962   */\n      add\n        /* \"#utility.yul\":7944:7987   */\n      mstore\n        /* \"#utility.yul\":8013:8015   */\n      0x20\n        /* \"#utility.yul\":8008:8011   */\n      dup3\n        /* \"#utility.yul\":8004:8016   */\n      add\n        /* \"#utility.yul\":7997:8016   */\n      swap1\n      pop\n        /* \"#utility.yul\":7850:8022   */\n      swap2\n      swap1\n      pop\n      jump\t// out\n        /* \"#utility.yul\":8028:8341   */\n    tag_423:\n      0x00\n        /* \"#utility.yul\":8191:8258   */\n      tag_425\n        /* \"#utility.yul\":8255:8257   */\n      0x0f\n        /* \"#utility.yul\":8250:8253   */\n      dup4\n        /* \"#utility.yul\":8191:8258   */\n      tag_408\n      jump\t// in\n    tag_425:\n        /* \"#utility.yul\":8184:8258   */\n      swap2\n      pop\n        /* \"#utility.yul\":8288:8305   */\n      0x5452414e534645525f4641494c45440000000000000000000000000000000000\n        /* \"#utility.yul\":8284:8285   */\n      0x00\n        /* \"#utility.yul\":8279:8282   */\n      dup4\n        /* \"#utility.yul\":8275:8286   */\n      add\n        /* \"#utility.yul\":8268:8306   */\n      mstore\n        /* \"#utility.yul\":8332:8334   */\n      0x20\n        /* \"#utility.yul\":8327:8330   */\n      dup3\n        /* \"#utility.yul\":8323:8335   */\n      add\n        /* \"#utility.yul\":8316:8335   */\n      swap1\n      pop\n        /* \"#utility.yul\":8174:8341   */\n      swap2\n      swap1\n      pop\n      jump\t// out\n        /* \"#utility.yul\":8347:8659   */\n    tag_426:\n      0x00\n        /* \"#utility.yul\":8510:8577   */\n      tag_428\n        /* \"#utility.yul\":8574:8576   */\n      0x0e\n        /* \"#utility.yul\":8569:8572   */\n      dup4\n        /* \"#utility.yul\":8510:8577   */\n      tag_408\n      jump\t// in\n    tag_428:\n        /* \"#utility.yul\":8503:8577   */\n      swap2\n      pop\n        /* \"#utility.yul\":8607:8623   */\n      0x494e56414c49445f5349474e4552000000000000000000000000000000000000\n        /* \"#utility.yul\":8603:8604   */\n      0x00\n        /* \"#utility.yul\":8598:8601   */\n      dup4\n        /* \"#utility.yul\":8594:8605   */\n      add\n        /* \"#utility.yul\":8587:8624   */\n      mstore\n        /* \"#utility.yul\":8650:8652   */\n      0x20\n        /* \"#utility.yul\":8645:8648   */\n      dup3\n        /* \"#utility.yul\":8641:8653   */\n      add\n        /* \"#utility.yul\":8634:8653   */\n      swap1\n      pop\n        /* \"#utility.yul\":8493:8659   */\n      swap2\n      swap1\n      pop\n      jump\t// out\n        /* \"#utility.yul\":8665:8974   */\n    tag_429:\n      0x00\n        /* \"#utility.yul\":8828:8895   */\n      tag_431\n        /* \"#utility.yul\":8892:8894   */\n      0x0b\n        /* \"#utility.yul\":8887:8890   */\n      dup4\n        /* \"#utility.yul\":8828:8895   */\n      tag_408\n      jump\t// in\n    tag_431:\n        /* \"#utility.yul\":8821:8895   */\n      swap2\n      pop\n        /* \"#utility.yul\":8925:8938   */\n      0x5a45524f5f415353455453000000000000000000000000000000000000000000\n        /* \"#utility.yul\":8921:8922   */\n      0x00\n        /* \"#utility.yul\":8916:8919   */\n      dup4\n        /* \"#utility.yul\":8912:8923   */\n      add\n        /* \"#utility.yul\":8905:8939   */\n      mstore\n        /* \"#utility.yul\":8965:8967   */\n      0x20\n        /* \"#utility.yul\":8960:8963   */\n      dup3\n        /* \"#utility.yul\":8956:8968   */\n      add\n        /* \"#utility.yul\":8949:8968   */\n      swap1\n      pop\n        /* \"#utility.yul\":8811:8974   */\n      swap2\n      swap1\n      pop\n      jump\t// out\n        /* \"#utility.yul\":8980:9301   */\n    tag_432:\n      0x00\n        /* \"#utility.yul\":9143:9210   */\n      tag_434\n        /* \"#utility.yul\":9207:9209   */\n      0x17\n        /* \"#utility.yul\":9202:9205   */\n      dup4\n        /* \"#utility.yul\":9143:9210   */\n      tag_408\n      jump\t// in\n    tag_434:\n        /* \"#utility.yul\":9136:9210   */\n      swap2\n      pop\n        /* \"#utility.yul\":9240:9265   */\n      0x5045524d49545f444541444c494e455f45585049524544000000000000000000\n        /* \"#utility.yul\":9236:9237   */\n      0x00\n        /* \"#utility.yul\":9231:9234   */\n      dup4\n        /* \"#utility.yul\":9227:9238   */\n      add\n        /* \"#utility.yul\":9220:9266   */\n      mstore\n        /* \"#utility.yul\":9292:9294   */\n      0x20\n        /* \"#utility.yul\":9287:9290   */\n      dup3\n        /* \"#utility.yul\":9283:9295   */\n      add\n        /* \"#utility.yul\":9276:9295   */\n      swap1\n      pop\n        /* \"#utility.yul\":9126:9301   */\n      swap2\n      swap1\n      pop\n      jump\t// out\n        /* \"#utility.yul\":9307:9425   */\n    tag_435:\n        /* \"#utility.yul\":9394:9418   */\n      tag_437\n        /* \"#utility.yul\":9412:9417   */\n      dup2\n        /* \"#utility.yul\":9394:9418   */\n      tag_438\n      jump\t// in\n    tag_437:\n        /* \"#utility.yul\":9389:9392   */\n      dup3\n        /* \"#utility.yul\":9382:9419   */\n      mstore\n        /* \"#utility.yul\":9372:9425   */\n      pop\n      pop\n      jump\t// out\n        /* \"#utility.yul\":9431:9543   */\n    tag_439:\n        /* \"#utility.yul\":9514:9536   */\n      tag_441\n        /* \"#utility.yul\":9530:9535   */\n      dup2\n        /* \"#utility.yul\":9514:9536   */\n      tag_442\n      jump\t// in\n    tag_441:\n        /* \"#utility.yul\":9509:9512   */\n      dup3\n        /* \"#utility.yul\":9502:9537   */\n      mstore\n        /* \"#utility.yul\":9492:9543   */\n      pop\n      pop\n      jump\t// out\n        /* \"#utility.yul\":9549:9822   */\n    tag_289:\n      0x00\n        /* \"#utility.yul\":9702:9796   */\n      tag_444\n        /* \"#utility.yul\":9792:9795   */\n      dup3\n        /* \"#utility.yul\":9783:9789   */\n      dup5\n        /* \"#utility.yul\":9702:9796   */\n      tag_386\n      jump\t// in\n    tag_444:\n        /* \"#utility.yul\":9695:9796   */\n      swap2\n      pop\n        /* \"#utility.yul\":9813:9816   */\n      dup2\n        /* \"#utility.yul\":9806:9816   */\n      swap1\n      pop\n        /* \"#utility.yul\":9684:9822   */\n      swap3\n      swap2\n      pop\n      pop\n      jump\t// out\n        /* \"#utility.yul\":9828:10491   */\n    tag_270:\n      0x00\n        /* \"#utility.yul\":10091:10239   */\n      tag_446\n        /* \"#utility.yul\":10235:10238   */\n      dup3\n        /* \"#utility.yul\":10091:10239   */\n      tag_416\n      jump\t// in\n    tag_446:\n        /* \"#utility.yul\":10084:10239   */\n      swap2\n      pop\n        /* \"#utility.yul\":10249:10324   */\n      tag_447\n        /* \"#utility.yul\":10320:10323   */\n      dup3\n        /* \"#utility.yul\":10311:10317   */\n      dup6\n        /* \"#utility.yul\":10249:10324   */\n      tag_381\n      jump\t// in\n    tag_447:\n        /* \"#utility.yul\":10349:10351   */\n      0x20\n        /* \"#utility.yul\":10344:10347   */\n      dup3\n        /* \"#utility.yul\":10340:10352   */\n      add\n        /* \"#utility.yul\":10333:10352   */\n      swap2\n      pop\n        /* \"#utility.yul\":10362:10437   */\n      tag_448\n        /* \"#utility.yul\":10433:10436   */\n      dup3\n        /* \"#utility.yul\":10424:10430   */\n      dup5\n        /* \"#utility.yul\":10362:10437   */\n      tag_381\n      jump\t// in\n    tag_448:\n        /* \"#utility.yul\":10462:10464   */\n      0x20\n        /* \"#utility.yul\":10457:10460   */\n      dup3\n        /* \"#utility.yul\":10453:10465   */\n      add\n        /* \"#utility.yul\":10446:10465   */\n      swap2\n      pop\n        /* \"#utility.yul\":10482:10485   */\n      dup2\n        /* \"#utility.yul\":10475:10485   */\n      swap1\n      pop\n        /* \"#utility.yul\":10073:10491   */\n      swap4\n      swap3\n      pop\n      pop\n      pop\n      jump\t// out\n        /* \"#utility.yul\":10497:10719   */\n    tag_158:\n      0x00\n        /* \"#utility.yul\":10628:10630   */\n      0x20\n        /* \"#utility.yul\":10617:10626   */\n      dup3\n        /* \"#utility.yul\":10613:10631   */\n      add\n        /* \"#utility.yul\":10605:10631   */\n      swap1\n      pop\n        /* \"#utility.yul\":10641:10712   */\n      tag_450\n        /* \"#utility.yul\":10709:10710   */\n      0x00\n        /* \"#utility.yul\":10698:10707   */\n      dup4\n        /* \"#utility.yul\":10694:10711   */\n      add\n        /* \"#utility.yul\":10685:10691   */\n      dup5\n        /* \"#utility.yul\":10641:10712   */\n      tag_369\n      jump\t// in\n    tag_450:\n        /* \"#utility.yul\":10595:10719   */\n      swap3\n      swap2\n      pop\n      pop\n      jump\t// out\n        /* \"#utility.yul\":10725:10935   */\n    tag_56:\n      0x00\n        /* \"#utility.yul\":10850:10852   */\n      0x20\n        /* \"#utility.yul\":10839:10848   */\n      dup3\n        /* \"#utility.yul\":10835:10853   */\n      add\n        /* \"#utility.yul\":10827:10853   */\n      swap1\n      pop\n        /* \"#utility.yul\":10863:10928   */\n      tag_452\n        /* \"#utility.yul\":10925:10926   */\n      0x00\n        /* \"#utility.yul\":10914:10923   */\n      dup4\n        /* \"#utility.yul\":10910:10927   */\n      add\n        /* \"#utility.yul\":10901:10907   */\n      dup5\n        /* \"#utility.yul\":10863:10928   */\n      tag_373\n      jump\t// in\n    tag_452:\n        /* \"#utility.yul\":10817:10935   */\n      swap3\n      swap2\n      pop\n      pop\n      jump\t// out\n        /* \"#utility.yul\":10941:11163   */\n    tag_76:\n      0x00\n        /* \"#utility.yul\":11072:11074   */\n      0x20\n        /* \"#utility.yul\":11061:11070   */\n      dup3\n        /* \"#utility.yul\":11057:11075   */\n      add\n        /* \"#utility.yul\":11049:11075   */\n      swap1\n      pop\n        /* \"#utility.yul\":11085:11156   */\n      tag_454\n        /* \"#utility.yul\":11153:11154   */\n      0x00\n        /* \"#utility.yul\":11142:11151   */\n      dup4\n        /* \"#utility.yul\":11138:11155   */\n      add\n        /* \"#utility.yul\":11129:11135   */\n      dup5\n        /* \"#utility.yul\":11085:11156   */\n      tag_377\n      jump\t// in\n    tag_454:\n        /* \"#utility.yul\":11039:11163   */\n      swap3\n      swap2\n      pop\n      pop\n      jump\t// out\n        /* \"#utility.yul\":11169:11944   */\n    tag_268:\n      0x00\n        /* \"#utility.yul\":11440:11443   */\n      0xc0\n        /* \"#utility.yul\":11429:11438   */\n      dup3\n        /* \"#utility.yul\":11425:11444   */\n      add\n        /* \"#utility.yul\":11417:11444   */\n      swap1\n      pop\n        /* \"#utility.yul\":11454:11525   */\n      tag_456\n        /* \"#utility.yul\":11522:11523   */\n      0x00\n        /* \"#utility.yul\":11511:11520   */\n      dup4\n        /* \"#utility.yul\":11507:11524   */\n      add\n        /* \"#utility.yul\":11498:11504   */\n      dup10\n        /* \"#utility.yul\":11454:11525   */\n      tag_377\n      jump\t// in\n    tag_456:\n        /* \"#utility.yul\":11535:11607   */\n      tag_457\n        /* \"#utility.yul\":11603:11605   */\n      0x20\n        /* \"#utility.yul\":11592:11601   */\n      dup4\n        /* \"#utility.yul\":11588:11606   */\n      add\n        /* \"#utility.yul\":11579:11585   */\n      dup9\n        /* \"#utility.yul\":11535:11607   */\n      tag_369\n      jump\t// in\n    tag_457:\n        /* \"#utility.yul\":11617:11689   */\n      tag_458\n        /* \"#utility.yul\":11685:11687   */\n      0x40\n        /* \"#utility.yul\":11674:11683   */\n      dup4\n        /* \"#utility.yul\":11670:11688   */\n      add\n        /* \"#utility.yul\":11661:11667   */\n      dup8\n        /* \"#utility.yul\":11617:11689   */\n      tag_369\n      jump\t// in\n    tag_458:\n        /* \"#utility.yul\":11699:11771   */\n      tag_459\n        /* \"#utility.yul\":11767:11769   */\n      0x60\n        /* \"#utility.yul\":11756:11765   */\n      dup4\n        /* \"#utility.yul\":11752:11770   */\n      add\n        /* \"#utility.yul\":11743:11749   */\n      dup7\n        /* \"#utility.yul\":11699:11771   */\n      tag_435\n      jump\t// in\n    tag_459:\n        /* \"#utility.yul\":11781:11854   */\n      tag_460\n        /* \"#utility.yul\":11849:11852   */\n      0x80\n        /* \"#utility.yul\":11838:11847   */\n      dup4\n        /* \"#utility.yul\":11834:11853   */\n      add\n        /* \"#utility.yul\":11825:11831   */\n      dup6\n        /* \"#utility.yul\":11781:11854   */\n      tag_435\n      jump\t// in\n    tag_460:\n        /* \"#utility.yul\":11864:11937   */\n      tag_461\n        /* \"#utility.yul\":11932:11935   */\n      0xa0\n        /* \"#utility.yul\":11921:11930   */\n      dup4\n        /* \"#utility.yul\":11917:11936   */\n      add\n        /* \"#utility.yul\":11908:11914   */\n      dup5\n        /* \"#utility.yul\":11864:11937   */\n      tag_435\n      jump\t// in\n    tag_461:\n        /* \"#utility.yul\":11407:11944   */\n      swap8\n      swap7\n      pop\n      pop\n      pop\n      pop\n      pop\n      pop\n      pop\n      jump\t// out\n        /* \"#utility.yul\":11950:12614   */\n    tag_291:\n      0x00\n        /* \"#utility.yul\":12193:12196   */\n      0xa0\n        /* \"#utility.yul\":12182:12191   */\n      dup3\n        /* \"#utility.yul\":12178:12197   */\n      add\n        /* \"#utility.yul\":12170:12197   */\n      swap1\n      pop\n        /* \"#utility.yul\":12207:12278   */\n      tag_463\n        /* \"#utility.yul\":12275:12276   */\n      0x00\n        /* \"#utility.yul\":12264:12273   */\n      dup4\n        /* \"#utility.yul\":12260:12277   */\n      add\n        /* \"#utility.yul\":12251:12257   */\n      dup9\n        /* \"#utility.yul\":12207:12278   */\n      tag_377\n      jump\t// in\n    tag_463:\n        /* \"#utility.yul\":12288:12360   */\n      tag_464\n        /* \"#utility.yul\":12356:12358   */\n      0x20\n        /* \"#utility.yul\":12345:12354   */\n      dup4\n        /* \"#utility.yul\":12341:12359   */\n      add\n        /* \"#utility.yul\":12332:12338   */\n      dup8\n        /* \"#utility.yul\":12288:12360   */\n      tag_377\n      jump\t// in\n    tag_464:\n        /* \"#utility.yul\":12370:12442   */\n      tag_465\n        /* \"#utility.yul\":12438:12440   */\n      0x40\n        /* \"#utility.yul\":12427:12436   */\n      dup4\n        /* \"#utility.yul\":12423:12441   */\n      add\n        /* \"#utility.yul\":12414:12420   */\n      dup7\n        /* \"#utility.yul\":12370:12442   */\n      tag_377\n      jump\t// in\n    tag_465:\n        /* \"#utility.yul\":12452:12524   */\n      tag_466\n        /* \"#utility.yul\":12520:12522   */\n      0x60\n        /* \"#utility.yul\":12509:12518   */\n      dup4\n        /* \"#utility.yul\":12505:12523   */\n      add\n        /* \"#utility.yul\":12496:12502   */\n      dup6\n        /* \"#utility.yul\":12452:12524   */\n      tag_435\n      jump\t// in\n    tag_466:\n        /* \"#utility.yul\":12534:12607   */\n      tag_467\n        /* \"#utility.yul\":12602:12605   */\n      0x80\n        /* \"#utility.yul\":12591:12600   */\n      dup4\n        /* \"#utility.yul\":12587:12606   */\n      add\n        /* \"#utility.yul\":12578:12584   */\n      dup5\n        /* \"#utility.yul\":12534:12607   */\n      tag_369\n      jump\t// in\n    tag_467:\n        /* \"#utility.yul\":12160:12614   */\n      swap7\n      swap6\n      pop\n      pop\n      pop\n      pop\n      pop\n      pop\n      jump\t// out\n        /* \"#utility.yul\":12620:13165   */\n    tag_272:\n      0x00\n        /* \"#utility.yul\":12831:12834   */\n      0x80\n        /* \"#utility.yul\":12820:12829   */\n      dup3\n        /* \"#utility.yul\":12816:12835   */\n      add\n        /* \"#utility.yul\":12808:12835   */\n      swap1\n      pop\n        /* \"#utility.yul\":12845:12916   */\n      tag_469\n        /* \"#utility.yul\":12913:12914   */\n      0x00\n        /* \"#utility.yul\":12902:12911   */\n      dup4\n        /* \"#utility.yul\":12898:12915   */\n      add\n        /* \"#utility.yul\":12889:12895   */\n      dup8\n        /* \"#utility.yul\":12845:12916   */\n      tag_377\n      jump\t// in\n    tag_469:\n        /* \"#utility.yul\":12926:12994   */\n      tag_470\n        /* \"#utility.yul\":12990:12992   */\n      0x20\n        /* \"#utility.yul\":12979:12988   */\n      dup4\n        /* \"#utility.yul\":12975:12993   */\n      add\n        /* \"#utility.yul\":12966:12972   */\n      dup7\n        /* \"#utility.yul\":12926:12994   */\n      tag_439\n      jump\t// in\n    tag_470:\n        /* \"#utility.yul\":13004:13076   */\n      tag_471\n        /* \"#utility.yul\":13072:13074   */\n      0x40\n        /* \"#utility.yul\":13061:13070   */\n      dup4\n        /* \"#utility.yul\":13057:13075   */\n      add\n        /* \"#utility.yul\":13048:13054   */\n      dup6\n        /* \"#utility.yul\":13004:13076   */\n      tag_377\n      jump\t// in\n    tag_471:\n        /* \"#utility.yul\":13086:13158   */\n      tag_472\n        /* \"#utility.yul\":13154:13156   */\n      0x60\n        /* \"#utility.yul\":13143:13152   */\n      dup4\n        /* \"#utility.yul\":13139:13157   */\n      add\n        /* \"#utility.yul\":13130:13136   */\n      dup5\n        /* \"#utility.yul\":13086:13158   */\n      tag_377\n      jump\t// in\n    tag_472:\n        /* \"#utility.yul\":12798:13165   */\n      swap6\n      swap5\n      pop\n      pop\n      pop\n      pop\n      pop\n      jump\t// out\n        /* \"#utility.yul\":13171:13419   */\n    tag_80:\n      0x00\n        /* \"#utility.yul\":13315:13317   */\n      0x20\n        /* \"#utility.yul\":13304:13313   */\n      dup3\n        /* \"#utility.yul\":13300:13318   */\n      add\n        /* \"#utility.yul\":13292:13318   */\n      swap1\n      pop\n        /* \"#utility.yul\":13328:13412   */\n      tag_474\n        /* \"#utility.yul\":13409:13410   */\n      0x00\n        /* \"#utility.yul\":13398:13407   */\n      dup4\n        /* \"#utility.yul\":13394:13411   */\n      add\n        /* \"#utility.yul\":13385:13391   */\n      dup5\n        /* \"#utility.yul\":13328:13412   */\n      tag_399\n      jump\t// in\n    tag_474:\n        /* \"#utility.yul\":13282:13419   */\n      swap3\n      swap2\n      pop\n      pop\n      jump\t// out\n        /* \"#utility.yul\":13425:13738   */\n    tag_45:\n      0x00\n        /* \"#utility.yul\":13576:13578   */\n      0x20\n        /* \"#utility.yul\":13565:13574   */\n      dup3\n        /* \"#utility.yul\":13561:13579   */\n      add\n        /* \"#utility.yul\":13553:13579   */\n      swap1\n      pop\n        /* \"#utility.yul\":13625:13634   */\n      dup2\n        /* \"#utility.yul\":13619:13623   */\n      dup2\n        /* \"#utility.yul\":13615:13635   */\n      sub\n        /* \"#utility.yul\":13611:13612   */\n      0x00\n        /* \"#utility.yul\":13600:13609   */\n      dup4\n        /* \"#utility.yul\":13596:13613   */\n      add\n        /* \"#utility.yul\":13589:13636   */\n      mstore\n        /* \"#utility.yul\":13653:13731   */\n      tag_476\n        /* \"#utility.yul\":13726:13730   */\n      dup2\n        /* \"#utility.yul\":13717:13723   */\n      dup5\n        /* \"#utility.yul\":13653:13731   */\n      tag_403\n      jump\t// in\n    tag_476:\n        /* \"#utility.yul\":13645:13731   */\n      swap1\n      pop\n        /* \"#utility.yul\":13543:13738   */\n      swap3\n      swap2\n      pop\n      pop\n      jump\t// out\n        /* \"#utility.yul\":13744:14163   */\n    tag_202:\n      0x00\n        /* \"#utility.yul\":13948:13950   */\n      0x20\n        /* \"#utility.yul\":13937:13946   */\n      dup3\n        /* \"#utility.yul\":13933:13951   */\n      add\n        /* \"#utility.yul\":13925:13951   */\n      swap1\n      pop\n        /* \"#utility.yul\":13997:14006   */\n      dup2\n        /* \"#utility.yul\":13991:13995   */\n      dup2\n        /* \"#utility.yul\":13987:14007   */\n      sub\n        /* \"#utility.yul\":13983:13984   */\n      0x00\n        /* \"#utility.yul\":13972:13981   */\n      dup4\n        /* \"#utility.yul\":13968:13985   */\n      add\n        /* \"#utility.yul\":13961:14008   */\n      mstore\n        /* \"#utility.yul\":14025:14156   */\n      tag_478\n        /* \"#utility.yul\":14151:14155   */\n      dup2\n        /* \"#utility.yul\":14025:14156   */\n      tag_413\n      jump\t// in\n    tag_478:\n        /* \"#utility.yul\":14017:14156   */\n      swap1\n      pop\n        /* \"#utility.yul\":13915:14163   */\n      swap2\n      swap1\n      pop\n      jump\t// out\n        /* \"#utility.yul\":14169:14588   */\n    tag_295:\n      0x00\n        /* \"#utility.yul\":14373:14375   */\n      0x20\n        /* \"#utility.yul\":14362:14371   */\n      dup3\n        /* \"#utility.yul\":14358:14376   */\n      add\n        /* \"#utility.yul\":14350:14376   */\n      swap1\n      pop\n        /* \"#utility.yul\":14422:14431   */\n      dup2\n        /* \"#utility.yul\":14416:14420   */\n      dup2\n        /* \"#utility.yul\":14412:14432   */\n      sub\n        /* \"#utility.yul\":14408:14409   */\n      0x00\n        /* \"#utility.yul\":14397:14406   */\n      dup4\n        /* \"#utility.yul\":14393:14410   */\n      add\n        /* \"#utility.yul\":14386:14433   */\n      mstore\n        /* \"#utility.yul\":14450:14581   */\n      tag_480\n        /* \"#utility.yul\":14576:14580   */\n      dup2\n        /* \"#utility.yul\":14450:14581   */\n      tag_420\n      jump\t// in\n    tag_480:\n        /* \"#utility.yul\":14442:14581   */\n      swap1\n      pop\n        /* \"#utility.yul\":14340:14588   */\n      swap2\n      swap1\n      pop\n      jump\t// out\n        /* \"#utility.yul\":14594:15013   */\n    tag_308:\n      0x00\n        /* \"#utility.yul\":14798:14800   */\n      0x20\n        /* \"#utility.yul\":14787:14796   */\n      dup3\n        /* \"#utility.yul\":14783:14801   */\n      add\n        /* \"#utility.yul\":14775:14801   */\n      swap1\n      pop\n        /* \"#utility.yul\":14847:14856   */\n      dup2\n        /* \"#utility.yul\":14841:14845   */\n      dup2\n        /* \"#utility.yul\":14837:14857   */\n      sub\n        /* \"#utility.yul\":14833:14834   */\n      0x00\n        /* \"#utility.yul\":14822:14831   */\n      dup4\n        /* \"#utility.yul\":14818:14835   */\n      add\n        /* \"#utility.yul\":14811:14858   */\n      mstore\n        /* \"#utility.yul\":14875:15006   */\n      tag_482\n        /* \"#utility.yul\":15001:15005   */\n      dup2\n        /* \"#utility.yul\":14875:15006   */\n      tag_423\n      jump\t// in\n    tag_482:\n        /* \"#utility.yul\":14867:15006   */\n      swap1\n      pop\n        /* \"#utility.yul\":14765:15013   */\n      swap2\n      swap1\n      pop\n      jump\t// out\n        /* \"#utility.yul\":15019:15438   */\n    tag_278:\n      0x00\n        /* \"#utility.yul\":15223:15225   */\n      0x20\n        /* \"#utility.yul\":15212:15221   */\n      dup3\n        /* \"#utility.yul\":15208:15226   */\n      add\n        /* \"#utility.yul\":15200:15226   */\n      swap1\n      pop\n        /* \"#utility.yul\":15272:15281   */\n      dup2\n        /* \"#utility.yul\":15266:15270   */\n      dup2\n        /* \"#utility.yul\":15262:15282   */\n      sub\n        /* \"#utility.yul\":15258:15259   */\n      0x00\n        /* \"#utility.yul\":15247:15256   */\n      dup4\n        /* \"#utility.yul\":15243:15260   */\n      add\n        /* \"#utility.yul\":15236:15283   */\n      mstore\n        /* \"#utility.yul\":15300:15431   */\n      tag_484\n        /* \"#utility.yul\":15426:15430   */\n      dup2\n        /* \"#utility.yul\":15300:15431   */\n      tag_426\n      jump\t// in\n    tag_484:\n        /* \"#utility.yul\":15292:15431   */\n      swap1\n      pop\n        /* \"#utility.yul\":15190:15438   */\n      swap2\n      swap1\n      pop\n      jump\t// out\n        /* \"#utility.yul\":15444:15863   */\n    tag_249:\n      0x00\n        /* \"#utility.yul\":15648:15650   */\n      0x20\n        /* \"#utility.yul\":15637:15646   */\n      dup3\n        /* \"#utility.yul\":15633:15651   */\n      add\n        /* \"#utility.yul\":15625:15651   */\n      swap1\n      pop\n        /* \"#utility.yul\":15697:15706   */\n      dup2\n        /* \"#utility.yul\":15691:15695   */\n      dup2\n        /* \"#utility.yul\":15687:15707   */\n      sub\n        /* \"#utility.yul\":15683:15684   */\n      0x00\n        /* \"#utility.yul\":15672:15681   */\n      dup4\n        /* \"#utility.yul\":15668:15685   */\n      add\n        /* \"#utility.yul\":15661:15708   */\n      mstore\n        /* \"#utility.yul\":15725:15856   */\n      tag_486\n        /* \"#utility.yul\":15851:15855   */\n      dup2\n        /* \"#utility.yul\":15725:15856   */\n      tag_429\n      jump\t// in\n    tag_486:\n        /* \"#utility.yul\":15717:15856   */\n      swap1\n      pop\n        /* \"#utility.yul\":15615:15863   */\n      swap2\n      swap1\n      pop\n      jump\t// out\n        /* \"#utility.yul\":15869:16288   */\n    tag_265:\n      0x00\n        /* \"#utility.yul\":16073:16075   */\n      0x20\n        /* \"#utility.yul\":16062:16071   */\n      dup3\n        /* \"#utility.yul\":16058:16076   */\n      add\n        /* \"#utility.yul\":16050:16076   */\n      swap1\n      pop\n        /* \"#utility.yul\":16122:16131   */\n      dup2\n        /* \"#utility.yul\":16116:16120   */\n      dup2\n        /* \"#utility.yul\":16112:16132   */\n      sub\n        /* \"#utility.yul\":16108:16109   */\n      0x00\n        /* \"#utility.yul\":16097:16106   */\n      dup4\n        /* \"#utility.yul\":16093:16110   */\n      add\n        /* \"#utility.yul\":16086:16133   */\n      mstore\n        /* \"#utility.yul\":16150:16281   */\n      tag_488\n        /* \"#utility.yul\":16276:16280   */\n      dup2\n        /* \"#utility.yul\":16150:16281   */\n      tag_432\n      jump\t// in\n    tag_488:\n        /* \"#utility.yul\":16142:16281   */\n      swap1\n      pop\n        /* \"#utility.yul\":16040:16288   */\n      swap2\n      swap1\n      pop\n      jump\t// out\n        /* \"#utility.yul\":16294:16516   */\n    tag_41:\n      0x00\n        /* \"#utility.yul\":16425:16427   */\n      0x20\n        /* \"#utility.yul\":16414:16423   */\n      dup3\n        /* \"#utility.yul\":16410:16428   */\n      add\n        /* \"#utility.yul\":16402:16428   */\n      swap1\n      pop\n        /* \"#utility.yul\":16438:16509   */\n      tag_490\n        /* \"#utility.yul\":16506:16507   */\n      0x00\n        /* \"#utility.yul\":16495:16504   */\n      dup4\n        /* \"#utility.yul\":16491:16508   */\n      add\n        /* \"#utility.yul\":16482:16488   */\n      dup5\n        /* \"#utility.yul\":16438:16509   */\n      tag_435\n      jump\t// in\n    tag_490:\n        /* \"#utility.yul\":16392:16516   */\n      swap3\n      swap2\n      pop\n      pop\n      jump\t// out\n        /* \"#utility.yul\":16522:16854   */\n    tag_208:\n      0x00\n        /* \"#utility.yul\":16681:16683   */\n      0x40\n        /* \"#utility.yul\":16670:16679   */\n      dup3\n        /* \"#utility.yul\":16666:16684   */\n      add\n        /* \"#utility.yul\":16658:16684   */\n      swap1\n      pop\n        /* \"#utility.yul\":16694:16765   */\n      tag_492\n        /* \"#utility.yul\":16762:16763   */\n      0x00\n        /* \"#utility.yul\":16751:16760   */\n      dup4\n        /* \"#utility.yul\":16747:16764   */\n      add\n        /* \"#utility.yul\":16738:16744   */\n      dup6\n        /* \"#utility.yul\":16694:16765   */\n      tag_435\n      jump\t// in\n    tag_492:\n        /* \"#utility.yul\":16775:16847   */\n      tag_493\n        /* \"#utility.yul\":16843:16845   */\n      0x20\n        /* \"#utility.yul\":16832:16841   */\n      dup4\n        /* \"#utility.yul\":16828:16846   */\n      add\n        /* \"#utility.yul\":16819:16825   */\n      dup5\n        /* \"#utility.yul\":16775:16847   */\n      tag_435\n      jump\t// in\n    tag_493:\n        /* \"#utility.yul\":16648:16854   */\n      swap4\n      swap3\n      pop\n      pop\n      pop\n      jump\t// out\n        /* \"#utility.yul\":16860:17074   */\n    tag_72:\n      0x00\n        /* \"#utility.yul\":16987:16989   */\n      0x20\n        /* \"#utility.yul\":16976:16985   */\n      dup3\n        /* \"#utility.yul\":16972:16990   */\n      add\n        /* \"#utility.yul\":16964:16990   */\n      swap1\n      pop\n        /* \"#utility.yul\":17000:17067   */\n      tag_495\n        /* \"#utility.yul\":17064:17065   */\n      0x00\n        /* \"#utility.yul\":17053:17062   */\n      dup4\n        /* \"#utility.yul\":17049:17066   */\n      add\n        /* \"#utility.yul\":17040:17046   */\n      dup5\n        /* \"#utility.yul\":17000:17067   */\n      tag_439\n      jump\t// in\n    tag_495:\n        /* \"#utility.yul\":16954:17074   */\n      swap3\n      swap2\n      pop\n      pop\n      jump\t// out\n        /* \"#utility.yul\":17080:17224   */\n    tag_395:\n      0x00\n        /* \"#utility.yul\":17155:17158   */\n      dup2\n        /* \"#utility.yul\":17147:17158   */\n      swap1\n      pop\n        /* \"#utility.yul\":17178:17181   */\n      dup2\n        /* \"#utility.yul\":17175:17176   */\n      0x00\n        /* \"#utility.yul\":17168:17182   */\n      mstore\n        /* \"#utility.yul\":17212:17216   */\n      0x20\n        /* \"#utility.yul\":17209:17210   */\n      0x00\n        /* \"#utility.yul\":17199:17217   */\n      keccak256\n        /* \"#utility.yul\":17191:17217   */\n      swap1\n      pop\n        /* \"#utility.yul\":17137:17224   */\n      swap2\n      swap1\n      pop\n      jump\t// out\n        /* \"#utility.yul\":17230:17329   */\n    tag_406:\n      0x00\n        /* \"#utility.yul\":17316:17321   */\n      dup2\n        /* \"#utility.yul\":17310:17322   */\n      mload\n        /* \"#utility.yul\":17300:17322   */\n      swap1\n      pop\n        /* \"#utility.yul\":17289:17329   */\n      swap2\n      swap1\n      pop\n      jump\t// out\n        /* \"#utility.yul\":17335:17482   */\n    tag_390:\n      0x00\n        /* \"#utility.yul\":17473:17476   */\n      dup2\n        /* \"#utility.yul\":17458:17476   */\n      swap1\n      pop\n        /* \"#utility.yul\":17448:17482   */\n      swap3\n      swap2\n      pop\n      pop\n      jump\t// out\n        /* \"#utility.yul\":17488:17657   */\n    tag_408:\n      0x00\n        /* \"#utility.yul\":17606:17612   */\n      dup3\n        /* \"#utility.yul\":17601:17604   */\n      dup3\n        /* \"#utility.yul\":17594:17613   */\n      mstore\n        /* \"#utility.yul\":17646:17650   */\n      0x20\n        /* \"#utility.yul\":17641:17644   */\n      dup3\n        /* \"#utility.yul\":17637:17651   */\n      add\n        /* \"#utility.yul\":17622:17651   */\n      swap1\n      pop\n        /* \"#utility.yul\":17584:17657   */\n      swap3\n      swap2\n      pop\n      pop\n      jump\t// out\n        /* \"#utility.yul\":17663:17811   */\n    tag_419:\n      0x00\n        /* \"#utility.yul\":17802:17805   */\n      dup2\n        /* \"#utility.yul\":17787:17805   */\n      swap1\n      pop\n        /* \"#utility.yul\":17777:17811   */\n      swap3\n      swap2\n      pop\n      pop\n      jump\t// out\n        /* \"#utility.yul\":17817:18122   */\n    tag_298:\n      0x00\n        /* \"#utility.yul\":17876:17896   */\n      tag_502\n        /* \"#utility.yul\":17894:17895   */\n      dup3\n        /* \"#utility.yul\":17876:17896   */\n      tag_438\n      jump\t// in\n    tag_502:\n        /* \"#utility.yul\":17871:17896   */\n      swap2\n      pop\n        /* \"#utility.yul\":17910:17930   */\n      tag_503\n        /* \"#utility.yul\":17928:17929   */\n      dup4\n        /* \"#utility.yul\":17910:17930   */\n      tag_438\n      jump\t// in\n    tag_503:\n        /* \"#utility.yul\":17905:17930   */\n      swap3\n      pop\n        /* \"#utility.yul\":18064:18065   */\n      dup3\n        /* \"#utility.yul\":17996:18062   */\n      0xffffffffffffffffffffffffffffffffffffffffffffffffffffffffffffffff\n        /* \"#utility.yul\":17992:18066   */\n      sub\n        /* \"#utility.yul\":17989:17990   */\n      dup3\n        /* \"#utility.yul\":17986:18067   */\n      gt\n        /* \"#utility.yul\":17983:17985   */\n      iszero\n      tag_504\n      jumpi\n        /* \"#utility.yul\":18070:18088   */\n      tag_505\n      tag_506\n      jump\t// in\n    tag_505:\n        /* \"#utility.yul\":17983:17985   */\n    tag_504:\n        /* \"#utility.yul\":18114:18115   */\n      dup3\n        /* \"#utility.yul\":18111:18112   */\n      dup3\n        /* \"#utility.yul\":18107:18116   */\n      add\n        /* \"#utility.yul\":18100:18116   */\n      swap1\n      pop\n        /* \"#utility.yul\":17861:18122   */\n      swap3\n      swap2\n      pop\n      pop\n      jump\t// out\n        /* \"#utility.yul\":18128:18319   */\n    tag_187:\n      0x00\n        /* \"#utility.yul\":18188:18208   */\n      tag_508\n        /* \"#utility.yul\":18206:18207   */\n      dup3\n        /* \"#utility.yul\":18188:18208   */\n      tag_438\n      jump\t// in\n    tag_508:\n        /* \"#utility.yul\":18183:18208   */\n      swap2\n      pop\n        /* \"#utility.yul\":18222:18242   */\n      tag_509\n        /* \"#utility.yul\":18240:18241   */\n      dup4\n        /* \"#utility.yul\":18222:18242   */\n      tag_438\n      jump\t// in\n    tag_509:\n        /* \"#utility.yul\":18217:18242   */\n      swap3\n      pop\n        /* \"#utility.yul\":18261:18262   */\n      dup3\n        /* \"#utility.yul\":18258:18259   */\n      dup3\n        /* \"#utility.yul\":18255:18263   */\n      lt\n        /* \"#utility.yul\":18252:18254   */\n      iszero\n      tag_510\n      jumpi\n        /* \"#utility.yul\":18266:18284   */\n      tag_511\n      tag_506\n      jump\t// in\n    tag_511:\n        /* \"#utility.yul\":18252:18254   */\n    tag_510:\n        /* \"#utility.yul\":18311:18312   */\n      dup3\n        /* \"#utility.yul\":18308:18309   */\n      dup3\n        /* \"#utility.yul\":18304:18313   */\n      sub\n        /* \"#utility.yul\":18296:18313   */\n      swap1\n      pop\n        /* \"#utility.yul\":18173:18319   */\n      swap3\n      swap2\n      pop\n      pop\n      jump\t// out\n        /* \"#utility.yul\":18325:18421   */\n    tag_372:\n      0x00\n        /* \"#utility.yul\":18391:18415   */\n      tag_513\n        /* \"#utility.yul\":18409:18414   */\n      dup3\n        /* \"#utility.yul\":18391:18415   */\n      tag_514\n      jump\t// in\n    tag_513:\n        /* \"#utility.yul\":18380:18415   */\n      swap1\n      pop\n        /* \"#utility.yul\":18370:18421   */\n      swap2\n      swap1\n      pop\n      jump\t// out\n        /* \"#utility.yul\":18427:18517   */\n    tag_376:\n      0x00\n        /* \"#utility.yul\":18504:18509   */\n      dup2\n        /* \"#utility.yul\":18497:18510   */\n      iszero\n        /* \"#utility.yul\":18490:18511   */\n      iszero\n        /* \"#utility.yul\":18479:18511   */\n      swap1\n      pop\n        /* \"#utility.yul\":18469:18517   */\n      swap2\n      swap1\n      pop\n      jump\t// out\n        /* \"#utility.yul\":18523:18600   */\n    tag_380:\n      0x00\n        /* \"#utility.yul\":18589:18594   */\n      dup2\n        /* \"#utility.yul\":18578:18594   */\n      swap1\n      pop\n        /* \"#utility.yul\":18568:18600   */\n      swap2\n      swap1\n      pop\n      jump\t// out\n        /* \"#utility.yul\":18606:18732   */\n    tag_514:\n      0x00\n        /* \"#utility.yul\":18683:18725   */\n      0xffffffffffffffffffffffffffffffffffffffff\n        /* \"#utility.yul\":18676:18681   */\n      dup3\n        /* \"#utility.yul\":18672:18726   */\n      and\n        /* \"#utility.yul\":18661:18726   */\n      swap1\n      pop\n        /* \"#utility.yul\":18651:18732   */\n      swap2\n      swap1\n      pop\n      jump\t// out\n        /* \"#utility.yul\":18738:18815   */\n    tag_438:\n      0x00\n        /* \"#utility.yul\":18804:18809   */\n      dup2\n        /* \"#utility.yul\":18793:18809   */\n      swap1\n      pop\n        /* \"#utility.yul\":18783:18815   */\n      swap2\n      swap1\n      pop\n      jump\t// out\n        /* \"#utility.yul\":18821:18907   */\n    tag_442:\n      0x00\n        /* \"#utility.yul\":18896:18900   */\n      0xff\n        /* \"#utility.yul\":18889:18894   */\n      dup3\n        /* \"#utility.yul\":18885:18901   */\n      and\n        /* \"#utility.yul\":18874:18901   */\n      swap1\n      pop\n        /* \"#utility.yul\":18864:18907   */\n      swap2\n      swap1\n      pop\n      jump\t// out\n        /* \"#utility.yul\":18913:19065   */\n    tag_402:\n      0x00\n        /* \"#utility.yul\":19009:19059   */\n      tag_521\n        /* \"#utility.yul\":19053:19058   */\n      dup3\n        /* \"#utility.yul\":19009:19059   */\n      tag_522\n      jump\t// in\n    tag_521:\n        /* \"#utility.yul\":18996:19059   */\n      swap1\n      pop\n        /* \"#utility.yul\":18986:19065   */\n      swap2\n      swap1\n      pop\n      jump\t// out\n        /* \"#utility.yul\":19071:19197   */\n    tag_522:\n      0x00\n        /* \"#utility.yul\":19167:19191   */\n      tag_524\n        /* \"#utility.yul\":19185:19190   */\n      dup3\n        /* \"#utility.yul\":19167:19191   */\n      tag_514\n      jump\t// in\n    tag_524:\n        /* \"#utility.yul\":19154:19191   */\n      swap1\n      pop\n        /* \"#utility.yul\":19144:19197   */\n      swap2\n      swap1\n      pop\n      jump\t// out\n        /* \"#utility.yul\":19203:19510   */\n    tag_410:\n        /* \"#utility.yul\":19271:19272   */\n      0x00\n        /* \"#utility.yul\":19281:19394   */\n    tag_526:\n        /* \"#utility.yul\":19295:19301   */\n      dup4\n        /* \"#utility.yul\":19292:19293   */\n      dup2\n        /* \"#utility.yul\":19289:19302   */\n      lt\n        /* \"#utility.yul\":19281:19394   */\n      iszero\n      tag_528\n      jumpi\n        /* \"#utility.yul\":19380:19381   */\n      dup1\n        /* \"#utility.yul\":19375:19378   */\n      dup3\n        /* \"#utility.yul\":19371:19382   */\n      add\n        /* \"#utility.yul\":19365:19383   */\n      mload\n        /* \"#utility.yul\":19361:19362   */\n      dup2\n        /* \"#utility.yul\":19356:19359   */\n      dup5\n        /* \"#utility.yul\":19352:19363   */\n      add\n        /* \"#utility.yul\":19345:19384   */\n      mstore\n        /* \"#utility.yul\":19317:19319   */\n      0x20\n        /* \"#utility.yul\":19314:19315   */\n      dup2\n        /* \"#utility.yul\":19310:19320   */\n      add\n        /* \"#utility.yul\":19305:19320   */\n      swap1\n      pop\n        /* \"#utility.yul\":19281:19394   */\n      jump(tag_526)\n    tag_528:\n        /* \"#utility.yul\":19412:19418   */\n      dup4\n        /* \"#utility.yul\":19409:19410   */\n      dup2\n        /* \"#utility.yul\":19406:19419   */\n      gt\n        /* \"#utility.yul\":19403:19405   */\n      iszero\n      tag_529\n      jumpi\n        /* \"#utility.yul\":19492:19493   */\n      0x00\n        /* \"#utility.yul\":19483:19489   */\n      dup5\n        /* \"#utility.yul\":19478:19481   */\n      dup5\n        /* \"#utility.yul\":19474:19490   */\n      add\n        /* \"#utility.yul\":19467:19494   */\n      mstore\n        /* \"#utility.yul\":19403:19405   */\n    tag_529:\n        /* \"#utility.yul\":19252:19510   */\n      pop\n      pop\n      pop\n      pop\n      jump\t// out\n        /* \"#utility.yul\":19516:19836   */\n    tag_165:\n      0x00\n        /* \"#utility.yul\":19597:19598   */\n      0x02\n        /* \"#utility.yul\":19591:19595   */\n      dup3\n        /* \"#utility.yul\":19587:19599   */\n      div\n        /* \"#utility.yul\":19577:19599   */\n      swap1\n      pop\n        /* \"#utility.yul\":19644:19645   */\n      0x01\n        /* \"#utility.yul\":19638:19642   */\n      dup3\n        /* \"#utility.yul\":19634:19646   */\n      and\n        /* \"#utility.yul\":19665:19683   */\n      dup1\n        /* \"#utility.yul\":19655:19657   */\n      tag_531\n      jumpi\n        /* \"#utility.yul\":19721:19725   */\n      0x7f\n        /* \"#utility.yul\":19713:19719   */\n      dup3\n        /* \"#utility.yul\":19709:19726   */\n      and\n        /* \"#utility.yul\":19699:19726   */\n      swap2\n      pop\n        /* \"#utility.yul\":19655:19657   */\n    tag_531:\n        /* \"#utility.yul\":19783:19785   */\n      0x20\n        /* \"#utility.yul\":19775:19781   */\n      dup3\n        /* \"#utility.yul\":19772:19786   */\n      lt\n        /* \"#utility.yul\":19752:19770   */\n      dup2\n        /* \"#utility.yul\":19749:19787   */\n      eq\n        /* \"#utility.yul\":19746:19748   */\n      iszero\n      tag_532\n      jumpi\n        /* \"#utility.yul\":19802:19820   */\n      tag_533\n      tag_534\n      jump\t// in\n    tag_533:\n        /* \"#utility.yul\":19746:19748   */\n    tag_532:\n        /* \"#utility.yul\":19567:19836   */\n      pop\n      swap2\n      swap1\n      pop\n      jump\t// out\n        /* \"#utility.yul\":19842:19921   */\n    tag_385:\n      0x00\n        /* \"#utility.yul\":19910:19915   */\n      dup2\n        /* \"#utility.yul\":19899:19915   */\n      swap1\n      pop\n        /* \"#utility.yul\":19889:19921   */\n      swap2\n      swap1\n      pop\n      jump\t// out\n        /* \"#utility.yul\":19927:20107   */\n    tag_506:\n        /* \"#utility.yul\":19975:20052   */\n      0x4e487b7100000000000000000000000000000000000000000000000000000000\n        /* \"#utility.yul\":19972:19973   */\n      0x00\n        /* \"#utility.yul\":19965:20053   */\n      mstore\n        /* \"#utility.yul\":20072:20076   */\n      0x11\n        /* \"#utility.yul\":20069:20070   */\n      0x04\n        /* \"#utility.yul\":20062:20077   */\n      mstore\n        /* \"#utility.yul\":20096:20100   */\n      0x24\n        /* \"#utility.yul\":20093:20094   */\n      0x00\n        /* \"#utility.yul\":20086:20101   */\n      revert\n        /* \"#utility.yul\":20113:20293   */\n    tag_534:\n        /* \"#utility.yul\":20161:20238   */\n      0x4e487b7100000000000000000000000000000000000000000000000000000000\n        /* \"#utility.yul\":20158:20159   */\n      0x00\n        /* \"#utility.yul\":20151:20239   */\n      mstore\n        /* \"#utility.yul\":20258:20262   */\n      0x22\n        /* \"#utility.yul\":20255:20256   */\n      0x04\n        /* \"#utility.yul\":20248:20263   */\n      mstore\n        /* \"#utility.yul\":20282:20286   */\n      0x24\n        /* \"#utility.yul\":20279:20280   */\n      0x00\n        /* \"#utility.yul\":20272:20287   */\n      revert\n        /* \"#utility.yul\":20299:20401   */\n    tag_412:\n      0x00\n        /* \"#utility.yul\":20391:20393   */\n      0x1f\n        /* \"#utility.yul\":20387:20394   */\n      not\n        /* \"#utility.yul\":20382:20384   */\n      0x1f\n        /* \"#utility.yul\":20375:20380   */\n      dup4\n        /* \"#utility.yul\":20371:20385   */\n      add\n        /* \"#utility.yul\":20367:20395   */\n      and\n        /* \"#utility.yul\":20357:20395   */\n      swap1\n      pop\n        /* \"#utility.yul\":20347:20401   */\n      swap2\n      swap1\n      pop\n      jump\t// out\n        /* \"#utility.yul\":20407:20529   */\n    tag_313:\n        /* \"#utility.yul\":20480:20504   */\n      tag_540\n        /* \"#utility.yul\":20498:20503   */\n      dup2\n        /* \"#utility.yul\":20480:20504   */\n      tag_372\n      jump\t// in\n    tag_540:\n        /* \"#utility.yul\":20473:20478   */\n      dup2\n        /* \"#utility.yul\":20470:20505   */\n      eq\n        /* \"#utility.yul\":20460:20462   */\n      tag_541\n      jumpi\n        /* \"#utility.yul\":20519:20520   */\n      0x00\n        /* \"#utility.yul\":20516:20517   */\n      dup1\n        /* \"#utility.yul\":20509:20521   */\n      revert\n        /* \"#utility.yul\":20460:20462   */\n    tag_541:\n        /* \"#utility.yul\":20450:20529   */\n      pop\n      jump\t// out\n        /* \"#utility.yul\":20535:20657   */\n    tag_317:\n        /* \"#utility.yul\":20608:20632   */\n      tag_543\n        /* \"#utility.yul\":20626:20631   */\n      dup2\n        /* \"#utility.yul\":20608:20632   */\n      tag_380\n      jump\t// in\n    tag_543:\n        /* \"#utility.yul\":20601:20606   */\n      dup2\n        /* \"#utility.yul\":20598:20633   */\n      eq\n        /* \"#utility.yul\":20588:20590   */\n      tag_544\n      jumpi\n        /* \"#utility.yul\":20647:20648   */\n      0x00\n        /* \"#utility.yul\":20644:20645   */\n      dup1\n        /* \"#utility.yul\":20637:20649   */\n      revert\n        /* \"#utility.yul\":20588:20590   */\n    tag_544:\n        /* \"#utility.yul\":20578:20657   */\n      pop\n      jump\t// out\n        /* \"#utility.yul\":20663:20785   */\n    tag_321:\n        /* \"#utility.yul\":20736:20760   */\n      tag_546\n        /* \"#utility.yul\":20754:20759   */\n      dup2\n        /* \"#utility.yul\":20736:20760   */\n      tag_438\n      jump\t// in\n    tag_546:\n        /* \"#utility.yul\":20729:20734   */\n      dup2\n        /* \"#utility.yul\":20726:20761   */\n      eq\n        /* \"#utility.yul\":20716:20718   */\n      tag_547\n      jumpi\n        /* \"#utility.yul\":20775:20776   */\n      0x00\n        /* \"#utility.yul\":20772:20773   */\n      dup1\n        /* \"#utility.yul\":20765:20777   */\n      revert\n        /* \"#utility.yul\":20716:20718   */\n    tag_547:\n        /* \"#utility.yul\":20706:20785   */\n      pop\n      jump\t// out\n        /* \"#utility.yul\":20791:20909   */\n    tag_328:\n        /* \"#utility.yul\":20862:20884   */\n      tag_549\n        /* \"#utility.yul\":20878:20883   */\n      dup2\n        /* \"#utility.yul\":20862:20884   */\n      tag_442\n      jump\t// in\n    tag_549:\n        /* \"#utility.yul\":20855:20860   */\n      dup2\n        /* \"#utility.yul\":20852:20885   */\n      eq\n        /* \"#utility.yul\":20842:20844   */\n      tag_550\n      jumpi\n        /* \"#utility.yul\":20899:20900   */\n      0x00\n        /* \"#utility.yul\":20896:20897   */\n      dup1\n        /* \"#utility.yul\":20889:20901   */\n      revert\n        /* \"#utility.yul\":20842:20844   */\n    tag_550:\n        /* \"#utility.yul\":20832:20909   */\n      pop\n      jump\t// out\n\n    auxdata: 0xa2646970667358221220886aac8ed0458ed560af0acc0137744836f531faf40a96da169de15f0a414abf64736f6c63430008000033\n}\n",
				"bytecode": {
					"linkReferences": {},
					"object": "6101006040523480156200001257600080fd5b506040516200303138038062003031833981810160405281019062000038919062000341565b81818473ffffffffffffffffffffffffffffffffffffffff1663313ce5676040518163ffffffff1660e01b815260040160206040518083038186803b1580156200008157600080fd5b505afa15801562000096573d6000803e3d6000fd5b505050506040513d601f19601f82011682018060405250810190620000bc9190620003c9565b8260009080519060200190620000d4929190620001f1565b508160019080519060200190620000ed929190620001f1565b508060ff1660808160ff1660f81b815250504660a08181525050620001176200016160201b60201c565b60c081815250505050508273ffffffffffffffffffffffffffffffffffffffff1660e08173ffffffffffffffffffffffffffffffffffffffff1660601b8152505050505062000717565b60007f8b73c3c69bb8fe3d512ecc4cf759cc79239f7b179b0ffacaa9a75d522b39400f6000604051620001959190620004b3565b60405180910390207fc89efdaa54c0f20c7adf612882df0950f5a951637e0307cdcb4c672f298b8bc64630604051602001620001d6959493929190620004cc565b60405160208183030381529060405280519060200120905090565b828054620001ff906200064f565b90600052602060002090601f0160209004810192826200022357600085556200026f565b82601f106200023e57805160ff19168380011785556200026f565b828001600101855582156200026f579182015b828111156200026e57825182559160200191906001019062000251565b5b5090506200027e919062000282565b5090565b5b808211156200029d57600081600090555060010162000283565b5090565b6000620002b8620002b2846200055d565b62000529565b905082815260208101848484011115620002d157600080fd5b620002de84828562000619565b509392505050565b600081519050620002f781620006e3565b92915050565b600082601f8301126200030f57600080fd5b815162000321848260208601620002a1565b91505092915050565b6000815190506200033b81620006fd565b92915050565b6000806000606084860312156200035757600080fd5b60006200036786828701620002e6565b935050602084015167ffffffffffffffff8111156200038557600080fd5b6200039386828701620002fd565b925050604084015167ffffffffffffffff811115620003b157600080fd5b620003bf86828701620002fd565b9150509250925092565b600060208284031215620003dc57600080fd5b6000620003ec848285016200032a565b91505092915050565b6200040081620005b0565b82525050565b6200041181620005c4565b82525050565b6000815462000426816200064f565b620004328186620005a5565b94506001821660008114620004505760018114620004625762000499565b60ff1983168652818601935062000499565b6200046d8562000590565b60005b83811015620004915781548189015260018201915060208101905062000470565b838801955050505b50505092915050565b620004ad8162000602565b82525050565b6000620004c1828462000417565b915081905092915050565b600060a082019050620004e3600083018862000406565b620004f2602083018762000406565b62000501604083018662000406565b620005106060830185620004a2565b6200051f6080830184620003f5565b9695505050505050565b6000604051905081810181811067ffffffffffffffff82111715620005535762000552620006b4565b5b8060405250919050565b600067ffffffffffffffff8211156200057b576200057a620006b4565b5b601f19601f8301169050602081019050919050565b60008190508160005260206000209050919050565b600081905092915050565b6000620005bd82620005e2565b9050919050565b6000819050919050565b6000620005db82620005b0565b9050919050565b600073ffffffffffffffffffffffffffffffffffffffff82169050919050565b6000819050919050565b600060ff82169050919050565b60005b83811015620006395780820151818401526020810190506200061c565b8381111562000649576000848401525b50505050565b600060028204905060018216806200066857607f821691505b602082108114156200067f576200067e62000685565b5b50919050565b7f4e487b7100000000000000000000000000000000000000000000000000000000600052602260045260246000fd5b7f4e487b7100000000000000000000000000000000000000000000000000000000600052604160045260246000fd5b620006ee81620005ce565b8114620006fa57600080fd5b50565b62000708816200060c565b81146200071457600080fd5b50565b60805160f81c60a05160c05160e05160601c6128b76200077a6000396000818161067b01528181610bf001528181610ca601528181610db101528181611264015261150301526000610bc901526000610b9501526000610b6f01526128b76000f3fe608060405234801561001057600080fd5b50600436106101c45760003560e01c80637ecebe00116100f9578063c63d75b611610097578063d505accf11610071578063d505accf146105cb578063d905777e146105e7578063dd62ed3e14610617578063ef8b30f714610647576101c4565b8063c63d75b61461053b578063c6e6f5921461056b578063ce96cb771461059b576101c4565b8063a9059cbb116100d3578063a9059cbb1461047b578063b3d7f6b9146104ab578063b460af94146104db578063ba0876521461050b576101c4565b80637ecebe00146103fd57806394bf804d1461042d57806395d89b411461045d576101c4565b8063313ce56711610166578063402d267d11610140578063402d267d1461033d5780634cdad5061461036d5780636e553f651461039d57806370a08231146103cd576101c4565b8063313ce567146102e35780633644e5151461030157806338d52e0f1461031f576101c4565b8063095ea7b3116101a2578063095ea7b3146102355780630a28a4771461026557806318160ddd1461029557806323b872dd146102b3576101c4565b806301e1d114146101c957806306fdde03146101e757806307a2d13a14610205575b600080fd5b6101d1610677565b6040516101de9190612594565b60405180910390f35b6101ef610727565b6040516101fc91906124b2565b60405180910390f35b61021f600480360381019061021a9190611f39565b6107b5565b60405161022c9190612594565b60405180910390f35b61024f600480360381019061024a9190611efd565b6107f0565b60405161025c9190612368565b60405180910390f35b61027f600480360381019061027a9190611f39565b6108e2565b60405161028c9190612594565b60405180910390f35b61029d61091d565b6040516102aa9190612594565b60405180910390f35b6102cd60048036038101906102c89190611e10565b610923565b6040516102da9190612368565b60405180910390f35b6102eb610b6d565b6040516102f891906125d8565b60405180910390f35b610309610b91565b6040516103169190612383565b60405180910390f35b610327610bee565b6040516103349190612497565b60405180910390f35b61035760048036038101906103529190611dab565b610c12565b6040516103649190612594565b60405180910390f35b61038760048036038101906103829190611f39565b610c3c565b6040516103949190612594565b60405180910390f35b6103b760048036038101906103b29190611f8b565b610c4e565b6040516103c49190612594565b60405180910390f35b6103e760048036038101906103e29190611dab565b610d6c565b6040516103f49190612594565b60405180910390f35b61041760048036038101906104129190611dab565b610d84565b6040516104249190612594565b60405180910390f35b61044760048036038101906104429190611f8b565b610d9c565b6040516104549190612594565b60405180910390f35b610465610e77565b60405161047291906124b2565b60405180910390f35b61049560048036038101906104909190611efd565b610f05565b6040516104a29190612368565b60405180910390f35b6104c560048036038101906104c09190611f39565b611019565b6040516104d29190612594565b60405180910390f35b6104f560048036038101906104f09190611fc7565b611054565b6040516105029190612594565b60405180910390f35b61052560048036038101906105209190611fc7565b6112af565b6040516105329190612594565b60405180910390f35b61055560048036038101906105509190611dab565b61154e565b6040516105629190612594565b60405180910390f35b61058560048036038101906105809190611f39565b611578565b6040516105929190612594565b60405180910390f35b6105b560048036038101906105b09190611dab565b6115b3565b6040516105c29190612594565b60405180910390f35b6105e560048036038101906105e09190611e5f565b611604565b005b61060160048036038101906105fc9190611dab565b6118fd565b60405161060e9190612594565b60405180910390f35b610631600480360381019061062c9190611dd4565b611946565b60405161063e9190612594565b60405180910390f35b610661600480360381019061065c9190611f39565b61196b565b60405161066e9190612594565b60405180910390f35b60007f000000000000000000000000000000000000000000000000000000000000000073ffffffffffffffffffffffffffffffffffffffff166370a08231306040518263ffffffff1660e01b81526004016106d2919061234d565b60206040518083038186803b1580156106ea57600080fd5b505afa1580156106fe573d6000803e3d6000fd5b505050506040513d601f19601f820116820180604052508101906107229190611f62565b905090565b600080546107349061277a565b80601f01602080910402602001604051908101604052809291908181526020018280546107609061277a565b80156107ad5780601f10610782576101008083540402835291602001916107ad565b820191906000526020600020905b81548152906001019060200180831161079057829003601f168201915b505050505081565b6000806002549050600081146107e6576107e16107d0610677565b828561197d9092919063ffffffff16565b6107e8565b825b915050919050565b600081600460003373ffffffffffffffffffffffffffffffffffffffff1673ffffffffffffffffffffffffffffffffffffffff16815260200190815260200160002060008573ffffffffffffffffffffffffffffffffffffffff1673ffffffffffffffffffffffffffffffffffffffff168152602001908152602001600020819055508273ffffffffffffffffffffffffffffffffffffffff163373ffffffffffffffffffffffffffffffffffffffff167f8c5be1e5ebec7d5bd14f71427d1e84f3dd0314c0f7b2291e5b200ac8c7c3b925846040516108d09190612594565b60405180910390a36001905092915050565b6000806002549050600081146109135761090e816108fe610677565b856119a59092919063ffffffff16565b610915565b825b915050919050565b60025481565b600080600460008673ffffffffffffffffffffffffffffffffffffffff1673ffffffffffffffffffffffffffffffffffffffff16815260200190815260200160002060003373ffffffffffffffffffffffffffffffffffffffff1673ffffffffffffffffffffffffffffffffffffffff1681526020019081526020016000205490507fffffffffffffffffffffffffffffffffffffffffffffffffffffffffffffffff8114610a595782816109d89190612690565b600460008773ffffffffffffffffffffffffffffffffffffffff1673ffffffffffffffffffffffffffffffffffffffff16815260200190815260200160002060003373ffffffffffffffffffffffffffffffffffffffff1673ffffffffffffffffffffffffffffffffffffffff168152602001908152602001600020819055505b82600360008773ffffffffffffffffffffffffffffffffffffffff1673ffffffffffffffffffffffffffffffffffffffff1681526020019081526020016000206000828254610aa89190612690565b9250508190555082600360008673ffffffffffffffffffffffffffffffffffffffff1673ffffffffffffffffffffffffffffffffffffffff168152602001908152602001600020600082825401925050819055508373ffffffffffffffffffffffffffffffffffffffff168573ffffffffffffffffffffffffffffffffffffffff167fddf252ad1be2c89b69c2b068fc378daa952ba7f163c4a11628f55a4df523b3ef85604051610b599190612594565b60405180910390a360019150509392505050565b7f000000000000000000000000000000000000000000000000000000000000000081565b60007f00000000000000000000000000000000000000000000000000000000000000004614610bc757610bc26119d7565b610be9565b7f00000000000000000000000000000000000000000000000000000000000000005b905090565b7f000000000000000000000000000000000000000000000000000000000000000081565b60007fffffffffffffffffffffffffffffffffffffffffffffffffffffffffffffffff9050919050565b6000610c47826107b5565b9050919050565b600080610c5a8461196b565b9150811415610c9e576040517f08c379a0000000000000000000000000000000000000000000000000000000008152600401610c95906124d4565b60405180910390fd5b610ceb3330857f000000000000000000000000000000000000000000000000000000000000000073ffffffffffffffffffffffffffffffffffffffff16611a63909392919063ffffffff16565b610cf58282611b02565b8173ffffffffffffffffffffffffffffffffffffffff163373ffffffffffffffffffffffffffffffffffffffff167fdcbc1c05240f31ff3ad067ef1ee35ce4997762752e3a095284754544f4c709d78584604051610d549291906125af565b60405180910390a3610d668382611bd2565b92915050565b60036020528060005260406000206000915090505481565b60056020528060005260406000206000915090505481565b6000610da783611019565b9050610df63330837f000000000000000000000000000000000000000000000000000000000000000073ffffffffffffffffffffffffffffffffffffffff16611a63909392919063ffffffff16565b610e008284611b02565b8173ffffffffffffffffffffffffffffffffffffffff163373ffffffffffffffffffffffffffffffffffffffff167fdcbc1c05240f31ff3ad067ef1ee35ce4997762752e3a095284754544f4c709d78386604051610e5f9291906125af565b60405180910390a3610e718184611bd2565b92915050565b60018054610e849061277a565b80601f0160208091040260200160405190810160405280929190818152602001828054610eb09061277a565b8015610efd5780601f10610ed257610100808354040283529160200191610efd565b820191906000526020600020905b815481529060010190602001808311610ee057829003601f168201915b505050505081565b600081600360003373ffffffffffffffffffffffffffffffffffffffff1673ffffffffffffffffffffffffffffffffffffffff1681526020019081526020016000206000828254610f569190612690565b9250508190555081600360008573ffffffffffffffffffffffffffffffffffffffff1673ffffffffffffffffffffffffffffffffffffffff168152602001908152602001600020600082825401925050819055508273ffffffffffffffffffffffffffffffffffffffff163373ffffffffffffffffffffffffffffffffffffffff167fddf252ad1be2c89b69c2b068fc378daa952ba7f163c4a11628f55a4df523b3ef846040516110079190612594565b60405180910390a36001905092915050565b60008060025490506000811461104a57611045611034610677565b82856119a59092919063ffffffff16565b61104c565b825b915050919050565b600061105f846108e2565b90508173ffffffffffffffffffffffffffffffffffffffff163373ffffffffffffffffffffffffffffffffffffffff16146111cb576000600460008473ffffffffffffffffffffffffffffffffffffffff1673ffffffffffffffffffffffffffffffffffffffff16815260200190815260200160002060003373ffffffffffffffffffffffffffffffffffffffff1673ffffffffffffffffffffffffffffffffffffffff1681526020019081526020016000205490507fffffffffffffffffffffffffffffffffffffffffffffffffffffffffffffffff81146111c95781816111489190612690565b600460008573ffffffffffffffffffffffffffffffffffffffff1673ffffffffffffffffffffffffffffffffffffffff16815260200190815260200160002060003373ffffffffffffffffffffffffffffffffffffffff1673ffffffffffffffffffffffffffffffffffffffff168152602001908152602001600020819055505b505b6111d58482611bd6565b6111df8282611bda565b8173ffffffffffffffffffffffffffffffffffffffff168373ffffffffffffffffffffffffffffffffffffffff163373ffffffffffffffffffffffffffffffffffffffff167ffbde797d201c681b91056529119e0b02407c7bb96a4a2c75c01fc9667232c8db87856040516112559291906125af565b60405180910390a46112a883857f000000000000000000000000000000000000000000000000000000000000000073ffffffffffffffffffffffffffffffffffffffff16611caa9092919063ffffffff16565b9392505050565b60008173ffffffffffffffffffffffffffffffffffffffff163373ffffffffffffffffffffffffffffffffffffffff161461141b576000600460008473ffffffffffffffffffffffffffffffffffffffff1673ffffffffffffffffffffffffffffffffffffffff16815260200190815260200160002060003373ffffffffffffffffffffffffffffffffffffffff1673ffffffffffffffffffffffffffffffffffffffff1681526020019081526020016000205490507fffffffffffffffffffffffffffffffffffffffffffffffffffffffffffffffff81146114195784816113989190612690565b600460008573ffffffffffffffffffffffffffffffffffffffff1673ffffffffffffffffffffffffffffffffffffffff16815260200190815260200160002060003373ffffffffffffffffffffffffffffffffffffffff1673ffffffffffffffffffffffffffffffffffffffff168152602001908152602001600020819055505b505b600061142685610c3c565b915081141561146a576040517f08c379a000000000000000000000000000000000000000000000000000000000815260040161146190612554565b60405180910390fd5b6114748185611bd6565b61147e8285611bda565b8173ffffffffffffffffffffffffffffffffffffffff168373ffffffffffffffffffffffffffffffffffffffff163373ffffffffffffffffffffffffffffffffffffffff167ffbde797d201c681b91056529119e0b02407c7bb96a4a2c75c01fc9667232c8db84886040516114f49291906125af565b60405180910390a461154783827f000000000000000000000000000000000000000000000000000000000000000073ffffffffffffffffffffffffffffffffffffffff16611caa9092919063ffffffff16565b9392505050565b60007fffffffffffffffffffffffffffffffffffffffffffffffffffffffffffffffff9050919050565b6000806002549050600081146115a9576115a481611594610677565b8561197d9092919063ffffffff16565b6115ab565b825b915050919050565b60006115fd600360008473ffffffffffffffffffffffffffffffffffffffff1673ffffffffffffffffffffffffffffffffffffffff168152602001908152602001600020546107b5565b9050919050565b42841015611647576040517f08c379a000000000000000000000000000000000000000000000000000000000815260040161163e90612574565b60405180910390fd5b60006001611653610b91565b7f6e71edae12b1b97f4d1f60370fef10105fa2faae0126114a169c64845d6126c98a8a8a600560008f73ffffffffffffffffffffffffffffffffffffffff1673ffffffffffffffffffffffffffffffffffffffff1681526020019081526020016000206000815480929190600101919050558b6040516020016116db9695949392919061239e565b60405160208183030381529060405280519060200120604051602001611702929190612316565b60405160208183030381529060405280519060200120858585604051600081526020016040526040516117389493929190612452565b6020604051602081039080840390855afa15801561175a573d6000803e3d6000fd5b505050602060405103519050600073ffffffffffffffffffffffffffffffffffffffff168173ffffffffffffffffffffffffffffffffffffffff16141580156117ce57508773ffffffffffffffffffffffffffffffffffffffff168173ffffffffffffffffffffffffffffffffffffffff16145b61180d576040517f08c379a000000000000000000000000000000000000000000000000000000000815260040161180490612534565b60405180910390fd5b85600460008373ffffffffffffffffffffffffffffffffffffffff1673ffffffffffffffffffffffffffffffffffffffff16815260200190815260200160002060008973ffffffffffffffffffffffffffffffffffffffff1673ffffffffffffffffffffffffffffffffffffffff16815260200190815260200160002081905550508573ffffffffffffffffffffffffffffffffffffffff168773ffffffffffffffffffffffffffffffffffffffff167f8c5be1e5ebec7d5bd14f71427d1e84f3dd0314c0f7b2291e5b200ac8c7c3b925876040516118ec9190612594565b60405180910390a350505050505050565b6000600360008373ffffffffffffffffffffffffffffffffffffffff1673ffffffffffffffffffffffffffffffffffffffff168152602001908152602001600020549050919050565b6004602052816000526040600020602052806000526040600020600091509150505481565b600061197682611578565b9050919050565b6000828402905082848204148415178215151661199957600080fd5b81810490509392505050565b600082840290508284820414841517821515166119c157600080fd5b6001826001830304018115150290509392505050565b60007f8b73c3c69bb8fe3d512ecc4cf759cc79239f7b179b0ffacaa9a75d522b39400f6000604051611a0991906122ff565b60405180910390207fc89efdaa54c0f20c7adf612882df0950f5a951637e0307cdcb4c672f298b8bc64630604051602001611a489594939291906123ff565b60405160208183030381529060405280519060200120905090565b60006040517f23b872dd0000000000000000000000000000000000000000000000000000000081528460048201528360248201528260448201526020600060648360008a5af13d15601f3d1160016000511416171691505080611afb576040517f08c379a0000000000000000000000000000000000000000000000000000000008152600401611af2906124f4565b60405180910390fd5b5050505050565b8060026000828254611b14919061263a565b9250508190555080600360008473ffffffffffffffffffffffffffffffffffffffff1673ffffffffffffffffffffffffffffffffffffffff168152602001908152602001600020600082825401925050819055508173ffffffffffffffffffffffffffffffffffffffff16600073ffffffffffffffffffffffffffffffffffffffff167fddf252ad1be2c89b69c2b068fc378daa952ba7f163c4a11628f55a4df523b3ef83604051611bc69190612594565b60405180910390a35050565b5050565b5050565b80600360008473ffffffffffffffffffffffffffffffffffffffff1673ffffffffffffffffffffffffffffffffffffffff1681526020019081526020016000206000828254611c299190612690565b9250508190555080600260008282540392505081905550600073ffffffffffffffffffffffffffffffffffffffff168273ffffffffffffffffffffffffffffffffffffffff167fddf252ad1be2c89b69c2b068fc378daa952ba7f163c4a11628f55a4df523b3ef83604051611c9e9190612594565b60405180910390a35050565b60006040517fa9059cbb000000000000000000000000000000000000000000000000000000008152836004820152826024820152602060006044836000895af13d15601f3d1160016000511416171691505080611d3c576040517f08c379a0000000000000000000000000000000000000000000000000000000008152600401611d3390612514565b60405180910390fd5b50505050565b600081359050611d5181612825565b92915050565b600081359050611d668161283c565b92915050565b600081359050611d7b81612853565b92915050565b600081519050611d9081612853565b92915050565b600081359050611da58161286a565b92915050565b600060208284031215611dbd57600080fd5b6000611dcb84828501611d42565b91505092915050565b60008060408385031215611de757600080fd5b6000611df585828601611d42565b9250506020611e0685828601611d42565b9150509250929050565b600080600060608486031215611e2557600080fd5b6000611e3386828701611d42565b9350506020611e4486828701611d42565b9250506040611e5586828701611d6c565b9150509250925092565b600080600080600080600060e0888a031215611e7a57600080fd5b6000611e888a828b01611d42565b9750506020611e998a828b01611d42565b9650506040611eaa8a828b01611d6c565b9550506060611ebb8a828b01611d6c565b9450506080611ecc8a828b01611d96565b93505060a0611edd8a828b01611d57565b92505060c0611eee8a828b01611d57565b91505092959891949750929550565b60008060408385031215611f1057600080fd5b6000611f1e85828601611d42565b9250506020611f2f85828601611d6c565b9150509250929050565b600060208284031215611f4b57600080fd5b6000611f5984828501611d6c565b91505092915050565b600060208284031215611f7457600080fd5b6000611f8284828501611d81565b91505092915050565b60008060408385031215611f9e57600080fd5b6000611fac85828601611d6c565b9250506020611fbd85828601611d42565b9150509250929050565b600080600060608486031215611fdc57600080fd5b6000611fea86828701611d6c565b9350506020611ffb86828701611d42565b925050604061200c86828701611d42565b9150509250925092565b61201f816126c4565b82525050565b61202e816126d6565b82525050565b61203d816126e2565b82525050565b61205461204f826126e2565b6127ac565b82525050565b600081546120678161277a565b6120718186612613565b9450600182166000811461208c576001811461209d576120d0565b60ff198316865281860193506120d0565b6120a6856125f3565b60005b838110156120c8578154818901526001820191506020810190506120a9565b838801955050505b50505092915050565b6120e281612723565b82525050565b60006120f382612608565b6120fd818561261e565b935061210d818560208601612747565b61211681612814565b840191505092915050565b600061212e600b8361261e565b91507f5a45524f5f5348415245530000000000000000000000000000000000000000006000830152602082019050919050565b600061216e60028361262f565b91507f19010000000000000000000000000000000000000000000000000000000000006000830152600282019050919050565b60006121ae60148361261e565b91507f5452414e534645525f46524f4d5f4641494c45440000000000000000000000006000830152602082019050919050565b60006121ee600f8361261e565b91507f5452414e534645525f4641494c454400000000000000000000000000000000006000830152602082019050919050565b600061222e600e8361261e565b91507f494e56414c49445f5349474e45520000000000000000000000000000000000006000830152602082019050919050565b600061226e600b8361261e565b91507f5a45524f5f4153534554530000000000000000000000000000000000000000006000830152602082019050919050565b60006122ae60178361261e565b91507f5045524d49545f444541444c494e455f455850495245440000000000000000006000830152602082019050919050565b6122ea8161270c565b82525050565b6122f981612716565b82525050565b600061230b828461205a565b915081905092915050565b600061232182612161565b915061232d8285612043565b60208201915061233d8284612043565b6020820191508190509392505050565b60006020820190506123626000830184612016565b92915050565b600060208201905061237d6000830184612025565b92915050565b60006020820190506123986000830184612034565b92915050565b600060c0820190506123b36000830189612034565b6123c06020830188612016565b6123cd6040830187612016565b6123da60608301866122e1565b6123e760808301856122e1565b6123f460a08301846122e1565b979650505050505050565b600060a0820190506124146000830188612034565b6124216020830187612034565b61242e6040830186612034565b61243b60608301856122e1565b6124486080830184612016565b9695505050505050565b60006080820190506124676000830187612034565b61247460208301866122f0565b6124816040830185612034565b61248e6060830184612034565b95945050505050565b60006020820190506124ac60008301846120d9565b92915050565b600060208201905081810360008301526124cc81846120e8565b905092915050565b600060208201905081810360008301526124ed81612121565b9050919050565b6000602082019050818103600083015261250d816121a1565b9050919050565b6000602082019050818103600083015261252d816121e1565b9050919050565b6000602082019050818103600083015261254d81612221565b9050919050565b6000602082019050818103600083015261256d81612261565b9050919050565b6000602082019050818103600083015261258d816122a1565b9050919050565b60006020820190506125a960008301846122e1565b92915050565b60006040820190506125c460008301856122e1565b6125d160208301846122e1565b9392505050565b60006020820190506125ed60008301846122f0565b92915050565b60008190508160005260206000209050919050565b600081519050919050565b600081905092915050565b600082825260208201905092915050565b600081905092915050565b60006126458261270c565b91506126508361270c565b9250827fffffffffffffffffffffffffffffffffffffffffffffffffffffffffffffffff03821115612685576126846127b6565b5b828201905092915050565b600061269b8261270c565b91506126a68361270c565b9250828210156126b9576126b86127b6565b5b828203905092915050565b60006126cf826126ec565b9050919050565b60008115159050919050565b6000819050919050565b600073ffffffffffffffffffffffffffffffffffffffff82169050919050565b6000819050919050565b600060ff82169050919050565b600061272e82612735565b9050919050565b6000612740826126ec565b9050919050565b60005b8381101561276557808201518184015260208101905061274a565b83811115612774576000848401525b50505050565b6000600282049050600182168061279257607f821691505b602082108114156127a6576127a56127e5565b5b50919050565b6000819050919050565b7f4e487b7100000000000000000000000000000000000000000000000000000000600052601160045260246000fd5b7f4e487b7100000000000000000000000000000000000000000000000000000000600052602260045260246000fd5b6000601f19601f8301169050919050565b61282e816126c4565b811461283957600080fd5b50565b612845816126e2565b811461285057600080fd5b50565b61285c8161270c565b811461286757600080fd5b50565b61287381612716565b811461287e57600080fd5b5056fea2646970667358221220886aac8ed0458ed560af0acc0137744836f531faf40a96da169de15f0a414abf64736f6c63430008000033",
					"opcodes": "PUSH2 0x100 PUSH1 0x40 MSTORE CALLVALUE DUP1 ISZERO PUSH3 0x12 JUMPI PUSH1 0x0 DUP1 REVERT JUMPDEST POP PUSH1 0x40 MLOAD PUSH3 0x3031 CODESIZE SUB DUP1 PUSH3 0x3031 DUP4 CODECOPY DUP2 DUP2 ADD PUSH1 0x40 MSTORE DUP2 ADD SWAP1 PUSH3 0x38 SWAP2 SWAP1 PUSH3 0x341 JUMP JUMPDEST DUP2 DUP2 DUP5 PUSH20 0xFFFFFFFFFFFFFFFFFFFFFFFFFFFFFFFFFFFFFFFF AND PUSH4 0x313CE567 PUSH1 0x40 MLOAD DUP2 PUSH4 0xFFFFFFFF AND PUSH1 0xE0 SHL DUP2 MSTORE PUSH1 0x4 ADD PUSH1 0x20 PUSH1 0x40 MLOAD DUP1 DUP4 SUB DUP2 DUP7 DUP1 EXTCODESIZE ISZERO DUP1 ISZERO PUSH3 0x81 JUMPI PUSH1 0x0 DUP1 REVERT JUMPDEST POP GAS STATICCALL ISZERO DUP1 ISZERO PUSH3 0x96 JUMPI RETURNDATASIZE PUSH1 0x0 DUP1 RETURNDATACOPY RETURNDATASIZE PUSH1 0x0 REVERT JUMPDEST POP POP POP POP PUSH1 0x40 MLOAD RETURNDATASIZE PUSH1 0x1F NOT PUSH1 0x1F DUP3 ADD AND DUP3 ADD DUP1 PUSH1 0x40 MSTORE POP DUP2 ADD SWAP1 PUSH3 0xBC SWAP2 SWAP1 PUSH3 0x3C9 JUMP JUMPDEST DUP3 PUSH1 0x0 SWAP1 DUP1 MLOAD SWAP1 PUSH1 0x20 ADD SWAP1 PUSH3 0xD4 SWAP3 SWAP2 SWAP1 PUSH3 0x1F1 JUMP JUMPDEST POP DUP2 PUSH1 0x1 SWAP1 DUP1 MLOAD SWAP1 PUSH1 0x20 ADD SWAP1 PUSH3 0xED SWAP3 SWAP2 SWAP1 PUSH3 0x1F1 JUMP JUMPDEST POP DUP1 PUSH1 0xFF AND PUSH1 0x80 DUP2 PUSH1 0xFF AND PUSH1 0xF8 SHL DUP2 MSTORE POP POP CHAINID PUSH1 0xA0 DUP2 DUP2 MSTORE POP POP PUSH3 0x117 PUSH3 0x161 PUSH1 0x20 SHL PUSH1 0x20 SHR JUMP JUMPDEST PUSH1 0xC0 DUP2 DUP2 MSTORE POP POP POP POP POP DUP3 PUSH20 0xFFFFFFFFFFFFFFFFFFFFFFFFFFFFFFFFFFFFFFFF AND PUSH1 0xE0 DUP2 PUSH20 0xFFFFFFFFFFFFFFFFFFFFFFFFFFFFFFFFFFFFFFFF AND PUSH1 0x60 SHL DUP2 MSTORE POP POP POP POP POP PUSH3 0x717 JUMP JUMPDEST PUSH1 0x0 PUSH32 0x8B73C3C69BB8FE3D512ECC4CF759CC79239F7B179B0FFACAA9A75D522B39400F PUSH1 0x0 PUSH1 0x40 MLOAD PUSH3 0x195 SWAP2 SWAP1 PUSH3 0x4B3 JUMP JUMPDEST PUSH1 0x40 MLOAD DUP1 SWAP2 SUB SWAP1 KECCAK256 PUSH32 0xC89EFDAA54C0F20C7ADF612882DF0950F5A951637E0307CDCB4C672F298B8BC6 CHAINID ADDRESS PUSH1 0x40 MLOAD PUSH1 0x20 ADD PUSH3 0x1D6 SWAP6 SWAP5 SWAP4 SWAP3 SWAP2 SWAP1 PUSH3 0x4CC JUMP JUMPDEST PUSH1 0x40 MLOAD PUSH1 0x20 DUP2 DUP4 SUB SUB DUP2 MSTORE SWAP1 PUSH1 0x40 MSTORE DUP1 MLOAD SWAP1 PUSH1 0x20 ADD KECCAK256 SWAP1 POP SWAP1 JUMP JUMPDEST DUP3 DUP1 SLOAD PUSH3 0x1FF SWAP1 PUSH3 0x64F JUMP JUMPDEST SWAP1 PUSH1 0x0 MSTORE PUSH1 0x20 PUSH1 0x0 KECCAK256 SWAP1 PUSH1 0x1F ADD PUSH1 0x20 SWAP1 DIV DUP2 ADD SWAP3 DUP3 PUSH3 0x223 JUMPI PUSH1 0x0 DUP6 SSTORE PUSH3 0x26F JUMP JUMPDEST DUP3 PUSH1 0x1F LT PUSH3 0x23E JUMPI DUP1 MLOAD PUSH1 0xFF NOT AND DUP4 DUP1 ADD OR DUP6 SSTORE PUSH3 0x26F JUMP JUMPDEST DUP3 DUP1 ADD PUSH1 0x1 ADD DUP6 SSTORE DUP3 ISZERO PUSH3 0x26F JUMPI SWAP2 DUP3 ADD JUMPDEST DUP3 DUP2 GT ISZERO PUSH3 0x26E JUMPI DUP3 MLOAD DUP3 SSTORE SWAP2 PUSH1 0x20 ADD SWAP2 SWAP1 PUSH1 0x1 ADD SWAP1 PUSH3 0x251 JUMP JUMPDEST JUMPDEST POP SWAP1 POP PUSH3 0x27E SWAP2 SWAP1 PUSH3 0x282 JUMP JUMPDEST POP SWAP1 JUMP JUMPDEST JUMPDEST DUP1 DUP3 GT ISZERO PUSH3 0x29D JUMPI PUSH1 0x0 DUP2 PUSH1 0x0 SWAP1 SSTORE POP PUSH1 0x1 ADD PUSH3 0x283 JUMP JUMPDEST POP SWAP1 JUMP JUMPDEST PUSH1 0x0 PUSH3 0x2B8 PUSH3 0x2B2 DUP5 PUSH3 0x55D JUMP JUMPDEST PUSH3 0x529 JUMP JUMPDEST SWAP1 POP DUP3 DUP2 MSTORE PUSH1 0x20 DUP2 ADD DUP5 DUP5 DUP5 ADD GT ISZERO PUSH3 0x2D1 JUMPI PUSH1 0x0 DUP1 REVERT JUMPDEST PUSH3 0x2DE DUP5 DUP3 DUP6 PUSH3 0x619 JUMP JUMPDEST POP SWAP4 SWAP3 POP POP POP JUMP JUMPDEST PUSH1 0x0 DUP2 MLOAD SWAP1 POP PUSH3 0x2F7 DUP2 PUSH3 0x6E3 JUMP JUMPDEST SWAP3 SWAP2 POP POP JUMP JUMPDEST PUSH1 0x0 DUP3 PUSH1 0x1F DUP4 ADD SLT PUSH3 0x30F JUMPI PUSH1 0x0 DUP1 REVERT JUMPDEST DUP2 MLOAD PUSH3 0x321 DUP5 DUP3 PUSH1 0x20 DUP7 ADD PUSH3 0x2A1 JUMP JUMPDEST SWAP2 POP POP SWAP3 SWAP2 POP POP JUMP JUMPDEST PUSH1 0x0 DUP2 MLOAD SWAP1 POP PUSH3 0x33B DUP2 PUSH3 0x6FD JUMP JUMPDEST SWAP3 SWAP2 POP POP JUMP JUMPDEST PUSH1 0x0 DUP1 PUSH1 0x0 PUSH1 0x60 DUP5 DUP7 SUB SLT ISZERO PUSH3 0x357 JUMPI PUSH1 0x0 DUP1 REVERT JUMPDEST PUSH1 0x0 PUSH3 0x367 DUP7 DUP3 DUP8 ADD PUSH3 0x2E6 JUMP JUMPDEST SWAP4 POP POP PUSH1 0x20 DUP5 ADD MLOAD PUSH8 0xFFFFFFFFFFFFFFFF DUP2 GT ISZERO PUSH3 0x385 JUMPI PUSH1 0x0 DUP1 REVERT JUMPDEST PUSH3 0x393 DUP7 DUP3 DUP8 ADD PUSH3 0x2FD JUMP JUMPDEST SWAP3 POP POP PUSH1 0x40 DUP5 ADD MLOAD PUSH8 0xFFFFFFFFFFFFFFFF DUP2 GT ISZERO PUSH3 0x3B1 JUMPI PUSH1 0x0 DUP1 REVERT JUMPDEST PUSH3 0x3BF DUP7 DUP3 DUP8 ADD PUSH3 0x2FD JUMP JUMPDEST SWAP2 POP POP SWAP3 POP SWAP3 POP SWAP3 JUMP JUMPDEST PUSH1 0x0 PUSH1 0x20 DUP3 DUP5 SUB SLT ISZERO PUSH3 0x3DC JUMPI PUSH1 0x0 DUP1 REVERT JUMPDEST PUSH1 0x0 PUSH3 0x3EC DUP5 DUP3 DUP6 ADD PUSH3 0x32A JUMP JUMPDEST SWAP2 POP POP SWAP3 SWAP2 POP POP JUMP JUMPDEST PUSH3 0x400 DUP2 PUSH3 0x5B0 JUMP JUMPDEST DUP3 MSTORE POP POP JUMP JUMPDEST PUSH3 0x411 DUP2 PUSH3 0x5C4 JUMP JUMPDEST DUP3 MSTORE POP POP JUMP JUMPDEST PUSH1 0x0 DUP2 SLOAD PUSH3 0x426 DUP2 PUSH3 0x64F JUMP JUMPDEST PUSH3 0x432 DUP2 DUP7 PUSH3 0x5A5 JUMP JUMPDEST SWAP5 POP PUSH1 0x1 DUP3 AND PUSH1 0x0 DUP2 EQ PUSH3 0x450 JUMPI PUSH1 0x1 DUP2 EQ PUSH3 0x462 JUMPI PUSH3 0x499 JUMP JUMPDEST PUSH1 0xFF NOT DUP4 AND DUP7 MSTORE DUP2 DUP7 ADD SWAP4 POP PUSH3 0x499 JUMP JUMPDEST PUSH3 0x46D DUP6 PUSH3 0x590 JUMP JUMPDEST PUSH1 0x0 JUMPDEST DUP4 DUP2 LT ISZERO PUSH3 0x491 JUMPI DUP2 SLOAD DUP2 DUP10 ADD MSTORE PUSH1 0x1 DUP3 ADD SWAP2 POP PUSH1 0x20 DUP2 ADD SWAP1 POP PUSH3 0x470 JUMP JUMPDEST DUP4 DUP9 ADD SWAP6 POP POP POP JUMPDEST POP POP POP SWAP3 SWAP2 POP POP JUMP JUMPDEST PUSH3 0x4AD DUP2 PUSH3 0x602 JUMP JUMPDEST DUP3 MSTORE POP POP JUMP JUMPDEST PUSH1 0x0 PUSH3 0x4C1 DUP3 DUP5 PUSH3 0x417 JUMP JUMPDEST SWAP2 POP DUP2 SWAP1 POP SWAP3 SWAP2 POP POP JUMP JUMPDEST PUSH1 0x0 PUSH1 0xA0 DUP3 ADD SWAP1 POP PUSH3 0x4E3 PUSH1 0x0 DUP4 ADD DUP9 PUSH3 0x406 JUMP JUMPDEST PUSH3 0x4F2 PUSH1 0x20 DUP4 ADD DUP8 PUSH3 0x406 JUMP JUMPDEST PUSH3 0x501 PUSH1 0x40 DUP4 ADD DUP7 PUSH3 0x406 JUMP JUMPDEST PUSH3 0x510 PUSH1 0x60 DUP4 ADD DUP6 PUSH3 0x4A2 JUMP JUMPDEST PUSH3 0x51F PUSH1 0x80 DUP4 ADD DUP5 PUSH3 0x3F5 JUMP JUMPDEST SWAP7 SWAP6 POP POP POP POP POP POP JUMP JUMPDEST PUSH1 0x0 PUSH1 0x40 MLOAD SWAP1 POP DUP2 DUP2 ADD DUP2 DUP2 LT PUSH8 0xFFFFFFFFFFFFFFFF DUP3 GT OR ISZERO PUSH3 0x553 JUMPI PUSH3 0x552 PUSH3 0x6B4 JUMP JUMPDEST JUMPDEST DUP1 PUSH1 0x40 MSTORE POP SWAP2 SWAP1 POP JUMP JUMPDEST PUSH1 0x0 PUSH8 0xFFFFFFFFFFFFFFFF DUP3 GT ISZERO PUSH3 0x57B JUMPI PUSH3 0x57A PUSH3 0x6B4 JUMP JUMPDEST JUMPDEST PUSH1 0x1F NOT PUSH1 0x1F DUP4 ADD AND SWAP1 POP PUSH1 0x20 DUP2 ADD SWAP1 POP SWAP2 SWAP1 POP JUMP JUMPDEST PUSH1 0x0 DUP2 SWAP1 POP DUP2 PUSH1 0x0 MSTORE PUSH1 0x20 PUSH1 0x0 KECCAK256 SWAP1 POP SWAP2 SWAP1 POP JUMP JUMPDEST PUSH1 0x0 DUP2 SWAP1 POP SWAP3 SWAP2 POP POP JUMP JUMPDEST PUSH1 0x0 PUSH3 0x5BD DUP3 PUSH3 0x5E2 JUMP JUMPDEST SWAP1 POP SWAP2 SWAP1 POP JUMP JUMPDEST PUSH1 0x0 DUP2 SWAP1 POP SWAP2 SWAP1 POP JUMP JUMPDEST PUSH1 0x0 PUSH3 0x5DB DUP3 PUSH3 0x5B0 JUMP JUMPDEST SWAP1 POP SWAP2 SWAP1 POP JUMP JUMPDEST PUSH1 0x0 PUSH20 0xFFFFFFFFFFFFFFFFFFFFFFFFFFFFFFFFFFFFFFFF DUP3 AND SWAP1 POP SWAP2 SWAP1 POP JUMP JUMPDEST PUSH1 0x0 DUP2 SWAP1 POP SWAP2 SWAP1 POP JUMP JUMPDEST PUSH1 0x0 PUSH1 0xFF DUP3 AND SWAP1 POP SWAP2 SWAP1 POP JUMP JUMPDEST PUSH1 0x0 JUMPDEST DUP4 DUP2 LT ISZERO PUSH3 0x639 JUMPI DUP1 DUP3 ADD MLOAD DUP2 DUP5 ADD MSTORE PUSH1 0x20 DUP2 ADD SWAP1 POP PUSH3 0x61C JUMP JUMPDEST DUP4 DUP2 GT ISZERO PUSH3 0x649 JUMPI PUSH1 0x0 DUP5 DUP5 ADD MSTORE JUMPDEST POP POP POP POP JUMP JUMPDEST PUSH1 0x0 PUSH1 0x2 DUP3 DIV SWAP1 POP PUSH1 0x1 DUP3 AND DUP1 PUSH3 0x668 JUMPI PUSH1 0x7F DUP3 AND SWAP2 POP JUMPDEST PUSH1 0x20 DUP3 LT DUP2 EQ ISZERO PUSH3 0x67F JUMPI PUSH3 0x67E PUSH3 0x685 JUMP JUMPDEST JUMPDEST POP SWAP2 SWAP1 POP JUMP JUMPDEST PUSH32 0x4E487B7100000000000000000000000000000000000000000000000000000000 PUSH1 0x0 MSTORE PUSH1 0x22 PUSH1 0x4 MSTORE PUSH1 0x24 PUSH1 0x0 REVERT JUMPDEST PUSH32 0x4E487B7100000000000000000000000000000000000000000000000000000000 PUSH1 0x0 MSTORE PUSH1 0x41 PUSH1 0x4 MSTORE PUSH1 0x24 PUSH1 0x0 REVERT JUMPDEST PUSH3 0x6EE DUP2 PUSH3 0x5CE JUMP JUMPDEST DUP2 EQ PUSH3 0x6FA JUMPI PUSH1 0x0 DUP1 REVERT JUMPDEST POP JUMP JUMPDEST PUSH3 0x708 DUP2 PUSH3 0x60C JUMP JUMPDEST DUP2 EQ PUSH3 0x714 JUMPI PUSH1 0x0 DUP1 REVERT JUMPDEST POP JUMP JUMPDEST PUSH1 0x80 MLOAD PUSH1 0xF8 SHR PUSH1 0xA0 MLOAD PUSH1 0xC0 MLOAD PUSH1 0xE0 MLOAD PUSH1 0x60 SHR PUSH2 0x28B7 PUSH3 0x77A PUSH1 0x0 CODECOPY PUSH1 0x0 DUP2 DUP2 PUSH2 0x67B ADD MSTORE DUP2 DUP2 PUSH2 0xBF0 ADD MSTORE DUP2 DUP2 PUSH2 0xCA6 ADD MSTORE DUP2 DUP2 PUSH2 0xDB1 ADD MSTORE DUP2 DUP2 PUSH2 0x1264 ADD MSTORE PUSH2 0x1503 ADD MSTORE PUSH1 0x0 PUSH2 0xBC9 ADD MSTORE PUSH1 0x0 PUSH2 0xB95 ADD MSTORE PUSH1 0x0 PUSH2 0xB6F ADD MSTORE PUSH2 0x28B7 PUSH1 0x0 RETURN INVALID PUSH1 0x80 PUSH1 0x40 MSTORE CALLVALUE DUP1 ISZERO PUSH2 0x10 JUMPI PUSH1 0x0 DUP1 REVERT JUMPDEST POP PUSH1 0x4 CALLDATASIZE LT PUSH2 0x1C4 JUMPI PUSH1 0x0 CALLDATALOAD PUSH1 0xE0 SHR DUP1 PUSH4 0x7ECEBE00 GT PUSH2 0xF9 JUMPI DUP1 PUSH4 0xC63D75B6 GT PUSH2 0x97 JUMPI DUP1 PUSH4 0xD505ACCF GT PUSH2 0x71 JUMPI DUP1 PUSH4 0xD505ACCF EQ PUSH2 0x5CB JUMPI DUP1 PUSH4 0xD905777E EQ PUSH2 0x5E7 JUMPI DUP1 PUSH4 0xDD62ED3E EQ PUSH2 0x617 JUMPI DUP1 PUSH4 0xEF8B30F7 EQ PUSH2 0x647 JUMPI PUSH2 0x1C4 JUMP JUMPDEST DUP1 PUSH4 0xC63D75B6 EQ PUSH2 0x53B JUMPI DUP1 PUSH4 0xC6E6F592 EQ PUSH2 0x56B JUMPI DUP1 PUSH4 0xCE96CB77 EQ PUSH2 0x59B JUMPI PUSH2 0x1C4 JUMP JUMPDEST DUP1 PUSH4 0xA9059CBB GT PUSH2 0xD3 JUMPI DUP1 PUSH4 0xA9059CBB EQ PUSH2 0x47B JUMPI DUP1 PUSH4 0xB3D7F6B9 EQ PUSH2 0x4AB JUMPI DUP1 PUSH4 0xB460AF94 EQ PUSH2 0x4DB JUMPI DUP1 PUSH4 0xBA087652 EQ PUSH2 0x50B JUMPI PUSH2 0x1C4 JUMP JUMPDEST DUP1 PUSH4 0x7ECEBE00 EQ PUSH2 0x3FD JUMPI DUP1 PUSH4 0x94BF804D EQ PUSH2 0x42D JUMPI DUP1 PUSH4 0x95D89B41 EQ PUSH2 0x45D JUMPI PUSH2 0x1C4 JUMP JUMPDEST DUP1 PUSH4 0x313CE567 GT PUSH2 0x166 JUMPI DUP1 PUSH4 0x402D267D GT PUSH2 0x140 JUMPI DUP1 PUSH4 0x402D267D EQ PUSH2 0x33D JUMPI DUP1 PUSH4 0x4CDAD506 EQ PUSH2 0x36D JUMPI DUP1 PUSH4 0x6E553F65 EQ PUSH2 0x39D JUMPI DUP1 PUSH4 0x70A08231 EQ PUSH2 0x3CD JUMPI PUSH2 0x1C4 JUMP JUMPDEST DUP1 PUSH4 0x313CE567 EQ PUSH2 0x2E3 JUMPI DUP1 PUSH4 0x3644E515 EQ PUSH2 0x301 JUMPI DUP1 PUSH4 0x38D52E0F EQ PUSH2 0x31F JUMPI PUSH2 0x1C4 JUMP JUMPDEST DUP1 PUSH4 0x95EA7B3 GT PUSH2 0x1A2 JUMPI DUP1 PUSH4 0x95EA7B3 EQ PUSH2 0x235 JUMPI DUP1 PUSH4 0xA28A477 EQ PUSH2 0x265 JUMPI DUP1 PUSH4 0x18160DDD EQ PUSH2 0x295 JUMPI DUP1 PUSH4 0x23B872DD EQ PUSH2 0x2B3 JUMPI PUSH2 0x1C4 JUMP JUMPDEST DUP1 PUSH4 0x1E1D114 EQ PUSH2 0x1C9 JUMPI DUP1 PUSH4 0x6FDDE03 EQ PUSH2 0x1E7 JUMPI DUP1 PUSH4 0x7A2D13A EQ PUSH2 0x205 JUMPI JUMPDEST PUSH1 0x0 DUP1 REVERT JUMPDEST PUSH2 0x1D1 PUSH2 0x677 JUMP JUMPDEST PUSH1 0x40 MLOAD PUSH2 0x1DE SWAP2 SWAP1 PUSH2 0x2594 JUMP JUMPDEST PUSH1 0x40 MLOAD DUP1 SWAP2 SUB SWAP1 RETURN JUMPDEST PUSH2 0x1EF PUSH2 0x727 JUMP JUMPDEST PUSH1 0x40 MLOAD PUSH2 0x1FC SWAP2 SWAP1 PUSH2 0x24B2 JUMP JUMPDEST PUSH1 0x40 MLOAD DUP1 SWAP2 SUB SWAP1 RETURN JUMPDEST PUSH2 0x21F PUSH1 0x4 DUP1 CALLDATASIZE SUB DUP2 ADD SWAP1 PUSH2 0x21A SWAP2 SWAP1 PUSH2 0x1F39 JUMP JUMPDEST PUSH2 0x7B5 JUMP JUMPDEST PUSH1 0x40 MLOAD PUSH2 0x22C SWAP2 SWAP1 PUSH2 0x2594 JUMP JUMPDEST PUSH1 0x40 MLOAD DUP1 SWAP2 SUB SWAP1 RETURN JUMPDEST PUSH2 0x24F PUSH1 0x4 DUP1 CALLDATASIZE SUB DUP2 ADD SWAP1 PUSH2 0x24A SWAP2 SWAP1 PUSH2 0x1EFD JUMP JUMPDEST PUSH2 0x7F0 JUMP JUMPDEST PUSH1 0x40 MLOAD PUSH2 0x25C SWAP2 SWAP1 PUSH2 0x2368 JUMP JUMPDEST PUSH1 0x40 MLOAD DUP1 SWAP2 SUB SWAP1 RETURN JUMPDEST PUSH2 0x27F PUSH1 0x4 DUP1 CALLDATASIZE SUB DUP2 ADD SWAP1 PUSH2 0x27A SWAP2 SWAP1 PUSH2 0x1F39 JUMP JUMPDEST PUSH2 0x8E2 JUMP JUMPDEST PUSH1 0x40 MLOAD PUSH2 0x28C SWAP2 SWAP1 PUSH2 0x2594 JUMP JUMPDEST PUSH1 0x40 MLOAD DUP1 SWAP2 SUB SWAP1 RETURN JUMPDEST PUSH2 0x29D PUSH2 0x91D JUMP JUMPDEST PUSH1 0x40 MLOAD PUSH2 0x2AA SWAP2 SWAP1 PUSH2 0x2594 JUMP JUMPDEST PUSH1 0x40 MLOAD DUP1 SWAP2 SUB SWAP1 RETURN JUMPDEST PUSH2 0x2CD PUSH1 0x4 DUP1 CALLDATASIZE SUB DUP2 ADD SWAP1 PUSH2 0x2C8 SWAP2 SWAP1 PUSH2 0x1E10 JUMP JUMPDEST PUSH2 0x923 JUMP JUMPDEST PUSH1 0x40 MLOAD PUSH2 0x2DA SWAP2 SWAP1 PUSH2 0x2368 JUMP JUMPDEST PUSH1 0x40 MLOAD DUP1 SWAP2 SUB SWAP1 RETURN JUMPDEST PUSH2 0x2EB PUSH2 0xB6D JUMP JUMPDEST PUSH1 0x40 MLOAD PUSH2 0x2F8 SWAP2 SWAP1 PUSH2 0x25D8 JUMP JUMPDEST PUSH1 0x40 MLOAD DUP1 SWAP2 SUB SWAP1 RETURN JUMPDEST PUSH2 0x309 PUSH2 0xB91 JUMP JUMPDEST PUSH1 0x40 MLOAD PUSH2 0x316 SWAP2 SWAP1 PUSH2 0x2383 JUMP JUMPDEST PUSH1 0x40 MLOAD DUP1 SWAP2 SUB SWAP1 RETURN JUMPDEST PUSH2 0x327 PUSH2 0xBEE JUMP JUMPDEST PUSH1 0x40 MLOAD PUSH2 0x334 SWAP2 SWAP1 PUSH2 0x2497 JUMP JUMPDEST PUSH1 0x40 MLOAD DUP1 SWAP2 SUB SWAP1 RETURN JUMPDEST PUSH2 0x357 PUSH1 0x4 DUP1 CALLDATASIZE SUB DUP2 ADD SWAP1 PUSH2 0x352 SWAP2 SWAP1 PUSH2 0x1DAB JUMP JUMPDEST PUSH2 0xC12 JUMP JUMPDEST PUSH1 0x40 MLOAD PUSH2 0x364 SWAP2 SWAP1 PUSH2 0x2594 JUMP JUMPDEST PUSH1 0x40 MLOAD DUP1 SWAP2 SUB SWAP1 RETURN JUMPDEST PUSH2 0x387 PUSH1 0x4 DUP1 CALLDATASIZE SUB DUP2 ADD SWAP1 PUSH2 0x382 SWAP2 SWAP1 PUSH2 0x1F39 JUMP JUMPDEST PUSH2 0xC3C JUMP JUMPDEST PUSH1 0x40 MLOAD PUSH2 0x394 SWAP2 SWAP1 PUSH2 0x2594 JUMP JUMPDEST PUSH1 0x40 MLOAD DUP1 SWAP2 SUB SWAP1 RETURN JUMPDEST PUSH2 0x3B7 PUSH1 0x4 DUP1 CALLDATASIZE SUB DUP2 ADD SWAP1 PUSH2 0x3B2 SWAP2 SWAP1 PUSH2 0x1F8B JUMP JUMPDEST PUSH2 0xC4E JUMP JUMPDEST PUSH1 0x40 MLOAD PUSH2 0x3C4 SWAP2 SWAP1 PUSH2 0x2594 JUMP JUMPDEST PUSH1 0x40 MLOAD DUP1 SWAP2 SUB SWAP1 RETURN JUMPDEST PUSH2 0x3E7 PUSH1 0x4 DUP1 CALLDATASIZE SUB DUP2 ADD SWAP1 PUSH2 0x3E2 SWAP2 SWAP1 PUSH2 0x1DAB JUMP JUMPDEST PUSH2 0xD6C JUMP JUMPDEST PUSH1 0x40 MLOAD PUSH2 0x3F4 SWAP2 SWAP1 PUSH2 0x2594 JUMP JUMPDEST PUSH1 0x40 MLOAD DUP1 SWAP2 SUB SWAP1 RETURN JUMPDEST PUSH2 0x417 PUSH1 0x4 DUP1 CALLDATASIZE SUB DUP2 ADD SWAP1 PUSH2 0x412 SWAP2 SWAP1 PUSH2 0x1DAB JUMP JUMPDEST PUSH2 0xD84 JUMP JUMPDEST PUSH1 0x40 MLOAD PUSH2 0x424 SWAP2 SWAP1 PUSH2 0x2594 JUMP JUMPDEST PUSH1 0x40 MLOAD DUP1 SWAP2 SUB SWAP1 RETURN JUMPDEST PUSH2 0x447 PUSH1 0x4 DUP1 CALLDATASIZE SUB DUP2 ADD SWAP1 PUSH2 0x442 SWAP2 SWAP1 PUSH2 0x1F8B JUMP JUMPDEST PUSH2 0xD9C JUMP JUMPDEST PUSH1 0x40 MLOAD PUSH2 0x454 SWAP2 SWAP1 PUSH2 0x2594 JUMP JUMPDEST PUSH1 0x40 MLOAD DUP1 SWAP2 SUB SWAP1 RETURN JUMPDEST PUSH2 0x465 PUSH2 0xE77 JUMP JUMPDEST PUSH1 0x40 MLOAD PUSH2 0x472 SWAP2 SWAP1 PUSH2 0x24B2 JUMP JUMPDEST PUSH1 0x40 MLOAD DUP1 SWAP2 SUB SWAP1 RETURN JUMPDEST PUSH2 0x495 PUSH1 0x4 DUP1 CALLDATASIZE SUB DUP2 ADD SWAP1 PUSH2 0x490 SWAP2 SWAP1 PUSH2 0x1EFD JUMP JUMPDEST PUSH2 0xF05 JUMP JUMPDEST PUSH1 0x40 MLOAD PUSH2 0x4A2 SWAP2 SWAP1 PUSH2 0x2368 JUMP JUMPDEST PUSH1 0x40 MLOAD DUP1 SWAP2 SUB SWAP1 RETURN JUMPDEST PUSH2 0x4C5 PUSH1 0x4 DUP1 CALLDATASIZE SUB DUP2 ADD SWAP1 PUSH2 0x4C0 SWAP2 SWAP1 PUSH2 0x1F39 JUMP JUMPDEST PUSH2 0x1019 JUMP JUMPDEST PUSH1 0x40 MLOAD PUSH2 0x4D2 SWAP2 SWAP1 PUSH2 0x2594 JUMP JUMPDEST PUSH1 0x40 MLOAD DUP1 SWAP2 SUB SWAP1 RETURN JUMPDEST PUSH2 0x4F5 PUSH1 0x4 DUP1 CALLDATASIZE SUB DUP2 ADD SWAP1 PUSH2 0x4F0 SWAP2 SWAP1 PUSH2 0x1FC7 JUMP JUMPDEST PUSH2 0x1054 JUMP JUMPDEST PUSH1 0x40 MLOAD PUSH2 0x502 SWAP2 SWAP1 PUSH2 0x2594 JUMP JUMPDEST PUSH1 0x40 MLOAD DUP1 SWAP2 SUB SWAP1 RETURN JUMPDEST PUSH2 0x525 PUSH1 0x4 DUP1 CALLDATASIZE SUB DUP2 ADD SWAP1 PUSH2 0x520 SWAP2 SWAP1 PUSH2 0x1FC7 JUMP JUMPDEST PUSH2 0x12AF JUMP JUMPDEST PUSH1 0x40 MLOAD PUSH2 0x532 SWAP2 SWAP1 PUSH2 0x2594 JUMP JUMPDEST PUSH1 0x40 MLOAD DUP1 SWAP2 SUB SWAP1 RETURN JUMPDEST PUSH2 0x555 PUSH1 0x4 DUP1 CALLDATASIZE SUB DUP2 ADD SWAP1 PUSH2 0x550 SWAP2 SWAP1 PUSH2 0x1DAB JUMP JUMPDEST PUSH2 0x154E JUMP JUMPDEST PUSH1 0x40 MLOAD PUSH2 0x562 SWAP2 SWAP1 PUSH2 0x2594 JUMP JUMPDEST PUSH1 0x40 MLOAD DUP1 SWAP2 SUB SWAP1 RETURN JUMPDEST PUSH2 0x585 PUSH1 0x4 DUP1 CALLDATASIZE SUB DUP2 ADD SWAP1 PUSH2 0x580 SWAP2 SWAP1 PUSH2 0x1F39 JUMP JUMPDEST PUSH2 0x1578 JUMP JUMPDEST PUSH1 0x40 MLOAD PUSH2 0x592 SWAP2 SWAP1 PUSH2 0x2594 JUMP JUMPDEST PUSH1 0x40 MLOAD DUP1 SWAP2 SUB SWAP1 RETURN JUMPDEST PUSH2 0x5B5 PUSH1 0x4 DUP1 CALLDATASIZE SUB DUP2 ADD SWAP1 PUSH2 0x5B0 SWAP2 SWAP1 PUSH2 0x1DAB JUMP JUMPDEST PUSH2 0x15B3 JUMP JUMPDEST PUSH1 0x40 MLOAD PUSH2 0x5C2 SWAP2 SWAP1 PUSH2 0x2594 JUMP JUMPDEST PUSH1 0x40 MLOAD DUP1 SWAP2 SUB SWAP1 RETURN JUMPDEST PUSH2 0x5E5 PUSH1 0x4 DUP1 CALLDATASIZE SUB DUP2 ADD SWAP1 PUSH2 0x5E0 SWAP2 SWAP1 PUSH2 0x1E5F JUMP JUMPDEST PUSH2 0x1604 JUMP JUMPDEST STOP JUMPDEST PUSH2 0x601 PUSH1 0x4 DUP1 CALLDATASIZE SUB DUP2 ADD SWAP1 PUSH2 0x5FC SWAP2 SWAP1 PUSH2 0x1DAB JUMP JUMPDEST PUSH2 0x18FD JUMP JUMPDEST PUSH1 0x40 MLOAD PUSH2 0x60E SWAP2 SWAP1 PUSH2 0x2594 JUMP JUMPDEST PUSH1 0x40 MLOAD DUP1 SWAP2 SUB SWAP1 RETURN JUMPDEST PUSH2 0x631 PUSH1 0x4 DUP1 CALLDATASIZE SUB DUP2 ADD SWAP1 PUSH2 0x62C SWAP2 SWAP1 PUSH2 0x1DD4 JUMP JUMPDEST PUSH2 0x1946 JUMP JUMPDEST PUSH1 0x40 MLOAD PUSH2 0x63E SWAP2 SWAP1 PUSH2 0x2594 JUMP JUMPDEST PUSH1 0x40 MLOAD DUP1 SWAP2 SUB SWAP1 RETURN JUMPDEST PUSH2 0x661 PUSH1 0x4 DUP1 CALLDATASIZE SUB DUP2 ADD SWAP1 PUSH2 0x65C SWAP2 SWAP1 PUSH2 0x1F39 JUMP JUMPDEST PUSH2 0x196B JUMP JUMPDEST PUSH1 0x40 MLOAD PUSH2 0x66E SWAP2 SWAP1 PUSH2 0x2594 JUMP JUMPDEST PUSH1 0x40 MLOAD DUP1 SWAP2 SUB SWAP1 RETURN JUMPDEST PUSH1 0x0 PUSH32 0x0 PUSH20 0xFFFFFFFFFFFFFFFFFFFFFFFFFFFFFFFFFFFFFFFF AND PUSH4 0x70A08231 ADDRESS PUSH1 0x40 MLOAD DUP3 PUSH4 0xFFFFFFFF AND PUSH1 0xE0 SHL DUP2 MSTORE PUSH1 0x4 ADD PUSH2 0x6D2 SWAP2 SWAP1 PUSH2 0x234D JUMP JUMPDEST PUSH1 0x20 PUSH1 0x40 MLOAD DUP1 DUP4 SUB DUP2 DUP7 DUP1 EXTCODESIZE ISZERO DUP1 ISZERO PUSH2 0x6EA JUMPI PUSH1 0x0 DUP1 REVERT JUMPDEST POP GAS STATICCALL ISZERO DUP1 ISZERO PUSH2 0x6FE JUMPI RETURNDATASIZE PUSH1 0x0 DUP1 RETURNDATACOPY RETURNDATASIZE PUSH1 0x0 REVERT JUMPDEST POP POP POP POP PUSH1 0x40 MLOAD RETURNDATASIZE PUSH1 0x1F NOT PUSH1 0x1F DUP3 ADD AND DUP3 ADD DUP1 PUSH1 0x40 MSTORE POP DUP2 ADD SWAP1 PUSH2 0x722 SWAP2 SWAP1 PUSH2 0x1F62 JUMP JUMPDEST SWAP1 POP SWAP1 JUMP JUMPDEST PUSH1 0x0 DUP1 SLOAD PUSH2 0x734 SWAP1 PUSH2 0x277A JUMP JUMPDEST DUP1 PUSH1 0x1F ADD PUSH1 0x20 DUP1 SWAP2 DIV MUL PUSH1 0x20 ADD PUSH1 0x40 MLOAD SWAP1 DUP2 ADD PUSH1 0x40 MSTORE DUP1 SWAP3 SWAP2 SWAP1 DUP2 DUP2 MSTORE PUSH1 0x20 ADD DUP3 DUP1 SLOAD PUSH2 0x760 SWAP1 PUSH2 0x277A JUMP JUMPDEST DUP1 ISZERO PUSH2 0x7AD JUMPI DUP1 PUSH1 0x1F LT PUSH2 0x782 JUMPI PUSH2 0x100 DUP1 DUP4 SLOAD DIV MUL DUP4 MSTORE SWAP2 PUSH1 0x20 ADD SWAP2 PUSH2 0x7AD JUMP JUMPDEST DUP3 ADD SWAP2 SWAP1 PUSH1 0x0 MSTORE PUSH1 0x20 PUSH1 0x0 KECCAK256 SWAP1 JUMPDEST DUP2 SLOAD DUP2 MSTORE SWAP1 PUSH1 0x1 ADD SWAP1 PUSH1 0x20 ADD DUP1 DUP4 GT PUSH2 0x790 JUMPI DUP3 SWAP1 SUB PUSH1 0x1F AND DUP3 ADD SWAP2 JUMPDEST POP POP POP POP POP DUP2 JUMP JUMPDEST PUSH1 0x0 DUP1 PUSH1 0x2 SLOAD SWAP1 POP PUSH1 0x0 DUP2 EQ PUSH2 0x7E6 JUMPI PUSH2 0x7E1 PUSH2 0x7D0 PUSH2 0x677 JUMP JUMPDEST DUP3 DUP6 PUSH2 0x197D SWAP1 SWAP3 SWAP2 SWAP1 PUSH4 0xFFFFFFFF AND JUMP JUMPDEST PUSH2 0x7E8 JUMP JUMPDEST DUP3 JUMPDEST SWAP2 POP POP SWAP2 SWAP1 POP JUMP JUMPDEST PUSH1 0x0 DUP2 PUSH1 0x4 PUSH1 0x0 CALLER PUSH20 0xFFFFFFFFFFFFFFFFFFFFFFFFFFFFFFFFFFFFFFFF AND PUSH20 0xFFFFFFFFFFFFFFFFFFFFFFFFFFFFFFFFFFFFFFFF AND DUP2 MSTORE PUSH1 0x20 ADD SWAP1 DUP2 MSTORE PUSH1 0x20 ADD PUSH1 0x0 KECCAK256 PUSH1 0x0 DUP6 PUSH20 0xFFFFFFFFFFFFFFFFFFFFFFFFFFFFFFFFFFFFFFFF AND PUSH20 0xFFFFFFFFFFFFFFFFFFFFFFFFFFFFFFFFFFFFFFFF AND DUP2 MSTORE PUSH1 0x20 ADD SWAP1 DUP2 MSTORE PUSH1 0x20 ADD PUSH1 0x0 KECCAK256 DUP2 SWAP1 SSTORE POP DUP3 PUSH20 0xFFFFFFFFFFFFFFFFFFFFFFFFFFFFFFFFFFFFFFFF AND CALLER PUSH20 0xFFFFFFFFFFFFFFFFFFFFFFFFFFFFFFFFFFFFFFFF AND PUSH32 0x8C5BE1E5EBEC7D5BD14F71427D1E84F3DD0314C0F7B2291E5B200AC8C7C3B925 DUP5 PUSH1 0x40 MLOAD PUSH2 0x8D0 SWAP2 SWAP1 PUSH2 0x2594 JUMP JUMPDEST PUSH1 0x40 MLOAD DUP1 SWAP2 SUB SWAP1 LOG3 PUSH1 0x1 SWAP1 POP SWAP3 SWAP2 POP POP JUMP JUMPDEST PUSH1 0x0 DUP1 PUSH1 0x2 SLOAD SWAP1 POP PUSH1 0x0 DUP2 EQ PUSH2 0x913 JUMPI PUSH2 0x90E DUP2 PUSH2 0x8FE PUSH2 0x677 JUMP JUMPDEST DUP6 PUSH2 0x19A5 SWAP1 SWAP3 SWAP2 SWAP1 PUSH4 0xFFFFFFFF AND JUMP JUMPDEST PUSH2 0x915 JUMP JUMPDEST DUP3 JUMPDEST SWAP2 POP POP SWAP2 SWAP1 POP JUMP JUMPDEST PUSH1 0x2 SLOAD DUP2 JUMP JUMPDEST PUSH1 0x0 DUP1 PUSH1 0x4 PUSH1 0x0 DUP7 PUSH20 0xFFFFFFFFFFFFFFFFFFFFFFFFFFFFFFFFFFFFFFFF AND PUSH20 0xFFFFFFFFFFFFFFFFFFFFFFFFFFFFFFFFFFFFFFFF AND DUP2 MSTORE PUSH1 0x20 ADD SWAP1 DUP2 MSTORE PUSH1 0x20 ADD PUSH1 0x0 KECCAK256 PUSH1 0x0 CALLER PUSH20 0xFFFFFFFFFFFFFFFFFFFFFFFFFFFFFFFFFFFFFFFF AND PUSH20 0xFFFFFFFFFFFFFFFFFFFFFFFFFFFFFFFFFFFFFFFF AND DUP2 MSTORE PUSH1 0x20 ADD SWAP1 DUP2 MSTORE PUSH1 0x20 ADD PUSH1 0x0 KECCAK256 SLOAD SWAP1 POP PUSH32 0xFFFFFFFFFFFFFFFFFFFFFFFFFFFFFFFFFFFFFFFFFFFFFFFFFFFFFFFFFFFFFFFF DUP2 EQ PUSH2 0xA59 JUMPI DUP3 DUP2 PUSH2 0x9D8 SWAP2 SWAP1 PUSH2 0x2690 JUMP JUMPDEST PUSH1 0x4 PUSH1 0x0 DUP8 PUSH20 0xFFFFFFFFFFFFFFFFFFFFFFFFFFFFFFFFFFFFFFFF AND PUSH20 0xFFFFFFFFFFFFFFFFFFFFFFFFFFFFFFFFFFFFFFFF AND DUP2 MSTORE PUSH1 0x20 ADD SWAP1 DUP2 MSTORE PUSH1 0x20 ADD PUSH1 0x0 KECCAK256 PUSH1 0x0 CALLER PUSH20 0xFFFFFFFFFFFFFFFFFFFFFFFFFFFFFFFFFFFFFFFF AND PUSH20 0xFFFFFFFFFFFFFFFFFFFFFFFFFFFFFFFFFFFFFFFF AND DUP2 MSTORE PUSH1 0x20 ADD SWAP1 DUP2 MSTORE PUSH1 0x20 ADD PUSH1 0x0 KECCAK256 DUP2 SWAP1 SSTORE POP JUMPDEST DUP3 PUSH1 0x3 PUSH1 0x0 DUP8 PUSH20 0xFFFFFFFFFFFFFFFFFFFFFFFFFFFFFFFFFFFFFFFF AND PUSH20 0xFFFFFFFFFFFFFFFFFFFFFFFFFFFFFFFFFFFFFFFF AND DUP2 MSTORE PUSH1 0x20 ADD SWAP1 DUP2 MSTORE PUSH1 0x20 ADD PUSH1 0x0 KECCAK256 PUSH1 0x0 DUP3 DUP3 SLOAD PUSH2 0xAA8 SWAP2 SWAP1 PUSH2 0x2690 JUMP JUMPDEST SWAP3 POP POP DUP2 SWAP1 SSTORE POP DUP3 PUSH1 0x3 PUSH1 0x0 DUP7 PUSH20 0xFFFFFFFFFFFFFFFFFFFFFFFFFFFFFFFFFFFFFFFF AND PUSH20 0xFFFFFFFFFFFFFFFFFFFFFFFFFFFFFFFFFFFFFFFF AND DUP2 MSTORE PUSH1 0x20 ADD SWAP1 DUP2 MSTORE PUSH1 0x20 ADD PUSH1 0x0 KECCAK256 PUSH1 0x0 DUP3 DUP3 SLOAD ADD SWAP3 POP POP DUP2 SWAP1 SSTORE POP DUP4 PUSH20 0xFFFFFFFFFFFFFFFFFFFFFFFFFFFFFFFFFFFFFFFF AND DUP6 PUSH20 0xFFFFFFFFFFFFFFFFFFFFFFFFFFFFFFFFFFFFFFFF AND PUSH32 0xDDF252AD1BE2C89B69C2B068FC378DAA952BA7F163C4A11628F55A4DF523B3EF DUP6 PUSH1 0x40 MLOAD PUSH2 0xB59 SWAP2 SWAP1 PUSH2 0x2594 JUMP JUMPDEST PUSH1 0x40 MLOAD DUP1 SWAP2 SUB SWAP1 LOG3 PUSH1 0x1 SWAP2 POP POP SWAP4 SWAP3 POP POP POP JUMP JUMPDEST PUSH32 0x0 DUP2 JUMP JUMPDEST PUSH1 0x0 PUSH32 0x0 CHAINID EQ PUSH2 0xBC7 JUMPI PUSH2 0xBC2 PUSH2 0x19D7 JUMP JUMPDEST PUSH2 0xBE9 JUMP JUMPDEST PUSH32 0x0 JUMPDEST SWAP1 POP SWAP1 JUMP JUMPDEST PUSH32 0x0 DUP2 JUMP JUMPDEST PUSH1 0x0 PUSH32 0xFFFFFFFFFFFFFFFFFFFFFFFFFFFFFFFFFFFFFFFFFFFFFFFFFFFFFFFFFFFFFFFF SWAP1 POP SWAP2 SWAP1 POP JUMP JUMPDEST PUSH1 0x0 PUSH2 0xC47 DUP3 PUSH2 0x7B5 JUMP JUMPDEST SWAP1 POP SWAP2 SWAP1 POP JUMP JUMPDEST PUSH1 0x0 DUP1 PUSH2 0xC5A DUP5 PUSH2 0x196B JUMP JUMPDEST SWAP2 POP DUP2 EQ ISZERO PUSH2 0xC9E JUMPI PUSH1 0x40 MLOAD PUSH32 0x8C379A000000000000000000000000000000000000000000000000000000000 DUP2 MSTORE PUSH1 0x4 ADD PUSH2 0xC95 SWAP1 PUSH2 0x24D4 JUMP JUMPDEST PUSH1 0x40 MLOAD DUP1 SWAP2 SUB SWAP1 REVERT JUMPDEST PUSH2 0xCEB CALLER ADDRESS DUP6 PUSH32 0x0 PUSH20 0xFFFFFFFFFFFFFFFFFFFFFFFFFFFFFFFFFFFFFFFF AND PUSH2 0x1A63 SWAP1 SWAP4 SWAP3 SWAP2 SWAP1 PUSH4 0xFFFFFFFF AND JUMP JUMPDEST PUSH2 0xCF5 DUP3 DUP3 PUSH2 0x1B02 JUMP JUMPDEST DUP2 PUSH20 0xFFFFFFFFFFFFFFFFFFFFFFFFFFFFFFFFFFFFFFFF AND CALLER PUSH20 0xFFFFFFFFFFFFFFFFFFFFFFFFFFFFFFFFFFFFFFFF AND PUSH32 0xDCBC1C05240F31FF3AD067EF1EE35CE4997762752E3A095284754544F4C709D7 DUP6 DUP5 PUSH1 0x40 MLOAD PUSH2 0xD54 SWAP3 SWAP2 SWAP1 PUSH2 0x25AF JUMP JUMPDEST PUSH1 0x40 MLOAD DUP1 SWAP2 SUB SWAP1 LOG3 PUSH2 0xD66 DUP4 DUP3 PUSH2 0x1BD2 JUMP JUMPDEST SWAP3 SWAP2 POP POP JUMP JUMPDEST PUSH1 0x3 PUSH1 0x20 MSTORE DUP1 PUSH1 0x0 MSTORE PUSH1 0x40 PUSH1 0x0 KECCAK256 PUSH1 0x0 SWAP2 POP SWAP1 POP SLOAD DUP2 JUMP JUMPDEST PUSH1 0x5 PUSH1 0x20 MSTORE DUP1 PUSH1 0x0 MSTORE PUSH1 0x40 PUSH1 0x0 KECCAK256 PUSH1 0x0 SWAP2 POP SWAP1 POP SLOAD DUP2 JUMP JUMPDEST PUSH1 0x0 PUSH2 0xDA7 DUP4 PUSH2 0x1019 JUMP JUMPDEST SWAP1 POP PUSH2 0xDF6 CALLER ADDRESS DUP4 PUSH32 0x0 PUSH20 0xFFFFFFFFFFFFFFFFFFFFFFFFFFFFFFFFFFFFFFFF AND PUSH2 0x1A63 SWAP1 SWAP4 SWAP3 SWAP2 SWAP1 PUSH4 0xFFFFFFFF AND JUMP JUMPDEST PUSH2 0xE00 DUP3 DUP5 PUSH2 0x1B02 JUMP JUMPDEST DUP2 PUSH20 0xFFFFFFFFFFFFFFFFFFFFFFFFFFFFFFFFFFFFFFFF AND CALLER PUSH20 0xFFFFFFFFFFFFFFFFFFFFFFFFFFFFFFFFFFFFFFFF AND PUSH32 0xDCBC1C05240F31FF3AD067EF1EE35CE4997762752E3A095284754544F4C709D7 DUP4 DUP7 PUSH1 0x40 MLOAD PUSH2 0xE5F SWAP3 SWAP2 SWAP1 PUSH2 0x25AF JUMP JUMPDEST PUSH1 0x40 MLOAD DUP1 SWAP2 SUB SWAP1 LOG3 PUSH2 0xE71 DUP2 DUP5 PUSH2 0x1BD2 JUMP JUMPDEST SWAP3 SWAP2 POP POP JUMP JUMPDEST PUSH1 0x1 DUP1 SLOAD PUSH2 0xE84 SWAP1 PUSH2 0x277A JUMP JUMPDEST DUP1 PUSH1 0x1F ADD PUSH1 0x20 DUP1 SWAP2 DIV MUL PUSH1 0x20 ADD PUSH1 0x40 MLOAD SWAP1 DUP2 ADD PUSH1 0x40 MSTORE DUP1 SWAP3 SWAP2 SWAP1 DUP2 DUP2 MSTORE PUSH1 0x20 ADD DUP3 DUP1 SLOAD PUSH2 0xEB0 SWAP1 PUSH2 0x277A JUMP JUMPDEST DUP1 ISZERO PUSH2 0xEFD JUMPI DUP1 PUSH1 0x1F LT PUSH2 0xED2 JUMPI PUSH2 0x100 DUP1 DUP4 SLOAD DIV MUL DUP4 MSTORE SWAP2 PUSH1 0x20 ADD SWAP2 PUSH2 0xEFD JUMP JUMPDEST DUP3 ADD SWAP2 SWAP1 PUSH1 0x0 MSTORE PUSH1 0x20 PUSH1 0x0 KECCAK256 SWAP1 JUMPDEST DUP2 SLOAD DUP2 MSTORE SWAP1 PUSH1 0x1 ADD SWAP1 PUSH1 0x20 ADD DUP1 DUP4 GT PUSH2 0xEE0 JUMPI DUP3 SWAP1 SUB PUSH1 0x1F AND DUP3 ADD SWAP2 JUMPDEST POP POP POP POP POP DUP2 JUMP JUMPDEST PUSH1 0x0 DUP2 PUSH1 0x3 PUSH1 0x0 CALLER PUSH20 0xFFFFFFFFFFFFFFFFFFFFFFFFFFFFFFFFFFFFFFFF AND PUSH20 0xFFFFFFFFFFFFFFFFFFFFFFFFFFFFFFFFFFFFFFFF AND DUP2 MSTORE PUSH1 0x20 ADD SWAP1 DUP2 MSTORE PUSH1 0x20 ADD PUSH1 0x0 KECCAK256 PUSH1 0x0 DUP3 DUP3 SLOAD PUSH2 0xF56 SWAP2 SWAP1 PUSH2 0x2690 JUMP JUMPDEST SWAP3 POP POP DUP2 SWAP1 SSTORE POP DUP2 PUSH1 0x3 PUSH1 0x0 DUP6 PUSH20 0xFFFFFFFFFFFFFFFFFFFFFFFFFFFFFFFFFFFFFFFF AND PUSH20 0xFFFFFFFFFFFFFFFFFFFFFFFFFFFFFFFFFFFFFFFF AND DUP2 MSTORE PUSH1 0x20 ADD SWAP1 DUP2 MSTORE PUSH1 0x20 ADD PUSH1 0x0 KECCAK256 PUSH1 0x0 DUP3 DUP3 SLOAD ADD SWAP3 POP POP DUP2 SWAP1 SSTORE POP DUP3 PUSH20 0xFFFFFFFFFFFFFFFFFFFFFFFFFFFFFFFFFFFFFFFF AND CALLER PUSH20 0xFFFFFFFFFFFFFFFFFFFFFFFFFFFFFFFFFFFFFFFF AND PUSH32 0xDDF252AD1BE2C89B69C2B068FC378DAA952BA7F163C4A11628F55A4DF523B3EF DUP5 PUSH1 0x40 MLOAD PUSH2 0x1007 SWAP2 SWAP1 PUSH2 0x2594 JUMP JUMPDEST PUSH1 0x40 MLOAD DUP1 SWAP2 SUB SWAP1 LOG3 PUSH1 0x1 SWAP1 POP SWAP3 SWAP2 POP POP JUMP JUMPDEST PUSH1 0x0 DUP1 PUSH1 0x2 SLOAD SWAP1 POP PUSH1 0x0 DUP2 EQ PUSH2 0x104A JUMPI PUSH2 0x1045 PUSH2 0x1034 PUSH2 0x677 JUMP JUMPDEST DUP3 DUP6 PUSH2 0x19A5 SWAP1 SWAP3 SWAP2 SWAP1 PUSH4 0xFFFFFFFF AND JUMP JUMPDEST PUSH2 0x104C JUMP JUMPDEST DUP3 JUMPDEST SWAP2 POP POP SWAP2 SWAP1 POP JUMP JUMPDEST PUSH1 0x0 PUSH2 0x105F DUP5 PUSH2 0x8E2 JUMP JUMPDEST SWAP1 POP DUP2 PUSH20 0xFFFFFFFFFFFFFFFFFFFFFFFFFFFFFFFFFFFFFFFF AND CALLER PUSH20 0xFFFFFFFFFFFFFFFFFFFFFFFFFFFFFFFFFFFFFFFF AND EQ PUSH2 0x11CB JUMPI PUSH1 0x0 PUSH1 0x4 PUSH1 0x0 DUP5 PUSH20 0xFFFFFFFFFFFFFFFFFFFFFFFFFFFFFFFFFFFFFFFF AND PUSH20 0xFFFFFFFFFFFFFFFFFFFFFFFFFFFFFFFFFFFFFFFF AND DUP2 MSTORE PUSH1 0x20 ADD SWAP1 DUP2 MSTORE PUSH1 0x20 ADD PUSH1 0x0 KECCAK256 PUSH1 0x0 CALLER PUSH20 0xFFFFFFFFFFFFFFFFFFFFFFFFFFFFFFFFFFFFFFFF AND PUSH20 0xFFFFFFFFFFFFFFFFFFFFFFFFFFFFFFFFFFFFFFFF AND DUP2 MSTORE PUSH1 0x20 ADD SWAP1 DUP2 MSTORE PUSH1 0x20 ADD PUSH1 0x0 KECCAK256 SLOAD SWAP1 POP PUSH32 0xFFFFFFFFFFFFFFFFFFFFFFFFFFFFFFFFFFFFFFFFFFFFFFFFFFFFFFFFFFFFFFFF DUP2 EQ PUSH2 0x11C9 JUMPI DUP2 DUP2 PUSH2 0x1148 SWAP2 SWAP1 PUSH2 0x2690 JUMP JUMPDEST PUSH1 0x4 PUSH1 0x0 DUP6 PUSH20 0xFFFFFFFFFFFFFFFFFFFFFFFFFFFFFFFFFFFFFFFF AND PUSH20 0xFFFFFFFFFFFFFFFFFFFFFFFFFFFFFFFFFFFFFFFF AND DUP2 MSTORE PUSH1 0x20 ADD SWAP1 DUP2 MSTORE PUSH1 0x20 ADD PUSH1 0x0 KECCAK256 PUSH1 0x0 CALLER PUSH20 0xFFFFFFFFFFFFFFFFFFFFFFFFFFFFFFFFFFFFFFFF AND PUSH20 0xFFFFFFFFFFFFFFFFFFFFFFFFFFFFFFFFFFFFFFFF AND DUP2 MSTORE PUSH1 0x20 ADD SWAP1 DUP2 MSTORE PUSH1 0x20 ADD PUSH1 0x0 KECCAK256 DUP2 SWAP1 SSTORE POP JUMPDEST POP JUMPDEST PUSH2 0x11D5 DUP5 DUP3 PUSH2 0x1BD6 JUMP JUMPDEST PUSH2 0x11DF DUP3 DUP3 PUSH2 0x1BDA JUMP JUMPDEST DUP2 PUSH20 0xFFFFFFFFFFFFFFFFFFFFFFFFFFFFFFFFFFFFFFFF AND DUP4 PUSH20 0xFFFFFFFFFFFFFFFFFFFFFFFFFFFFFFFFFFFFFFFF AND CALLER PUSH20 0xFFFFFFFFFFFFFFFFFFFFFFFFFFFFFFFFFFFFFFFF AND PUSH32 0xFBDE797D201C681B91056529119E0B02407C7BB96A4A2C75C01FC9667232C8DB DUP8 DUP6 PUSH1 0x40 MLOAD PUSH2 0x1255 SWAP3 SWAP2 SWAP1 PUSH2 0x25AF JUMP JUMPDEST PUSH1 0x40 MLOAD DUP1 SWAP2 SUB SWAP1 LOG4 PUSH2 0x12A8 DUP4 DUP6 PUSH32 0x0 PUSH20 0xFFFFFFFFFFFFFFFFFFFFFFFFFFFFFFFFFFFFFFFF AND PUSH2 0x1CAA SWAP1 SWAP3 SWAP2 SWAP1 PUSH4 0xFFFFFFFF AND JUMP JUMPDEST SWAP4 SWAP3 POP POP POP JUMP JUMPDEST PUSH1 0x0 DUP2 PUSH20 0xFFFFFFFFFFFFFFFFFFFFFFFFFFFFFFFFFFFFFFFF AND CALLER PUSH20 0xFFFFFFFFFFFFFFFFFFFFFFFFFFFFFFFFFFFFFFFF AND EQ PUSH2 0x141B JUMPI PUSH1 0x0 PUSH1 0x4 PUSH1 0x0 DUP5 PUSH20 0xFFFFFFFFFFFFFFFFFFFFFFFFFFFFFFFFFFFFFFFF AND PUSH20 0xFFFFFFFFFFFFFFFFFFFFFFFFFFFFFFFFFFFFFFFF AND DUP2 MSTORE PUSH1 0x20 ADD SWAP1 DUP2 MSTORE PUSH1 0x20 ADD PUSH1 0x0 KECCAK256 PUSH1 0x0 CALLER PUSH20 0xFFFFFFFFFFFFFFFFFFFFFFFFFFFFFFFFFFFFFFFF AND PUSH20 0xFFFFFFFFFFFFFFFFFFFFFFFFFFFFFFFFFFFFFFFF AND DUP2 MSTORE PUSH1 0x20 ADD SWAP1 DUP2 MSTORE PUSH1 0x20 ADD PUSH1 0x0 KECCAK256 SLOAD SWAP1 POP PUSH32 0xFFFFFFFFFFFFFFFFFFFFFFFFFFFFFFFFFFFFFFFFFFFFFFFFFFFFFFFFFFFFFFFF DUP2 EQ PUSH2 0x1419 JUMPI DUP5 DUP2 PUSH2 0x1398 SWAP2 SWAP1 PUSH2 0x2690 JUMP JUMPDEST PUSH1 0x4 PUSH1 0x0 DUP6 PUSH20 0xFFFFFFFFFFFFFFFFFFFFFFFFFFFFFFFFFFFFFFFF AND PUSH20 0xFFFFFFFFFFFFFFFFFFFFFFFFFFFFFFFFFFFFFFFF AND DUP2 MSTORE PUSH1 0x20 ADD SWAP1 DUP2 MSTORE PUSH1 0x20 ADD PUSH1 0x0 KECCAK256 PUSH1 0x0 CALLER PUSH20 0xFFFFFFFFFFFFFFFFFFFFFFFFFFFFFFFFFFFFFFFF AND PUSH20 0xFFFFFFFFFFFFFFFFFFFFFFFFFFFFFFFFFFFFFFFF AND DUP2 MSTORE PUSH1 0x20 ADD SWAP1 DUP2 MSTORE PUSH1 0x20 ADD PUSH1 0x0 KECCAK256 DUP2 SWAP1 SSTORE POP JUMPDEST POP JUMPDEST PUSH1 0x0 PUSH2 0x1426 DUP6 PUSH2 0xC3C JUMP JUMPDEST SWAP2 POP DUP2 EQ ISZERO PUSH2 0x146A JUMPI PUSH1 0x40 MLOAD PUSH32 0x8C379A000000000000000000000000000000000000000000000000000000000 DUP2 MSTORE PUSH1 0x4 ADD PUSH2 0x1461 SWAP1 PUSH2 0x2554 JUMP JUMPDEST PUSH1 0x40 MLOAD DUP1 SWAP2 SUB SWAP1 REVERT JUMPDEST PUSH2 0x1474 DUP2 DUP6 PUSH2 0x1BD6 JUMP JUMPDEST PUSH2 0x147E DUP3 DUP6 PUSH2 0x1BDA JUMP JUMPDEST DUP2 PUSH20 0xFFFFFFFFFFFFFFFFFFFFFFFFFFFFFFFFFFFFFFFF AND DUP4 PUSH20 0xFFFFFFFFFFFFFFFFFFFFFFFFFFFFFFFFFFFFFFFF AND CALLER PUSH20 0xFFFFFFFFFFFFFFFFFFFFFFFFFFFFFFFFFFFFFFFF AND PUSH32 0xFBDE797D201C681B91056529119E0B02407C7BB96A4A2C75C01FC9667232C8DB DUP5 DUP9 PUSH1 0x40 MLOAD PUSH2 0x14F4 SWAP3 SWAP2 SWAP1 PUSH2 0x25AF JUMP JUMPDEST PUSH1 0x40 MLOAD DUP1 SWAP2 SUB SWAP1 LOG4 PUSH2 0x1547 DUP4 DUP3 PUSH32 0x0 PUSH20 0xFFFFFFFFFFFFFFFFFFFFFFFFFFFFFFFFFFFFFFFF AND PUSH2 0x1CAA SWAP1 SWAP3 SWAP2 SWAP1 PUSH4 0xFFFFFFFF AND JUMP JUMPDEST SWAP4 SWAP3 POP POP POP JUMP JUMPDEST PUSH1 0x0 PUSH32 0xFFFFFFFFFFFFFFFFFFFFFFFFFFFFFFFFFFFFFFFFFFFFFFFFFFFFFFFFFFFFFFFF SWAP1 POP SWAP2 SWAP1 POP JUMP JUMPDEST PUSH1 0x0 DUP1 PUSH1 0x2 SLOAD SWAP1 POP PUSH1 0x0 DUP2 EQ PUSH2 0x15A9 JUMPI PUSH2 0x15A4 DUP2 PUSH2 0x1594 PUSH2 0x677 JUMP JUMPDEST DUP6 PUSH2 0x197D SWAP1 SWAP3 SWAP2 SWAP1 PUSH4 0xFFFFFFFF AND JUMP JUMPDEST PUSH2 0x15AB JUMP JUMPDEST DUP3 JUMPDEST SWAP2 POP POP SWAP2 SWAP1 POP JUMP JUMPDEST PUSH1 0x0 PUSH2 0x15FD PUSH1 0x3 PUSH1 0x0 DUP5 PUSH20 0xFFFFFFFFFFFFFFFFFFFFFFFFFFFFFFFFFFFFFFFF AND PUSH20 0xFFFFFFFFFFFFFFFFFFFFFFFFFFFFFFFFFFFFFFFF AND DUP2 MSTORE PUSH1 0x20 ADD SWAP1 DUP2 MSTORE PUSH1 0x20 ADD PUSH1 0x0 KECCAK256 SLOAD PUSH2 0x7B5 JUMP JUMPDEST SWAP1 POP SWAP2 SWAP1 POP JUMP JUMPDEST TIMESTAMP DUP5 LT ISZERO PUSH2 0x1647 JUMPI PUSH1 0x40 MLOAD PUSH32 0x8C379A000000000000000000000000000000000000000000000000000000000 DUP2 MSTORE PUSH1 0x4 ADD PUSH2 0x163E SWAP1 PUSH2 0x2574 JUMP JUMPDEST PUSH1 0x40 MLOAD DUP1 SWAP2 SUB SWAP1 REVERT JUMPDEST PUSH1 0x0 PUSH1 0x1 PUSH2 0x1653 PUSH2 0xB91 JUMP JUMPDEST PUSH32 0x6E71EDAE12B1B97F4D1F60370FEF10105FA2FAAE0126114A169C64845D6126C9 DUP11 DUP11 DUP11 PUSH1 0x5 PUSH1 0x0 DUP16 PUSH20 0xFFFFFFFFFFFFFFFFFFFFFFFFFFFFFFFFFFFFFFFF AND PUSH20 0xFFFFFFFFFFFFFFFFFFFFFFFFFFFFFFFFFFFFFFFF AND DUP2 MSTORE PUSH1 0x20 ADD SWAP1 DUP2 MSTORE PUSH1 0x20 ADD PUSH1 0x0 KECCAK256 PUSH1 0x0 DUP2 SLOAD DUP1 SWAP3 SWAP2 SWAP1 PUSH1 0x1 ADD SWAP2 SWAP1 POP SSTORE DUP12 PUSH1 0x40 MLOAD PUSH1 0x20 ADD PUSH2 0x16DB SWAP7 SWAP6 SWAP5 SWAP4 SWAP3 SWAP2 SWAP1 PUSH2 0x239E JUMP JUMPDEST PUSH1 0x40 MLOAD PUSH1 0x20 DUP2 DUP4 SUB SUB DUP2 MSTORE SWAP1 PUSH1 0x40 MSTORE DUP1 MLOAD SWAP1 PUSH1 0x20 ADD KECCAK256 PUSH1 0x40 MLOAD PUSH1 0x20 ADD PUSH2 0x1702 SWAP3 SWAP2 SWAP1 PUSH2 0x2316 JUMP JUMPDEST PUSH1 0x40 MLOAD PUSH1 0x20 DUP2 DUP4 SUB SUB DUP2 MSTORE SWAP1 PUSH1 0x40 MSTORE DUP1 MLOAD SWAP1 PUSH1 0x20 ADD KECCAK256 DUP6 DUP6 DUP6 PUSH1 0x40 MLOAD PUSH1 0x0 DUP2 MSTORE PUSH1 0x20 ADD PUSH1 0x40 MSTORE PUSH1 0x40 MLOAD PUSH2 0x1738 SWAP5 SWAP4 SWAP3 SWAP2 SWAP1 PUSH2 0x2452 JUMP JUMPDEST PUSH1 0x20 PUSH1 0x40 MLOAD PUSH1 0x20 DUP2 SUB SWAP1 DUP1 DUP5 SUB SWAP1 DUP6 GAS STATICCALL ISZERO DUP1 ISZERO PUSH2 0x175A JUMPI RETURNDATASIZE PUSH1 0x0 DUP1 RETURNDATACOPY RETURNDATASIZE PUSH1 0x0 REVERT JUMPDEST POP POP POP PUSH1 0x20 PUSH1 0x40 MLOAD SUB MLOAD SWAP1 POP PUSH1 0x0 PUSH20 0xFFFFFFFFFFFFFFFFFFFFFFFFFFFFFFFFFFFFFFFF AND DUP2 PUSH20 0xFFFFFFFFFFFFFFFFFFFFFFFFFFFFFFFFFFFFFFFF AND EQ ISZERO DUP1 ISZERO PUSH2 0x17CE JUMPI POP DUP8 PUSH20 0xFFFFFFFFFFFFFFFFFFFFFFFFFFFFFFFFFFFFFFFF AND DUP2 PUSH20 0xFFFFFFFFFFFFFFFFFFFFFFFFFFFFFFFFFFFFFFFF AND EQ JUMPDEST PUSH2 0x180D JUMPI PUSH1 0x40 MLOAD PUSH32 0x8C379A000000000000000000000000000000000000000000000000000000000 DUP2 MSTORE PUSH1 0x4 ADD PUSH2 0x1804 SWAP1 PUSH2 0x2534 JUMP JUMPDEST PUSH1 0x40 MLOAD DUP1 SWAP2 SUB SWAP1 REVERT JUMPDEST DUP6 PUSH1 0x4 PUSH1 0x0 DUP4 PUSH20 0xFFFFFFFFFFFFFFFFFFFFFFFFFFFFFFFFFFFFFFFF AND PUSH20 0xFFFFFFFFFFFFFFFFFFFFFFFFFFFFFFFFFFFFFFFF AND DUP2 MSTORE PUSH1 0x20 ADD SWAP1 DUP2 MSTORE PUSH1 0x20 ADD PUSH1 0x0 KECCAK256 PUSH1 0x0 DUP10 PUSH20 0xFFFFFFFFFFFFFFFFFFFFFFFFFFFFFFFFFFFFFFFF AND PUSH20 0xFFFFFFFFFFFFFFFFFFFFFFFFFFFFFFFFFFFFFFFF AND DUP2 MSTORE PUSH1 0x20 ADD SWAP1 DUP2 MSTORE PUSH1 0x20 ADD PUSH1 0x0 KECCAK256 DUP2 SWAP1 SSTORE POP POP DUP6 PUSH20 0xFFFFFFFFFFFFFFFFFFFFFFFFFFFFFFFFFFFFFFFF AND DUP8 PUSH20 0xFFFFFFFFFFFFFFFFFFFFFFFFFFFFFFFFFFFFFFFF AND PUSH32 0x8C5BE1E5EBEC7D5BD14F71427D1E84F3DD0314C0F7B2291E5B200AC8C7C3B925 DUP8 PUSH1 0x40 MLOAD PUSH2 0x18EC SWAP2 SWAP1 PUSH2 0x2594 JUMP JUMPDEST PUSH1 0x40 MLOAD DUP1 SWAP2 SUB SWAP1 LOG3 POP POP POP POP POP POP POP JUMP JUMPDEST PUSH1 0x0 PUSH1 0x3 PUSH1 0x0 DUP4 PUSH20 0xFFFFFFFFFFFFFFFFFFFFFFFFFFFFFFFFFFFFFFFF AND PUSH20 0xFFFFFFFFFFFFFFFFFFFFFFFFFFFFFFFFFFFFFFFF AND DUP2 MSTORE PUSH1 0x20 ADD SWAP1 DUP2 MSTORE PUSH1 0x20 ADD PUSH1 0x0 KECCAK256 SLOAD SWAP1 POP SWAP2 SWAP1 POP JUMP JUMPDEST PUSH1 0x4 PUSH1 0x20 MSTORE DUP2 PUSH1 0x0 MSTORE PUSH1 0x40 PUSH1 0x0 KECCAK256 PUSH1 0x20 MSTORE DUP1 PUSH1 0x0 MSTORE PUSH1 0x40 PUSH1 0x0 KECCAK256 PUSH1 0x0 SWAP2 POP SWAP2 POP POP SLOAD DUP2 JUMP JUMPDEST PUSH1 0x0 PUSH2 0x1976 DUP3 PUSH2 0x1578 JUMP JUMPDEST SWAP1 POP SWAP2 SWAP1 POP JUMP JUMPDEST PUSH1 0x0 DUP3 DUP5 MUL SWAP1 POP DUP3 DUP5 DUP3 DIV EQ DUP5 ISZERO OR DUP3 ISZERO ISZERO AND PUSH2 0x1999 JUMPI PUSH1 0x0 DUP1 REVERT JUMPDEST DUP2 DUP2 DIV SWAP1 POP SWAP4 SWAP3 POP POP POP JUMP JUMPDEST PUSH1 0x0 DUP3 DUP5 MUL SWAP1 POP DUP3 DUP5 DUP3 DIV EQ DUP5 ISZERO OR DUP3 ISZERO ISZERO AND PUSH2 0x19C1 JUMPI PUSH1 0x0 DUP1 REVERT JUMPDEST PUSH1 0x1 DUP3 PUSH1 0x1 DUP4 SUB DIV ADD DUP2 ISZERO ISZERO MUL SWAP1 POP SWAP4 SWAP3 POP POP POP JUMP JUMPDEST PUSH1 0x0 PUSH32 0x8B73C3C69BB8FE3D512ECC4CF759CC79239F7B179B0FFACAA9A75D522B39400F PUSH1 0x0 PUSH1 0x40 MLOAD PUSH2 0x1A09 SWAP2 SWAP1 PUSH2 0x22FF JUMP JUMPDEST PUSH1 0x40 MLOAD DUP1 SWAP2 SUB SWAP1 KECCAK256 PUSH32 0xC89EFDAA54C0F20C7ADF612882DF0950F5A951637E0307CDCB4C672F298B8BC6 CHAINID ADDRESS PUSH1 0x40 MLOAD PUSH1 0x20 ADD PUSH2 0x1A48 SWAP6 SWAP5 SWAP4 SWAP3 SWAP2 SWAP1 PUSH2 0x23FF JUMP JUMPDEST PUSH1 0x40 MLOAD PUSH1 0x20 DUP2 DUP4 SUB SUB DUP2 MSTORE SWAP1 PUSH1 0x40 MSTORE DUP1 MLOAD SWAP1 PUSH1 0x20 ADD KECCAK256 SWAP1 POP SWAP1 JUMP JUMPDEST PUSH1 0x0 PUSH1 0x40 MLOAD PUSH32 0x23B872DD00000000000000000000000000000000000000000000000000000000 DUP2 MSTORE DUP5 PUSH1 0x4 DUP3 ADD MSTORE DUP4 PUSH1 0x24 DUP3 ADD MSTORE DUP3 PUSH1 0x44 DUP3 ADD MSTORE PUSH1 0x20 PUSH1 0x0 PUSH1 0x64 DUP4 PUSH1 0x0 DUP11 GAS CALL RETURNDATASIZE ISZERO PUSH1 0x1F RETURNDATASIZE GT PUSH1 0x1 PUSH1 0x0 MLOAD EQ AND OR AND SWAP2 POP POP DUP1 PUSH2 0x1AFB JUMPI PUSH1 0x40 MLOAD PUSH32 0x8C379A000000000000000000000000000000000000000000000000000000000 DUP2 MSTORE PUSH1 0x4 ADD PUSH2 0x1AF2 SWAP1 PUSH2 0x24F4 JUMP JUMPDEST PUSH1 0x40 MLOAD DUP1 SWAP2 SUB SWAP1 REVERT JUMPDEST POP POP POP POP POP JUMP JUMPDEST DUP1 PUSH1 0x2 PUSH1 0x0 DUP3 DUP3 SLOAD PUSH2 0x1B14 SWAP2 SWAP1 PUSH2 0x263A JUMP JUMPDEST SWAP3 POP POP DUP2 SWAP1 SSTORE POP DUP1 PUSH1 0x3 PUSH1 0x0 DUP5 PUSH20 0xFFFFFFFFFFFFFFFFFFFFFFFFFFFFFFFFFFFFFFFF AND PUSH20 0xFFFFFFFFFFFFFFFFFFFFFFFFFFFFFFFFFFFFFFFF AND DUP2 MSTORE PUSH1 0x20 ADD SWAP1 DUP2 MSTORE PUSH1 0x20 ADD PUSH1 0x0 KECCAK256 PUSH1 0x0 DUP3 DUP3 SLOAD ADD SWAP3 POP POP DUP2 SWAP1 SSTORE POP DUP2 PUSH20 0xFFFFFFFFFFFFFFFFFFFFFFFFFFFFFFFFFFFFFFFF AND PUSH1 0x0 PUSH20 0xFFFFFFFFFFFFFFFFFFFFFFFFFFFFFFFFFFFFFFFF AND PUSH32 0xDDF252AD1BE2C89B69C2B068FC378DAA952BA7F163C4A11628F55A4DF523B3EF DUP4 PUSH1 0x40 MLOAD PUSH2 0x1BC6 SWAP2 SWAP1 PUSH2 0x2594 JUMP JUMPDEST PUSH1 0x40 MLOAD DUP1 SWAP2 SUB SWAP1 LOG3 POP POP JUMP JUMPDEST POP POP JUMP JUMPDEST POP POP JUMP JUMPDEST DUP1 PUSH1 0x3 PUSH1 0x0 DUP5 PUSH20 0xFFFFFFFFFFFFFFFFFFFFFFFFFFFFFFFFFFFFFFFF AND PUSH20 0xFFFFFFFFFFFFFFFFFFFFFFFFFFFFFFFFFFFFFFFF AND DUP2 MSTORE PUSH1 0x20 ADD SWAP1 DUP2 MSTORE PUSH1 0x20 ADD PUSH1 0x0 KECCAK256 PUSH1 0x0 DUP3 DUP3 SLOAD PUSH2 0x1C29 SWAP2 SWAP1 PUSH2 0x2690 JUMP JUMPDEST SWAP3 POP POP DUP2 SWAP1 SSTORE POP DUP1 PUSH1 0x2 PUSH1 0x0 DUP3 DUP3 SLOAD SUB SWAP3 POP POP DUP2 SWAP1 SSTORE POP PUSH1 0x0 PUSH20 0xFFFFFFFFFFFFFFFFFFFFFFFFFFFFFFFFFFFFFFFF AND DUP3 PUSH20 0xFFFFFFFFFFFFFFFFFFFFFFFFFFFFFFFFFFFFFFFF AND PUSH32 0xDDF252AD1BE2C89B69C2B068FC378DAA952BA7F163C4A11628F55A4DF523B3EF DUP4 PUSH1 0x40 MLOAD PUSH2 0x1C9E SWAP2 SWAP1 PUSH2 0x2594 JUMP JUMPDEST PUSH1 0x40 MLOAD DUP1 SWAP2 SUB SWAP1 LOG3 POP POP JUMP JUMPDEST PUSH1 0x0 PUSH1 0x40 MLOAD PUSH32 0xA9059CBB00000000000000000000000000000000000000000000000000000000 DUP2 MSTORE DUP4 PUSH1 0x4 DUP3 ADD MSTORE DUP3 PUSH1 0x24 DUP3 ADD MSTORE PUSH1 0x20 PUSH1 0x0 PUSH1 0x44 DUP4 PUSH1 0x0 DUP10 GAS CALL RETURNDATASIZE ISZERO PUSH1 0x1F RETURNDATASIZE GT PUSH1 0x1 PUSH1 0x0 MLOAD EQ AND OR AND SWAP2 POP POP DUP1 PUSH2 0x1D3C JUMPI PUSH1 0x40 MLOAD PUSH32 0x8C379A000000000000000000000000000000000000000000000000000000000 DUP2 MSTORE PUSH1 0x4 ADD PUSH2 0x1D33 SWAP1 PUSH2 0x2514 JUMP JUMPDEST PUSH1 0x40 MLOAD DUP1 SWAP2 SUB SWAP1 REVERT JUMPDEST POP POP POP POP JUMP JUMPDEST PUSH1 0x0 DUP2 CALLDATALOAD SWAP1 POP PUSH2 0x1D51 DUP2 PUSH2 0x2825 JUMP JUMPDEST SWAP3 SWAP2 POP POP JUMP JUMPDEST PUSH1 0x0 DUP2 CALLDATALOAD SWAP1 POP PUSH2 0x1D66 DUP2 PUSH2 0x283C JUMP JUMPDEST SWAP3 SWAP2 POP POP JUMP JUMPDEST PUSH1 0x0 DUP2 CALLDATALOAD SWAP1 POP PUSH2 0x1D7B DUP2 PUSH2 0x2853 JUMP JUMPDEST SWAP3 SWAP2 POP POP JUMP JUMPDEST PUSH1 0x0 DUP2 MLOAD SWAP1 POP PUSH2 0x1D90 DUP2 PUSH2 0x2853 JUMP JUMPDEST SWAP3 SWAP2 POP POP JUMP JUMPDEST PUSH1 0x0 DUP2 CALLDATALOAD SWAP1 POP PUSH2 0x1DA5 DUP2 PUSH2 0x286A JUMP JUMPDEST SWAP3 SWAP2 POP POP JUMP JUMPDEST PUSH1 0x0 PUSH1 0x20 DUP3 DUP5 SUB SLT ISZERO PUSH2 0x1DBD JUMPI PUSH1 0x0 DUP1 REVERT JUMPDEST PUSH1 0x0 PUSH2 0x1DCB DUP5 DUP3 DUP6 ADD PUSH2 0x1D42 JUMP JUMPDEST SWAP2 POP POP SWAP3 SWAP2 POP POP JUMP JUMPDEST PUSH1 0x0 DUP1 PUSH1 0x40 DUP4 DUP6 SUB SLT ISZERO PUSH2 0x1DE7 JUMPI PUSH1 0x0 DUP1 REVERT JUMPDEST PUSH1 0x0 PUSH2 0x1DF5 DUP6 DUP3 DUP7 ADD PUSH2 0x1D42 JUMP JUMPDEST SWAP3 POP POP PUSH1 0x20 PUSH2 0x1E06 DUP6 DUP3 DUP7 ADD PUSH2 0x1D42 JUMP JUMPDEST SWAP2 POP POP SWAP3 POP SWAP3 SWAP1 POP JUMP JUMPDEST PUSH1 0x0 DUP1 PUSH1 0x0 PUSH1 0x60 DUP5 DUP7 SUB SLT ISZERO PUSH2 0x1E25 JUMPI PUSH1 0x0 DUP1 REVERT JUMPDEST PUSH1 0x0 PUSH2 0x1E33 DUP7 DUP3 DUP8 ADD PUSH2 0x1D42 JUMP JUMPDEST SWAP4 POP POP PUSH1 0x20 PUSH2 0x1E44 DUP7 DUP3 DUP8 ADD PUSH2 0x1D42 JUMP JUMPDEST SWAP3 POP POP PUSH1 0x40 PUSH2 0x1E55 DUP7 DUP3 DUP8 ADD PUSH2 0x1D6C JUMP JUMPDEST SWAP2 POP POP SWAP3 POP SWAP3 POP SWAP3 JUMP JUMPDEST PUSH1 0x0 DUP1 PUSH1 0x0 DUP1 PUSH1 0x0 DUP1 PUSH1 0x0 PUSH1 0xE0 DUP9 DUP11 SUB SLT ISZERO PUSH2 0x1E7A JUMPI PUSH1 0x0 DUP1 REVERT JUMPDEST PUSH1 0x0 PUSH2 0x1E88 DUP11 DUP3 DUP12 ADD PUSH2 0x1D42 JUMP JUMPDEST SWAP8 POP POP PUSH1 0x20 PUSH2 0x1E99 DUP11 DUP3 DUP12 ADD PUSH2 0x1D42 JUMP JUMPDEST SWAP7 POP POP PUSH1 0x40 PUSH2 0x1EAA DUP11 DUP3 DUP12 ADD PUSH2 0x1D6C JUMP JUMPDEST SWAP6 POP POP PUSH1 0x60 PUSH2 0x1EBB DUP11 DUP3 DUP12 ADD PUSH2 0x1D6C JUMP JUMPDEST SWAP5 POP POP PUSH1 0x80 PUSH2 0x1ECC DUP11 DUP3 DUP12 ADD PUSH2 0x1D96 JUMP JUMPDEST SWAP4 POP POP PUSH1 0xA0 PUSH2 0x1EDD DUP11 DUP3 DUP12 ADD PUSH2 0x1D57 JUMP JUMPDEST SWAP3 POP POP PUSH1 0xC0 PUSH2 0x1EEE DUP11 DUP3 DUP12 ADD PUSH2 0x1D57 JUMP JUMPDEST SWAP2 POP POP SWAP3 SWAP6 SWAP9 SWAP2 SWAP5 SWAP8 POP SWAP3 SWAP6 POP JUMP JUMPDEST PUSH1 0x0 DUP1 PUSH1 0x40 DUP4 DUP6 SUB SLT ISZERO PUSH2 0x1F10 JUMPI PUSH1 0x0 DUP1 REVERT JUMPDEST PUSH1 0x0 PUSH2 0x1F1E DUP6 DUP3 DUP7 ADD PUSH2 0x1D42 JUMP JUMPDEST SWAP3 POP POP PUSH1 0x20 PUSH2 0x1F2F DUP6 DUP3 DUP7 ADD PUSH2 0x1D6C JUMP JUMPDEST SWAP2 POP POP SWAP3 POP SWAP3 SWAP1 POP JUMP JUMPDEST PUSH1 0x0 PUSH1 0x20 DUP3 DUP5 SUB SLT ISZERO PUSH2 0x1F4B JUMPI PUSH1 0x0 DUP1 REVERT JUMPDEST PUSH1 0x0 PUSH2 0x1F59 DUP5 DUP3 DUP6 ADD PUSH2 0x1D6C JUMP JUMPDEST SWAP2 POP POP SWAP3 SWAP2 POP POP JUMP JUMPDEST PUSH1 0x0 PUSH1 0x20 DUP3 DUP5 SUB SLT ISZERO PUSH2 0x1F74 JUMPI PUSH1 0x0 DUP1 REVERT JUMPDEST PUSH1 0x0 PUSH2 0x1F82 DUP5 DUP3 DUP6 ADD PUSH2 0x1D81 JUMP JUMPDEST SWAP2 POP POP SWAP3 SWAP2 POP POP JUMP JUMPDEST PUSH1 0x0 DUP1 PUSH1 0x40 DUP4 DUP6 SUB SLT ISZERO PUSH2 0x1F9E JUMPI PUSH1 0x0 DUP1 REVERT JUMPDEST PUSH1 0x0 PUSH2 0x1FAC DUP6 DUP3 DUP7 ADD PUSH2 0x1D6C JUMP JUMPDEST SWAP3 POP POP PUSH1 0x20 PUSH2 0x1FBD DUP6 DUP3 DUP7 ADD PUSH2 0x1D42 JUMP JUMPDEST SWAP2 POP POP SWAP3 POP SWAP3 SWAP1 POP JUMP JUMPDEST PUSH1 0x0 DUP1 PUSH1 0x0 PUSH1 0x60 DUP5 DUP7 SUB SLT ISZERO PUSH2 0x1FDC JUMPI PUSH1 0x0 DUP1 REVERT JUMPDEST PUSH1 0x0 PUSH2 0x1FEA DUP7 DUP3 DUP8 ADD PUSH2 0x1D6C JUMP JUMPDEST SWAP4 POP POP PUSH1 0x20 PUSH2 0x1FFB DUP7 DUP3 DUP8 ADD PUSH2 0x1D42 JUMP JUMPDEST SWAP3 POP POP PUSH1 0x40 PUSH2 0x200C DUP7 DUP3 DUP8 ADD PUSH2 0x1D42 JUMP JUMPDEST SWAP2 POP POP SWAP3 POP SWAP3 POP SWAP3 JUMP JUMPDEST PUSH2 0x201F DUP2 PUSH2 0x26C4 JUMP JUMPDEST DUP3 MSTORE POP POP JUMP JUMPDEST PUSH2 0x202E DUP2 PUSH2 0x26D6 JUMP JUMPDEST DUP3 MSTORE POP POP JUMP JUMPDEST PUSH2 0x203D DUP2 PUSH2 0x26E2 JUMP JUMPDEST DUP3 MSTORE POP POP JUMP JUMPDEST PUSH2 0x2054 PUSH2 0x204F DUP3 PUSH2 0x26E2 JUMP JUMPDEST PUSH2 0x27AC JUMP JUMPDEST DUP3 MSTORE POP POP JUMP JUMPDEST PUSH1 0x0 DUP2 SLOAD PUSH2 0x2067 DUP2 PUSH2 0x277A JUMP JUMPDEST PUSH2 0x2071 DUP2 DUP7 PUSH2 0x2613 JUMP JUMPDEST SWAP5 POP PUSH1 0x1 DUP3 AND PUSH1 0x0 DUP2 EQ PUSH2 0x208C JUMPI PUSH1 0x1 DUP2 EQ PUSH2 0x209D JUMPI PUSH2 0x20D0 JUMP JUMPDEST PUSH1 0xFF NOT DUP4 AND DUP7 MSTORE DUP2 DUP7 ADD SWAP4 POP PUSH2 0x20D0 JUMP JUMPDEST PUSH2 0x20A6 DUP6 PUSH2 0x25F3 JUMP JUMPDEST PUSH1 0x0 JUMPDEST DUP4 DUP2 LT ISZERO PUSH2 0x20C8 JUMPI DUP2 SLOAD DUP2 DUP10 ADD MSTORE PUSH1 0x1 DUP3 ADD SWAP2 POP PUSH1 0x20 DUP2 ADD SWAP1 POP PUSH2 0x20A9 JUMP JUMPDEST DUP4 DUP9 ADD SWAP6 POP POP POP JUMPDEST POP POP POP SWAP3 SWAP2 POP POP JUMP JUMPDEST PUSH2 0x20E2 DUP2 PUSH2 0x2723 JUMP JUMPDEST DUP3 MSTORE POP POP JUMP JUMPDEST PUSH1 0x0 PUSH2 0x20F3 DUP3 PUSH2 0x2608 JUMP JUMPDEST PUSH2 0x20FD DUP2 DUP6 PUSH2 0x261E JUMP JUMPDEST SWAP4 POP PUSH2 0x210D DUP2 DUP6 PUSH1 0x20 DUP7 ADD PUSH2 0x2747 JUMP JUMPDEST PUSH2 0x2116 DUP2 PUSH2 0x2814 JUMP JUMPDEST DUP5 ADD SWAP2 POP POP SWAP3 SWAP2 POP POP JUMP JUMPDEST PUSH1 0x0 PUSH2 0x212E PUSH1 0xB DUP4 PUSH2 0x261E JUMP JUMPDEST SWAP2 POP PUSH32 0x5A45524F5F534841524553000000000000000000000000000000000000000000 PUSH1 0x0 DUP4 ADD MSTORE PUSH1 0x20 DUP3 ADD SWAP1 POP SWAP2 SWAP1 POP JUMP JUMPDEST PUSH1 0x0 PUSH2 0x216E PUSH1 0x2 DUP4 PUSH2 0x262F JUMP JUMPDEST SWAP2 POP PUSH32 0x1901000000000000000000000000000000000000000000000000000000000000 PUSH1 0x0 DUP4 ADD MSTORE PUSH1 0x2 DUP3 ADD SWAP1 POP SWAP2 SWAP1 POP JUMP JUMPDEST PUSH1 0x0 PUSH2 0x21AE PUSH1 0x14 DUP4 PUSH2 0x261E JUMP JUMPDEST SWAP2 POP PUSH32 0x5452414E534645525F46524F4D5F4641494C4544000000000000000000000000 PUSH1 0x0 DUP4 ADD MSTORE PUSH1 0x20 DUP3 ADD SWAP1 POP SWAP2 SWAP1 POP JUMP JUMPDEST PUSH1 0x0 PUSH2 0x21EE PUSH1 0xF DUP4 PUSH2 0x261E JUMP JUMPDEST SWAP2 POP PUSH32 0x5452414E534645525F4641494C45440000000000000000000000000000000000 PUSH1 0x0 DUP4 ADD MSTORE PUSH1 0x20 DUP3 ADD SWAP1 POP SWAP2 SWAP1 POP JUMP JUMPDEST PUSH1 0x0 PUSH2 0x222E PUSH1 0xE DUP4 PUSH2 0x261E JUMP JUMPDEST SWAP2 POP PUSH32 0x494E56414C49445F5349474E4552000000000000000000000000000000000000 PUSH1 0x0 DUP4 ADD MSTORE PUSH1 0x20 DUP3 ADD SWAP1 POP SWAP2 SWAP1 POP JUMP JUMPDEST PUSH1 0x0 PUSH2 0x226E PUSH1 0xB DUP4 PUSH2 0x261E JUMP JUMPDEST SWAP2 POP PUSH32 0x5A45524F5F415353455453000000000000000000000000000000000000000000 PUSH1 0x0 DUP4 ADD MSTORE PUSH1 0x20 DUP3 ADD SWAP1 POP SWAP2 SWAP1 POP JUMP JUMPDEST PUSH1 0x0 PUSH2 0x22AE PUSH1 0x17 DUP4 PUSH2 0x261E JUMP JUMPDEST SWAP2 POP PUSH32 0x5045524D49545F444541444C494E455F45585049524544000000000000000000 PUSH1 0x0 DUP4 ADD MSTORE PUSH1 0x20 DUP3 ADD SWAP1 POP SWAP2 SWAP1 POP JUMP JUMPDEST PUSH2 0x22EA DUP2 PUSH2 0x270C JUMP JUMPDEST DUP3 MSTORE POP POP JUMP JUMPDEST PUSH2 0x22F9 DUP2 PUSH2 0x2716 JUMP JUMPDEST DUP3 MSTORE POP POP JUMP JUMPDEST PUSH1 0x0 PUSH2 0x230B DUP3 DUP5 PUSH2 0x205A JUMP JUMPDEST SWAP2 POP DUP2 SWAP1 POP SWAP3 SWAP2 POP POP JUMP JUMPDEST PUSH1 0x0 PUSH2 0x2321 DUP3 PUSH2 0x2161 JUMP JUMPDEST SWAP2 POP PUSH2 0x232D DUP3 DUP6 PUSH2 0x2043 JUMP JUMPDEST PUSH1 0x20 DUP3 ADD SWAP2 POP PUSH2 0x233D DUP3 DUP5 PUSH2 0x2043 JUMP JUMPDEST PUSH1 0x20 DUP3 ADD SWAP2 POP DUP2 SWAP1 POP SWAP4 SWAP3 POP POP POP JUMP JUMPDEST PUSH1 0x0 PUSH1 0x20 DUP3 ADD SWAP1 POP PUSH2 0x2362 PUSH1 0x0 DUP4 ADD DUP5 PUSH2 0x2016 JUMP JUMPDEST SWAP3 SWAP2 POP POP JUMP JUMPDEST PUSH1 0x0 PUSH1 0x20 DUP3 ADD SWAP1 POP PUSH2 0x237D PUSH1 0x0 DUP4 ADD DUP5 PUSH2 0x2025 JUMP JUMPDEST SWAP3 SWAP2 POP POP JUMP JUMPDEST PUSH1 0x0 PUSH1 0x20 DUP3 ADD SWAP1 POP PUSH2 0x2398 PUSH1 0x0 DUP4 ADD DUP5 PUSH2 0x2034 JUMP JUMPDEST SWAP3 SWAP2 POP POP JUMP JUMPDEST PUSH1 0x0 PUSH1 0xC0 DUP3 ADD SWAP1 POP PUSH2 0x23B3 PUSH1 0x0 DUP4 ADD DUP10 PUSH2 0x2034 JUMP JUMPDEST PUSH2 0x23C0 PUSH1 0x20 DUP4 ADD DUP9 PUSH2 0x2016 JUMP JUMPDEST PUSH2 0x23CD PUSH1 0x40 DUP4 ADD DUP8 PUSH2 0x2016 JUMP JUMPDEST PUSH2 0x23DA PUSH1 0x60 DUP4 ADD DUP7 PUSH2 0x22E1 JUMP JUMPDEST PUSH2 0x23E7 PUSH1 0x80 DUP4 ADD DUP6 PUSH2 0x22E1 JUMP JUMPDEST PUSH2 0x23F4 PUSH1 0xA0 DUP4 ADD DUP5 PUSH2 0x22E1 JUMP JUMPDEST SWAP8 SWAP7 POP POP POP POP POP POP POP JUMP JUMPDEST PUSH1 0x0 PUSH1 0xA0 DUP3 ADD SWAP1 POP PUSH2 0x2414 PUSH1 0x0 DUP4 ADD DUP9 PUSH2 0x2034 JUMP JUMPDEST PUSH2 0x2421 PUSH1 0x20 DUP4 ADD DUP8 PUSH2 0x2034 JUMP JUMPDEST PUSH2 0x242E PUSH1 0x40 DUP4 ADD DUP7 PUSH2 0x2034 JUMP JUMPDEST PUSH2 0x243B PUSH1 0x60 DUP4 ADD DUP6 PUSH2 0x22E1 JUMP JUMPDEST PUSH2 0x2448 PUSH1 0x80 DUP4 ADD DUP5 PUSH2 0x2016 JUMP JUMPDEST SWAP7 SWAP6 POP POP POP POP POP POP JUMP JUMPDEST PUSH1 0x0 PUSH1 0x80 DUP3 ADD SWAP1 POP PUSH2 0x2467 PUSH1 0x0 DUP4 ADD DUP8 PUSH2 0x2034 JUMP JUMPDEST PUSH2 0x2474 PUSH1 0x20 DUP4 ADD DUP7 PUSH2 0x22F0 JUMP JUMPDEST PUSH2 0x2481 PUSH1 0x40 DUP4 ADD DUP6 PUSH2 0x2034 JUMP JUMPDEST PUSH2 0x248E PUSH1 0x60 DUP4 ADD DUP5 PUSH2 0x2034 JUMP JUMPDEST SWAP6 SWAP5 POP POP POP POP POP JUMP JUMPDEST PUSH1 0x0 PUSH1 0x20 DUP3 ADD SWAP1 POP PUSH2 0x24AC PUSH1 0x0 DUP4 ADD DUP5 PUSH2 0x20D9 JUMP JUMPDEST SWAP3 SWAP2 POP POP JUMP JUMPDEST PUSH1 0x0 PUSH1 0x20 DUP3 ADD SWAP1 POP DUP2 DUP2 SUB PUSH1 0x0 DUP4 ADD MSTORE PUSH2 0x24CC DUP2 DUP5 PUSH2 0x20E8 JUMP JUMPDEST SWAP1 POP SWAP3 SWAP2 POP POP JUMP JUMPDEST PUSH1 0x0 PUSH1 0x20 DUP3 ADD SWAP1 POP DUP2 DUP2 SUB PUSH1 0x0 DUP4 ADD MSTORE PUSH2 0x24ED DUP2 PUSH2 0x2121 JUMP JUMPDEST SWAP1 POP SWAP2 SWAP1 POP JUMP JUMPDEST PUSH1 0x0 PUSH1 0x20 DUP3 ADD SWAP1 POP DUP2 DUP2 SUB PUSH1 0x0 DUP4 ADD MSTORE PUSH2 0x250D DUP2 PUSH2 0x21A1 JUMP JUMPDEST SWAP1 POP SWAP2 SWAP1 POP JUMP JUMPDEST PUSH1 0x0 PUSH1 0x20 DUP3 ADD SWAP1 POP DUP2 DUP2 SUB PUSH1 0x0 DUP4 ADD MSTORE PUSH2 0x252D DUP2 PUSH2 0x21E1 JUMP JUMPDEST SWAP1 POP SWAP2 SWAP1 POP JUMP JUMPDEST PUSH1 0x0 PUSH1 0x20 DUP3 ADD SWAP1 POP DUP2 DUP2 SUB PUSH1 0x0 DUP4 ADD MSTORE PUSH2 0x254D DUP2 PUSH2 0x2221 JUMP JUMPDEST SWAP1 POP SWAP2 SWAP1 POP JUMP JUMPDEST PUSH1 0x0 PUSH1 0x20 DUP3 ADD SWAP1 POP DUP2 DUP2 SUB PUSH1 0x0 DUP4 ADD MSTORE PUSH2 0x256D DUP2 PUSH2 0x2261 JUMP JUMPDEST SWAP1 POP SWAP2 SWAP1 POP JUMP JUMPDEST PUSH1 0x0 PUSH1 0x20 DUP3 ADD SWAP1 POP DUP2 DUP2 SUB PUSH1 0x0 DUP4 ADD MSTORE PUSH2 0x258D DUP2 PUSH2 0x22A1 JUMP JUMPDEST SWAP1 POP SWAP2 SWAP1 POP JUMP JUMPDEST PUSH1 0x0 PUSH1 0x20 DUP3 ADD SWAP1 POP PUSH2 0x25A9 PUSH1 0x0 DUP4 ADD DUP5 PUSH2 0x22E1 JUMP JUMPDEST SWAP3 SWAP2 POP POP JUMP JUMPDEST PUSH1 0x0 PUSH1 0x40 DUP3 ADD SWAP1 POP PUSH2 0x25C4 PUSH1 0x0 DUP4 ADD DUP6 PUSH2 0x22E1 JUMP JUMPDEST PUSH2 0x25D1 PUSH1 0x20 DUP4 ADD DUP5 PUSH2 0x22E1 JUMP JUMPDEST SWAP4 SWAP3 POP POP POP JUMP JUMPDEST PUSH1 0x0 PUSH1 0x20 DUP3 ADD SWAP1 POP PUSH2 0x25ED PUSH1 0x0 DUP4 ADD DUP5 PUSH2 0x22F0 JUMP JUMPDEST SWAP3 SWAP2 POP POP JUMP JUMPDEST PUSH1 0x0 DUP2 SWAP1 POP DUP2 PUSH1 0x0 MSTORE PUSH1 0x20 PUSH1 0x0 KECCAK256 SWAP1 POP SWAP2 SWAP1 POP JUMP JUMPDEST PUSH1 0x0 DUP2 MLOAD SWAP1 POP SWAP2 SWAP1 POP JUMP JUMPDEST PUSH1 0x0 DUP2 SWAP1 POP SWAP3 SWAP2 POP POP JUMP JUMPDEST PUSH1 0x0 DUP3 DUP3 MSTORE PUSH1 0x20 DUP3 ADD SWAP1 POP SWAP3 SWAP2 POP POP JUMP JUMPDEST PUSH1 0x0 DUP2 SWAP1 POP SWAP3 SWAP2 POP POP JUMP JUMPDEST PUSH1 0x0 PUSH2 0x2645 DUP3 PUSH2 0x270C JUMP JUMPDEST SWAP2 POP PUSH2 0x2650 DUP4 PUSH2 0x270C JUMP JUMPDEST SWAP3 POP DUP3 PUSH32 0xFFFFFFFFFFFFFFFFFFFFFFFFFFFFFFFFFFFFFFFFFFFFFFFFFFFFFFFFFFFFFFFF SUB DUP3 GT ISZERO PUSH2 0x2685 JUMPI PUSH2 0x2684 PUSH2 0x27B6 JUMP JUMPDEST JUMPDEST DUP3 DUP3 ADD SWAP1 POP SWAP3 SWAP2 POP POP JUMP JUMPDEST PUSH1 0x0 PUSH2 0x269B DUP3 PUSH2 0x270C JUMP JUMPDEST SWAP2 POP PUSH2 0x26A6 DUP4 PUSH2 0x270C JUMP JUMPDEST SWAP3 POP DUP3 DUP3 LT ISZERO PUSH2 0x26B9 JUMPI PUSH2 0x26B8 PUSH2 0x27B6 JUMP JUMPDEST JUMPDEST DUP3 DUP3 SUB SWAP1 POP SWAP3 SWAP2 POP POP JUMP JUMPDEST PUSH1 0x0 PUSH2 0x26CF DUP3 PUSH2 0x26EC JUMP JUMPDEST SWAP1 POP SWAP2 SWAP1 POP JUMP JUMPDEST PUSH1 0x0 DUP2 ISZERO ISZERO SWAP1 POP SWAP2 SWAP1 POP JUMP JUMPDEST PUSH1 0x0 DUP2 SWAP1 POP SWAP2 SWAP1 POP JUMP JUMPDEST PUSH1 0x0 PUSH20 0xFFFFFFFFFFFFFFFFFFFFFFFFFFFFFFFFFFFFFFFF DUP3 AND SWAP1 POP SWAP2 SWAP1 POP JUMP JUMPDEST PUSH1 0x0 DUP2 SWAP1 POP SWAP2 SWAP1 POP JUMP JUMPDEST PUSH1 0x0 PUSH1 0xFF DUP3 AND SWAP1 POP SWAP2 SWAP1 POP JUMP JUMPDEST PUSH1 0x0 PUSH2 0x272E DUP3 PUSH2 0x2735 JUMP JUMPDEST SWAP1 POP SWAP2 SWAP1 POP JUMP JUMPDEST PUSH1 0x0 PUSH2 0x2740 DUP3 PUSH2 0x26EC JUMP JUMPDEST SWAP1 POP SWAP2 SWAP1 POP JUMP JUMPDEST PUSH1 0x0 JUMPDEST DUP4 DUP2 LT ISZERO PUSH2 0x2765 JUMPI DUP1 DUP3 ADD MLOAD DUP2 DUP5 ADD MSTORE PUSH1 0x20 DUP2 ADD SWAP1 POP PUSH2 0x274A JUMP JUMPDEST DUP4 DUP2 GT ISZERO PUSH2 0x2774 JUMPI PUSH1 0x0 DUP5 DUP5 ADD MSTORE JUMPDEST POP POP POP POP JUMP JUMPDEST PUSH1 0x0 PUSH1 0x2 DUP3 DIV SWAP1 POP PUSH1 0x1 DUP3 AND DUP1 PUSH2 0x2792 JUMPI PUSH1 0x7F DUP3 AND SWAP2 POP JUMPDEST PUSH1 0x20 DUP3 LT DUP2 EQ ISZERO PUSH2 0x27A6 JUMPI PUSH2 0x27A5 PUSH2 0x27E5 JUMP JUMPDEST JUMPDEST POP SWAP2 SWAP1 POP JUMP JUMPDEST PUSH1 0x0 DUP2 SWAP1 POP SWAP2 SWAP1 POP JUMP JUMPDEST PUSH32 0x4E487B7100000000000000000000000000000000000000000000000000000000 PUSH1 0x0 MSTORE PUSH1 0x11 PUSH1 0x4 MSTORE PUSH1 0x24 PUSH1 0x0 REVERT JUMPDEST PUSH32 0x4E487B7100000000000000000000000000000000000000000000000000000000 PUSH1 0x0 MSTORE PUSH1 0x22 PUSH1 0x4 MSTORE PUSH1 0x24 PUSH1 0x0 REVERT JUMPDEST PUSH1 0x0 PUSH1 0x1F NOT PUSH1 0x1F DUP4 ADD AND SWAP1 POP SWAP2 SWAP1 POP JUMP JUMPDEST PUSH2 0x282E DUP2 PUSH2 0x26C4 JUMP JUMPDEST DUP2 EQ PUSH2 0x2839 JUMPI PUSH1 0x0 DUP1 REVERT JUMPDEST POP JUMP JUMPDEST PUSH2 0x2845 DUP2 PUSH2 0x26E2 JUMP JUMPDEST DUP2 EQ PUSH2 0x2850 JUMPI PUSH1 0x0 DUP1 REVERT JUMPDEST POP JUMP JUMPDEST PUSH2 0x285C DUP2 PUSH2 0x270C JUMP JUMPDEST DUP2 EQ PUSH2 0x2867 JUMPI PUSH1 0x0 DUP1 REVERT JUMPDEST POP JUMP JUMPDEST PUSH2 0x2873 DUP2 PUSH2 0x2716 JUMP JUMPDEST DUP2 EQ PUSH2 0x287E JUMPI PUSH1 0x0 DUP1 REVERT JUMPDEST POP JUMP INVALID LOG2 PUSH5 0x6970667358 0x22 SLT KECCAK256 DUP9 PUSH11 0xAC8ED0458ED560AF0ACC01 CALLDATACOPY PUSH21 0x4836F531FAF40A96DA169DE15F0A414ABF64736F6C PUSH4 0x43000800 STOP CALLER "
				},
				"gasEstimates": {
					"creation": {
						"codeDepositCost": "2084600",
						"executionCost": "infinite",
						"totalCost": "infinite"
					},
					"external": {
						"DOMAIN_SEPARATOR()": "infinite",
						"allowance(address,address)": "infinite",
						"approve(address,uint256)": "infinite",
						"asset()": "infinite",
						"balanceOf(address)": "1625",
						"convertToAssets(uint256)": "infinite",
						"convertToShares(uint256)": "infinite",
						"decimals()": "infinite",
						"deposit(uint256,address)": "infinite",
						"maxDeposit(address)": "696",
						"maxMint(address)": "696",
						"maxRedeem(address)": "1607",
						"maxWithdraw(address)": "infinite",
						"mint(uint256,address)": "infinite",
						"name()": "infinite",
						"nonces(address)": "1560",
						"permit(address,address,uint256,uint256,uint8,bytes32,bytes32)": "infinite",
						"previewDeposit(uint256)": "infinite",
						"previewMint(uint256)": "infinite",
						"previewRedeem(uint256)": "infinite",
						"previewWithdraw(uint256)": "infinite",
						"redeem(uint256,address,address)": "infinite",
						"symbol()": "infinite",
						"totalAssets()": "infinite",
						"totalSupply()": "1219",
						"transfer(address,uint256)": "infinite",
						"transferFrom(address,address,uint256)": "infinite",
						"withdraw(uint256,address,address)": "infinite"
					},
					"internal": {
						"afterDeposit(uint256,uint256)": "13",
						"beforeWithdraw(uint256,uint256)": "13"
					}
				},
				"methodIdentifiers": {
					"DOMAIN_SEPARATOR()": "3644e515",
					"allowance(address,address)": "dd62ed3e",
					"approve(address,uint256)": "095ea7b3",
					"asset()": "38d52e0f",
					"balanceOf(address)": "70a08231",
					"convertToAssets(uint256)": "07a2d13a",
					"convertToShares(uint256)": "c6e6f592",
					"decimals()": "313ce567",
					"deposit(uint256,address)": "6e553f65",
					"maxDeposit(address)": "402d267d",
					"maxMint(address)": "c63d75b6",
					"maxRedeem(address)": "d905777e",
					"maxWithdraw(address)": "ce96cb77",
					"mint(uint256,address)": "94bf804d",
					"name()": "06fdde03",
					"nonces(address)": "7ecebe00",
					"permit(address,address,uint256,uint256,uint8,bytes32,bytes32)": "d505accf",
					"previewDeposit(uint256)": "ef8b30f7",
					"previewMint(uint256)": "b3d7f6b9",
					"previewRedeem(uint256)": "4cdad506",
					"previewWithdraw(uint256)": "0a28a477",
					"redeem(uint256,address,address)": "ba087652",
					"symbol()": "95d89b41",
					"totalAssets()": "01e1d114",
					"totalSupply()": "18160ddd",
					"transfer(address,uint256)": "a9059cbb",
					"transferFrom(address,address,uint256)": "23b872dd",
					"withdraw(uint256,address,address)": "b460af94"
				}
			},
			"storageLayout": {
				"storage": [
					{
						"astId": 550,
						"contract": "VaultStandard.sol:ERC4626",
						"label": "name",
						"offset": 0,
						"slot": "0",
						"type": "t_string_storage"
					},
					{
						"astId": 552,
						"contract": "VaultStandard.sol:ERC4626",
						"label": "symbol",
						"offset": 0,
						"slot": "1",
						"type": "t_string_storage"
					},
					{
						"astId": 556,
						"contract": "VaultStandard.sol:ERC4626",
						"label": "totalSupply",
						"offset": 0,
						"slot": "2",
						"type": "t_uint256"
					},
					{
						"astId": 560,
						"contract": "VaultStandard.sol:ERC4626",
						"label": "balanceOf",
						"offset": 0,
						"slot": "3",
						"type": "t_mapping(t_address,t_uint256)"
					},
					{
						"astId": 566,
						"contract": "VaultStandard.sol:ERC4626",
						"label": "allowance",
						"offset": 0,
						"slot": "4",
						"type": "t_mapping(t_address,t_mapping(t_address,t_uint256))"
					},
					{
						"astId": 574,
						"contract": "VaultStandard.sol:ERC4626",
						"label": "nonces",
						"offset": 0,
						"slot": "5",
						"type": "t_mapping(t_address,t_uint256)"
					}
				],
				"types": {
					"t_address": {
						"encoding": "inplace",
						"label": "address",
						"numberOfBytes": "20"
					},
					"t_mapping(t_address,t_mapping(t_address,t_uint256))": {
						"encoding": "mapping",
						"key": "t_address",
						"label": "mapping(address => mapping(address => uint256))",
						"numberOfBytes": "32",
						"value": "t_mapping(t_address,t_uint256)"
					},
					"t_mapping(t_address,t_uint256)": {
						"encoding": "mapping",
						"key": "t_address",
						"label": "mapping(address => uint256)",
						"numberOfBytes": "32",
						"value": "t_uint256"
					},
					"t_string_storage": {
						"encoding": "bytes",
						"label": "string",
						"numberOfBytes": "32"
					},
					"t_uint256": {
						"encoding": "inplace",
						"label": "uint256",
						"numberOfBytes": "32"
					}
				}
			},
			"userdoc": {
				"kind": "user",
				"methods": {},
				"notice": "Minimal ERC4626 tokenized Vault implementation.",
				"version": 1
			}
		}
	}
}